Archive member included to satisfy reference by file (symbol)

c:/st/stm32cubeide_1.7.0/stm32cubeide/plugins/com.st.stm32cube.ide.mcu.externaltools.gnu-tools-for-stm32.9-2020-q2-update.win32_2.0.0.202105311346/tools/bin/../lib/gcc/arm-none-eabi/9.3.1/../../../../arm-none-eabi/lib/thumb/v7e-m+fp/hard\libc_nano.a(lib_a-errno.o)
                              ./bsp/evk/syscalls.o (__errno)
c:/st/stm32cubeide_1.7.0/stm32cubeide/plugins/com.st.stm32cube.ide.mcu.externaltools.gnu-tools-for-stm32.9-2020-q2-update.win32_2.0.0.202105311346/tools/bin/../lib/gcc/arm-none-eabi/9.3.1/../../../../arm-none-eabi/lib/thumb/v7e-m+fp/hard\libc_nano.a(lib_a-exit.o)
                              c:/st/stm32cubeide_1.7.0/stm32cubeide/plugins/com.st.stm32cube.ide.mcu.externaltools.gnu-tools-for-stm32.9-2020-q2-update.win32_2.0.0.202105311346/tools/bin/../lib/gcc/arm-none-eabi/9.3.1/../../../../arm-none-eabi/lib/thumb/v7e-m+fp/hard/crt0.o (exit)
c:/st/stm32cubeide_1.7.0/stm32cubeide/plugins/com.st.stm32cube.ide.mcu.externaltools.gnu-tools-for-stm32.9-2020-q2-update.win32_2.0.0.202105311346/tools/bin/../lib/gcc/arm-none-eabi/9.3.1/../../../../arm-none-eabi/lib/thumb/v7e-m+fp/hard\libc_nano.a(lib_a-impure.o)
                              c:/st/stm32cubeide_1.7.0/stm32cubeide/plugins/com.st.stm32cube.ide.mcu.externaltools.gnu-tools-for-stm32.9-2020-q2-update.win32_2.0.0.202105311346/tools/bin/../lib/gcc/arm-none-eabi/9.3.1/../../../../arm-none-eabi/lib/thumb/v7e-m+fp/hard\libc_nano.a(lib_a-exit.o) (_global_impure_ptr)
c:/st/stm32cubeide_1.7.0/stm32cubeide/plugins/com.st.stm32cube.ide.mcu.externaltools.gnu-tools-for-stm32.9-2020-q2-update.win32_2.0.0.202105311346/tools/bin/../lib/gcc/arm-none-eabi/9.3.1/../../../../arm-none-eabi/lib/thumb/v7e-m+fp/hard\libc_nano.a(lib_a-init.o)
                              c:/st/stm32cubeide_1.7.0/stm32cubeide/plugins/com.st.stm32cube.ide.mcu.externaltools.gnu-tools-for-stm32.9-2020-q2-update.win32_2.0.0.202105311346/tools/bin/../lib/gcc/arm-none-eabi/9.3.1/../../../../arm-none-eabi/lib/thumb/v7e-m+fp/hard/crt0.o (__libc_init_array)
c:/st/stm32cubeide_1.7.0/stm32cubeide/plugins/com.st.stm32cube.ide.mcu.externaltools.gnu-tools-for-stm32.9-2020-q2-update.win32_2.0.0.202105311346/tools/bin/../lib/gcc/arm-none-eabi/9.3.1/../../../../arm-none-eabi/lib/thumb/v7e-m+fp/hard\libc_nano.a(lib_a-memcpy-stub.o)
                              ./bsp/evk/bsp_flash.o (memcpy)
c:/st/stm32cubeide_1.7.0/stm32cubeide/plugins/com.st.stm32cube.ide.mcu.externaltools.gnu-tools-for-stm32.9-2020-q2-update.win32_2.0.0.202105311346/tools/bin/../lib/gcc/arm-none-eabi/9.3.1/../../../../arm-none-eabi/lib/thumb/v7e-m+fp/hard\libc_nano.a(lib_a-memset.o)
                              c:/st/stm32cubeide_1.7.0/stm32cubeide/plugins/com.st.stm32cube.ide.mcu.externaltools.gnu-tools-for-stm32.9-2020-q2-update.win32_2.0.0.202105311346/tools/bin/../lib/gcc/arm-none-eabi/9.3.1/../../../../arm-none-eabi/lib/thumb/v7e-m+fp/hard/crt0.o (memset)
c:/st/stm32cubeide_1.7.0/stm32cubeide/plugins/com.st.stm32cube.ide.mcu.externaltools.gnu-tools-for-stm32.9-2020-q2-update.win32_2.0.0.202105311346/tools/bin/../lib/gcc/arm-none-eabi/9.3.1/../../../../arm-none-eabi/lib/thumb/v7e-m+fp/hard\libc_nano.a(lib_a-rand.o)
                              ./core/wireless/link/link_channel_hopping.o (srand)
c:/st/stm32cubeide_1.7.0/stm32cubeide/plugins/com.st.stm32cube.ide.mcu.externaltools.gnu-tools-for-stm32.9-2020-q2-update.win32_2.0.0.202105311346/tools/bin/../lib/gcc/arm-none-eabi/9.3.1/../../../../arm-none-eabi/lib/thumb/v7e-m+fp/hard\libc_nano.a(lib_a-snprintf.o)
                              ./app/star_network.o (snprintf)
c:/st/stm32cubeide_1.7.0/stm32cubeide/plugins/com.st.stm32cube.ide.mcu.externaltools.gnu-tools-for-stm32.9-2020-q2-update.win32_2.0.0.202105311346/tools/bin/../lib/gcc/arm-none-eabi/9.3.1/../../../../arm-none-eabi/lib/thumb/v7e-m+fp/hard\libc_nano.a(lib_a-strlen.o)
                              ./app/star_network.o (strlen)
c:/st/stm32cubeide_1.7.0/stm32cubeide/plugins/com.st.stm32cube.ide.mcu.externaltools.gnu-tools-for-stm32.9-2020-q2-update.win32_2.0.0.202105311346/tools/bin/../lib/gcc/arm-none-eabi/9.3.1/../../../../arm-none-eabi/lib/thumb/v7e-m+fp/hard\libc_nano.a(lib_a-strncat.o)
                              ./core/ranging/ranging_algorithm_private.o (strncat)
c:/st/stm32cubeide_1.7.0/stm32cubeide/plugins/com.st.stm32cube.ide.mcu.externaltools.gnu-tools-for-stm32.9-2020-q2-update.win32_2.0.0.202105311346/tools/bin/../lib/gcc/arm-none-eabi/9.3.1/../../../../arm-none-eabi/lib/thumb/v7e-m+fp/hard\libc_nano.a(lib_a-strncpy.o)
                              ./core/ranging/ranging_algorithm_private.o (strncpy)
c:/st/stm32cubeide_1.7.0/stm32cubeide/plugins/com.st.stm32cube.ide.mcu.externaltools.gnu-tools-for-stm32.9-2020-q2-update.win32_2.0.0.202105311346/tools/bin/../lib/gcc/arm-none-eabi/9.3.1/../../../../arm-none-eabi/lib/thumb/v7e-m+fp/hard\libc_nano.a(lib_a-vsprintf.o)
                              ./app/star_network.o (vsprintf)
c:/st/stm32cubeide_1.7.0/stm32cubeide/plugins/com.st.stm32cube.ide.mcu.externaltools.gnu-tools-for-stm32.9-2020-q2-update.win32_2.0.0.202105311346/tools/bin/../lib/gcc/arm-none-eabi/9.3.1/../../../../arm-none-eabi/lib/thumb/v7e-m+fp/hard\libc_nano.a(lib_a-assert.o)
                              c:/st/stm32cubeide_1.7.0/stm32cubeide/plugins/com.st.stm32cube.ide.mcu.externaltools.gnu-tools-for-stm32.9-2020-q2-update.win32_2.0.0.202105311346/tools/bin/../lib/gcc/arm-none-eabi/9.3.1/../../../../arm-none-eabi/lib/thumb/v7e-m+fp/hard\libc_nano.a(lib_a-rand.o) (__assert_func)
c:/st/stm32cubeide_1.7.0/stm32cubeide/plugins/com.st.stm32cube.ide.mcu.externaltools.gnu-tools-for-stm32.9-2020-q2-update.win32_2.0.0.202105311346/tools/bin/../lib/gcc/arm-none-eabi/9.3.1/../../../../arm-none-eabi/lib/thumb/v7e-m+fp/hard\libc_nano.a(lib_a-fprintf.o)
                              c:/st/stm32cubeide_1.7.0/stm32cubeide/plugins/com.st.stm32cube.ide.mcu.externaltools.gnu-tools-for-stm32.9-2020-q2-update.win32_2.0.0.202105311346/tools/bin/../lib/gcc/arm-none-eabi/9.3.1/../../../../arm-none-eabi/lib/thumb/v7e-m+fp/hard\libc_nano.a(lib_a-assert.o) (fiprintf)
c:/st/stm32cubeide_1.7.0/stm32cubeide/plugins/com.st.stm32cube.ide.mcu.externaltools.gnu-tools-for-stm32.9-2020-q2-update.win32_2.0.0.202105311346/tools/bin/../lib/gcc/arm-none-eabi/9.3.1/../../../../arm-none-eabi/lib/thumb/v7e-m+fp/hard\libc_nano.a(lib_a-malloc.o)
                              c:/st/stm32cubeide_1.7.0/stm32cubeide/plugins/com.st.stm32cube.ide.mcu.externaltools.gnu-tools-for-stm32.9-2020-q2-update.win32_2.0.0.202105311346/tools/bin/../lib/gcc/arm-none-eabi/9.3.1/../../../../arm-none-eabi/lib/thumb/v7e-m+fp/hard\libc_nano.a(lib_a-rand.o) (malloc)
c:/st/stm32cubeide_1.7.0/stm32cubeide/plugins/com.st.stm32cube.ide.mcu.externaltools.gnu-tools-for-stm32.9-2020-q2-update.win32_2.0.0.202105311346/tools/bin/../lib/gcc/arm-none-eabi/9.3.1/../../../../arm-none-eabi/lib/thumb/v7e-m+fp/hard\libc_nano.a(lib_a-nano-freer.o)
                              c:/st/stm32cubeide_1.7.0/stm32cubeide/plugins/com.st.stm32cube.ide.mcu.externaltools.gnu-tools-for-stm32.9-2020-q2-update.win32_2.0.0.202105311346/tools/bin/../lib/gcc/arm-none-eabi/9.3.1/../../../../arm-none-eabi/lib/thumb/v7e-m+fp/hard\libc_nano.a(lib_a-malloc.o) (_free_r)
c:/st/stm32cubeide_1.7.0/stm32cubeide/plugins/com.st.stm32cube.ide.mcu.externaltools.gnu-tools-for-stm32.9-2020-q2-update.win32_2.0.0.202105311346/tools/bin/../lib/gcc/arm-none-eabi/9.3.1/../../../../arm-none-eabi/lib/thumb/v7e-m+fp/hard\libc_nano.a(lib_a-nano-mallocr.o)
                              c:/st/stm32cubeide_1.7.0/stm32cubeide/plugins/com.st.stm32cube.ide.mcu.externaltools.gnu-tools-for-stm32.9-2020-q2-update.win32_2.0.0.202105311346/tools/bin/../lib/gcc/arm-none-eabi/9.3.1/../../../../arm-none-eabi/lib/thumb/v7e-m+fp/hard\libc_nano.a(lib_a-malloc.o) (_malloc_r)
c:/st/stm32cubeide_1.7.0/stm32cubeide/plugins/com.st.stm32cube.ide.mcu.externaltools.gnu-tools-for-stm32.9-2020-q2-update.win32_2.0.0.202105311346/tools/bin/../lib/gcc/arm-none-eabi/9.3.1/../../../../arm-none-eabi/lib/thumb/v7e-m+fp/hard\libc_nano.a(lib_a-nano-svfprintf.o)
                              c:/st/stm32cubeide_1.7.0/stm32cubeide/plugins/com.st.stm32cube.ide.mcu.externaltools.gnu-tools-for-stm32.9-2020-q2-update.win32_2.0.0.202105311346/tools/bin/../lib/gcc/arm-none-eabi/9.3.1/../../../../arm-none-eabi/lib/thumb/v7e-m+fp/hard\libc_nano.a(lib_a-snprintf.o) (_svfprintf_r)
c:/st/stm32cubeide_1.7.0/stm32cubeide/plugins/com.st.stm32cube.ide.mcu.externaltools.gnu-tools-for-stm32.9-2020-q2-update.win32_2.0.0.202105311346/tools/bin/../lib/gcc/arm-none-eabi/9.3.1/../../../../arm-none-eabi/lib/thumb/v7e-m+fp/hard\libc_nano.a(lib_a-nano-vfprintf.o)
                              c:/st/stm32cubeide_1.7.0/stm32cubeide/plugins/com.st.stm32cube.ide.mcu.externaltools.gnu-tools-for-stm32.9-2020-q2-update.win32_2.0.0.202105311346/tools/bin/../lib/gcc/arm-none-eabi/9.3.1/../../../../arm-none-eabi/lib/thumb/v7e-m+fp/hard\libc_nano.a(lib_a-fprintf.o) (_vfprintf_r)
c:/st/stm32cubeide_1.7.0/stm32cubeide/plugins/com.st.stm32cube.ide.mcu.externaltools.gnu-tools-for-stm32.9-2020-q2-update.win32_2.0.0.202105311346/tools/bin/../lib/gcc/arm-none-eabi/9.3.1/../../../../arm-none-eabi/lib/thumb/v7e-m+fp/hard\libc_nano.a(lib_a-nano-vfprintf_i.o)
                              c:/st/stm32cubeide_1.7.0/stm32cubeide/plugins/com.st.stm32cube.ide.mcu.externaltools.gnu-tools-for-stm32.9-2020-q2-update.win32_2.0.0.202105311346/tools/bin/../lib/gcc/arm-none-eabi/9.3.1/../../../../arm-none-eabi/lib/thumb/v7e-m+fp/hard\libc_nano.a(lib_a-nano-svfprintf.o) (_printf_i)
c:/st/stm32cubeide_1.7.0/stm32cubeide/plugins/com.st.stm32cube.ide.mcu.externaltools.gnu-tools-for-stm32.9-2020-q2-update.win32_2.0.0.202105311346/tools/bin/../lib/gcc/arm-none-eabi/9.3.1/../../../../arm-none-eabi/lib/thumb/v7e-m+fp/hard\libc_nano.a(lib_a-sbrkr.o)
                              c:/st/stm32cubeide_1.7.0/stm32cubeide/plugins/com.st.stm32cube.ide.mcu.externaltools.gnu-tools-for-stm32.9-2020-q2-update.win32_2.0.0.202105311346/tools/bin/../lib/gcc/arm-none-eabi/9.3.1/../../../../arm-none-eabi/lib/thumb/v7e-m+fp/hard\libc_nano.a(lib_a-nano-mallocr.o) (_sbrk_r)
c:/st/stm32cubeide_1.7.0/stm32cubeide/plugins/com.st.stm32cube.ide.mcu.externaltools.gnu-tools-for-stm32.9-2020-q2-update.win32_2.0.0.202105311346/tools/bin/../lib/gcc/arm-none-eabi/9.3.1/../../../../arm-none-eabi/lib/thumb/v7e-m+fp/hard\libc_nano.a(lib_a-wbuf.o)
                              c:/st/stm32cubeide_1.7.0/stm32cubeide/plugins/com.st.stm32cube.ide.mcu.externaltools.gnu-tools-for-stm32.9-2020-q2-update.win32_2.0.0.202105311346/tools/bin/../lib/gcc/arm-none-eabi/9.3.1/../../../../arm-none-eabi/lib/thumb/v7e-m+fp/hard\libc_nano.a(lib_a-nano-vfprintf.o) (__swbuf_r)
c:/st/stm32cubeide_1.7.0/stm32cubeide/plugins/com.st.stm32cube.ide.mcu.externaltools.gnu-tools-for-stm32.9-2020-q2-update.win32_2.0.0.202105311346/tools/bin/../lib/gcc/arm-none-eabi/9.3.1/../../../../arm-none-eabi/lib/thumb/v7e-m+fp/hard\libc_nano.a(lib_a-wsetup.o)
                              c:/st/stm32cubeide_1.7.0/stm32cubeide/plugins/com.st.stm32cube.ide.mcu.externaltools.gnu-tools-for-stm32.9-2020-q2-update.win32_2.0.0.202105311346/tools/bin/../lib/gcc/arm-none-eabi/9.3.1/../../../../arm-none-eabi/lib/thumb/v7e-m+fp/hard\libc_nano.a(lib_a-nano-vfprintf.o) (__swsetup_r)
c:/st/stm32cubeide_1.7.0/stm32cubeide/plugins/com.st.stm32cube.ide.mcu.externaltools.gnu-tools-for-stm32.9-2020-q2-update.win32_2.0.0.202105311346/tools/bin/../lib/gcc/arm-none-eabi/9.3.1/../../../../arm-none-eabi/lib/thumb/v7e-m+fp/hard\libc_nano.a(lib_a-abort.o)
                              c:/st/stm32cubeide_1.7.0/stm32cubeide/plugins/com.st.stm32cube.ide.mcu.externaltools.gnu-tools-for-stm32.9-2020-q2-update.win32_2.0.0.202105311346/tools/bin/../lib/gcc/arm-none-eabi/9.3.1/../../../../arm-none-eabi/lib/thumb/v7e-m+fp/hard\libc_nano.a(lib_a-assert.o) (abort)
c:/st/stm32cubeide_1.7.0/stm32cubeide/plugins/com.st.stm32cube.ide.mcu.externaltools.gnu-tools-for-stm32.9-2020-q2-update.win32_2.0.0.202105311346/tools/bin/../lib/gcc/arm-none-eabi/9.3.1/../../../../arm-none-eabi/lib/thumb/v7e-m+fp/hard\libc_nano.a(lib_a-fflush.o)
                              c:/st/stm32cubeide_1.7.0/stm32cubeide/plugins/com.st.stm32cube.ide.mcu.externaltools.gnu-tools-for-stm32.9-2020-q2-update.win32_2.0.0.202105311346/tools/bin/../lib/gcc/arm-none-eabi/9.3.1/../../../../arm-none-eabi/lib/thumb/v7e-m+fp/hard\libc_nano.a(lib_a-wbuf.o) (_fflush_r)
c:/st/stm32cubeide_1.7.0/stm32cubeide/plugins/com.st.stm32cube.ide.mcu.externaltools.gnu-tools-for-stm32.9-2020-q2-update.win32_2.0.0.202105311346/tools/bin/../lib/gcc/arm-none-eabi/9.3.1/../../../../arm-none-eabi/lib/thumb/v7e-m+fp/hard\libc_nano.a(lib_a-findfp.o)
                              c:/st/stm32cubeide_1.7.0/stm32cubeide/plugins/com.st.stm32cube.ide.mcu.externaltools.gnu-tools-for-stm32.9-2020-q2-update.win32_2.0.0.202105311346/tools/bin/../lib/gcc/arm-none-eabi/9.3.1/../../../../arm-none-eabi/lib/thumb/v7e-m+fp/hard\libc_nano.a(lib_a-nano-vfprintf.o) (__sinit)
c:/st/stm32cubeide_1.7.0/stm32cubeide/plugins/com.st.stm32cube.ide.mcu.externaltools.gnu-tools-for-stm32.9-2020-q2-update.win32_2.0.0.202105311346/tools/bin/../lib/gcc/arm-none-eabi/9.3.1/../../../../arm-none-eabi/lib/thumb/v7e-m+fp/hard\libc_nano.a(lib_a-fvwrite.o)
                              c:/st/stm32cubeide_1.7.0/stm32cubeide/plugins/com.st.stm32cube.ide.mcu.externaltools.gnu-tools-for-stm32.9-2020-q2-update.win32_2.0.0.202105311346/tools/bin/../lib/gcc/arm-none-eabi/9.3.1/../../../../arm-none-eabi/lib/thumb/v7e-m+fp/hard\libc_nano.a(lib_a-nano-vfprintf.o) (__sfvwrite_r)
c:/st/stm32cubeide_1.7.0/stm32cubeide/plugins/com.st.stm32cube.ide.mcu.externaltools.gnu-tools-for-stm32.9-2020-q2-update.win32_2.0.0.202105311346/tools/bin/../lib/gcc/arm-none-eabi/9.3.1/../../../../arm-none-eabi/lib/thumb/v7e-m+fp/hard\libc_nano.a(lib_a-fwalk.o)
                              c:/st/stm32cubeide_1.7.0/stm32cubeide/plugins/com.st.stm32cube.ide.mcu.externaltools.gnu-tools-for-stm32.9-2020-q2-update.win32_2.0.0.202105311346/tools/bin/../lib/gcc/arm-none-eabi/9.3.1/../../../../arm-none-eabi/lib/thumb/v7e-m+fp/hard\libc_nano.a(lib_a-findfp.o) (_fwalk)
c:/st/stm32cubeide_1.7.0/stm32cubeide/plugins/com.st.stm32cube.ide.mcu.externaltools.gnu-tools-for-stm32.9-2020-q2-update.win32_2.0.0.202105311346/tools/bin/../lib/gcc/arm-none-eabi/9.3.1/../../../../arm-none-eabi/lib/thumb/v7e-m+fp/hard\libc_nano.a(lib_a-lock.o)
                              c:/st/stm32cubeide_1.7.0/stm32cubeide/plugins/com.st.stm32cube.ide.mcu.externaltools.gnu-tools-for-stm32.9-2020-q2-update.win32_2.0.0.202105311346/tools/bin/../lib/gcc/arm-none-eabi/9.3.1/../../../../arm-none-eabi/lib/thumb/v7e-m+fp/hard\libc_nano.a(lib_a-findfp.o) (__retarget_lock_init_recursive)
c:/st/stm32cubeide_1.7.0/stm32cubeide/plugins/com.st.stm32cube.ide.mcu.externaltools.gnu-tools-for-stm32.9-2020-q2-update.win32_2.0.0.202105311346/tools/bin/../lib/gcc/arm-none-eabi/9.3.1/../../../../arm-none-eabi/lib/thumb/v7e-m+fp/hard\libc_nano.a(lib_a-makebuf.o)
                              c:/st/stm32cubeide_1.7.0/stm32cubeide/plugins/com.st.stm32cube.ide.mcu.externaltools.gnu-tools-for-stm32.9-2020-q2-update.win32_2.0.0.202105311346/tools/bin/../lib/gcc/arm-none-eabi/9.3.1/../../../../arm-none-eabi/lib/thumb/v7e-m+fp/hard\libc_nano.a(lib_a-wsetup.o) (__smakebuf_r)
c:/st/stm32cubeide_1.7.0/stm32cubeide/plugins/com.st.stm32cube.ide.mcu.externaltools.gnu-tools-for-stm32.9-2020-q2-update.win32_2.0.0.202105311346/tools/bin/../lib/gcc/arm-none-eabi/9.3.1/../../../../arm-none-eabi/lib/thumb/v7e-m+fp/hard\libc_nano.a(lib_a-memchr.o)
                              c:/st/stm32cubeide_1.7.0/stm32cubeide/plugins/com.st.stm32cube.ide.mcu.externaltools.gnu-tools-for-stm32.9-2020-q2-update.win32_2.0.0.202105311346/tools/bin/../lib/gcc/arm-none-eabi/9.3.1/../../../../arm-none-eabi/lib/thumb/v7e-m+fp/hard\libc_nano.a(lib_a-nano-svfprintf.o) (memchr)
c:/st/stm32cubeide_1.7.0/stm32cubeide/plugins/com.st.stm32cube.ide.mcu.externaltools.gnu-tools-for-stm32.9-2020-q2-update.win32_2.0.0.202105311346/tools/bin/../lib/gcc/arm-none-eabi/9.3.1/../../../../arm-none-eabi/lib/thumb/v7e-m+fp/hard\libc_nano.a(lib_a-memmove.o)
                              c:/st/stm32cubeide_1.7.0/stm32cubeide/plugins/com.st.stm32cube.ide.mcu.externaltools.gnu-tools-for-stm32.9-2020-q2-update.win32_2.0.0.202105311346/tools/bin/../lib/gcc/arm-none-eabi/9.3.1/../../../../arm-none-eabi/lib/thumb/v7e-m+fp/hard\libc_nano.a(lib_a-nano-svfprintf.o) (memmove)
c:/st/stm32cubeide_1.7.0/stm32cubeide/plugins/com.st.stm32cube.ide.mcu.externaltools.gnu-tools-for-stm32.9-2020-q2-update.win32_2.0.0.202105311346/tools/bin/../lib/gcc/arm-none-eabi/9.3.1/../../../../arm-none-eabi/lib/thumb/v7e-m+fp/hard\libc_nano.a(lib_a-mlock.o)
                              c:/st/stm32cubeide_1.7.0/stm32cubeide/plugins/com.st.stm32cube.ide.mcu.externaltools.gnu-tools-for-stm32.9-2020-q2-update.win32_2.0.0.202105311346/tools/bin/../lib/gcc/arm-none-eabi/9.3.1/../../../../arm-none-eabi/lib/thumb/v7e-m+fp/hard\libc_nano.a(lib_a-nano-freer.o) (__malloc_lock)
c:/st/stm32cubeide_1.7.0/stm32cubeide/plugins/com.st.stm32cube.ide.mcu.externaltools.gnu-tools-for-stm32.9-2020-q2-update.win32_2.0.0.202105311346/tools/bin/../lib/gcc/arm-none-eabi/9.3.1/../../../../arm-none-eabi/lib/thumb/v7e-m+fp/hard\libc_nano.a(lib_a-nano-reallocr.o)
                              c:/st/stm32cubeide_1.7.0/stm32cubeide/plugins/com.st.stm32cube.ide.mcu.externaltools.gnu-tools-for-stm32.9-2020-q2-update.win32_2.0.0.202105311346/tools/bin/../lib/gcc/arm-none-eabi/9.3.1/../../../../arm-none-eabi/lib/thumb/v7e-m+fp/hard\libc_nano.a(lib_a-nano-svfprintf.o) (_realloc_r)
c:/st/stm32cubeide_1.7.0/stm32cubeide/plugins/com.st.stm32cube.ide.mcu.externaltools.gnu-tools-for-stm32.9-2020-q2-update.win32_2.0.0.202105311346/tools/bin/../lib/gcc/arm-none-eabi/9.3.1/../../../../arm-none-eabi/lib/thumb/v7e-m+fp/hard\libc_nano.a(lib_a-reent.o)
                              c:/st/stm32cubeide_1.7.0/stm32cubeide/plugins/com.st.stm32cube.ide.mcu.externaltools.gnu-tools-for-stm32.9-2020-q2-update.win32_2.0.0.202105311346/tools/bin/../lib/gcc/arm-none-eabi/9.3.1/../../../../arm-none-eabi/lib/thumb/v7e-m+fp/hard\libc_nano.a(lib_a-sbrkr.o) (errno)
c:/st/stm32cubeide_1.7.0/stm32cubeide/plugins/com.st.stm32cube.ide.mcu.externaltools.gnu-tools-for-stm32.9-2020-q2-update.win32_2.0.0.202105311346/tools/bin/../lib/gcc/arm-none-eabi/9.3.1/../../../../arm-none-eabi/lib/thumb/v7e-m+fp/hard\libc_nano.a(lib_a-signal.o)
                              c:/st/stm32cubeide_1.7.0/stm32cubeide/plugins/com.st.stm32cube.ide.mcu.externaltools.gnu-tools-for-stm32.9-2020-q2-update.win32_2.0.0.202105311346/tools/bin/../lib/gcc/arm-none-eabi/9.3.1/../../../../arm-none-eabi/lib/thumb/v7e-m+fp/hard\libc_nano.a(lib_a-abort.o) (raise)
c:/st/stm32cubeide_1.7.0/stm32cubeide/plugins/com.st.stm32cube.ide.mcu.externaltools.gnu-tools-for-stm32.9-2020-q2-update.win32_2.0.0.202105311346/tools/bin/../lib/gcc/arm-none-eabi/9.3.1/../../../../arm-none-eabi/lib/thumb/v7e-m+fp/hard\libc_nano.a(lib_a-signalr.o)
                              c:/st/stm32cubeide_1.7.0/stm32cubeide/plugins/com.st.stm32cube.ide.mcu.externaltools.gnu-tools-for-stm32.9-2020-q2-update.win32_2.0.0.202105311346/tools/bin/../lib/gcc/arm-none-eabi/9.3.1/../../../../arm-none-eabi/lib/thumb/v7e-m+fp/hard\libc_nano.a(lib_a-signal.o) (_kill_r)
c:/st/stm32cubeide_1.7.0/stm32cubeide/plugins/com.st.stm32cube.ide.mcu.externaltools.gnu-tools-for-stm32.9-2020-q2-update.win32_2.0.0.202105311346/tools/bin/../lib/gcc/arm-none-eabi/9.3.1/../../../../arm-none-eabi/lib/thumb/v7e-m+fp/hard\libc_nano.a(lib_a-stdio.o)
                              c:/st/stm32cubeide_1.7.0/stm32cubeide/plugins/com.st.stm32cube.ide.mcu.externaltools.gnu-tools-for-stm32.9-2020-q2-update.win32_2.0.0.202105311346/tools/bin/../lib/gcc/arm-none-eabi/9.3.1/../../../../arm-none-eabi/lib/thumb/v7e-m+fp/hard\libc_nano.a(lib_a-findfp.o) (__sread)
c:/st/stm32cubeide_1.7.0/stm32cubeide/plugins/com.st.stm32cube.ide.mcu.externaltools.gnu-tools-for-stm32.9-2020-q2-update.win32_2.0.0.202105311346/tools/bin/../lib/gcc/arm-none-eabi/9.3.1/../../../../arm-none-eabi/lib/thumb/v7e-m+fp/hard\libc_nano.a(lib_a-writer.o)
                              c:/st/stm32cubeide_1.7.0/stm32cubeide/plugins/com.st.stm32cube.ide.mcu.externaltools.gnu-tools-for-stm32.9-2020-q2-update.win32_2.0.0.202105311346/tools/bin/../lib/gcc/arm-none-eabi/9.3.1/../../../../arm-none-eabi/lib/thumb/v7e-m+fp/hard\libc_nano.a(lib_a-stdio.o) (_write_r)
c:/st/stm32cubeide_1.7.0/stm32cubeide/plugins/com.st.stm32cube.ide.mcu.externaltools.gnu-tools-for-stm32.9-2020-q2-update.win32_2.0.0.202105311346/tools/bin/../lib/gcc/arm-none-eabi/9.3.1/../../../../arm-none-eabi/lib/thumb/v7e-m+fp/hard\libc_nano.a(lib_a-closer.o)
                              c:/st/stm32cubeide_1.7.0/stm32cubeide/plugins/com.st.stm32cube.ide.mcu.externaltools.gnu-tools-for-stm32.9-2020-q2-update.win32_2.0.0.202105311346/tools/bin/../lib/gcc/arm-none-eabi/9.3.1/../../../../arm-none-eabi/lib/thumb/v7e-m+fp/hard\libc_nano.a(lib_a-stdio.o) (_close_r)
c:/st/stm32cubeide_1.7.0/stm32cubeide/plugins/com.st.stm32cube.ide.mcu.externaltools.gnu-tools-for-stm32.9-2020-q2-update.win32_2.0.0.202105311346/tools/bin/../lib/gcc/arm-none-eabi/9.3.1/../../../../arm-none-eabi/lib/thumb/v7e-m+fp/hard\libc_nano.a(lib_a-fstatr.o)
                              c:/st/stm32cubeide_1.7.0/stm32cubeide/plugins/com.st.stm32cube.ide.mcu.externaltools.gnu-tools-for-stm32.9-2020-q2-update.win32_2.0.0.202105311346/tools/bin/../lib/gcc/arm-none-eabi/9.3.1/../../../../arm-none-eabi/lib/thumb/v7e-m+fp/hard\libc_nano.a(lib_a-makebuf.o) (_fstat_r)
c:/st/stm32cubeide_1.7.0/stm32cubeide/plugins/com.st.stm32cube.ide.mcu.externaltools.gnu-tools-for-stm32.9-2020-q2-update.win32_2.0.0.202105311346/tools/bin/../lib/gcc/arm-none-eabi/9.3.1/../../../../arm-none-eabi/lib/thumb/v7e-m+fp/hard\libc_nano.a(lib_a-isattyr.o)
                              c:/st/stm32cubeide_1.7.0/stm32cubeide/plugins/com.st.stm32cube.ide.mcu.externaltools.gnu-tools-for-stm32.9-2020-q2-update.win32_2.0.0.202105311346/tools/bin/../lib/gcc/arm-none-eabi/9.3.1/../../../../arm-none-eabi/lib/thumb/v7e-m+fp/hard\libc_nano.a(lib_a-makebuf.o) (_isatty_r)
c:/st/stm32cubeide_1.7.0/stm32cubeide/plugins/com.st.stm32cube.ide.mcu.externaltools.gnu-tools-for-stm32.9-2020-q2-update.win32_2.0.0.202105311346/tools/bin/../lib/gcc/arm-none-eabi/9.3.1/../../../../arm-none-eabi/lib/thumb/v7e-m+fp/hard\libc_nano.a(lib_a-lseekr.o)
                              c:/st/stm32cubeide_1.7.0/stm32cubeide/plugins/com.st.stm32cube.ide.mcu.externaltools.gnu-tools-for-stm32.9-2020-q2-update.win32_2.0.0.202105311346/tools/bin/../lib/gcc/arm-none-eabi/9.3.1/../../../../arm-none-eabi/lib/thumb/v7e-m+fp/hard\libc_nano.a(lib_a-stdio.o) (_lseek_r)
c:/st/stm32cubeide_1.7.0/stm32cubeide/plugins/com.st.stm32cube.ide.mcu.externaltools.gnu-tools-for-stm32.9-2020-q2-update.win32_2.0.0.202105311346/tools/bin/../lib/gcc/arm-none-eabi/9.3.1/../../../../arm-none-eabi/lib/thumb/v7e-m+fp/hard\libc_nano.a(lib_a-nano-msizer.o)
                              c:/st/stm32cubeide_1.7.0/stm32cubeide/plugins/com.st.stm32cube.ide.mcu.externaltools.gnu-tools-for-stm32.9-2020-q2-update.win32_2.0.0.202105311346/tools/bin/../lib/gcc/arm-none-eabi/9.3.1/../../../../arm-none-eabi/lib/thumb/v7e-m+fp/hard\libc_nano.a(lib_a-nano-reallocr.o) (_malloc_usable_size_r)
c:/st/stm32cubeide_1.7.0/stm32cubeide/plugins/com.st.stm32cube.ide.mcu.externaltools.gnu-tools-for-stm32.9-2020-q2-update.win32_2.0.0.202105311346/tools/bin/../lib/gcc/arm-none-eabi/9.3.1/../../../../arm-none-eabi/lib/thumb/v7e-m+fp/hard\libc_nano.a(lib_a-readr.o)
                              c:/st/stm32cubeide_1.7.0/stm32cubeide/plugins/com.st.stm32cube.ide.mcu.externaltools.gnu-tools-for-stm32.9-2020-q2-update.win32_2.0.0.202105311346/tools/bin/../lib/gcc/arm-none-eabi/9.3.1/../../../../arm-none-eabi/lib/thumb/v7e-m+fp/hard\libc_nano.a(lib_a-stdio.o) (_read_r)
c:/st/stm32cubeide_1.7.0/stm32cubeide/plugins/com.st.stm32cube.ide.mcu.externaltools.gnu-tools-for-stm32.9-2020-q2-update.win32_2.0.0.202105311346/tools/bin/../lib/gcc/arm-none-eabi/9.3.1/../../../../arm-none-eabi/lib/thumb/v7e-m+fp/hard\libm.a(lib_a-s_round.o)
                              ./core/ranging/ranging_algorithm.o (round)
c:/st/stm32cubeide_1.7.0/stm32cubeide/plugins/com.st.stm32cube.ide.mcu.externaltools.gnu-tools-for-stm32.9-2020-q2-update.win32_2.0.0.202105311346/tools/bin/../lib/gcc/arm-none-eabi/9.3.1/thumb/v7e-m+fp/hard\libgcc.a(_arm_muldf3.o)
                              ./core/ranging/ranging_base.o (__aeabi_dmul)
c:/st/stm32cubeide_1.7.0/stm32cubeide/plugins/com.st.stm32cube.ide.mcu.externaltools.gnu-tools-for-stm32.9-2020-q2-update.win32_2.0.0.202105311346/tools/bin/../lib/gcc/arm-none-eabi/9.3.1/thumb/v7e-m+fp/hard\libgcc.a(_arm_addsubdf3.o)
                              ./core/ranging/ranging_algorithm.o (__aeabi_dsub)
c:/st/stm32cubeide_1.7.0/stm32cubeide/plugins/com.st.stm32cube.ide.mcu.externaltools.gnu-tools-for-stm32.9-2020-q2-update.win32_2.0.0.202105311346/tools/bin/../lib/gcc/arm-none-eabi/9.3.1/thumb/v7e-m+fp/hard\libgcc.a(_arm_muldivdf3.o)
                              ./core/ranging/ranging_algorithm.o (__aeabi_ddiv)
c:/st/stm32cubeide_1.7.0/stm32cubeide/plugins/com.st.stm32cube.ide.mcu.externaltools.gnu-tools-for-stm32.9-2020-q2-update.win32_2.0.0.202105311346/tools/bin/../lib/gcc/arm-none-eabi/9.3.1/thumb/v7e-m+fp/hard\libgcc.a(_arm_cmpdf2.o)
                              ./core/ranging/ranging_algorithm.o (__aeabi_dcmplt)
c:/st/stm32cubeide_1.7.0/stm32cubeide/plugins/com.st.stm32cube.ide.mcu.externaltools.gnu-tools-for-stm32.9-2020-q2-update.win32_2.0.0.202105311346/tools/bin/../lib/gcc/arm-none-eabi/9.3.1/thumb/v7e-m+fp/hard\libgcc.a(_arm_fixunsdfsi.o)
                              ./core/ranging/ranging_algorithm.o (__aeabi_d2uiz)
c:/st/stm32cubeide_1.7.0/stm32cubeide/plugins/com.st.stm32cube.ide.mcu.externaltools.gnu-tools-for-stm32.9-2020-q2-update.win32_2.0.0.202105311346/tools/bin/../lib/gcc/arm-none-eabi/9.3.1/thumb/v7e-m+fp/hard\libgcc.a(_arm_truncdfsf2.o)
                              ./core/ranging/ranging_algorithm.o (__aeabi_d2f)
c:/st/stm32cubeide_1.7.0/stm32cubeide/plugins/com.st.stm32cube.ide.mcu.externaltools.gnu-tools-for-stm32.9-2020-q2-update.win32_2.0.0.202105311346/tools/bin/../lib/gcc/arm-none-eabi/9.3.1/thumb/v7e-m+fp/hard\libgcc.a(_aeabi_ldivmod.o)
                              ./core/wireless/transceiver/sr1000_api_adv.o (__aeabi_ldivmod)
c:/st/stm32cubeide_1.7.0/stm32cubeide/plugins/com.st.stm32cube.ide.mcu.externaltools.gnu-tools-for-stm32.9-2020-q2-update.win32_2.0.0.202105311346/tools/bin/../lib/gcc/arm-none-eabi/9.3.1/thumb/v7e-m+fp/hard\libgcc.a(_aeabi_uldivmod.o)
                              ./core/wireless/link/link_lqi.o (__aeabi_uldivmod)
c:/st/stm32cubeide_1.7.0/stm32cubeide/plugins/com.st.stm32cube.ide.mcu.externaltools.gnu-tools-for-stm32.9-2020-q2-update.win32_2.0.0.202105311346/tools/bin/../lib/gcc/arm-none-eabi/9.3.1/thumb/v7e-m+fp/hard\libgcc.a(_udivmoddi4.o)
                              c:/st/stm32cubeide_1.7.0/stm32cubeide/plugins/com.st.stm32cube.ide.mcu.externaltools.gnu-tools-for-stm32.9-2020-q2-update.win32_2.0.0.202105311346/tools/bin/../lib/gcc/arm-none-eabi/9.3.1/thumb/v7e-m+fp/hard\libgcc.a(_aeabi_ldivmod.o) (__udivmoddi4)
c:/st/stm32cubeide_1.7.0/stm32cubeide/plugins/com.st.stm32cube.ide.mcu.externaltools.gnu-tools-for-stm32.9-2020-q2-update.win32_2.0.0.202105311346/tools/bin/../lib/gcc/arm-none-eabi/9.3.1/thumb/v7e-m+fp/hard\libgcc.a(_dvmd_tls.o)
                              c:/st/stm32cubeide_1.7.0/stm32cubeide/plugins/com.st.stm32cube.ide.mcu.externaltools.gnu-tools-for-stm32.9-2020-q2-update.win32_2.0.0.202105311346/tools/bin/../lib/gcc/arm-none-eabi/9.3.1/thumb/v7e-m+fp/hard\libgcc.a(_aeabi_ldivmod.o) (__aeabi_ldiv0)

Allocating common symbols
Common symbol       size              file

hUsbDeviceFS        0x2d0             ./bsp/evk/usb_device/app/usb_device.o
__lock___atexit_recursive_mutex
                    0x1               c:/st/stm32cubeide_1.7.0/stm32cubeide/plugins/com.st.stm32cube.ide.mcu.externaltools.gnu-tools-for-stm32.9-2020-q2-update.win32_2.0.0.202105311346/tools/bin/../lib/gcc/arm-none-eabi/9.3.1/../../../../arm-none-eabi/lib/thumb/v7e-m+fp/hard\libc_nano.a(lib_a-lock.o)
hradio_dma_spi_tx   0x60              ./bsp/evk/bsp_radio.o
__lock___arc4random_mutex
                    0x1               c:/st/stm32cubeide_1.7.0/stm32cubeide/plugins/com.st.stm32cube.ide.mcu.externaltools.gnu-tools-for-stm32.9-2020-q2-update.win32_2.0.0.202105311346/tools/bin/../lib/gcc/arm-none-eabi/9.3.1/../../../../arm-none-eabi/lib/thumb/v7e-m+fp/hard\libc_nano.a(lib_a-lock.o)
errno               0x4               c:/st/stm32cubeide_1.7.0/stm32cubeide/plugins/com.st.stm32cube.ide.mcu.externaltools.gnu-tools-for-stm32.9-2020-q2-update.win32_2.0.0.202105311346/tools/bin/../lib/gcc/arm-none-eabi/9.3.1/../../../../arm-none-eabi/lib/thumb/v7e-m+fp/hard\libc_nano.a(lib_a-reent.o)
hradio_spi          0x64              ./bsp/evk/bsp_radio.o
hi2c1               0x4c              ./bsp/evk/bsp_audio.o
uwTick              0x4               ./lib/third-party/stmicroelectronics/stm32g4xx_hal_driver/Src/stm32g4xx_hal.o
__lock___env_recursive_mutex
                    0x1               c:/st/stm32cubeide_1.7.0/stm32cubeide/plugins/com.st.stm32cube.ide.mcu.externaltools.gnu-tools-for-stm32.9-2020-q2-update.win32_2.0.0.202105311346/tools/bin/../lib/gcc/arm-none-eabi/9.3.1/../../../../arm-none-eabi/lib/thumb/v7e-m+fp/hard\libc_nano.a(lib_a-lock.o)
__lock___sinit_recursive_mutex
                    0x1               c:/st/stm32cubeide_1.7.0/stm32cubeide/plugins/com.st.stm32cube.ide.mcu.externaltools.gnu-tools-for-stm32.9-2020-q2-update.win32_2.0.0.202105311346/tools/bin/../lib/gcc/arm-none-eabi/9.3.1/../../../../arm-none-eabi/lib/thumb/v7e-m+fp/hard\libc_nano.a(lib_a-lock.o)
hsai_block_a1       0xb4              ./bsp/evk/bsp_audio.o
htim5               0x4c              ./bsp/evk/bsp_clock.o
UserRxBufferFS      0x40              ./bsp/evk/usb_device/app/usbd_cdc_if.o
htim3               0x4c              ./bsp/evk/bsp_timer.o
htim20              0x4c              ./bsp/evk/bsp_timer.o
__lock___malloc_recursive_mutex
                    0x1               c:/st/stm32cubeide_1.7.0/stm32cubeide/plugins/com.st.stm32cube.ide.mcu.externaltools.gnu-tools-for-stm32.9-2020-q2-update.win32_2.0.0.202105311346/tools/bin/../lib/gcc/arm-none-eabi/9.3.1/../../../../arm-none-eabi/lib/thumb/v7e-m+fp/hard\libc_nano.a(lib_a-lock.o)
hdma_sai1_a         0x60              ./bsp/evk/bsp_audio.o
empty_rdo           0x8               ./core/wireless/protocol_stack/wps_l2.o
UserTxBufferFS      0x40              ./bsp/evk/usb_device/app/usbd_cdc_if.o
overrun_buffer      0xff              ./core/wireless/protocol_stack/wps_l2.o
htim6               0x4c              ./bsp/evk/bsp_timer.o
hdma_lpuart1_tx     0x60              ./bsp/evk/bsp_uart.o
hdma_lpuart1_rx     0x60              ./bsp/evk/bsp_uart.o
hdma_sai1_b         0x60              ./bsp/evk/bsp_audio.o
hlp_uart            0x90              ./bsp/evk/bsp_uart.o
hradio_dma_spi_rx   0x60              ./bsp/evk/bsp_radio.o
htim2               0x4c              ./bsp/evk/stm32g4xx_hal_timebase_tim.o
__lock___at_quick_exit_mutex
                    0x1               c:/st/stm32cubeide_1.7.0/stm32cubeide/plugins/com.st.stm32cube.ide.mcu.externaltools.gnu-tools-for-stm32.9-2020-q2-update.win32_2.0.0.202105311346/tools/bin/../lib/gcc/arm-none-eabi/9.3.1/../../../../arm-none-eabi/lib/thumb/v7e-m+fp/hard\libc_nano.a(lib_a-lock.o)
clk_freq            0x4               ./bsp/evk/bsp_clock.o
hsai_block_b1       0xb4              ./bsp/evk/bsp_audio.o
hpcd_USB_FS         0x2f4             ./bsp/evk/usb_device/target/usbd_conf.o
USBD_StrDesc        0x200             ./bsp/evk/usb_device/app/usbd_desc.o
__lock___dd_hash_mutex
                    0x1               c:/st/stm32cubeide_1.7.0/stm32cubeide/plugins/com.st.stm32cube.ide.mcu.externaltools.gnu-tools-for-stm32.9-2020-q2-update.win32_2.0.0.202105311346/tools/bin/../lib/gcc/arm-none-eabi/9.3.1/../../../../arm-none-eabi/lib/thumb/v7e-m+fp/hard\libc_nano.a(lib_a-lock.o)
__lock___tz_mutex   0x1               c:/st/stm32cubeide_1.7.0/stm32cubeide/plugins/com.st.stm32cube.ide.mcu.externaltools.gnu-tools-for-stm32.9-2020-q2-update.win32_2.0.0.202105311346/tools/bin/../lib/gcc/arm-none-eabi/9.3.1/../../../../arm-none-eabi/lib/thumb/v7e-m+fp/hard\libc_nano.a(lib_a-lock.o)
__lock___sfp_recursive_mutex
                    0x1               c:/st/stm32cubeide_1.7.0/stm32cubeide/plugins/com.st.stm32cube.ide.mcu.externaltools.gnu-tools-for-stm32.9-2020-q2-update.win32_2.0.0.202105311346/tools/bin/../lib/gcc/arm-none-eabi/9.3.1/../../../../arm-none-eabi/lib/thumb/v7e-m+fp/hard\libc_nano.a(lib_a-lock.o)

Discarded input sections

 .text          0x0000000000000000        0x0 c:/st/stm32cubeide_1.7.0/stm32cubeide/plugins/com.st.stm32cube.ide.mcu.externaltools.gnu-tools-for-stm32.9-2020-q2-update.win32_2.0.0.202105311346/tools/bin/../lib/gcc/arm-none-eabi/9.3.1/thumb/v7e-m+fp/hard/crti.o
 .data          0x0000000000000000        0x0 c:/st/stm32cubeide_1.7.0/stm32cubeide/plugins/com.st.stm32cube.ide.mcu.externaltools.gnu-tools-for-stm32.9-2020-q2-update.win32_2.0.0.202105311346/tools/bin/../lib/gcc/arm-none-eabi/9.3.1/thumb/v7e-m+fp/hard/crti.o
 .bss           0x0000000000000000        0x0 c:/st/stm32cubeide_1.7.0/stm32cubeide/plugins/com.st.stm32cube.ide.mcu.externaltools.gnu-tools-for-stm32.9-2020-q2-update.win32_2.0.0.202105311346/tools/bin/../lib/gcc/arm-none-eabi/9.3.1/thumb/v7e-m+fp/hard/crti.o
 .data          0x0000000000000000        0x4 c:/st/stm32cubeide_1.7.0/stm32cubeide/plugins/com.st.stm32cube.ide.mcu.externaltools.gnu-tools-for-stm32.9-2020-q2-update.win32_2.0.0.202105311346/tools/bin/../lib/gcc/arm-none-eabi/9.3.1/thumb/v7e-m+fp/hard/crtbegin.o
 .text          0x0000000000000000       0x7c c:/st/stm32cubeide_1.7.0/stm32cubeide/plugins/com.st.stm32cube.ide.mcu.externaltools.gnu-tools-for-stm32.9-2020-q2-update.win32_2.0.0.202105311346/tools/bin/../lib/gcc/arm-none-eabi/9.3.1/../../../../arm-none-eabi/lib/thumb/v7e-m+fp/hard/crt0.o
 .data          0x0000000000000000        0x0 c:/st/stm32cubeide_1.7.0/stm32cubeide/plugins/com.st.stm32cube.ide.mcu.externaltools.gnu-tools-for-stm32.9-2020-q2-update.win32_2.0.0.202105311346/tools/bin/../lib/gcc/arm-none-eabi/9.3.1/../../../../arm-none-eabi/lib/thumb/v7e-m+fp/hard/crt0.o
 .bss           0x0000000000000000        0x0 c:/st/stm32cubeide_1.7.0/stm32cubeide/plugins/com.st.stm32cube.ide.mcu.externaltools.gnu-tools-for-stm32.9-2020-q2-update.win32_2.0.0.202105311346/tools/bin/../lib/gcc/arm-none-eabi/9.3.1/../../../../arm-none-eabi/lib/thumb/v7e-m+fp/hard/crt0.o
 .ARM.extab     0x0000000000000000        0x0 c:/st/stm32cubeide_1.7.0/stm32cubeide/plugins/com.st.stm32cube.ide.mcu.externaltools.gnu-tools-for-stm32.9-2020-q2-update.win32_2.0.0.202105311346/tools/bin/../lib/gcc/arm-none-eabi/9.3.1/../../../../arm-none-eabi/lib/thumb/v7e-m+fp/hard/crt0.o
 .ARM.exidx     0x0000000000000000       0x10 c:/st/stm32cubeide_1.7.0/stm32cubeide/plugins/com.st.stm32cube.ide.mcu.externaltools.gnu-tools-for-stm32.9-2020-q2-update.win32_2.0.0.202105311346/tools/bin/../lib/gcc/arm-none-eabi/9.3.1/../../../../arm-none-eabi/lib/thumb/v7e-m+fp/hard/crt0.o
 .ARM.attributes
                0x0000000000000000       0x1c c:/st/stm32cubeide_1.7.0/stm32cubeide/plugins/com.st.stm32cube.ide.mcu.externaltools.gnu-tools-for-stm32.9-2020-q2-update.win32_2.0.0.202105311346/tools/bin/../lib/gcc/arm-none-eabi/9.3.1/../../../../arm-none-eabi/lib/thumb/v7e-m+fp/hard/crt0.o
 .group         0x0000000000000000        0xc ./app/star_network.o
 .group         0x0000000000000000        0xc ./app/star_network.o
 .group         0x0000000000000000        0xc ./app/star_network.o
 .group         0x0000000000000000        0xc ./app/star_network.o
 .group         0x0000000000000000        0xc ./app/star_network.o
 .group         0x0000000000000000        0xc ./app/star_network.o
 .group         0x0000000000000000        0xc ./app/star_network.o
Memory Configuration

Name             Origin             Length             Attributes
RAM              0x0000000020000000 0x0000000000020000 xrw
FLASH            0x0000000008000000 0x0000000000080000 xr
*default*        0x0000000000000000 0xffffffffffffffff

Linker script and memory map

LOAD c:/st/stm32cubeide_1.7.0/stm32cubeide/plugins/com.st.stm32cube.ide.mcu.externaltools.gnu-tools-for-stm32.9-2020-q2-update.win32_2.0.0.202105311346/tools/bin/../lib/gcc/arm-none-eabi/9.3.1/thumb/v7e-m+fp/hard/crti.o
LOAD c:/st/stm32cubeide_1.7.0/stm32cubeide/plugins/com.st.stm32cube.ide.mcu.externaltools.gnu-tools-for-stm32.9-2020-q2-update.win32_2.0.0.202105311346/tools/bin/../lib/gcc/arm-none-eabi/9.3.1/thumb/v7e-m+fp/hard/crtbegin.o
LOAD c:/st/stm32cubeide_1.7.0/stm32cubeide/plugins/com.st.stm32cube.ide.mcu.externaltools.gnu-tools-for-stm32.9-2020-q2-update.win32_2.0.0.202105311346/tools/bin/../lib/gcc/arm-none-eabi/9.3.1/../../../../arm-none-eabi/lib/thumb/v7e-m+fp/hard/crt0.o
LOAD ./app/star_network.o
LOAD ./bsp/evk/GCC/startup_stm32g473retx.o
LOAD ./bsp/evk/bsp.o
LOAD ./bsp/evk/bsp_audio.o
LOAD ./bsp/evk/bsp_button.o
LOAD ./bsp/evk/bsp_clock.o
LOAD ./bsp/evk/bsp_flash.o
LOAD ./bsp/evk/bsp_it.o
LOAD ./bsp/evk/bsp_led.o
LOAD ./bsp/evk/bsp_power.o
LOAD ./bsp/evk/bsp_radio.o
LOAD ./bsp/evk/bsp_timer.o
LOAD ./bsp/evk/bsp_uart.o
LOAD ./bsp/evk/bsp_usb.o
LOAD ./bsp/evk/stm32g4xx_hal_timebase_tim.o
LOAD ./bsp/evk/syscalls.o
LOAD ./bsp/evk/system_stm32g4xx.o
LOAD ./bsp/evk/usb_device/app/usb_device.o
LOAD ./bsp/evk/usb_device/app/usbd_cdc_if.o
LOAD ./bsp/evk/usb_device/app/usbd_desc.o
LOAD ./bsp/evk/usb_device/target/usbd_conf.o
LOAD ./core/ranging/ranging_algorithm.o
LOAD ./core/ranging/ranging_algorithm_private.o
LOAD ./core/ranging/ranging_base.o
LOAD ./core/ranging/ranging_base_fixed_point.o
LOAD ./core/wireless/link/link_cca.o
LOAD ./core/wireless/link/link_channel_hopping.o
LOAD ./core/wireless/link/link_gain_loop.o
LOAD ./core/wireless/link/link_lqi.o
LOAD ./core/wireless/link/link_multi_radio.o
LOAD ./core/wireless/link/link_protocol.o
LOAD ./core/wireless/link/link_random_datarate_offset.o
LOAD ./core/wireless/link/link_saw_arq.o
LOAD ./core/wireless/link/link_scheduler.o
LOAD ./core/wireless/link/link_tdma_sync.o
LOAD ./core/wireless/phy/sr1000_access.o
LOAD ./core/wireless/phy/sr1000_access_adv.o
LOAD ./core/wireless/phy/sr1000_calib.o
LOAD ./core/wireless/phy/sr1000_nvm.o
LOAD ./core/wireless/phy/sr1000_nvm_private.o
LOAD ./core/wireless/phy/sr1000_spectral.o
LOAD ./core/wireless/protocol_stack/wps.o
LOAD ./core/wireless/protocol_stack/wps_callback.o
LOAD ./core/wireless/protocol_stack/wps_l1.o
LOAD ./core/wireless/protocol_stack/wps_l2.o
LOAD ./core/wireless/protocol_stack/wps_process.o
LOAD ./core/wireless/protocol_stack/wps_stats.o
LOAD ./core/wireless/transceiver/sr1000_api.o
LOAD ./core/wireless/transceiver/sr1000_api_adv.o
LOAD ./lib/spark/buffer/uwb_circular_buffer.o
LOAD ./lib/spark/error/uwb_error.o
LOAD ./lib/spark/fixed_point/fixed_point.o
LOAD ./lib/spark/memory/mem_pool.o
LOAD ./lib/spark/queue/circular_queue.o
LOAD ./lib/spark/queue/queue.o
LOAD ./lib/third-party/stmicroelectronics/stm32_mw_usb_device/Class/CDC/Src/usbd_cdc.o
LOAD ./lib/third-party/stmicroelectronics/stm32_mw_usb_device/Class/CDC/Src/usbd_cdc_if_template.o
LOAD ./lib/third-party/stmicroelectronics/stm32_mw_usb_device/Core/Src/usbd_core.o
LOAD ./lib/third-party/stmicroelectronics/stm32_mw_usb_device/Core/Src/usbd_ctlreq.o
LOAD ./lib/third-party/stmicroelectronics/stm32_mw_usb_device/Core/Src/usbd_ioreq.o
LOAD ./lib/third-party/stmicroelectronics/stm32g4xx_hal_driver/Src/stm32g4xx_hal.o
LOAD ./lib/third-party/stmicroelectronics/stm32g4xx_hal_driver/Src/stm32g4xx_hal_adc.o
LOAD ./lib/third-party/stmicroelectronics/stm32g4xx_hal_driver/Src/stm32g4xx_hal_adc_ex.o
LOAD ./lib/third-party/stmicroelectronics/stm32g4xx_hal_driver/Src/stm32g4xx_hal_comp.o
LOAD ./lib/third-party/stmicroelectronics/stm32g4xx_hal_driver/Src/stm32g4xx_hal_cordic.o
LOAD ./lib/third-party/stmicroelectronics/stm32g4xx_hal_driver/Src/stm32g4xx_hal_cortex.o
LOAD ./lib/third-party/stmicroelectronics/stm32g4xx_hal_driver/Src/stm32g4xx_hal_crc.o
LOAD ./lib/third-party/stmicroelectronics/stm32g4xx_hal_driver/Src/stm32g4xx_hal_crc_ex.o
LOAD ./lib/third-party/stmicroelectronics/stm32g4xx_hal_driver/Src/stm32g4xx_hal_cryp.o
LOAD ./lib/third-party/stmicroelectronics/stm32g4xx_hal_driver/Src/stm32g4xx_hal_cryp_ex.o
LOAD ./lib/third-party/stmicroelectronics/stm32g4xx_hal_driver/Src/stm32g4xx_hal_dac.o
LOAD ./lib/third-party/stmicroelectronics/stm32g4xx_hal_driver/Src/stm32g4xx_hal_dac_ex.o
LOAD ./lib/third-party/stmicroelectronics/stm32g4xx_hal_driver/Src/stm32g4xx_hal_dma.o
LOAD ./lib/third-party/stmicroelectronics/stm32g4xx_hal_driver/Src/stm32g4xx_hal_dma_ex.o
LOAD ./lib/third-party/stmicroelectronics/stm32g4xx_hal_driver/Src/stm32g4xx_hal_exti.o
LOAD ./lib/third-party/stmicroelectronics/stm32g4xx_hal_driver/Src/stm32g4xx_hal_fdcan.o
LOAD ./lib/third-party/stmicroelectronics/stm32g4xx_hal_driver/Src/stm32g4xx_hal_flash.o
LOAD ./lib/third-party/stmicroelectronics/stm32g4xx_hal_driver/Src/stm32g4xx_hal_flash_ex.o
LOAD ./lib/third-party/stmicroelectronics/stm32g4xx_hal_driver/Src/stm32g4xx_hal_flash_ramfunc.o
LOAD ./lib/third-party/stmicroelectronics/stm32g4xx_hal_driver/Src/stm32g4xx_hal_fmac.o
LOAD ./lib/third-party/stmicroelectronics/stm32g4xx_hal_driver/Src/stm32g4xx_hal_gpio.o
LOAD ./lib/third-party/stmicroelectronics/stm32g4xx_hal_driver/Src/stm32g4xx_hal_hrtim.o
LOAD ./lib/third-party/stmicroelectronics/stm32g4xx_hal_driver/Src/stm32g4xx_hal_i2c.o
LOAD ./lib/third-party/stmicroelectronics/stm32g4xx_hal_driver/Src/stm32g4xx_hal_i2c_ex.o
LOAD ./lib/third-party/stmicroelectronics/stm32g4xx_hal_driver/Src/stm32g4xx_hal_i2s.o
LOAD ./lib/third-party/stmicroelectronics/stm32g4xx_hal_driver/Src/stm32g4xx_hal_irda.o
LOAD ./lib/third-party/stmicroelectronics/stm32g4xx_hal_driver/Src/stm32g4xx_hal_iwdg.o
LOAD ./lib/third-party/stmicroelectronics/stm32g4xx_hal_driver/Src/stm32g4xx_hal_lptim.o
LOAD ./lib/third-party/stmicroelectronics/stm32g4xx_hal_driver/Src/stm32g4xx_hal_nand.o
LOAD ./lib/third-party/stmicroelectronics/stm32g4xx_hal_driver/Src/stm32g4xx_hal_nor.o
LOAD ./lib/third-party/stmicroelectronics/stm32g4xx_hal_driver/Src/stm32g4xx_hal_opamp.o
LOAD ./lib/third-party/stmicroelectronics/stm32g4xx_hal_driver/Src/stm32g4xx_hal_opamp_ex.o
LOAD ./lib/third-party/stmicroelectronics/stm32g4xx_hal_driver/Src/stm32g4xx_hal_pcd.o
LOAD ./lib/third-party/stmicroelectronics/stm32g4xx_hal_driver/Src/stm32g4xx_hal_pcd_ex.o
LOAD ./lib/third-party/stmicroelectronics/stm32g4xx_hal_driver/Src/stm32g4xx_hal_pwr.o
LOAD ./lib/third-party/stmicroelectronics/stm32g4xx_hal_driver/Src/stm32g4xx_hal_pwr_ex.o
LOAD ./lib/third-party/stmicroelectronics/stm32g4xx_hal_driver/Src/stm32g4xx_hal_qspi.o
LOAD ./lib/third-party/stmicroelectronics/stm32g4xx_hal_driver/Src/stm32g4xx_hal_rcc.o
LOAD ./lib/third-party/stmicroelectronics/stm32g4xx_hal_driver/Src/stm32g4xx_hal_rcc_ex.o
LOAD ./lib/third-party/stmicroelectronics/stm32g4xx_hal_driver/Src/stm32g4xx_hal_rng.o
LOAD ./lib/third-party/stmicroelectronics/stm32g4xx_hal_driver/Src/stm32g4xx_hal_rtc.o
LOAD ./lib/third-party/stmicroelectronics/stm32g4xx_hal_driver/Src/stm32g4xx_hal_rtc_ex.o
LOAD ./lib/third-party/stmicroelectronics/stm32g4xx_hal_driver/Src/stm32g4xx_hal_sai.o
LOAD ./lib/third-party/stmicroelectronics/stm32g4xx_hal_driver/Src/stm32g4xx_hal_sai_ex.o
LOAD ./lib/third-party/stmicroelectronics/stm32g4xx_hal_driver/Src/stm32g4xx_hal_smartcard.o
LOAD ./lib/third-party/stmicroelectronics/stm32g4xx_hal_driver/Src/stm32g4xx_hal_smartcard_ex.o
LOAD ./lib/third-party/stmicroelectronics/stm32g4xx_hal_driver/Src/stm32g4xx_hal_smbus.o
LOAD ./lib/third-party/stmicroelectronics/stm32g4xx_hal_driver/Src/stm32g4xx_hal_smbus_ex.o
LOAD ./lib/third-party/stmicroelectronics/stm32g4xx_hal_driver/Src/stm32g4xx_hal_spi.o
LOAD ./lib/third-party/stmicroelectronics/stm32g4xx_hal_driver/Src/stm32g4xx_hal_spi_ex.o
LOAD ./lib/third-party/stmicroelectronics/stm32g4xx_hal_driver/Src/stm32g4xx_hal_sram.o
LOAD ./lib/third-party/stmicroelectronics/stm32g4xx_hal_driver/Src/stm32g4xx_hal_tim.o
LOAD ./lib/third-party/stmicroelectronics/stm32g4xx_hal_driver/Src/stm32g4xx_hal_tim_ex.o
LOAD ./lib/third-party/stmicroelectronics/stm32g4xx_hal_driver/Src/stm32g4xx_hal_uart.o
LOAD ./lib/third-party/stmicroelectronics/stm32g4xx_hal_driver/Src/stm32g4xx_hal_uart_ex.o
LOAD ./lib/third-party/stmicroelectronics/stm32g4xx_hal_driver/Src/stm32g4xx_hal_usart.o
LOAD ./lib/third-party/stmicroelectronics/stm32g4xx_hal_driver/Src/stm32g4xx_hal_usart_ex.o
LOAD ./lib/third-party/stmicroelectronics/stm32g4xx_hal_driver/Src/stm32g4xx_hal_wwdg.o
LOAD ./lib/third-party/stmicroelectronics/stm32g4xx_hal_driver/Src/stm32g4xx_ll_adc.o
LOAD ./lib/third-party/stmicroelectronics/stm32g4xx_hal_driver/Src/stm32g4xx_ll_comp.o
LOAD ./lib/third-party/stmicroelectronics/stm32g4xx_hal_driver/Src/stm32g4xx_ll_cordic.o
LOAD ./lib/third-party/stmicroelectronics/stm32g4xx_hal_driver/Src/stm32g4xx_ll_crc.o
LOAD ./lib/third-party/stmicroelectronics/stm32g4xx_hal_driver/Src/stm32g4xx_ll_crs.o
LOAD ./lib/third-party/stmicroelectronics/stm32g4xx_hal_driver/Src/stm32g4xx_ll_dac.o
LOAD ./lib/third-party/stmicroelectronics/stm32g4xx_hal_driver/Src/stm32g4xx_ll_dma.o
LOAD ./lib/third-party/stmicroelectronics/stm32g4xx_hal_driver/Src/stm32g4xx_ll_exti.o
LOAD ./lib/third-party/stmicroelectronics/stm32g4xx_hal_driver/Src/stm32g4xx_ll_fmac.o
LOAD ./lib/third-party/stmicroelectronics/stm32g4xx_hal_driver/Src/stm32g4xx_ll_fmc.o
LOAD ./lib/third-party/stmicroelectronics/stm32g4xx_hal_driver/Src/stm32g4xx_ll_gpio.o
LOAD ./lib/third-party/stmicroelectronics/stm32g4xx_hal_driver/Src/stm32g4xx_ll_hrtim.o
LOAD ./lib/third-party/stmicroelectronics/stm32g4xx_hal_driver/Src/stm32g4xx_ll_i2c.o
LOAD ./lib/third-party/stmicroelectronics/stm32g4xx_hal_driver/Src/stm32g4xx_ll_lptim.o
LOAD ./lib/third-party/stmicroelectronics/stm32g4xx_hal_driver/Src/stm32g4xx_ll_lpuart.o
LOAD ./lib/third-party/stmicroelectronics/stm32g4xx_hal_driver/Src/stm32g4xx_ll_opamp.o
LOAD ./lib/third-party/stmicroelectronics/stm32g4xx_hal_driver/Src/stm32g4xx_ll_pwr.o
LOAD ./lib/third-party/stmicroelectronics/stm32g4xx_hal_driver/Src/stm32g4xx_ll_rcc.o
LOAD ./lib/third-party/stmicroelectronics/stm32g4xx_hal_driver/Src/stm32g4xx_ll_rng.o
LOAD ./lib/third-party/stmicroelectronics/stm32g4xx_hal_driver/Src/stm32g4xx_ll_rtc.o
LOAD ./lib/third-party/stmicroelectronics/stm32g4xx_hal_driver/Src/stm32g4xx_ll_spi.o
LOAD ./lib/third-party/stmicroelectronics/stm32g4xx_hal_driver/Src/stm32g4xx_ll_tim.o
LOAD ./lib/third-party/stmicroelectronics/stm32g4xx_hal_driver/Src/stm32g4xx_ll_ucpd.o
LOAD ./lib/third-party/stmicroelectronics/stm32g4xx_hal_driver/Src/stm32g4xx_ll_usart.o
LOAD ./lib/third-party/stmicroelectronics/stm32g4xx_hal_driver/Src/stm32g4xx_ll_usb.o
LOAD ./lib/third-party/stmicroelectronics/stm32g4xx_hal_driver/Src/stm32g4xx_ll_utils.o
START GROUP
LOAD c:/st/stm32cubeide_1.7.0/stm32cubeide/plugins/com.st.stm32cube.ide.mcu.externaltools.gnu-tools-for-stm32.9-2020-q2-update.win32_2.0.0.202105311346/tools/bin/../lib/gcc/arm-none-eabi/9.3.1/../../../../arm-none-eabi/lib/thumb/v7e-m+fp/hard\libc_nano.a
LOAD c:/st/stm32cubeide_1.7.0/stm32cubeide/plugins/com.st.stm32cube.ide.mcu.externaltools.gnu-tools-for-stm32.9-2020-q2-update.win32_2.0.0.202105311346/tools/bin/../lib/gcc/arm-none-eabi/9.3.1/../../../../arm-none-eabi/lib/thumb/v7e-m+fp/hard\libm.a
END GROUP
START GROUP
LOAD c:/st/stm32cubeide_1.7.0/stm32cubeide/plugins/com.st.stm32cube.ide.mcu.externaltools.gnu-tools-for-stm32.9-2020-q2-update.win32_2.0.0.202105311346/tools/bin/../lib/gcc/arm-none-eabi/9.3.1/thumb/v7e-m+fp/hard\libgcc.a
LOAD c:/st/stm32cubeide_1.7.0/stm32cubeide/plugins/com.st.stm32cube.ide.mcu.externaltools.gnu-tools-for-stm32.9-2020-q2-update.win32_2.0.0.202105311346/tools/bin/../lib/gcc/arm-none-eabi/9.3.1/../../../../arm-none-eabi/lib/thumb/v7e-m+fp/hard\libc_nano.a
END GROUP
START GROUP
LOAD c:/st/stm32cubeide_1.7.0/stm32cubeide/plugins/com.st.stm32cube.ide.mcu.externaltools.gnu-tools-for-stm32.9-2020-q2-update.win32_2.0.0.202105311346/tools/bin/../lib/gcc/arm-none-eabi/9.3.1/thumb/v7e-m+fp/hard\libgcc.a
LOAD c:/st/stm32cubeide_1.7.0/stm32cubeide/plugins/com.st.stm32cube.ide.mcu.externaltools.gnu-tools-for-stm32.9-2020-q2-update.win32_2.0.0.202105311346/tools/bin/../lib/gcc/arm-none-eabi/9.3.1/../../../../arm-none-eabi/lib/thumb/v7e-m+fp/hard\libc_nano.a
LOAD c:/st/stm32cubeide_1.7.0/stm32cubeide/plugins/com.st.stm32cube.ide.mcu.externaltools.gnu-tools-for-stm32.9-2020-q2-update.win32_2.0.0.202105311346/tools/bin/../lib/gcc/arm-none-eabi/9.3.1/../../../../arm-none-eabi/lib/thumb/v7e-m+fp/hard\libnosys.a
END GROUP
START GROUP
LOAD c:/st/stm32cubeide_1.7.0/stm32cubeide/plugins/com.st.stm32cube.ide.mcu.externaltools.gnu-tools-for-stm32.9-2020-q2-update.win32_2.0.0.202105311346/tools/bin/../lib/gcc/arm-none-eabi/9.3.1/thumb/v7e-m+fp/hard\libgcc.a
LOAD c:/st/stm32cubeide_1.7.0/stm32cubeide/plugins/com.st.stm32cube.ide.mcu.externaltools.gnu-tools-for-stm32.9-2020-q2-update.win32_2.0.0.202105311346/tools/bin/../lib/gcc/arm-none-eabi/9.3.1/../../../../arm-none-eabi/lib/thumb/v7e-m+fp/hard\libc_nano.a
LOAD c:/st/stm32cubeide_1.7.0/stm32cubeide/plugins/com.st.stm32cube.ide.mcu.externaltools.gnu-tools-for-stm32.9-2020-q2-update.win32_2.0.0.202105311346/tools/bin/../lib/gcc/arm-none-eabi/9.3.1/../../../../arm-none-eabi/lib/thumb/v7e-m+fp/hard\libnosys.a
END GROUP
LOAD c:/st/stm32cubeide_1.7.0/stm32cubeide/plugins/com.st.stm32cube.ide.mcu.externaltools.gnu-tools-for-stm32.9-2020-q2-update.win32_2.0.0.202105311346/tools/bin/../lib/gcc/arm-none-eabi/9.3.1/thumb/v7e-m+fp/hard/crtend.o
LOAD c:/st/stm32cubeide_1.7.0/stm32cubeide/plugins/com.st.stm32cube.ide.mcu.externaltools.gnu-tools-for-stm32.9-2020-q2-update.win32_2.0.0.202105311346/tools/bin/../lib/gcc/arm-none-eabi/9.3.1/thumb/v7e-m+fp/hard/crtn.o
                0x0000000020020000                _estack = (ORIGIN (RAM) + LENGTH (RAM))
                0x0000000000000200                _Min_Heap_Size = 0x200
                0x0000000000000400                _Min_Stack_Size = 0x400

.isr_vector     0x0000000008000000      0x1d8
                0x0000000008000000                . = ALIGN (0x4)
 *(.isr_vector)
 .isr_vector    0x0000000008000000      0x1d8 ./bsp/evk/GCC/startup_stm32g473retx.o
                0x0000000008000000                g_pfnVectors
                0x00000000080001d8                . = ALIGN (0x4)

.text           0x00000000080001e0     0xd530
                0x00000000080001e0                . = ALIGN (0x4)
 *(.text)
 .text          0x00000000080001e0       0x40 c:/st/stm32cubeide_1.7.0/stm32cubeide/plugins/com.st.stm32cube.ide.mcu.externaltools.gnu-tools-for-stm32.9-2020-q2-update.win32_2.0.0.202105311346/tools/bin/../lib/gcc/arm-none-eabi/9.3.1/thumb/v7e-m+fp/hard/crtbegin.o
 .text          0x0000000008000220       0x10 c:/st/stm32cubeide_1.7.0/stm32cubeide/plugins/com.st.stm32cube.ide.mcu.externaltools.gnu-tools-for-stm32.9-2020-q2-update.win32_2.0.0.202105311346/tools/bin/../lib/gcc/arm-none-eabi/9.3.1/../../../../arm-none-eabi/lib/thumb/v7e-m+fp/hard\libc_nano.a(lib_a-strlen.o)
                0x0000000008000220                strlen
 .text          0x0000000008000230       0xa0 c:/st/stm32cubeide_1.7.0/stm32cubeide/plugins/com.st.stm32cube.ide.mcu.externaltools.gnu-tools-for-stm32.9-2020-q2-update.win32_2.0.0.202105311346/tools/bin/../lib/gcc/arm-none-eabi/9.3.1/../../../../arm-none-eabi/lib/thumb/v7e-m+fp/hard\libc_nano.a(lib_a-memchr.o)
                0x0000000008000230                memchr
 .text          0x00000000080002d0       0x30 c:/st/stm32cubeide_1.7.0/stm32cubeide/plugins/com.st.stm32cube.ide.mcu.externaltools.gnu-tools-for-stm32.9-2020-q2-update.win32_2.0.0.202105311346/tools/bin/../lib/gcc/arm-none-eabi/9.3.1/thumb/v7e-m+fp/hard\libgcc.a(_aeabi_uldivmod.o)
                0x00000000080002d0                __aeabi_uldivmod
 .text          0x0000000008000300      0x2c4 c:/st/stm32cubeide_1.7.0/stm32cubeide/plugins/com.st.stm32cube.ide.mcu.externaltools.gnu-tools-for-stm32.9-2020-q2-update.win32_2.0.0.202105311346/tools/bin/../lib/gcc/arm-none-eabi/9.3.1/thumb/v7e-m+fp/hard\libgcc.a(_udivmoddi4.o)
                0x0000000008000300                __udivmoddi4
 .text          0x00000000080005c4        0x4 c:/st/stm32cubeide_1.7.0/stm32cubeide/plugins/com.st.stm32cube.ide.mcu.externaltools.gnu-tools-for-stm32.9-2020-q2-update.win32_2.0.0.202105311346/tools/bin/../lib/gcc/arm-none-eabi/9.3.1/thumb/v7e-m+fp/hard\libgcc.a(_dvmd_tls.o)
                0x00000000080005c4                __aeabi_idiv0
                0x00000000080005c4                __aeabi_ldiv0
 *(.text*)
 .text.conn_tx_ack_callback
                0x00000000080005c8        0x4 ./app/star_network.o
 .text.app_error_handler
                0x00000000080005cc        0x4 ./app/star_network.o
 .text.usb_printf
                0x00000000080005d0       0x2c ./app/star_network.o
 .text.conn_rx_callback
                0x00000000080005fc       0xa8 ./app/star_network.o
 .text.radio_callback_cb
                0x00000000080006a4        0xc ./app/star_network.o
 .text.radio_dma_spi_cb
                0x00000000080006b0       0x18 ./app/star_network.o
 .text.radio_irq_cb
                0x00000000080006c8       0x18 ./app/star_network.o
 .text.usb_gpio_callback
                0x00000000080006e0       0x30 ./app/star_network.o
 .text.conn_tx_nack_callback
                0x0000000008000710        0x4 ./app/star_network.o
 .text.startup.main
                0x0000000008000714      0x5d0 ./app/star_network.o
                0x0000000008000714                main
 .text.Reset_Handler
                0x0000000008000ce4       0x50 ./bsp/evk/GCC/startup_stm32g473retx.o
                0x0000000008000ce4                Reset_Handler
 .text.Default_Handler
                0x0000000008000d34        0x2 ./bsp/evk/GCC/startup_stm32g473retx.o
                0x0000000008000d34                RTC_Alarm_IRQHandler
                0x0000000008000d34                TIM8_TRG_COM_IRQHandler
                0x0000000008000d34                TIM8_CC_IRQHandler
                0x0000000008000d34                SPI4_IRQHandler
                0x0000000008000d34                FDCAN3_IT0_IRQHandler
                0x0000000008000d34                TIM1_CC_IRQHandler
                0x0000000008000d34                USB_HP_IRQHandler
                0x0000000008000d34                CORDIC_IRQHandler
                0x0000000008000d34                DMA2_Channel8_IRQHandler
                0x0000000008000d34                NMI_Handler
                0x0000000008000d34                EXTI3_IRQHandler
                0x0000000008000d34                I2C3_ER_IRQHandler
                0x0000000008000d34                I2C2_EV_IRQHandler
                0x0000000008000d34                FPU_IRQHandler
                0x0000000008000d34                FDCAN1_IT1_IRQHandler
                0x0000000008000d34                TIM1_UP_TIM16_IRQHandler
                0x0000000008000d34                ADC1_2_IRQHandler
                0x0000000008000d34                SPI1_IRQHandler
                0x0000000008000d34                TIM6_DAC_IRQHandler
                0x0000000008000d34                TIM8_UP_IRQHandler
                0x0000000008000d34                DMA2_Channel2_IRQHandler
                0x0000000008000d34                TIM20_TRG_COM_IRQHandler
                0x0000000008000d34                USART3_IRQHandler
                0x0000000008000d34                DMA1_Channel7_IRQHandler
                0x0000000008000d34                UART5_IRQHandler
                0x0000000008000d34                ADC3_IRQHandler
                0x0000000008000d34                TIM4_IRQHandler
                0x0000000008000d34                DMA2_Channel1_IRQHandler
                0x0000000008000d34                QUADSPI_IRQHandler
                0x0000000008000d34                I2C1_EV_IRQHandler
                0x0000000008000d34                UART4_IRQHandler
                0x0000000008000d34                DMA2_Channel4_IRQHandler
                0x0000000008000d34                TIM3_IRQHandler
                0x0000000008000d34                RCC_IRQHandler
                0x0000000008000d34                DMA1_Channel1_IRQHandler
                0x0000000008000d34                Default_Handler
                0x0000000008000d34                DMA2_Channel7_IRQHandler
                0x0000000008000d34                RTC_TAMP_LSECSS_IRQHandler
                0x0000000008000d34                FMAC_IRQHandler
                0x0000000008000d34                EXTI15_10_IRQHandler
                0x0000000008000d34                DMA1_Channel8_IRQHandler
                0x0000000008000d34                TIM7_DAC_IRQHandler
                0x0000000008000d34                FDCAN3_IT1_IRQHandler
                0x0000000008000d34                TIM5_IRQHandler
                0x0000000008000d34                UCPD1_IRQHandler
                0x0000000008000d34                I2C3_EV_IRQHandler
                0x0000000008000d34                EXTI9_5_IRQHandler
                0x0000000008000d34                RTC_WKUP_IRQHandler
                0x0000000008000d34                PVD_PVM_IRQHandler
                0x0000000008000d34                SPI2_IRQHandler
                0x0000000008000d34                ADC5_IRQHandler
                0x0000000008000d34                DMA2_Channel5_IRQHandler
                0x0000000008000d34                CRS_IRQHandler
                0x0000000008000d34                EXTI4_IRQHandler
                0x0000000008000d34                RNG_IRQHandler
                0x0000000008000d34                TIM1_TRG_COM_TIM17_IRQHandler
                0x0000000008000d34                FDCAN2_IT1_IRQHandler
                0x0000000008000d34                ADC4_IRQHandler
                0x0000000008000d34                WWDG_IRQHandler
                0x0000000008000d34                I2C4_EV_IRQHandler
                0x0000000008000d34                FDCAN2_IT0_IRQHandler
                0x0000000008000d34                DMA2_Channel6_IRQHandler
                0x0000000008000d34                FDCAN1_IT0_IRQHandler
                0x0000000008000d34                COMP7_IRQHandler
                0x0000000008000d34                COMP1_2_3_IRQHandler
                0x0000000008000d34                EXTI1_IRQHandler
                0x0000000008000d34                USART2_IRQHandler
                0x0000000008000d34                COMP4_5_6_IRQHandler
                0x0000000008000d34                TIM20_BRK_IRQHandler
                0x0000000008000d34                I2C2_ER_IRQHandler
                0x0000000008000d34                TIM8_BRK_IRQHandler
                0x0000000008000d34                FLASH_IRQHandler
                0x0000000008000d34                TIM20_CC_IRQHandler
                0x0000000008000d34                USART1_IRQHandler
                0x0000000008000d34                SPI3_IRQHandler
                0x0000000008000d34                I2C1_ER_IRQHandler
                0x0000000008000d34                FMC_IRQHandler
                0x0000000008000d34                LPTIM1_IRQHandler
                0x0000000008000d34                DMAMUX_OVR_IRQHandler
                0x0000000008000d34                I2C4_ER_IRQHandler
                0x0000000008000d34                USBWakeUp_IRQHandler
                0x0000000008000d34                SAI1_IRQHandler
                0x0000000008000d34                DMA2_Channel3_IRQHandler
                0x0000000008000d34                TIM1_BRK_TIM15_IRQHandler
 *fill*         0x0000000008000d36        0x2 
 .text.init_led_gpio_push_pull.constprop.0
                0x0000000008000d38       0x30 ./bsp/evk/bsp.o
 .text.bsp_init
                0x0000000008000d68      0x59c ./bsp/evk/bsp.o
                0x0000000008000d68                bsp_init
 .text.bsp_read_btn_state
                0x0000000008001304       0x38 ./bsp/evk/bsp_button.o
                0x0000000008001304                bsp_read_btn_state
 .text.bsp_set_system_clock
                0x000000000800133c      0x210 ./bsp/evk/bsp_clock.o
                0x000000000800133c                bsp_set_system_clock
 .text.bsp_usb_clock_deinit
                0x000000000800154c       0x2c ./bsp/evk/bsp_clock.o
                0x000000000800154c                bsp_usb_clock_deinit
 .text.bsp_init_usb_clock
                0x0000000008001578       0x50 ./bsp/evk/bsp_clock.o
                0x0000000008001578                bsp_init_usb_clock
 .text.SystemClock_Config
                0x00000000080015c8       0x18 ./bsp/evk/bsp_clock.o
                0x00000000080015c8                SystemClock_Config
 .text.HAL_MspInit
                0x00000000080015e0       0x40 ./bsp/evk/bsp_clock.o
                0x00000000080015e0                HAL_MspInit
 .text.default_irq_callback
                0x0000000008001620        0x4 ./bsp/evk/bsp_it.o
 .text.bsp_set_usb_detect_callback
                0x0000000008001624        0xc ./bsp/evk/bsp_it.o
                0x0000000008001624                bsp_set_usb_detect_callback
 .text.bsp_set_radio_irq_callback
                0x0000000008001630        0xc ./bsp/evk/bsp_it.o
                0x0000000008001630                bsp_set_radio_irq_callback
 .text.bsp_set_radio_dma_rx_callback
                0x000000000800163c        0xc ./bsp/evk/bsp_it.o
                0x000000000800163c                bsp_set_radio_dma_rx_callback
 .text.bsp_set_pendsv_callback
                0x0000000008001648        0xc ./bsp/evk/bsp_it.o
                0x0000000008001648                bsp_set_pendsv_callback
 .text.bsp_enter_critical
                0x0000000008001654       0x14 ./bsp/evk/bsp_it.o
                0x0000000008001654                bsp_enter_critical
 .text.bsp_exit_critical
                0x0000000008001668       0x14 ./bsp/evk/bsp_it.o
                0x0000000008001668                bsp_exit_critical
 .text.Error_Handler
                0x000000000800167c        0x4 ./bsp/evk/bsp_it.o
                0x000000000800167c                Error_Handler
 .text.HardFault_Handler
                0x0000000008001680        0x4 ./bsp/evk/bsp_it.o
                0x0000000008001680                HardFault_Handler
 .text.MemManage_Handler
                0x0000000008001684        0x4 ./bsp/evk/bsp_it.o
                0x0000000008001684                MemManage_Handler
 .text.BusFault_Handler
                0x0000000008001688        0x4 ./bsp/evk/bsp_it.o
                0x0000000008001688                BusFault_Handler
 .text.UsageFault_Handler
                0x000000000800168c        0x4 ./bsp/evk/bsp_it.o
                0x000000000800168c                UsageFault_Handler
 .text.SVC_Handler
                0x0000000008001690        0x4 ./bsp/evk/bsp_it.o
                0x0000000008001690                SVC_Handler
 .text.DebugMon_Handler
                0x0000000008001694        0x4 ./bsp/evk/bsp_it.o
                0x0000000008001694                DebugMon_Handler
 .text.PendSV_Handler
                0x0000000008001698       0x18 ./bsp/evk/bsp_it.o
                0x0000000008001698                PendSV_Handler
 .text.SysTick_Handler
                0x00000000080016b0        0x4 ./bsp/evk/bsp_it.o
                0x00000000080016b0                SysTick_Handler
 .text.EXTI0_IRQHandler
                0x00000000080016b4       0x18 ./bsp/evk/bsp_it.o
                0x00000000080016b4                EXTI0_IRQHandler
 .text.EXTI2_IRQHandler
                0x00000000080016cc       0x14 ./bsp/evk/bsp_it.o
                0x00000000080016cc                EXTI2_IRQHandler
 .text.DMA1_Channel2_IRQHandler
                0x00000000080016e0       0x3c ./bsp/evk/bsp_it.o
                0x00000000080016e0                DMA1_Channel2_IRQHandler
 .text.DMA1_Channel3_IRQHandler
                0x000000000800171c        0xc ./bsp/evk/bsp_it.o
                0x000000000800171c                DMA1_Channel3_IRQHandler
 .text.DMA1_Channel4_IRQHandler
                0x0000000008001728        0xc ./bsp/evk/bsp_it.o
                0x0000000008001728                DMA1_Channel4_IRQHandler
 .text.DMA1_Channel5_IRQHandler
                0x0000000008001734        0xc ./bsp/evk/bsp_it.o
                0x0000000008001734                DMA1_Channel5_IRQHandler
 .text.DMA1_Channel6_IRQHandler
                0x0000000008001740        0xc ./bsp/evk/bsp_it.o
                0x0000000008001740                DMA1_Channel6_IRQHandler
 .text.USB_LP_IRQHandler
                0x000000000800174c        0xc ./bsp/evk/bsp_it.o
                0x000000000800174c                USB_LP_IRQHandler
 .text.TIM2_IRQHandler
                0x0000000008001758       0x14 ./bsp/evk/bsp_it.o
                0x0000000008001758                TIM2_IRQHandler
 .text.TIM20_UP_IRQHandler
                0x000000000800176c       0x18 ./bsp/evk/bsp_it.o
                0x000000000800176c                TIM20_UP_IRQHandler
 .text.LPUART1_IRQHandler
                0x0000000008001784        0xc ./bsp/evk/bsp_it.o
                0x0000000008001784                LPUART1_IRQHandler
 .text.bsp_led_on
                0x0000000008001790       0x34 ./bsp/evk/bsp_led.o
                0x0000000008001790                bsp_led_on
 .text.bsp_led_off
                0x00000000080017c4       0x34 ./bsp/evk/bsp_led.o
                0x00000000080017c4                bsp_led_off
 .text.bsp_set_board_voltage
                0x00000000080017f8       0x18 ./bsp/evk/bsp_power.o
                0x00000000080017f8                bsp_set_board_voltage
 .text.bsp_radio_read_irq_pin
                0x0000000008001810       0x18 ./bsp/evk/bsp_radio.o
                0x0000000008001810                bsp_radio_read_irq_pin
 .text.bsp_radio_enable_irq_it
                0x0000000008001828       0x10 ./bsp/evk/bsp_radio.o
                0x0000000008001828                bsp_radio_enable_irq_it
 .text.bsp_radio_disable_irq_it
                0x0000000008001838       0x18 ./bsp/evk/bsp_radio.o
                0x0000000008001838                bsp_radio_disable_irq_it
 .text.bsp_radio_set_shutdown_pin
                0x0000000008001850       0x10 ./bsp/evk/bsp_radio.o
                0x0000000008001850                bsp_radio_set_shutdown_pin
 .text.bsp_radio_reset_shutdown_pin
                0x0000000008001860       0x10 ./bsp/evk/bsp_radio.o
                0x0000000008001860                bsp_radio_reset_shutdown_pin
 .text.bsp_radio_set_reset_pin
                0x0000000008001870       0x10 ./bsp/evk/bsp_radio.o
                0x0000000008001870                bsp_radio_set_reset_pin
 .text.bsp_radio_reset_reset_pin
                0x0000000008001880       0x10 ./bsp/evk/bsp_radio.o
                0x0000000008001880                bsp_radio_reset_reset_pin
 .text.bsp_radio_spi_set_cs
                0x0000000008001890       0x10 ./bsp/evk/bsp_radio.o
                0x0000000008001890                bsp_radio_spi_set_cs
 .text.bsp_radio_spi_reset_cs
                0x00000000080018a0       0x10 ./bsp/evk/bsp_radio.o
                0x00000000080018a0                bsp_radio_spi_reset_cs
 .text.bsp_radio_spi_write_blocking
                0x00000000080018b0       0x10 ./bsp/evk/bsp_radio.o
                0x00000000080018b0                bsp_radio_spi_write_blocking
 .text.bsp_radio_spi_read_blocking
                0x00000000080018c0       0x10 ./bsp/evk/bsp_radio.o
                0x00000000080018c0                bsp_radio_spi_read_blocking
 .text.bsp_radio_spi_transfer_full_duplex_blocking
                0x00000000080018d0       0x90 ./bsp/evk/bsp_radio.o
                0x00000000080018d0                bsp_radio_spi_transfer_full_duplex_blocking
 .text.bsp_radio_spi_transfer_full_duplex_non_blocking
                0x0000000008001960       0x80 ./bsp/evk/bsp_radio.o
                0x0000000008001960                bsp_radio_spi_transfer_full_duplex_non_blocking
 .text.bsp_radio_is_spi_busy
                0x00000000080019e0       0x10 ./bsp/evk/bsp_radio.o
                0x00000000080019e0                bsp_radio_is_spi_busy
 .text.bsp_radio_context_switch
                0x00000000080019f0       0x10 ./bsp/evk/bsp_radio.o
                0x00000000080019f0                bsp_radio_context_switch
 .text.bsp_radio_callback_context_switch
                0x0000000008001a00       0x10 ./bsp/evk/bsp_radio.o
                0x0000000008001a00                bsp_radio_callback_context_switch
 .text.HAL_SPI_MspInit
                0x0000000008001a10       0xc8 ./bsp/evk/bsp_radio.o
                0x0000000008001a10                HAL_SPI_MspInit
 .text.bsp_delay_ms
                0x0000000008001ad8        0x4 ./bsp/evk/bsp_timer.o
                0x0000000008001ad8                bsp_delay_ms
 .text.bsp_get_free_running_timer_tick_ms
                0x0000000008001adc       0x58 ./bsp/evk/bsp_timer.o
                0x0000000008001adc                bsp_get_free_running_timer_tick_ms
 .text.HAL_UART_TxCpltCallback
                0x0000000008001b34       0x24 ./bsp/evk/bsp_uart.o
                0x0000000008001b34                HAL_UART_TxCpltCallback
 .text.HAL_UART_MspInit
                0x0000000008001b58      0x134 ./bsp/evk/bsp_uart.o
                0x0000000008001b58                HAL_UART_MspInit
 .text.bsp_usb_cdc_init
                0x0000000008001c8c       0x50 ./bsp/evk/bsp_usb.o
                0x0000000008001c8c                bsp_usb_cdc_init
 .text.bsp_cdc_usb_deinit
                0x0000000008001cdc       0x1c ./bsp/evk/bsp_usb.o
                0x0000000008001cdc                bsp_cdc_usb_deinit
 .text.bsp_cdc_usb_connect
                0x0000000008001cf8       0x28 ./bsp/evk/bsp_usb.o
                0x0000000008001cf8                bsp_cdc_usb_connect
 .text.bsp_cdc_usb_disconnect
                0x0000000008001d20       0x24 ./bsp/evk/bsp_usb.o
                0x0000000008001d20                bsp_cdc_usb_disconnect
 .text.bsp_is_usb_detected
                0x0000000008001d44       0x14 ./bsp/evk/bsp_usb.o
                0x0000000008001d44                bsp_is_usb_detected
 .text.bsp_usb_cdc_send_buf
                0x0000000008001d58        0x8 ./bsp/evk/bsp_usb.o
                0x0000000008001d58                bsp_usb_cdc_send_buf
 .text.HAL_InitTick
                0x0000000008001d60       0x84 ./bsp/evk/stm32g4xx_hal_timebase_tim.o
                0x0000000008001d60                HAL_InitTick
 .text._getpid  0x0000000008001de4        0x4 ./bsp/evk/syscalls.o
                0x0000000008001de4                _getpid
 .text._kill    0x0000000008001de8       0x10 ./bsp/evk/syscalls.o
                0x0000000008001de8                _kill
 .text._exit    0x0000000008001df8        0xc ./bsp/evk/syscalls.o
                0x0000000008001df8                _exit
 .text._read    0x0000000008001e04       0x1c ./bsp/evk/syscalls.o
                0x0000000008001e04                _read
 .text._write   0x0000000008001e20       0x1c ./bsp/evk/syscalls.o
                0x0000000008001e20                _write
 .text._sbrk    0x0000000008001e3c       0x3c ./bsp/evk/syscalls.o
                0x0000000008001e3c                _sbrk
 .text._close   0x0000000008001e78        0x8 ./bsp/evk/syscalls.o
                0x0000000008001e78                _close
 .text._fstat   0x0000000008001e80        0xc ./bsp/evk/syscalls.o
                0x0000000008001e80                _fstat
 .text._isatty  0x0000000008001e8c        0x4 ./bsp/evk/syscalls.o
                0x0000000008001e8c                _isatty
 .text._lseek   0x0000000008001e90        0x4 ./bsp/evk/syscalls.o
                0x0000000008001e90                _lseek
 .text.SystemInit
                0x0000000008001e94       0x1c ./bsp/evk/system_stm32g4xx.o
                0x0000000008001e94                SystemInit
 .text.SystemCoreClockUpdate
                0x0000000008001eb0       0x84 ./bsp/evk/system_stm32g4xx.o
                0x0000000008001eb0                SystemCoreClockUpdate
 .text.CDC_DeInit_FS
                0x0000000008001f34        0xc ./bsp/evk/usb_device/app/usbd_cdc_if.o
 .text.CDC_Control_FS
                0x0000000008001f40        0x4 ./bsp/evk/usb_device/app/usbd_cdc_if.o
 .text.CDC_TransmitCplt_FS
                0x0000000008001f44       0x10 ./bsp/evk/usb_device/app/usbd_cdc_if.o
 .text.default_init_callback
                0x0000000008001f54        0x4 ./bsp/evk/usb_device/app/usbd_cdc_if.o
                0x0000000008001f54                default_init_callback
 .text.default_txrx_callback
                0x0000000008001f58        0x4 ./bsp/evk/usb_device/app/usbd_cdc_if.o
                0x0000000008001f58                default_txrx_callback
 .text.CDC_Receive_FS
                0x0000000008001f5c       0x3c ./bsp/evk/usb_device/app/usbd_cdc_if.o
 .text.CDC_Init_FS
                0x0000000008001f98       0x3c ./bsp/evk/usb_device/app/usbd_cdc_if.o
 .text.CDC_Transmit_FS
                0x0000000008001fd4       0x3c ./bsp/evk/usb_device/app/usbd_cdc_if.o
                0x0000000008001fd4                CDC_Transmit_FS
 .text.USBD_CDC_DeviceDescriptor
                0x0000000008002010        0xc ./bsp/evk/usb_device/app/usbd_desc.o
                0x0000000008002010                USBD_CDC_DeviceDescriptor
 .text.USBD_CDC_LangIDStrDescriptor
                0x000000000800201c        0xc ./bsp/evk/usb_device/app/usbd_desc.o
                0x000000000800201c                USBD_CDC_LangIDStrDescriptor
 .text.IntToUnicode
                0x0000000008002028       0x30 ./bsp/evk/usb_device/app/usbd_desc.o
 .text.USBD_CDC_SerialStrDescriptor
                0x0000000008002058       0x48 ./bsp/evk/usb_device/app/usbd_desc.o
                0x0000000008002058                USBD_CDC_SerialStrDescriptor
 .text.USBD_CDC_ManufacturerStrDescriptor
                0x00000000080020a0       0x1c ./bsp/evk/usb_device/app/usbd_desc.o
                0x00000000080020a0                USBD_CDC_ManufacturerStrDescriptor
 .text.USBD_CDC_ProductStrDescriptor
                0x00000000080020bc       0x1c ./bsp/evk/usb_device/app/usbd_desc.o
                0x00000000080020bc                USBD_CDC_ProductStrDescriptor
 .text.USBD_CDC_ConfigStrDescriptor
                0x00000000080020d8       0x1c ./bsp/evk/usb_device/app/usbd_desc.o
                0x00000000080020d8                USBD_CDC_ConfigStrDescriptor
 .text.USBD_CDC_InterfaceStrDescriptor
                0x00000000080020f4       0x1c ./bsp/evk/usb_device/app/usbd_desc.o
                0x00000000080020f4                USBD_CDC_InterfaceStrDescriptor
 .text.HAL_PCD_MspInit
                0x0000000008002110       0x40 ./bsp/evk/usb_device/target/usbd_conf.o
                0x0000000008002110                HAL_PCD_MspInit
 .text.HAL_PCD_MspDeInit
                0x0000000008002150       0x24 ./bsp/evk/usb_device/target/usbd_conf.o
                0x0000000008002150                HAL_PCD_MspDeInit
 .text.HAL_PCD_SetupStageCallback
                0x0000000008002174        0xc ./bsp/evk/usb_device/target/usbd_conf.o
                0x0000000008002174                HAL_PCD_SetupStageCallback
 .text.HAL_PCD_DataOutStageCallback
                0x0000000008002180       0x14 ./bsp/evk/usb_device/target/usbd_conf.o
                0x0000000008002180                HAL_PCD_DataOutStageCallback
 .text.HAL_PCD_DataInStageCallback
                0x0000000008002194       0x14 ./bsp/evk/usb_device/target/usbd_conf.o
                0x0000000008002194                HAL_PCD_DataInStageCallback
 .text.HAL_PCD_SOFCallback
                0x00000000080021a8        0x8 ./bsp/evk/usb_device/target/usbd_conf.o
                0x00000000080021a8                HAL_PCD_SOFCallback
 .text.HAL_PCD_ResetCallback
                0x00000000080021b0       0x1c ./bsp/evk/usb_device/target/usbd_conf.o
                0x00000000080021b0                HAL_PCD_ResetCallback
 .text.HAL_PCD_SuspendCallback
                0x00000000080021cc       0x20 ./bsp/evk/usb_device/target/usbd_conf.o
                0x00000000080021cc                HAL_PCD_SuspendCallback
 .text.HAL_PCD_ResumeCallback
                0x00000000080021ec       0x34 ./bsp/evk/usb_device/target/usbd_conf.o
                0x00000000080021ec                HAL_PCD_ResumeCallback
 .text.USBD_LL_Init
                0x0000000008002220       0x80 ./bsp/evk/usb_device/target/usbd_conf.o
                0x0000000008002220                USBD_LL_Init
 .text.USBD_LL_DeInit
                0x00000000080022a0       0x1c ./bsp/evk/usb_device/target/usbd_conf.o
                0x00000000080022a0                USBD_LL_DeInit
 .text.USBD_LL_Start
                0x00000000080022bc       0x1c ./bsp/evk/usb_device/target/usbd_conf.o
                0x00000000080022bc                USBD_LL_Start
 .text.USBD_LL_Stop
                0x00000000080022d8       0x1c ./bsp/evk/usb_device/target/usbd_conf.o
                0x00000000080022d8                USBD_LL_Stop
 .text.USBD_LL_OpenEP
                0x00000000080022f4       0x20 ./bsp/evk/usb_device/target/usbd_conf.o
                0x00000000080022f4                USBD_LL_OpenEP
 .text.USBD_LL_CloseEP
                0x0000000008002314       0x1c ./bsp/evk/usb_device/target/usbd_conf.o
                0x0000000008002314                USBD_LL_CloseEP
 .text.USBD_LL_StallEP
                0x0000000008002330       0x1c ./bsp/evk/usb_device/target/usbd_conf.o
                0x0000000008002330                USBD_LL_StallEP
 .text.USBD_LL_ClearStallEP
                0x000000000800234c       0x1c ./bsp/evk/usb_device/target/usbd_conf.o
                0x000000000800234c                USBD_LL_ClearStallEP
 .text.USBD_LL_IsStallEP
                0x0000000008002368       0x28 ./bsp/evk/usb_device/target/usbd_conf.o
                0x0000000008002368                USBD_LL_IsStallEP
 .text.USBD_LL_SetUSBAddress
                0x0000000008002390       0x1c ./bsp/evk/usb_device/target/usbd_conf.o
                0x0000000008002390                USBD_LL_SetUSBAddress
 .text.USBD_LL_Transmit
                0x00000000080023ac       0x1c ./bsp/evk/usb_device/target/usbd_conf.o
                0x00000000080023ac                USBD_LL_Transmit
 .text.USBD_LL_PrepareReceive
                0x00000000080023c8       0x1c ./bsp/evk/usb_device/target/usbd_conf.o
                0x00000000080023c8                USBD_LL_PrepareReceive
 .text.USBD_LL_GetRxDataSize
                0x00000000080023e4        0x8 ./bsp/evk/usb_device/target/usbd_conf.o
                0x00000000080023e4                USBD_LL_GetRxDataSize
 .text.HAL_PCDEx_LPM_Callback
                0x00000000080023ec       0x50 ./bsp/evk/usb_device/target/usbd_conf.o
                0x00000000080023ec                HAL_PCDEx_LPM_Callback
 .text.USBD_static_malloc
                0x000000000800243c        0x8 ./bsp/evk/usb_device/target/usbd_conf.o
                0x000000000800243c                USBD_static_malloc
 .text.USBD_static_free
                0x0000000008002444        0x4 ./bsp/evk/usb_device/target/usbd_conf.o
                0x0000000008002444                USBD_static_free
 .text.link_cca_init
                0x0000000008002448       0x18 ./core/wireless/link/link_cca.o
                0x0000000008002448                link_cca_init
 .text.generate_freq_table
                0x0000000008002460       0x40 ./core/wireless/link/link_channel_hopping.o
 .text.link_channel_hopping_init
                0x00000000080024a0      0x108 ./core/wireless/link/link_channel_hopping.o
                0x00000000080024a0                link_channel_hopping_init
 .text.link_channel_hopping_increment_sequence
                0x00000000080025a8       0x28 ./core/wireless/link/link_channel_hopping.o
                0x00000000080025a8                link_channel_hopping_increment_sequence
 .text.link_channel_hopping_set_seq_index
                0x00000000080025d0        0x4 ./core/wireless/link/link_channel_hopping.o
                0x00000000080025d0                link_channel_hopping_set_seq_index
 .text.link_channel_hopping_get_seq_index
                0x00000000080025d4        0x4 ./core/wireless/link/link_channel_hopping.o
                0x00000000080025d4                link_channel_hopping_get_seq_index
 .text.link_channel_hopping_get_channel
                0x00000000080025d8       0x10 ./core/wireless/link/link_channel_hopping.o
                0x00000000080025d8                link_channel_hopping_get_channel
 .text.link_gain_loop_update
                0x00000000080025e8       0x5c ./core/wireless/link/link_gain_loop.o
                0x00000000080025e8                link_gain_loop_update
 .text.link_gain_loop_get_gain_value
                0x0000000008002644       0x10 ./core/wireless/link/link_gain_loop.o
                0x0000000008002644                link_gain_loop_get_gain_value
 .text.link_gain_loop_get_min_tenth_db
                0x0000000008002654       0x10 ./core/wireless/link/link_gain_loop.o
                0x0000000008002654                link_gain_loop_get_min_tenth_db
 .text.link_gain_loop_get_rnsi_tenth_db
                0x0000000008002664       0x10 ./core/wireless/link/link_gain_loop.o
                0x0000000008002664                link_gain_loop_get_rnsi_tenth_db
 .text.link_gain_loop_reset_gain_index
                0x0000000008002674        0x8 ./core/wireless/link/link_gain_loop.o
                0x0000000008002674                link_gain_loop_reset_gain_index
 .text.link_lqi_update
                0x000000000800267c      0x1ac ./core/wireless/link/link_lqi.o
                0x000000000800267c                link_lqi_update
 .text.link_protocol_send_buffer
                0x0000000008002828       0x50 ./core/wireless/link/link_protocol.o
                0x0000000008002828                link_protocol_send_buffer
 .text.link_protocol_receive_buffer
                0x0000000008002878       0x38 ./core/wireless/link/link_protocol.o
                0x0000000008002878                link_protocol_receive_buffer
 .text.link_rdo_init
                0x00000000080028b0       0x10 ./core/wireless/link/link_random_datarate_offset.o
                0x00000000080028b0                link_rdo_init
 .text.link_rdo_get_offset
                0x00000000080028c0        0xc ./core/wireless/link/link_random_datarate_offset.o
                0x00000000080028c0                link_rdo_get_offset
 .text.link_saw_arq_init
                0x00000000080028cc       0x1c ./core/wireless/link/link_saw_arq.o
                0x00000000080028cc                link_saw_arq_init
 .text.link_saw_arq_is_frame_timeout
                0x00000000080028e8       0x7c ./core/wireless/link/link_saw_arq.o
                0x00000000080028e8                link_saw_arq_is_frame_timeout
 .text.link_saw_arq_get_seq_num
                0x0000000008002964        0x4 ./core/wireless/link/link_saw_arq.o
                0x0000000008002964                link_saw_arq_get_seq_num
 .text.link_saw_arq_inc_seq_num
                0x0000000008002968        0xc ./core/wireless/link/link_saw_arq.o
                0x0000000008002968                link_saw_arq_inc_seq_num
 .text.link_saw_arq_update_rx_seq_num
                0x0000000008002974       0x10 ./core/wireless/link/link_saw_arq.o
                0x0000000008002974                link_saw_arq_update_rx_seq_num
 .text.link_saw_arq_is_rx_frame_duplicate
                0x0000000008002984       0x14 ./core/wireless/link/link_saw_arq.o
                0x0000000008002984                link_saw_arq_is_rx_frame_duplicate
 .text.link_scheduler_init
                0x0000000008002998       0x14 ./core/wireless/link/link_scheduler.o
                0x0000000008002998                link_scheduler_init
 .text.link_scheduler_increment_time_slot
                0x00000000080029ac       0x98 ./core/wireless/link/link_scheduler.o
                0x00000000080029ac                link_scheduler_increment_time_slot
 .text.link_scheduler_set_time_slot_i
                0x0000000008002a44        0x4 ./core/wireless/link/link_scheduler.o
                0x0000000008002a44                link_scheduler_set_time_slot_i
 .text.link_scheduler_enable_tx
                0x0000000008002a48        0x8 ./core/wireless/link/link_scheduler.o
                0x0000000008002a48                link_scheduler_enable_tx
 .text.link_scheduler_get_current_timeslot
                0x0000000008002a50       0x10 ./core/wireless/link/link_scheduler.o
                0x0000000008002a50                link_scheduler_get_current_timeslot
 .text.link_scheduler_get_next_timeslot_index
                0x0000000008002a60        0x4 ./core/wireless/link/link_scheduler.o
                0x0000000008002a60                link_scheduler_get_next_timeslot_index
 .text.link_scheduler_get_sleep_time
                0x0000000008002a64        0x4 ./core/wireless/link/link_scheduler.o
                0x0000000008002a64                link_scheduler_get_sleep_time
 .text.link_scheduler_get_timeslot_for_syncing
                0x0000000008002a68        0x8 ./core/wireless/link/link_scheduler.o
                0x0000000008002a68                link_scheduler_get_timeslot_for_syncing
 .text.link_tdma_sync_init
                0x0000000008002a70       0x6c ./core/wireless/link/link_tdma_sync.o
                0x0000000008002a70                link_tdma_sync_init
 .text.link_tdma_sync_update_tx
                0x0000000008002adc       0x8c ./core/wireless/link/link_tdma_sync.o
                0x0000000008002adc                link_tdma_sync_update_tx
 .text.link_tdma_sync_update_rx
                0x0000000008002b68       0x90 ./core/wireless/link/link_tdma_sync.o
                0x0000000008002b68                link_tdma_sync_update_rx
 .text.link_tdma_sync_slave_adjust
                0x0000000008002bf8       0x9c ./core/wireless/link/link_tdma_sync.o
                0x0000000008002bf8                link_tdma_sync_slave_adjust
 .text.link_tdma_sync_slave_find
                0x0000000008002c94       0x90 ./core/wireless/link/link_tdma_sync.o
                0x0000000008002c94                link_tdma_sync_slave_find
 .text.link_tdma_sync_get_sleep_cycles
                0x0000000008002d24        0x4 ./core/wireless/link/link_tdma_sync.o
                0x0000000008002d24                link_tdma_sync_get_sleep_cycles
 .text.link_tdma_sync_get_timeout
                0x0000000008002d28        0x4 ./core/wireless/link/link_tdma_sync.o
                0x0000000008002d28                link_tdma_sync_get_timeout
 .text.link_tdma_sync_get_pwr_up
                0x0000000008002d2c        0x4 ./core/wireless/link/link_tdma_sync.o
                0x0000000008002d2c                link_tdma_sync_get_pwr_up
 .text.link_tdma_sync_is_slave_synced
                0x0000000008002d30        0x4 ./core/wireless/link/link_tdma_sync.o
                0x0000000008002d30                link_tdma_sync_is_slave_synced
 .text.sr1000_access_open
                0x0000000008002d34        0x4 ./core/wireless/phy/sr1000_access.o
                0x0000000008002d34                sr1000_access_open
 .text.sr1000_access_close
                0x0000000008002d38        0x4 ./core/wireless/phy/sr1000_access.o
                0x0000000008002d38                sr1000_access_close
 .text.sr1000_access_burst_read
                0x0000000008002d3c       0x28 ./core/wireless/phy/sr1000_access.o
                0x0000000008002d3c                sr1000_access_burst_read
 .text.sr1000_access_burst_write
                0x0000000008002d64       0x28 ./core/wireless/phy/sr1000_access.o
                0x0000000008002d64                sr1000_access_burst_write
 .text.sr1000_access_write_reg
                0x0000000008002d8c       0x2c ./core/wireless/phy/sr1000_access.o
                0x0000000008002d8c                sr1000_access_write_reg
 .text.sr1000_access_read_reg
                0x0000000008002db8       0x28 ./core/wireless/phy/sr1000_access.o
                0x0000000008002db8                sr1000_access_read_reg
 .text.sr1000_access_wait_for_bit_set
                0x0000000008002de0       0x30 ./core/wireless/phy/sr1000_access.o
                0x0000000008002de0                sr1000_access_wait_for_bit_set
 .text.sr1000_access_adv_init
                0x0000000008002e10       0x1c ./core/wireless/phy/sr1000_access_adv.o
                0x0000000008002e10                sr1000_access_adv_init
 .text.sr1000_access_adv_append_read
                0x0000000008002e2c       0x1c ./core/wireless/phy/sr1000_access_adv.o
                0x0000000008002e2c                sr1000_access_adv_append_read
 .text.sr1000_access_adv_transfer_blocking
                0x0000000008002e48       0x18 ./core/wireless/phy/sr1000_access_adv.o
                0x0000000008002e48                sr1000_access_adv_transfer_blocking
 .text.sr1000_access_adv_transfer_non_blocking
                0x0000000008002e60       0x18 ./core/wireless/phy/sr1000_access_adv.o
                0x0000000008002e60                sr1000_access_adv_transfer_non_blocking
 .text.sr1000_access_adv_append_write
                0x0000000008002e78       0x1c ./core/wireless/phy/sr1000_access_adv.o
                0x0000000008002e78                sr1000_access_adv_append_write
 .text.sr1000_access_adv_append_write_burst
                0x0000000008002e94       0x28 ./core/wireless/phy/sr1000_access_adv.o
                0x0000000008002e94                sr1000_access_adv_append_write_burst
 .text.sr1000_access_adv_append_read_burst
                0x0000000008002ebc       0x20 ./core/wireless/phy/sr1000_access_adv.o
                0x0000000008002ebc                sr1000_access_adv_append_read_burst
 .text.sr1000_access_adv_enable_radio_irq
                0x0000000008002edc        0x4 ./core/wireless/phy/sr1000_access_adv.o
                0x0000000008002edc                sr1000_access_adv_enable_radio_irq
 .text.sr1000_access_adv_disable_radio_irq
                0x0000000008002ee0        0x4 ./core/wireless/phy/sr1000_access_adv.o
                0x0000000008002ee0                sr1000_access_adv_disable_radio_irq
 .text.sr1000_access_adv_spi_transfer_non_blocking
                0x0000000008002ee4       0x14 ./core/wireless/phy/sr1000_access_adv.o
                0x0000000008002ee4                sr1000_access_adv_spi_transfer_non_blocking
 .text.sr1000_calib_v1_find_new_dcro_code
                0x0000000008002ef8       0xa8 ./core/wireless/phy/sr1000_calib.o
 .text.sr1000_calib_v2_clean_up_freq_table
                0x0000000008002fa0       0xac ./core/wireless/phy/sr1000_calib.o
 .text.use_calib_v1
                0x000000000800304c       0x74 ./core/wireless/phy/sr1000_calib.o
 .text.sr1000_calib_fill_freq_table
                0x00000000080030c0       0x78 ./core/wireless/phy/sr1000_calib.o
 .text.sr1000_calib_v1_apply_dcro_codes_offsets
                0x0000000008003138       0x3c ./core/wireless/phy/sr1000_calib.o
 .text.sr1000_calib_v1_fill_new_dcro_codes_table.isra.0
                0x0000000008003174       0x68 ./core/wireless/phy/sr1000_calib.o
 .text.sr1000_calib_v2_apply_vcro_offsets.isra.0
                0x00000000080031dc       0x4c ./core/wireless/phy/sr1000_calib.o
 .text.sr1000_calib_init
                0x0000000008003228       0x1c ./core/wireless/phy/sr1000_calib.o
                0x0000000008003228                sr1000_calib_init
 .text.sr1000_calib_vref_tune_offset
                0x0000000008003244       0x20 ./core/wireless/phy/sr1000_calib.o
                0x0000000008003244                sr1000_calib_vref_tune_offset
 .text.sr1000_calib_tune_delay_line
                0x0000000008003264       0x78 ./core/wireless/phy/sr1000_calib.o
                0x0000000008003264                sr1000_calib_tune_delay_line
 .text.sr1000_calib_frequency_to_code
                0x00000000080032dc       0xe0 ./core/wireless/phy/sr1000_calib.o
                0x00000000080032dc                sr1000_calib_frequency_to_code
 .text.sr1000_calib_run_frequency_calibration
                0x00000000080033bc      0x134 ./core/wireless/phy/sr1000_calib.o
                0x00000000080033bc                sr1000_calib_run_frequency_calibration
 .text.sr1000_calib_get_lna_peak
                0x00000000080034f0       0x44 ./core/wireless/phy/sr1000_calib.o
                0x00000000080034f0                sr1000_calib_get_lna_peak
 .text.sr1000_calib_get_next_dcro_code
                0x0000000008003534       0x8c ./core/wireless/phy/sr1000_calib.o
                0x0000000008003534                sr1000_calib_get_next_dcro_code
 .text.sr1000_nvm_get_product_id_model
                0x00000000080035c0       0x10 ./core/wireless/phy/sr1000_nvm.o
                0x00000000080035c0                sr1000_nvm_get_product_id_model
 .text.sr1000_nvm_get_product_id_version
                0x00000000080035d0        0xc ./core/wireless/phy/sr1000_nvm.o
                0x00000000080035d0                sr1000_nvm_get_product_id_version
 .text.sr1000_nvm_get_product_id_package
                0x00000000080035dc       0x10 ./core/wireless/phy/sr1000_nvm.o
                0x00000000080035dc                sr1000_nvm_get_product_id_package
 .text.sr1000_nvm_get_calibration
                0x00000000080035ec        0x8 ./core/wireless/phy/sr1000_nvm.o
                0x00000000080035ec                sr1000_nvm_get_calibration
 .text.sr1000_nvm_get_vcro_shift
                0x00000000080035f4       0x10 ./core/wireless/phy/sr1000_nvm.o
                0x00000000080035f4                sr1000_nvm_get_vcro_shift
 .text.sr1000_nvm_get_vref_adjust_pulse_width_offset
                0x0000000008003604       0x14 ./core/wireless/phy/sr1000_nvm.o
                0x0000000008003604                sr1000_nvm_get_vref_adjust_pulse_width_offset
 .text.sr1000_nvm_get_vref_adjust_vref_tune_offset
                0x0000000008003618       0x18 ./core/wireless/phy/sr1000_nvm.o
                0x0000000008003618                sr1000_nvm_get_vref_adjust_vref_tune_offset
 .text.sr1000_nvm_get_serial_number
                0x0000000008003630       0x14 ./core/wireless/phy/sr1000_nvm.o
                0x0000000008003630                sr1000_nvm_get_serial_number
 .text.sr1000_nvm_get_serial_number_binning_setup_code
                0x0000000008003644        0xc ./core/wireless/phy/sr1000_nvm.o
                0x0000000008003644                sr1000_nvm_get_serial_number_binning_setup_code
 .text.sr1000_nvm_get_serial_number_chip_id
                0x0000000008003650        0xc ./core/wireless/phy/sr1000_nvm.o
                0x0000000008003650                sr1000_nvm_get_serial_number_chip_id
 .text.sr1000_nvm_power_up
                0x000000000800365c       0x20 ./core/wireless/phy/sr1000_nvm.o
                0x000000000800365c                sr1000_nvm_power_up
 .text.sr1000_nvm_read
                0x000000000800367c       0x6c ./core/wireless/phy/sr1000_nvm.o
                0x000000000800367c                sr1000_nvm_read
 .text.sr1000_nvm_init
                0x00000000080036e8       0x90 ./core/wireless/phy/sr1000_nvm.o
                0x00000000080036e8                sr1000_nvm_init
 .text.set_pulses
                0x0000000008003778       0xfc ./core/wireless/phy/sr1000_spectral.o
 .text.config_spectrum_advance
                0x0000000008003874       0x74 ./core/wireless/phy/sr1000_spectral.o
                0x0000000008003874                config_spectrum_advance
 .text.wps_init_critical_section
                0x00000000080038e8        0x4 ./core/wireless/protocol_stack/wps.o
                0x00000000080038e8                wps_init_critical_section
 .text.wps_radio_init
                0x00000000080038ec       0x44 ./core/wireless/protocol_stack/wps.o
                0x00000000080038ec                wps_radio_init
 .text.wps_radio_calibrate
                0x0000000008003930       0x10 ./core/wireless/protocol_stack/wps.o
                0x0000000008003930                wps_radio_calibrate
 .text.wps_init_callback_queue
                0x0000000008003940        0xc ./core/wireless/protocol_stack/wps.o
                0x0000000008003940                wps_init_callback_queue
 .text.wps_init
                0x000000000800394c       0xa4 ./core/wireless/protocol_stack/wps.o
                0x000000000800394c                wps_init
 .text.wps_set_coordinator_address
                0x00000000080039f0        0x8 ./core/wireless/protocol_stack/wps.o
                0x00000000080039f0                wps_set_coordinator_address
 .text.wps_phy_init
                0x00000000080039f8       0x2c ./core/wireless/protocol_stack/wps.o
                0x00000000080039f8                wps_phy_init
 .text.wps_config_node
                0x0000000008003a24       0xdc ./core/wireless/protocol_stack/wps.o
                0x0000000008003a24                wps_config_node
 .text.wps_config_network_schedule
                0x0000000008003b00       0x38 ./core/wireless/protocol_stack/wps.o
                0x0000000008003b00                wps_config_network_schedule
 .text.wps_config_network_channel_sequence
                0x0000000008003b38        0x8 ./core/wireless/protocol_stack/wps.o
                0x0000000008003b38                wps_config_network_channel_sequence
 .text.wps_disable_concurrency
                0x0000000008003b40        0x8 ./core/wireless/protocol_stack/wps.o
                0x0000000008003b40                wps_disable_concurrency
 .text.wps_disable_fast_sync
                0x0000000008003b48        0x8 ./core/wireless/protocol_stack/wps.o
                0x0000000008003b48                wps_disable_fast_sync
 .text.wps_create_connection
                0x0000000008003b50      0x10c ./core/wireless/protocol_stack/wps.o
                0x0000000008003b50                wps_create_connection
 .text.wps_connection_set_timeslot
                0x0000000008003c5c       0x38 ./core/wireless/protocol_stack/wps.o
                0x0000000008003c5c                wps_connection_set_timeslot
 .text.wps_connection_config_channel
                0x0000000008003c94       0x20 ./core/wireless/protocol_stack/wps.o
                0x0000000008003c94                wps_connection_config_channel
 .text.wps_connection_config_frame
                0x0000000008003cb4        0xc ./core/wireless/protocol_stack/wps.o
                0x0000000008003cb4                wps_connection_config_frame
 .text.wps_connection_enable_ack
                0x0000000008003cc0        0x8 ./core/wireless/protocol_stack/wps.o
                0x0000000008003cc0                wps_connection_enable_ack
 .text.wps_connection_enable_stop_and_wait_arq
                0x0000000008003cc8       0x24 ./core/wireless/protocol_stack/wps.o
                0x0000000008003cc8                wps_connection_enable_stop_and_wait_arq
 .text.wps_connection_enable_auto_sync
                0x0000000008003cec        0x8 ./core/wireless/protocol_stack/wps.o
                0x0000000008003cec                wps_connection_enable_auto_sync
 .text.wps_connection_disable_cca
                0x0000000008003cf4       0x1c ./core/wireless/protocol_stack/wps.o
                0x0000000008003cf4                wps_connection_disable_cca
 .text.wps_connect
                0x0000000008003d10       0xc4 ./core/wireless/protocol_stack/wps.o
                0x0000000008003d10                wps_connect
 .text.wps_get_free_slot
                0x0000000008003dd4       0x18 ./core/wireless/protocol_stack/wps.o
                0x0000000008003dd4                wps_get_free_slot
 .text.wps_send
                0x0000000008003dec       0x58 ./core/wireless/protocol_stack/wps.o
                0x0000000008003dec                wps_send
 .text.wps_read
                0x0000000008003e44       0x30 ./core/wireless/protocol_stack/wps.o
                0x0000000008003e44                wps_read
 .text.wps_read_done
                0x0000000008003e74        0x8 ./core/wireless/protocol_stack/wps.o
                0x0000000008003e74                wps_read_done
 .text.wps_get_fifo_free_space
                0x0000000008003e7c        0x8 ./core/wireless/protocol_stack/wps.o
                0x0000000008003e7c                wps_get_fifo_free_space
 .text.wps_callback_enqueue
                0x0000000008003e84       0x20 ./core/wireless/protocol_stack/wps_callback.o
                0x0000000008003e84                wps_callback_enqueue
 .text.check_radio_irq
                0x0000000008003ea4       0x18 ./core/wireless/protocol_stack/wps_l1.o
 .text.signal_yield
                0x0000000008003ebc        0x8 ./core/wireless/protocol_stack/wps_l1.o
 .text.end      0x0000000008003ec4       0x24 ./core/wireless/protocol_stack/wps_l1.o
 .text.set_config
                0x0000000008003ee8        0xc ./core/wireless/protocol_stack/wps_l1.o
 .text.set_payload_cut_through
                0x0000000008003ef4       0x98 ./core/wireless/protocol_stack/wps_l1.o
 .text.set_header
                0x0000000008003f8c       0x28 ./core/wireless/protocol_stack/wps_l1.o
 .text.handle_missed_frame
                0x0000000008003fb4       0x6c ./core/wireless/protocol_stack/wps_l1.o
 .text.enqueue_tx_prepare_frame_states
                0x0000000008004020       0x54 ./core/wireless/protocol_stack/wps_l1.o
 .text.close_spi
                0x0000000008004074       0x20 ./core/wireless/protocol_stack/wps_l1.o
 .text.prepare_radio
                0x0000000008004094      0x4f4 ./core/wireless/protocol_stack/wps_l1.o
 .text.clear_err.isra.0
                0x0000000008004588       0x88 ./core/wireless/protocol_stack/wps_l1.o
 .text.prepare_l1
                0x0000000008004610      0x254 ./core/wireless/protocol_stack/wps_l1.o
 .text.process_event
                0x0000000008004864      0x268 ./core/wireless/protocol_stack/wps_l1.o
 .text.get_payload_cut_through
                0x0000000008004acc      0x108 ./core/wireless/protocol_stack/wps_l1.o
 .text.read_events
                0x0000000008004bd4       0x44 ./core/wireless/protocol_stack/wps_l1.o
 .text.setup_cut_through
                0x0000000008004c18       0x84 ./core/wireless/protocol_stack/wps_l1.o
 .text.end_tx_cut_through
                0x0000000008004c9c       0x38 ./core/wireless/protocol_stack/wps_l1.o
 .text.get_header
                0x0000000008004cd4       0xdc ./core/wireless/protocol_stack/wps_l1.o
 .text.get_payload
                0x0000000008004db0       0xb4 ./core/wireless/protocol_stack/wps_l1.o
 .text.end_flush
                0x0000000008004e64       0x28 ./core/wireless/protocol_stack/wps_l1.o
 .text.read_events_syncing
                0x0000000008004e8c       0x5c ./core/wireless/protocol_stack/wps_l1.o
 .text.enable_radio_irq
                0x0000000008004ee8       0x3c ./core/wireless/protocol_stack/wps_l1.o
 .text.set_payload
                0x0000000008004f24       0x30 ./core/wireless/protocol_stack/wps_l1.o
 .text.wps_l1_init
                0x0000000008004f54       0x24 ./core/wireless/protocol_stack/wps_l1.o
                0x0000000008004f54                wps_l1_init
 .text.wps_l1_reset
                0x0000000008004f78       0x1c ./core/wireless/protocol_stack/wps_l1.o
                0x0000000008004f78                wps_l1_reset
 .text.wps_l1_process
                0x0000000008004f94       0x44 ./core/wireless/protocol_stack/wps_l1.o
                0x0000000008004f94                wps_l1_process
 .text.state_stop_wait_arq
                0x0000000008004fd8        0x4 ./core/wireless/protocol_stack/wps_l2.o
 .text.update_wps_stats
                0x0000000008004fdc      0x104 ./core/wireless/protocol_stack/wps_l2.o
 .text.state_post_rx
                0x00000000080050e0      0x1ec ./core/wireless/protocol_stack/wps_l2.o
 .text.state_link_quality
                0x00000000080052cc       0x80 ./core/wireless/protocol_stack/wps_l2.o
 .text.state_post_tx
                0x000000000800534c      0x1e0 ./core/wireless/protocol_stack/wps_l2.o
 .text.state_prepare_internal_frame
                0x000000000800552c       0x84 ./core/wireless/protocol_stack/wps_l2.o
 .text.state_scheduler
                0x00000000080055b0       0xb0 ./core/wireless/protocol_stack/wps_l2.o
 .text.state_sync
                0x0000000008005660       0x80 ./core/wireless/protocol_stack/wps_l2.o
 .text.get_xlayer_for_rx
                0x00000000080056e0       0x54 ./core/wireless/protocol_stack/wps_l2.o
 .text.state_l2_prepare_frame
                0x0000000008005734       0x68 ./core/wireless/protocol_stack/wps_l2.o
 .text.get_xlayer_for_tx
                0x000000000800579c      0x114 ./core/wireless/protocol_stack/wps_l2.o
 .text.state_setup_prime_link
                0x00000000080058b0       0xa4 ./core/wireless/protocol_stack/wps_l2.o
 .text.state_setup_primary_link
                0x0000000008005954      0x1b0 ./core/wireless/protocol_stack/wps_l2.o
 .text.end      0x0000000008005b04        0x4 ./core/wireless/protocol_stack/wps_l2.o
 .text.state_setup_ack_link
                0x0000000008005b08        0x4 ./core/wireless/protocol_stack/wps_l2.o
 .text.wps_l2_init
                0x0000000008005b0c       0xf4 ./core/wireless/protocol_stack/wps_l2.o
                0x0000000008005b0c                wps_l2_init
 .text.wps_l2_reset
                0x0000000008005c00       0x18 ./core/wireless/protocol_stack/wps_l2.o
                0x0000000008005c00                wps_l2_reset
 .text.wps_l2_process
                0x0000000008005c18       0xe8 ./core/wireless/protocol_stack/wps_l2.o
                0x0000000008005c18                wps_l2_process
 .text.wps_process
                0x0000000008005d00      0x260 ./core/wireless/protocol_stack/wps_process.o
                0x0000000008005d00                wps_process
 .text.wps_radio_irq
                0x0000000008005f60       0x10 ./core/wireless/protocol_stack/wps_process.o
                0x0000000008005f60                wps_radio_irq
 .text.wps_transfer_complete
                0x0000000008005f70       0x10 ./core/wireless/protocol_stack/wps_process.o
                0x0000000008005f70                wps_transfer_complete
 .text.wps_process_callback
                0x0000000008005f80       0x2c ./core/wireless/protocol_stack/wps_process.o
                0x0000000008005f80                wps_process_callback
 .text.uwb_reset
                0x0000000008005fac       0x2c ./core/wireless/transceiver/sr1000_api.o
                0x0000000008005fac                uwb_reset
 .text.uwb_init
                0x0000000008005fd8       0x74 ./core/wireless/transceiver/sr1000_api.o
                0x0000000008005fd8                uwb_init
 .text.uwb_calibrate
                0x000000000800604c       0xc0 ./core/wireless/transceiver/sr1000_api.o
                0x000000000800604c                uwb_calibrate
 .text.uwb_enable_irq
                0x000000000800610c       0x3c ./core/wireless/transceiver/sr1000_api.o
                0x000000000800610c                uwb_enable_irq
 .text.uwb_get_events
                0x0000000008006148       0x30 ./core/wireless/transceiver/sr1000_api.o
                0x0000000008006148                uwb_get_events
 .text.uwb_flush_tx_buffer
                0x0000000008006178       0x20 ./core/wireless/transceiver/sr1000_api.o
                0x0000000008006178                uwb_flush_tx_buffer
 .text.uwb_flush_rx_buffer
                0x0000000008006198       0x20 ./core/wireless/transceiver/sr1000_api.o
                0x0000000008006198                uwb_flush_rx_buffer
 .text.uwb_write_register
                0x00000000080061b8       0x28 ./core/wireless/transceiver/sr1000_api.o
                0x00000000080061b8                uwb_write_register
 .text.uwb_read_register
                0x00000000080061e0       0x24 ./core/wireless/transceiver/sr1000_api.o
                0x00000000080061e0                uwb_read_register
 .text.uwb_adv_set_shadow_reg
                0x0000000008006204       0x78 ./core/wireless/transceiver/sr1000_api_adv.o
                0x0000000008006204                uwb_adv_set_shadow_reg
 .text.uwb_adv_init
                0x000000000800627c       0x48 ./core/wireless/transceiver/sr1000_api_adv.o
                0x000000000800627c                uwb_adv_init
 .text.uwb_adv_set_destination_address
                0x00000000080062c4       0x3c ./core/wireless/transceiver/sr1000_api_adv.o
                0x00000000080062c4                uwb_adv_set_destination_address
 .text.uwb_adv_set_local_address
                0x0000000008006300       0x3c ./core/wireless/transceiver/sr1000_api_adv.o
                0x0000000008006300                uwb_adv_set_local_address
 .text.uwb_adv_set_rx_pause_time
                0x000000000800633c       0x34 ./core/wireless/transceiver/sr1000_api_adv.o
                0x000000000800633c                uwb_adv_set_rx_pause_time
 .text.uwb_adv_set_timer_config
                0x0000000008006370       0x38 ./core/wireless/transceiver/sr1000_api_adv.o
                0x0000000008006370                uwb_adv_set_timer_config
 .text.uwb_adv_set_irq1_flag
                0x00000000080063a8       0x34 ./core/wireless/transceiver/sr1000_api_adv.o
                0x00000000080063a8                uwb_adv_set_irq1_flag
 .text.uwb_adv_set_irq2_flag
                0x00000000080063dc       0x40 ./core/wireless/transceiver/sr1000_api_adv.o
                0x00000000080063dc                uwb_adv_set_irq2_flag
 .text.uwb_adv_disable_irq1
                0x000000000800641c       0x1c ./core/wireless/transceiver/sr1000_api_adv.o
                0x000000000800641c                uwb_adv_disable_irq1
 .text.uwb_adv_disable_irq2
                0x0000000008006438       0x1c ./core/wireless/transceiver/sr1000_api_adv.o
                0x0000000008006438                uwb_adv_disable_irq2
 .text.uwb_adv_set_sleep_config
                0x0000000008006454       0x24 ./core/wireless/transceiver/sr1000_api_adv.o
                0x0000000008006454                uwb_adv_set_sleep_config
 .text.uwb_adv_set_radio_actions
                0x0000000008006478       0x38 ./core/wireless/transceiver/sr1000_api_adv.o
                0x0000000008006478                uwb_adv_set_radio_actions
 .text.uwb_adv_get_irq1_flag
                0x00000000080064b0       0x20 ./core/wireless/transceiver/sr1000_api_adv.o
                0x00000000080064b0                uwb_adv_get_irq1_flag
 .text.uwb_adv_get_irq2_flag
                0x00000000080064d0       0x20 ./core/wireless/transceiver/sr1000_api_adv.o
                0x00000000080064d0                uwb_adv_get_irq2_flag
 .text.uwb_adv_set_crc
                0x00000000080064f0       0x2c ./core/wireless/transceiver/sr1000_api_adv.o
                0x00000000080064f0                uwb_adv_set_crc
 .text.uwb_adv_set_main_modem_features
                0x000000000800651c       0x2c ./core/wireless/transceiver/sr1000_api_adv.o
                0x000000000800651c                uwb_adv_set_main_modem_features
 .text.uwb_adv_set_const_gains
                0x0000000008006548       0x1c ./core/wireless/transceiver/sr1000_api_adv.o
                0x0000000008006548                uwb_adv_set_const_gains
 .text.uwb_adv_set_preamble_length
                0x0000000008006564       0x24 ./core/wireless/transceiver/sr1000_api_adv.o
                0x0000000008006564                uwb_adv_set_preamble_length
 .text.uwb_adv_set_syncword_config
                0x0000000008006588       0x64 ./core/wireless/transceiver/sr1000_api_adv.o
                0x0000000008006588                uwb_adv_set_syncword_config
 .text.uwb_adv_set_tx_packet_size
                0x00000000080065ec       0x1c ./core/wireless/transceiver/sr1000_api_adv.o
                0x00000000080065ec                uwb_adv_set_tx_packet_size
 .text.uwb_adv_set_rx_waited_src
                0x0000000008006608       0x1c ./core/wireless/transceiver/sr1000_api_adv.o
                0x0000000008006608                uwb_adv_set_rx_waited_src
 .text.uwb_adv_set_rx_packet_size
                0x0000000008006624       0x1c ./core/wireless/transceiver/sr1000_api_adv.o
                0x0000000008006624                uwb_adv_set_rx_packet_size
 .text.uwb_adv_enable_integlen
                0x0000000008006640       0x28 ./core/wireless/transceiver/sr1000_api_adv.o
                0x0000000008006640                uwb_adv_enable_integlen
 .text.uwb_adv_set_integgain
                0x0000000008006668       0x2c ./core/wireless/transceiver/sr1000_api_adv.o
                0x0000000008006668                uwb_adv_set_integgain
 .text.uwb_adv_read
                0x0000000008006694       0x24 ./core/wireless/transceiver/sr1000_api_adv.o
                0x0000000008006694                uwb_adv_read
 .text.uwb_adv_set_tx_buffer_load_irq_threshold
                0x00000000080066b8       0x20 ./core/wireless/transceiver/sr1000_api_adv.o
                0x00000000080066b8                uwb_adv_set_tx_buffer_load_irq_threshold
 .text.uwb_adv_disable_tx_buffer_load_irq
                0x00000000080066d8       0x1c ./core/wireless/transceiver/sr1000_api_adv.o
                0x00000000080066d8                uwb_adv_disable_tx_buffer_load_irq
 .text.uwb_adv_set_rx_buffer_load_irq_threshold
                0x00000000080066f4       0x20 ./core/wireless/transceiver/sr1000_api_adv.o
                0x00000000080066f4                uwb_adv_set_rx_buffer_load_irq_threshold
 .text.uwb_adv_disable_rx_buffer_load_irq
                0x0000000008006714       0x1c ./core/wireless/transceiver/sr1000_api_adv.o
                0x0000000008006714                uwb_adv_disable_rx_buffer_load_irq
 .text.uwb_adv_set_cac
                0x0000000008006730       0x20 ./core/wireless/transceiver/sr1000_api_adv.o
                0x0000000008006730                uwb_adv_set_cac
 .text.uwb_adv_set_packet_config
                0x0000000008006750       0x34 ./core/wireless/transceiver/sr1000_api_adv.o
                0x0000000008006750                uwb_adv_set_packet_config
 .text.uwb_adv_select_channel
                0x0000000008006784       0x20 ./core/wireless/transceiver/sr1000_api_adv.o
                0x0000000008006784                uwb_adv_select_channel
 .text.uwb_adv_get_rx_wait_time
                0x00000000080067a4       0x38 ./core/wireless/transceiver/sr1000_api_adv.o
                0x00000000080067a4                uwb_adv_get_rx_wait_time
 .text.uwb_adv_get_rssi
                0x00000000080067dc       0x20 ./core/wireless/transceiver/sr1000_api_adv.o
                0x00000000080067dc                uwb_adv_get_rssi
 .text.uwb_adv_get_rnsi
                0x00000000080067fc       0x20 ./core/wireless/transceiver/sr1000_api_adv.o
                0x00000000080067fc                uwb_adv_get_rnsi
 .text.uwb_adv_fill_header_non_blocking
                0x000000000800681c       0x2c ./core/wireless/transceiver/sr1000_api_adv.o
                0x000000000800681c                uwb_adv_fill_header_non_blocking
 .text.uwb_adv_fill_data_non_blocking
                0x0000000008006848        0xc ./core/wireless/transceiver/sr1000_api_adv.o
                0x0000000008006848                uwb_adv_fill_data_non_blocking
 .text.uwb_adv_fill_cut_through_data
                0x0000000008006854       0x20 ./core/wireless/transceiver/sr1000_api_adv.o
                0x0000000008006854                uwb_adv_fill_cut_through_data
 .text.uwb_adv_transfer_non_blocking
                0x0000000008006874       0x1c ./core/wireless/transceiver/sr1000_api_adv.o
                0x0000000008006874                uwb_adv_transfer_non_blocking
 .text.uwb_adv_transfer_blocking
                0x0000000008006890       0x1c ./core/wireless/transceiver/sr1000_api_adv.o
                0x0000000008006890                uwb_adv_transfer_blocking
 .text.uwb_adv_set_wake_sleep_raw
                0x00000000080068ac       0x38 ./core/wireless/transceiver/sr1000_api_adv.o
                0x00000000080068ac                uwb_adv_set_wake_sleep_raw
 .text.uwb_adv_set_pwr_up_delay_raw
                0x00000000080068e4       0x24 ./core/wireless/transceiver/sr1000_api_adv.o
                0x00000000080068e4                uwb_adv_set_pwr_up_delay_raw
 .text.uwb_adv_set_rx_timeout_raw
                0x0000000008006908       0x38 ./core/wireless/transceiver/sr1000_api_adv.o
                0x0000000008006908                uwb_adv_set_rx_timeout_raw
 .text.uwb_adv_write_register
                0x0000000008006940       0x18 ./core/wireless/transceiver/sr1000_api_adv.o
                0x0000000008006940                uwb_adv_write_register
 .text.uwb_adv_read_register
                0x0000000008006958       0x1c ./core/wireless/transceiver/sr1000_api_adv.o
                0x0000000008006958                uwb_adv_read_register
 .text.uwb_error_init
                0x0000000008006974        0xc ./lib/spark/error/uwb_error.o
                0x0000000008006974                uwb_error_init
 .text.uwb_error_check
                0x0000000008006980       0x10 ./lib/spark/error/uwb_error.o
                0x0000000008006980                uwb_error_check
 .text.circular_queue_critical_section_init
                0x0000000008006990       0x1c ./lib/spark/queue/circular_queue.o
                0x0000000008006990                circular_queue_critical_section_init
 .text.circular_queue_init
                0x00000000080069ac       0x1c ./lib/spark/queue/circular_queue.o
                0x00000000080069ac                circular_queue_init
 .text.circular_queue_front_raw
                0x00000000080069c8        0x4 ./lib/spark/queue/circular_queue.o
                0x00000000080069c8                circular_queue_front_raw
 .text.circular_queue_front
                0x00000000080069cc       0x30 ./lib/spark/queue/circular_queue.o
                0x00000000080069cc                circular_queue_front
 .text.circular_queue_get_free_slot_raw
                0x00000000080069fc        0x4 ./lib/spark/queue/circular_queue.o
                0x00000000080069fc                circular_queue_get_free_slot_raw
 .text.circular_queue_get_free_slot
                0x0000000008006a00       0x28 ./lib/spark/queue/circular_queue.o
                0x0000000008006a00                circular_queue_get_free_slot
 .text.circular_queue_enqueue_raw
                0x0000000008006a28       0x24 ./lib/spark/queue/circular_queue.o
                0x0000000008006a28                circular_queue_enqueue_raw
 .text.circular_queue_enqueue
                0x0000000008006a4c       0x44 ./lib/spark/queue/circular_queue.o
                0x0000000008006a4c                circular_queue_enqueue
 .text.circular_queue_dequeue_raw
                0x0000000008006a90       0x24 ./lib/spark/queue/circular_queue.o
                0x0000000008006a90                circular_queue_dequeue_raw
 .text.circular_queue_dequeue
                0x0000000008006ab4       0x4c ./lib/spark/queue/circular_queue.o
                0x0000000008006ab4                circular_queue_dequeue
 .text.circular_queue_free_space
                0x0000000008006b00        0x4 ./lib/spark/queue/circular_queue.o
                0x0000000008006b00                circular_queue_free_space
 .text.circular_queue_is_empty
                0x0000000008006b04       0x10 ./lib/spark/queue/circular_queue.o
                0x0000000008006b04                circular_queue_is_empty
 .text.USBD_CDC_EP0_RxReady
                0x0000000008006b14       0x30 ./lib/third-party/stmicroelectronics/stm32_mw_usb_device/Class/CDC/Src/usbd_cdc.o
 .text.USBD_CDC_GetFSCfgDesc
                0x0000000008006b44        0xc ./lib/third-party/stmicroelectronics/stm32_mw_usb_device/Class/CDC/Src/usbd_cdc.o
 .text.USBD_CDC_GetHSCfgDesc
                0x0000000008006b50        0xc ./lib/third-party/stmicroelectronics/stm32_mw_usb_device/Class/CDC/Src/usbd_cdc.o
 .text.USBD_CDC_GetOtherSpeedCfgDesc
                0x0000000008006b5c        0xc ./lib/third-party/stmicroelectronics/stm32_mw_usb_device/Class/CDC/Src/usbd_cdc.o
 .text.USBD_CDC_GetDeviceQualifierDescriptor
                0x0000000008006b68        0xc ./lib/third-party/stmicroelectronics/stm32_mw_usb_device/Class/CDC/Src/usbd_cdc.o
                0x0000000008006b68                USBD_CDC_GetDeviceQualifierDescriptor
 .text.USBD_CDC_DataOut
                0x0000000008006b74       0x2c ./lib/third-party/stmicroelectronics/stm32_mw_usb_device/Class/CDC/Src/usbd_cdc.o
 .text.USBD_CDC_DataIn
                0x0000000008006ba0       0x64 ./lib/third-party/stmicroelectronics/stm32_mw_usb_device/Class/CDC/Src/usbd_cdc.o
 .text.USBD_CDC_Setup
                0x0000000008006c04      0x114 ./lib/third-party/stmicroelectronics/stm32_mw_usb_device/Class/CDC/Src/usbd_cdc.o
 .text.USBD_CDC_DeInit
                0x0000000008006d18       0x44 ./lib/third-party/stmicroelectronics/stm32_mw_usb_device/Class/CDC/Src/usbd_cdc.o
 .text.USBD_CDC_Init
                0x0000000008006d5c       0xb8 ./lib/third-party/stmicroelectronics/stm32_mw_usb_device/Class/CDC/Src/usbd_cdc.o
 .text.USBD_CDC_RegisterInterface
                0x0000000008006e14       0x10 ./lib/third-party/stmicroelectronics/stm32_mw_usb_device/Class/CDC/Src/usbd_cdc.o
                0x0000000008006e14                USBD_CDC_RegisterInterface
 .text.USBD_CDC_SetTxBuffer
                0x0000000008006e24       0x18 ./lib/third-party/stmicroelectronics/stm32_mw_usb_device/Class/CDC/Src/usbd_cdc.o
                0x0000000008006e24                USBD_CDC_SetTxBuffer
 .text.USBD_CDC_SetRxBuffer
                0x0000000008006e3c       0x14 ./lib/third-party/stmicroelectronics/stm32_mw_usb_device/Class/CDC/Src/usbd_cdc.o
                0x0000000008006e3c                USBD_CDC_SetRxBuffer
 .text.USBD_CDC_TransmitPacket
                0x0000000008006e50       0x30 ./lib/third-party/stmicroelectronics/stm32_mw_usb_device/Class/CDC/Src/usbd_cdc.o
                0x0000000008006e50                USBD_CDC_TransmitPacket
 .text.USBD_CDC_ReceivePacket
                0x0000000008006e80       0x34 ./lib/third-party/stmicroelectronics/stm32_mw_usb_device/Class/CDC/Src/usbd_cdc.o
                0x0000000008006e80                USBD_CDC_ReceivePacket
 .text.USBD_Init
                0x0000000008006eb4       0x28 ./lib/third-party/stmicroelectronics/stm32_mw_usb_device/Core/Src/usbd_core.o
                0x0000000008006eb4                USBD_Init
 .text.USBD_DeInit
                0x0000000008006edc       0x3c ./lib/third-party/stmicroelectronics/stm32_mw_usb_device/Core/Src/usbd_core.o
                0x0000000008006edc                USBD_DeInit
 .text.USBD_RegisterClass
                0x0000000008006f18       0x34 ./lib/third-party/stmicroelectronics/stm32_mw_usb_device/Core/Src/usbd_core.o
                0x0000000008006f18                USBD_RegisterClass
 .text.USBD_Start
                0x0000000008006f4c        0x4 ./lib/third-party/stmicroelectronics/stm32_mw_usb_device/Core/Src/usbd_core.o
                0x0000000008006f4c                USBD_Start
 .text.USBD_SetClassConfig
                0x0000000008006f50       0x10 ./lib/third-party/stmicroelectronics/stm32_mw_usb_device/Core/Src/usbd_core.o
                0x0000000008006f50                USBD_SetClassConfig
 .text.USBD_ClrClassConfig
                0x0000000008006f60       0x10 ./lib/third-party/stmicroelectronics/stm32_mw_usb_device/Core/Src/usbd_core.o
                0x0000000008006f60                USBD_ClrClassConfig
 .text.USBD_LL_SetupStage
                0x0000000008006f70       0x60 ./lib/third-party/stmicroelectronics/stm32_mw_usb_device/Core/Src/usbd_core.o
                0x0000000008006f70                USBD_LL_SetupStage
 .text.USBD_LL_DataOutStage
                0x0000000008006fd0       0x68 ./lib/third-party/stmicroelectronics/stm32_mw_usb_device/Core/Src/usbd_core.o
                0x0000000008006fd0                USBD_LL_DataOutStage
 .text.USBD_LL_DataInStage
                0x0000000008007038       0xac ./lib/third-party/stmicroelectronics/stm32_mw_usb_device/Core/Src/usbd_core.o
                0x0000000008007038                USBD_LL_DataInStage
 .text.USBD_LL_Reset
                0x00000000080070e4       0x58 ./lib/third-party/stmicroelectronics/stm32_mw_usb_device/Core/Src/usbd_core.o
                0x00000000080070e4                USBD_LL_Reset
 .text.USBD_LL_SetSpeed
                0x000000000800713c        0x8 ./lib/third-party/stmicroelectronics/stm32_mw_usb_device/Core/Src/usbd_core.o
                0x000000000800713c                USBD_LL_SetSpeed
 .text.USBD_LL_Suspend
                0x0000000008007144       0x18 ./lib/third-party/stmicroelectronics/stm32_mw_usb_device/Core/Src/usbd_core.o
                0x0000000008007144                USBD_LL_Suspend
 .text.USBD_LL_Resume
                0x000000000800715c       0x18 ./lib/third-party/stmicroelectronics/stm32_mw_usb_device/Core/Src/usbd_core.o
                0x000000000800715c                USBD_LL_Resume
 .text.USBD_LL_SOF
                0x0000000008007174       0x28 ./lib/third-party/stmicroelectronics/stm32_mw_usb_device/Core/Src/usbd_core.o
                0x0000000008007174                USBD_LL_SOF
 .text.USBD_StdDevReq
                0x000000000800719c      0x340 ./lib/third-party/stmicroelectronics/stm32_mw_usb_device/Core/Src/usbd_ctlreq.o
                0x000000000800719c                USBD_StdDevReq
 .text.USBD_StdItfReq
                0x00000000080074dc       0x60 ./lib/third-party/stmicroelectronics/stm32_mw_usb_device/Core/Src/usbd_ctlreq.o
                0x00000000080074dc                USBD_StdItfReq
 .text.USBD_StdEPReq
                0x000000000800753c      0x134 ./lib/third-party/stmicroelectronics/stm32_mw_usb_device/Core/Src/usbd_ctlreq.o
                0x000000000800753c                USBD_StdEPReq
 .text.USBD_ParseSetupRequest
                0x0000000008007670       0x28 ./lib/third-party/stmicroelectronics/stm32_mw_usb_device/Core/Src/usbd_ctlreq.o
                0x0000000008007670                USBD_ParseSetupRequest
 .text.USBD_CtlError
                0x0000000008007698       0x18 ./lib/third-party/stmicroelectronics/stm32_mw_usb_device/Core/Src/usbd_ctlreq.o
                0x0000000008007698                USBD_CtlError
 .text.USBD_GetString
                0x00000000080076b0       0x4c ./lib/third-party/stmicroelectronics/stm32_mw_usb_device/Core/Src/usbd_ctlreq.o
                0x00000000080076b0                USBD_GetString
 .text.USBD_CtlSendData
                0x00000000080076fc       0x1c ./lib/third-party/stmicroelectronics/stm32_mw_usb_device/Core/Src/usbd_ioreq.o
                0x00000000080076fc                USBD_CtlSendData
 .text.USBD_CtlContinueSendData
                0x0000000008007718       0x10 ./lib/third-party/stmicroelectronics/stm32_mw_usb_device/Core/Src/usbd_ioreq.o
                0x0000000008007718                USBD_CtlContinueSendData
 .text.USBD_CtlPrepareRx
                0x0000000008007728       0x1c ./lib/third-party/stmicroelectronics/stm32_mw_usb_device/Core/Src/usbd_ioreq.o
                0x0000000008007728                USBD_CtlPrepareRx
 .text.USBD_CtlContinueRx
                0x0000000008007744       0x10 ./lib/third-party/stmicroelectronics/stm32_mw_usb_device/Core/Src/usbd_ioreq.o
                0x0000000008007744                USBD_CtlContinueRx
 .text.USBD_CtlSendStatus
                0x0000000008007754       0x18 ./lib/third-party/stmicroelectronics/stm32_mw_usb_device/Core/Src/usbd_ioreq.o
                0x0000000008007754                USBD_CtlSendStatus
 .text.USBD_CtlReceiveStatus
                0x000000000800776c       0x18 ./lib/third-party/stmicroelectronics/stm32_mw_usb_device/Core/Src/usbd_ioreq.o
                0x000000000800776c                USBD_CtlReceiveStatus
 .text.HAL_Init
                0x0000000008007784       0x20 ./lib/third-party/stmicroelectronics/stm32g4xx_hal_driver/Src/stm32g4xx_hal.o
                0x0000000008007784                HAL_Init
 .text.HAL_IncTick
                0x00000000080077a4       0x18 ./lib/third-party/stmicroelectronics/stm32g4xx_hal_driver/Src/stm32g4xx_hal.o
                0x00000000080077a4                HAL_IncTick
 .text.HAL_GetTick
                0x00000000080077bc        0xc ./lib/third-party/stmicroelectronics/stm32g4xx_hal_driver/Src/stm32g4xx_hal.o
                0x00000000080077bc                HAL_GetTick
 .text.HAL_Delay
                0x00000000080077c8       0x24 ./lib/third-party/stmicroelectronics/stm32g4xx_hal_driver/Src/stm32g4xx_hal.o
                0x00000000080077c8                HAL_Delay
 .text.HAL_NVIC_SetPriorityGrouping
                0x00000000080077ec       0x28 ./lib/third-party/stmicroelectronics/stm32g4xx_hal_driver/Src/stm32g4xx_hal_cortex.o
                0x00000000080077ec                HAL_NVIC_SetPriorityGrouping
 .text.HAL_NVIC_SetPriority
                0x0000000008007814       0x70 ./lib/third-party/stmicroelectronics/stm32g4xx_hal_driver/Src/stm32g4xx_hal_cortex.o
                0x0000000008007814                HAL_NVIC_SetPriority
 .text.HAL_NVIC_EnableIRQ
                0x0000000008007884       0x1c ./lib/third-party/stmicroelectronics/stm32g4xx_hal_driver/Src/stm32g4xx_hal_cortex.o
                0x0000000008007884                HAL_NVIC_EnableIRQ
 .text.HAL_NVIC_DisableIRQ
                0x00000000080078a0       0x28 ./lib/third-party/stmicroelectronics/stm32g4xx_hal_driver/Src/stm32g4xx_hal_cortex.o
                0x00000000080078a0                HAL_NVIC_DisableIRQ
 .text.HAL_SYSTICK_Config
                0x00000000080078c8       0x34 ./lib/third-party/stmicroelectronics/stm32g4xx_hal_driver/Src/stm32g4xx_hal_cortex.o
                0x00000000080078c8                HAL_SYSTICK_Config
 .text.HAL_NVIC_ClearPendingIRQ
                0x00000000080078fc       0x20 ./lib/third-party/stmicroelectronics/stm32g4xx_hal_driver/Src/stm32g4xx_hal_cortex.o
                0x00000000080078fc                HAL_NVIC_ClearPendingIRQ
 .text.HAL_SYSTICK_CLKSourceConfig
                0x000000000800791c       0x18 ./lib/third-party/stmicroelectronics/stm32g4xx_hal_driver/Src/stm32g4xx_hal_cortex.o
                0x000000000800791c                HAL_SYSTICK_CLKSourceConfig
 .text.HAL_DMA_Init
                0x0000000008007934      0x11c ./lib/third-party/stmicroelectronics/stm32g4xx_hal_driver/Src/stm32g4xx_hal_dma.o
                0x0000000008007934                HAL_DMA_Init
 .text.HAL_DMA_Abort
                0x0000000008007a50       0x74 ./lib/third-party/stmicroelectronics/stm32g4xx_hal_driver/Src/stm32g4xx_hal_dma.o
                0x0000000008007a50                HAL_DMA_Abort
 .text.HAL_DMA_Abort_IT
                0x0000000008007ac4       0x80 ./lib/third-party/stmicroelectronics/stm32g4xx_hal_driver/Src/stm32g4xx_hal_dma.o
                0x0000000008007ac4                HAL_DMA_Abort_IT
 .text.HAL_DMA_IRQHandler
                0x0000000008007b44       0x9c ./lib/third-party/stmicroelectronics/stm32g4xx_hal_driver/Src/stm32g4xx_hal_dma.o
                0x0000000008007b44                HAL_DMA_IRQHandler
 .text.HAL_GPIO_Init
                0x0000000008007be0      0x1e8 ./lib/third-party/stmicroelectronics/stm32g4xx_hal_driver/Src/stm32g4xx_hal_gpio.o
                0x0000000008007be0                HAL_GPIO_Init
 .text.HAL_GPIO_ReadPin
                0x0000000008007dc8        0xc ./lib/third-party/stmicroelectronics/stm32g4xx_hal_driver/Src/stm32g4xx_hal_gpio.o
                0x0000000008007dc8                HAL_GPIO_ReadPin
 .text.HAL_GPIO_WritePin
                0x0000000008007dd4        0xc ./lib/third-party/stmicroelectronics/stm32g4xx_hal_driver/Src/stm32g4xx_hal_gpio.o
                0x0000000008007dd4                HAL_GPIO_WritePin
 .text.HAL_GPIO_EXTI_Callback
                0x0000000008007de0        0x4 ./lib/third-party/stmicroelectronics/stm32g4xx_hal_driver/Src/stm32g4xx_hal_gpio.o
                0x0000000008007de0                HAL_GPIO_EXTI_Callback
 .text.HAL_GPIO_EXTI_IRQHandler
                0x0000000008007de4       0x18 ./lib/third-party/stmicroelectronics/stm32g4xx_hal_driver/Src/stm32g4xx_hal_gpio.o
                0x0000000008007de4                HAL_GPIO_EXTI_IRQHandler
 .text.HAL_PCD_Init
                0x0000000008007dfc       0xc4 ./lib/third-party/stmicroelectronics/stm32g4xx_hal_driver/Src/stm32g4xx_hal_pcd.o
                0x0000000008007dfc                HAL_PCD_Init
 .text.HAL_PCD_DeInit
                0x0000000008007ec0       0x2c ./lib/third-party/stmicroelectronics/stm32g4xx_hal_driver/Src/stm32g4xx_hal_pcd.o
                0x0000000008007ec0                HAL_PCD_DeInit
 .text.HAL_PCD_Start
                0x0000000008007eec       0x2c ./lib/third-party/stmicroelectronics/stm32g4xx_hal_driver/Src/stm32g4xx_hal_pcd.o
                0x0000000008007eec                HAL_PCD_Start
 .text.HAL_PCD_Stop
                0x0000000008007f18       0x2c ./lib/third-party/stmicroelectronics/stm32g4xx_hal_driver/Src/stm32g4xx_hal_pcd.o
                0x0000000008007f18                HAL_PCD_Stop
 .text.HAL_PCD_IRQHandler
                0x0000000008007f44      0xb4c ./lib/third-party/stmicroelectronics/stm32g4xx_hal_driver/Src/stm32g4xx_hal_pcd.o
                0x0000000008007f44                HAL_PCD_IRQHandler
 .text.HAL_PCD_SetAddress
                0x0000000008008a90       0x28 ./lib/third-party/stmicroelectronics/stm32g4xx_hal_driver/Src/stm32g4xx_hal_pcd.o
                0x0000000008008a90                HAL_PCD_SetAddress
 .text.HAL_PCD_EP_Open
                0x0000000008008ab8       0x68 ./lib/third-party/stmicroelectronics/stm32g4xx_hal_driver/Src/stm32g4xx_hal_pcd.o
                0x0000000008008ab8                HAL_PCD_EP_Open
 .text.HAL_PCD_EP_Close
                0x0000000008008b20       0x60 ./lib/third-party/stmicroelectronics/stm32g4xx_hal_driver/Src/stm32g4xx_hal_pcd.o
                0x0000000008008b20                HAL_PCD_EP_Close
 .text.HAL_PCD_EP_Receive
                0x0000000008008b80       0x38 ./lib/third-party/stmicroelectronics/stm32g4xx_hal_driver/Src/stm32g4xx_hal_pcd.o
                0x0000000008008b80                HAL_PCD_EP_Receive
 .text.HAL_PCD_EP_GetRxCount
                0x0000000008008bb8       0x14 ./lib/third-party/stmicroelectronics/stm32g4xx_hal_driver/Src/stm32g4xx_hal_pcd.o
                0x0000000008008bb8                HAL_PCD_EP_GetRxCount
 .text.HAL_PCD_EP_Transmit
                0x0000000008008bcc       0x3c ./lib/third-party/stmicroelectronics/stm32g4xx_hal_driver/Src/stm32g4xx_hal_pcd.o
                0x0000000008008bcc                HAL_PCD_EP_Transmit
 .text.HAL_PCD_EP_SetStall
                0x0000000008008c08       0x70 ./lib/third-party/stmicroelectronics/stm32g4xx_hal_driver/Src/stm32g4xx_hal_pcd.o
                0x0000000008008c08                HAL_PCD_EP_SetStall
 .text.HAL_PCD_EP_ClrStall
                0x0000000008008c78       0x74 ./lib/third-party/stmicroelectronics/stm32g4xx_hal_driver/Src/stm32g4xx_hal_pcd.o
                0x0000000008008c78                HAL_PCD_EP_ClrStall
 .text.HAL_PCDEx_PMAConfig
                0x0000000008008cec       0x3c ./lib/third-party/stmicroelectronics/stm32g4xx_hal_driver/Src/stm32g4xx_hal_pcd_ex.o
                0x0000000008008cec                HAL_PCDEx_PMAConfig
 .text.HAL_PCDEx_ActivateLPM
                0x0000000008008d28       0x34 ./lib/third-party/stmicroelectronics/stm32g4xx_hal_driver/Src/stm32g4xx_hal_pcd_ex.o
                0x0000000008008d28                HAL_PCDEx_ActivateLPM
 .text.HAL_PWREx_ControlVoltageScaling
                0x0000000008008d5c       0xfc ./lib/third-party/stmicroelectronics/stm32g4xx_hal_driver/Src/stm32g4xx_hal_pwr_ex.o
                0x0000000008008d5c                HAL_PWREx_ControlVoltageScaling
 .text.HAL_RCC_DeInit
                0x0000000008008e58       0xc0 ./lib/third-party/stmicroelectronics/stm32g4xx_hal_driver/Src/stm32g4xx_hal_rcc.o
                0x0000000008008e58                HAL_RCC_DeInit
 .text.HAL_RCC_OscConfig
                0x0000000008008f18      0x498 ./lib/third-party/stmicroelectronics/stm32g4xx_hal_driver/Src/stm32g4xx_hal_rcc.o
                0x0000000008008f18                HAL_RCC_OscConfig
 .text.HAL_RCC_MCOConfig
                0x00000000080093b0       0x50 ./lib/third-party/stmicroelectronics/stm32g4xx_hal_driver/Src/stm32g4xx_hal_rcc.o
                0x00000000080093b0                HAL_RCC_MCOConfig
 .text.HAL_RCC_GetSysClockFreq
                0x0000000008009400       0x70 ./lib/third-party/stmicroelectronics/stm32g4xx_hal_driver/Src/stm32g4xx_hal_rcc.o
                0x0000000008009400                HAL_RCC_GetSysClockFreq
 .text.HAL_RCC_ClockConfig
                0x0000000008009470      0x224 ./lib/third-party/stmicroelectronics/stm32g4xx_hal_driver/Src/stm32g4xx_hal_rcc.o
                0x0000000008009470                HAL_RCC_ClockConfig
 .text.HAL_RCC_GetPCLK1Freq
                0x0000000008009694       0x24 ./lib/third-party/stmicroelectronics/stm32g4xx_hal_driver/Src/stm32g4xx_hal_rcc.o
                0x0000000008009694                HAL_RCC_GetPCLK1Freq
 .text.HAL_RCC_GetPCLK2Freq
                0x00000000080096b8       0x24 ./lib/third-party/stmicroelectronics/stm32g4xx_hal_driver/Src/stm32g4xx_hal_rcc.o
                0x00000000080096b8                HAL_RCC_GetPCLK2Freq
 .text.HAL_RCC_GetClockConfig
                0x00000000080096dc       0x44 ./lib/third-party/stmicroelectronics/stm32g4xx_hal_driver/Src/stm32g4xx_hal_rcc.o
                0x00000000080096dc                HAL_RCC_GetClockConfig
 .text.HAL_RCCEx_PeriphCLKConfig
                0x0000000008009720      0x310 ./lib/third-party/stmicroelectronics/stm32g4xx_hal_driver/Src/stm32g4xx_hal_rcc_ex.o
                0x0000000008009720                HAL_RCCEx_PeriphCLKConfig
 .text.SPI_WaitFlagStateUntilTimeout.constprop.0
                0x0000000008009a30       0xb0 ./lib/third-party/stmicroelectronics/stm32g4xx_hal_driver/Src/stm32g4xx_hal_spi.o
 .text.SPI_WaitFifoStateUntilTimeout.constprop.0
                0x0000000008009ae0       0xd0 ./lib/third-party/stmicroelectronics/stm32g4xx_hal_driver/Src/stm32g4xx_hal_spi.o
 .text.SPI_EndRxTransaction
                0x0000000008009bb0       0x84 ./lib/third-party/stmicroelectronics/stm32g4xx_hal_driver/Src/stm32g4xx_hal_spi.o
 .text.SPI_EndRxTxTransaction
                0x0000000008009c34       0x40 ./lib/third-party/stmicroelectronics/stm32g4xx_hal_driver/Src/stm32g4xx_hal_spi.o
 .text.HAL_SPI_Init
                0x0000000008009c74      0x10c ./lib/third-party/stmicroelectronics/stm32g4xx_hal_driver/Src/stm32g4xx_hal_spi.o
                0x0000000008009c74                HAL_SPI_Init
 .text.HAL_SPI_Transmit
                0x0000000008009d80      0x1c0 ./lib/third-party/stmicroelectronics/stm32g4xx_hal_driver/Src/stm32g4xx_hal_spi.o
                0x0000000008009d80                HAL_SPI_Transmit
 .text.HAL_SPI_TransmitReceive
                0x0000000008009f40      0x2a8 ./lib/third-party/stmicroelectronics/stm32g4xx_hal_driver/Src/stm32g4xx_hal_spi.o
                0x0000000008009f40                HAL_SPI_TransmitReceive
 .text.HAL_SPI_Receive
                0x000000000800a1e8      0x170 ./lib/third-party/stmicroelectronics/stm32g4xx_hal_driver/Src/stm32g4xx_hal_spi.o
                0x000000000800a1e8                HAL_SPI_Receive
 .text.HAL_TIM_Base_MspInit
                0x000000000800a358        0x4 ./lib/third-party/stmicroelectronics/stm32g4xx_hal_driver/Src/stm32g4xx_hal_tim.o
                0x000000000800a358                HAL_TIM_Base_MspInit
 .text.HAL_TIM_Base_Start
                0x000000000800a35c       0x78 ./lib/third-party/stmicroelectronics/stm32g4xx_hal_driver/Src/stm32g4xx_hal_tim.o
                0x000000000800a35c                HAL_TIM_Base_Start
 .text.HAL_TIM_Base_Start_IT
                0x000000000800a3d4       0x84 ./lib/third-party/stmicroelectronics/stm32g4xx_hal_driver/Src/stm32g4xx_hal_tim.o
                0x000000000800a3d4                HAL_TIM_Base_Start_IT
 .text.HAL_TIM_PeriodElapsedCallback
                0x000000000800a458        0x4 ./lib/third-party/stmicroelectronics/stm32g4xx_hal_driver/Src/stm32g4xx_hal_tim.o
                0x000000000800a458                HAL_TIM_PeriodElapsedCallback
 .text.HAL_TIM_OC_DelayElapsedCallback
                0x000000000800a45c        0x4 ./lib/third-party/stmicroelectronics/stm32g4xx_hal_driver/Src/stm32g4xx_hal_tim.o
                0x000000000800a45c                HAL_TIM_OC_DelayElapsedCallback
 .text.HAL_TIM_IC_CaptureCallback
                0x000000000800a460        0x4 ./lib/third-party/stmicroelectronics/stm32g4xx_hal_driver/Src/stm32g4xx_hal_tim.o
                0x000000000800a460                HAL_TIM_IC_CaptureCallback
 .text.HAL_TIM_PWM_PulseFinishedCallback
                0x000000000800a464        0x4 ./lib/third-party/stmicroelectronics/stm32g4xx_hal_driver/Src/stm32g4xx_hal_tim.o
                0x000000000800a464                HAL_TIM_PWM_PulseFinishedCallback
 .text.HAL_TIM_TriggerCallback
                0x000000000800a468        0x4 ./lib/third-party/stmicroelectronics/stm32g4xx_hal_driver/Src/stm32g4xx_hal_tim.o
                0x000000000800a468                HAL_TIM_TriggerCallback
 .text.HAL_TIM_IRQHandler
                0x000000000800a46c      0x1f4 ./lib/third-party/stmicroelectronics/stm32g4xx_hal_driver/Src/stm32g4xx_hal_tim.o
                0x000000000800a46c                HAL_TIM_IRQHandler
 .text.TIM_Base_SetConfig
                0x000000000800a660       0xd0 ./lib/third-party/stmicroelectronics/stm32g4xx_hal_driver/Src/stm32g4xx_hal_tim.o
                0x000000000800a660                TIM_Base_SetConfig
 .text.HAL_TIM_Base_Init
                0x000000000800a730       0x64 ./lib/third-party/stmicroelectronics/stm32g4xx_hal_driver/Src/stm32g4xx_hal_tim.o
                0x000000000800a730                HAL_TIM_Base_Init
 .text.HAL_TIMEx_CommutCallback
                0x000000000800a794        0x4 ./lib/third-party/stmicroelectronics/stm32g4xx_hal_driver/Src/stm32g4xx_hal_tim_ex.o
                0x000000000800a794                HAL_TIMEx_CommutCallback
 .text.HAL_TIMEx_BreakCallback
                0x000000000800a798        0x4 ./lib/third-party/stmicroelectronics/stm32g4xx_hal_driver/Src/stm32g4xx_hal_tim_ex.o
                0x000000000800a798                HAL_TIMEx_BreakCallback
 .text.HAL_TIMEx_Break2Callback
                0x000000000800a79c        0x4 ./lib/third-party/stmicroelectronics/stm32g4xx_hal_driver/Src/stm32g4xx_hal_tim_ex.o
                0x000000000800a79c                HAL_TIMEx_Break2Callback
 .text.HAL_TIMEx_EncoderIndexCallback
                0x000000000800a7a0        0x4 ./lib/third-party/stmicroelectronics/stm32g4xx_hal_driver/Src/stm32g4xx_hal_tim_ex.o
                0x000000000800a7a0                HAL_TIMEx_EncoderIndexCallback
 .text.HAL_TIMEx_DirectionChangeCallback
                0x000000000800a7a4        0x4 ./lib/third-party/stmicroelectronics/stm32g4xx_hal_driver/Src/stm32g4xx_hal_tim_ex.o
                0x000000000800a7a4                HAL_TIMEx_DirectionChangeCallback
 .text.HAL_TIMEx_IndexErrorCallback
                0x000000000800a7a8        0x4 ./lib/third-party/stmicroelectronics/stm32g4xx_hal_driver/Src/stm32g4xx_hal_tim_ex.o
                0x000000000800a7a8                HAL_TIMEx_IndexErrorCallback
 .text.HAL_TIMEx_TransitionErrorCallback
                0x000000000800a7ac        0x4 ./lib/third-party/stmicroelectronics/stm32g4xx_hal_driver/Src/stm32g4xx_hal_tim_ex.o
                0x000000000800a7ac                HAL_TIMEx_TransitionErrorCallback
 .text.HAL_UART_ErrorCallback
                0x000000000800a7b0        0x4 ./lib/third-party/stmicroelectronics/stm32g4xx_hal_driver/Src/stm32g4xx_hal_uart.o
                0x000000000800a7b0                HAL_UART_ErrorCallback
 .text.UART_DMAAbortOnError
                0x000000000800a7b4       0x14 ./lib/third-party/stmicroelectronics/stm32g4xx_hal_driver/Src/stm32g4xx_hal_uart.o
 .text.HAL_UARTEx_RxEventCallback
                0x000000000800a7c8        0x4 ./lib/third-party/stmicroelectronics/stm32g4xx_hal_driver/Src/stm32g4xx_hal_uart.o
                0x000000000800a7c8                HAL_UARTEx_RxEventCallback
 .text.HAL_UART_IRQHandler
                0x000000000800a7cc      0x2cc ./lib/third-party/stmicroelectronics/stm32g4xx_hal_driver/Src/stm32g4xx_hal_uart.o
                0x000000000800a7cc                HAL_UART_IRQHandler
 .text.UART_SetConfig
                0x000000000800aa98      0x320 ./lib/third-party/stmicroelectronics/stm32g4xx_hal_driver/Src/stm32g4xx_hal_uart.o
                0x000000000800aa98                UART_SetConfig
 .text.UART_AdvFeatureConfig
                0x000000000800adb8       0xb0 ./lib/third-party/stmicroelectronics/stm32g4xx_hal_driver/Src/stm32g4xx_hal_uart.o
                0x000000000800adb8                UART_AdvFeatureConfig
 .text.UART_WaitOnFlagUntilTimeout
                0x000000000800ae68       0xa8 ./lib/third-party/stmicroelectronics/stm32g4xx_hal_driver/Src/stm32g4xx_hal_uart.o
                0x000000000800ae68                UART_WaitOnFlagUntilTimeout
 .text.UART_CheckIdleState
                0x000000000800af10       0x74 ./lib/third-party/stmicroelectronics/stm32g4xx_hal_driver/Src/stm32g4xx_hal_uart.o
                0x000000000800af10                UART_CheckIdleState
 .text.HAL_UART_Init
                0x000000000800af84       0x68 ./lib/third-party/stmicroelectronics/stm32g4xx_hal_driver/Src/stm32g4xx_hal_uart.o
                0x000000000800af84                HAL_UART_Init
 .text.UARTEx_SetNbDataToProcess.part.0
                0x000000000800afec       0x3c ./lib/third-party/stmicroelectronics/stm32g4xx_hal_driver/Src/stm32g4xx_hal_uart_ex.o
 .text.HAL_UARTEx_WakeupCallback
                0x000000000800b028        0x4 ./lib/third-party/stmicroelectronics/stm32g4xx_hal_driver/Src/stm32g4xx_hal_uart_ex.o
                0x000000000800b028                HAL_UARTEx_WakeupCallback
 .text.HAL_UARTEx_RxFifoFullCallback
                0x000000000800b02c        0x4 ./lib/third-party/stmicroelectronics/stm32g4xx_hal_driver/Src/stm32g4xx_hal_uart_ex.o
                0x000000000800b02c                HAL_UARTEx_RxFifoFullCallback
 .text.HAL_UARTEx_TxFifoEmptyCallback
                0x000000000800b030        0x4 ./lib/third-party/stmicroelectronics/stm32g4xx_hal_driver/Src/stm32g4xx_hal_uart_ex.o
                0x000000000800b030                HAL_UARTEx_TxFifoEmptyCallback
 .text.HAL_UARTEx_DisableFifoMode
                0x000000000800b034       0x3c ./lib/third-party/stmicroelectronics/stm32g4xx_hal_driver/Src/stm32g4xx_hal_uart_ex.o
                0x000000000800b034                HAL_UARTEx_DisableFifoMode
 .text.HAL_UARTEx_SetTxFifoThreshold
                0x000000000800b070       0x54 ./lib/third-party/stmicroelectronics/stm32g4xx_hal_driver/Src/stm32g4xx_hal_uart_ex.o
                0x000000000800b070                HAL_UARTEx_SetTxFifoThreshold
 .text.HAL_UARTEx_SetRxFifoThreshold
                0x000000000800b0c4       0x54 ./lib/third-party/stmicroelectronics/stm32g4xx_hal_driver/Src/stm32g4xx_hal_uart_ex.o
                0x000000000800b0c4                HAL_UARTEx_SetRxFifoThreshold
 .text.USB_EnableGlobalInt
                0x000000000800b118       0x14 ./lib/third-party/stmicroelectronics/stm32g4xx_hal_driver/Src/stm32g4xx_ll_usb.o
                0x000000000800b118                USB_EnableGlobalInt
 .text.USB_DisableGlobalInt
                0x000000000800b12c       0x14 ./lib/third-party/stmicroelectronics/stm32g4xx_hal_driver/Src/stm32g4xx_ll_usb.o
                0x000000000800b12c                USB_DisableGlobalInt
 .text.USB_DevInit
                0x000000000800b140       0x28 ./lib/third-party/stmicroelectronics/stm32g4xx_hal_driver/Src/stm32g4xx_ll_usb.o
                0x000000000800b140                USB_DevInit
 .text.USB_ActivateEndpoint
                0x000000000800b168      0x310 ./lib/third-party/stmicroelectronics/stm32g4xx_hal_driver/Src/stm32g4xx_ll_usb.o
                0x000000000800b168                USB_ActivateEndpoint
 .text.USB_DeactivateEndpoint
                0x000000000800b478      0x1f0 ./lib/third-party/stmicroelectronics/stm32g4xx_hal_driver/Src/stm32g4xx_ll_usb.o
                0x000000000800b478                USB_DeactivateEndpoint
 .text.USB_EPStartXfer
                0x000000000800b668      0x9f8 ./lib/third-party/stmicroelectronics/stm32g4xx_hal_driver/Src/stm32g4xx_ll_usb.o
                0x000000000800b668                USB_EPStartXfer
 .text.USB_EPSetStall
                0x000000000800c060       0x50 ./lib/third-party/stmicroelectronics/stm32g4xx_hal_driver/Src/stm32g4xx_ll_usb.o
                0x000000000800c060                USB_EPSetStall
 .text.USB_EPClearStall
                0x000000000800c0b0       0xb0 ./lib/third-party/stmicroelectronics/stm32g4xx_hal_driver/Src/stm32g4xx_ll_usb.o
                0x000000000800c0b0                USB_EPClearStall
 .text.USB_StopDevice
                0x000000000800c160       0x18 ./lib/third-party/stmicroelectronics/stm32g4xx_hal_driver/Src/stm32g4xx_ll_usb.o
                0x000000000800c160                USB_StopDevice
 .text.USB_SetDevAddress
                0x000000000800c178        0xc ./lib/third-party/stmicroelectronics/stm32g4xx_hal_driver/Src/stm32g4xx_ll_usb.o
                0x000000000800c178                USB_SetDevAddress
 .text.USB_DevConnect
                0x000000000800c184       0x18 ./lib/third-party/stmicroelectronics/stm32g4xx_hal_driver/Src/stm32g4xx_ll_usb.o
                0x000000000800c184                USB_DevConnect
 .text.USB_DevDisconnect
                0x000000000800c19c       0x14 ./lib/third-party/stmicroelectronics/stm32g4xx_hal_driver/Src/stm32g4xx_ll_usb.o
                0x000000000800c19c                USB_DevDisconnect
 .text.USB_ReadInterrupts
                0x000000000800c1b0        0x8 ./lib/third-party/stmicroelectronics/stm32g4xx_hal_driver/Src/stm32g4xx_ll_usb.o
                0x000000000800c1b0                USB_ReadInterrupts
 .text.USB_WritePMA
                0x000000000800c1b8       0x20 ./lib/third-party/stmicroelectronics/stm32g4xx_hal_driver/Src/stm32g4xx_ll_usb.o
                0x000000000800c1b8                USB_WritePMA
 .text.USB_ReadPMA
                0x000000000800c1d8       0x50 ./lib/third-party/stmicroelectronics/stm32g4xx_hal_driver/Src/stm32g4xx_ll_usb.o
                0x000000000800c1d8                USB_ReadPMA
 .text.__errno  0x000000000800c228        0xc c:/st/stm32cubeide_1.7.0/stm32cubeide/plugins/com.st.stm32cube.ide.mcu.externaltools.gnu-tools-for-stm32.9-2020-q2-update.win32_2.0.0.202105311346/tools/bin/../lib/gcc/arm-none-eabi/9.3.1/../../../../arm-none-eabi/lib/thumb/v7e-m+fp/hard\libc_nano.a(lib_a-errno.o)
                0x000000000800c228                __errno
 .text.__libc_init_array
                0x000000000800c234       0x48 c:/st/stm32cubeide_1.7.0/stm32cubeide/plugins/com.st.stm32cube.ide.mcu.externaltools.gnu-tools-for-stm32.9-2020-q2-update.win32_2.0.0.202105311346/tools/bin/../lib/gcc/arm-none-eabi/9.3.1/../../../../arm-none-eabi/lib/thumb/v7e-m+fp/hard\libc_nano.a(lib_a-init.o)
                0x000000000800c234                __libc_init_array
 .text.memcpy   0x000000000800c27c       0x1c c:/st/stm32cubeide_1.7.0/stm32cubeide/plugins/com.st.stm32cube.ide.mcu.externaltools.gnu-tools-for-stm32.9-2020-q2-update.win32_2.0.0.202105311346/tools/bin/../lib/gcc/arm-none-eabi/9.3.1/../../../../arm-none-eabi/lib/thumb/v7e-m+fp/hard\libc_nano.a(lib_a-memcpy-stub.o)
                0x000000000800c27c                memcpy
 .text.memset   0x000000000800c298       0x10 c:/st/stm32cubeide_1.7.0/stm32cubeide/plugins/com.st.stm32cube.ide.mcu.externaltools.gnu-tools-for-stm32.9-2020-q2-update.win32_2.0.0.202105311346/tools/bin/../lib/gcc/arm-none-eabi/9.3.1/../../../../arm-none-eabi/lib/thumb/v7e-m+fp/hard\libc_nano.a(lib_a-memset.o)
                0x000000000800c298                memset
 .text.srand    0x000000000800c2a8       0x5c c:/st/stm32cubeide_1.7.0/stm32cubeide/plugins/com.st.stm32cube.ide.mcu.externaltools.gnu-tools-for-stm32.9-2020-q2-update.win32_2.0.0.202105311346/tools/bin/../lib/gcc/arm-none-eabi/9.3.1/../../../../arm-none-eabi/lib/thumb/v7e-m+fp/hard\libc_nano.a(lib_a-rand.o)
                0x000000000800c2a8                srand
 .text.rand     0x000000000800c304       0x80 c:/st/stm32cubeide_1.7.0/stm32cubeide/plugins/com.st.stm32cube.ide.mcu.externaltools.gnu-tools-for-stm32.9-2020-q2-update.win32_2.0.0.202105311346/tools/bin/../lib/gcc/arm-none-eabi/9.3.1/../../../../arm-none-eabi/lib/thumb/v7e-m+fp/hard\libc_nano.a(lib_a-rand.o)
                0x000000000800c304                rand
 .text.snprintf
                0x000000000800c384       0x68 c:/st/stm32cubeide_1.7.0/stm32cubeide/plugins/com.st.stm32cube.ide.mcu.externaltools.gnu-tools-for-stm32.9-2020-q2-update.win32_2.0.0.202105311346/tools/bin/../lib/gcc/arm-none-eabi/9.3.1/../../../../arm-none-eabi/lib/thumb/v7e-m+fp/hard\libc_nano.a(lib_a-snprintf.o)
                0x000000000800c384                sniprintf
                0x000000000800c384                snprintf
 .text._vsprintf_r
                0x000000000800c3ec       0x2c c:/st/stm32cubeide_1.7.0/stm32cubeide/plugins/com.st.stm32cube.ide.mcu.externaltools.gnu-tools-for-stm32.9-2020-q2-update.win32_2.0.0.202105311346/tools/bin/../lib/gcc/arm-none-eabi/9.3.1/../../../../arm-none-eabi/lib/thumb/v7e-m+fp/hard\libc_nano.a(lib_a-vsprintf.o)
                0x000000000800c3ec                _vsprintf_r
                0x000000000800c3ec                _vsiprintf_r
 .text.vsprintf
                0x000000000800c418       0x14 c:/st/stm32cubeide_1.7.0/stm32cubeide/plugins/com.st.stm32cube.ide.mcu.externaltools.gnu-tools-for-stm32.9-2020-q2-update.win32_2.0.0.202105311346/tools/bin/../lib/gcc/arm-none-eabi/9.3.1/../../../../arm-none-eabi/lib/thumb/v7e-m+fp/hard\libc_nano.a(lib_a-vsprintf.o)
                0x000000000800c418                vsiprintf
                0x000000000800c418                vsprintf
 .text.__assert_func
                0x000000000800c42c       0x3c c:/st/stm32cubeide_1.7.0/stm32cubeide/plugins/com.st.stm32cube.ide.mcu.externaltools.gnu-tools-for-stm32.9-2020-q2-update.win32_2.0.0.202105311346/tools/bin/../lib/gcc/arm-none-eabi/9.3.1/../../../../arm-none-eabi/lib/thumb/v7e-m+fp/hard\libc_nano.a(lib_a-assert.o)
                0x000000000800c42c                __assert_func
 .text.fprintf  0x000000000800c468       0x24 c:/st/stm32cubeide_1.7.0/stm32cubeide/plugins/com.st.stm32cube.ide.mcu.externaltools.gnu-tools-for-stm32.9-2020-q2-update.win32_2.0.0.202105311346/tools/bin/../lib/gcc/arm-none-eabi/9.3.1/../../../../arm-none-eabi/lib/thumb/v7e-m+fp/hard\libc_nano.a(lib_a-fprintf.o)
                0x000000000800c468                fiprintf
                0x000000000800c468                fprintf
 .text.malloc   0x000000000800c48c       0x10 c:/st/stm32cubeide_1.7.0/stm32cubeide/plugins/com.st.stm32cube.ide.mcu.externaltools.gnu-tools-for-stm32.9-2020-q2-update.win32_2.0.0.202105311346/tools/bin/../lib/gcc/arm-none-eabi/9.3.1/../../../../arm-none-eabi/lib/thumb/v7e-m+fp/hard\libc_nano.a(lib_a-malloc.o)
                0x000000000800c48c                malloc
 .text._free_r  0x000000000800c49c       0xa0 c:/st/stm32cubeide_1.7.0/stm32cubeide/plugins/com.st.stm32cube.ide.mcu.externaltools.gnu-tools-for-stm32.9-2020-q2-update.win32_2.0.0.202105311346/tools/bin/../lib/gcc/arm-none-eabi/9.3.1/../../../../arm-none-eabi/lib/thumb/v7e-m+fp/hard\libc_nano.a(lib_a-nano-freer.o)
                0x000000000800c49c                _free_r
 .text._malloc_r
                0x000000000800c53c       0xb4 c:/st/stm32cubeide_1.7.0/stm32cubeide/plugins/com.st.stm32cube.ide.mcu.externaltools.gnu-tools-for-stm32.9-2020-q2-update.win32_2.0.0.202105311346/tools/bin/../lib/gcc/arm-none-eabi/9.3.1/../../../../arm-none-eabi/lib/thumb/v7e-m+fp/hard\libc_nano.a(lib_a-nano-mallocr.o)
                0x000000000800c53c                _malloc_r
 .text.__ssputs_r
                0x000000000800c5f0       0xb6 c:/st/stm32cubeide_1.7.0/stm32cubeide/plugins/com.st.stm32cube.ide.mcu.externaltools.gnu-tools-for-stm32.9-2020-q2-update.win32_2.0.0.202105311346/tools/bin/../lib/gcc/arm-none-eabi/9.3.1/../../../../arm-none-eabi/lib/thumb/v7e-m+fp/hard\libc_nano.a(lib_a-nano-svfprintf.o)
                0x000000000800c5f0                __ssputs_r
 *fill*         0x000000000800c6a6        0x2 
 .text._svfprintf_r
                0x000000000800c6a8      0x200 c:/st/stm32cubeide_1.7.0/stm32cubeide/plugins/com.st.stm32cube.ide.mcu.externaltools.gnu-tools-for-stm32.9-2020-q2-update.win32_2.0.0.202105311346/tools/bin/../lib/gcc/arm-none-eabi/9.3.1/../../../../arm-none-eabi/lib/thumb/v7e-m+fp/hard\libc_nano.a(lib_a-nano-svfprintf.o)
                0x000000000800c6a8                _svfiprintf_r
                0x000000000800c6a8                _svfprintf_r
 .text.__sfputc_r
                0x000000000800c8a8       0x2e c:/st/stm32cubeide_1.7.0/stm32cubeide/plugins/com.st.stm32cube.ide.mcu.externaltools.gnu-tools-for-stm32.9-2020-q2-update.win32_2.0.0.202105311346/tools/bin/../lib/gcc/arm-none-eabi/9.3.1/../../../../arm-none-eabi/lib/thumb/v7e-m+fp/hard\libc_nano.a(lib_a-nano-vfprintf.o)
 .text.__sfputs_r
                0x000000000800c8d6       0x24 c:/st/stm32cubeide_1.7.0/stm32cubeide/plugins/com.st.stm32cube.ide.mcu.externaltools.gnu-tools-for-stm32.9-2020-q2-update.win32_2.0.0.202105311346/tools/bin/../lib/gcc/arm-none-eabi/9.3.1/../../../../arm-none-eabi/lib/thumb/v7e-m+fp/hard\libc_nano.a(lib_a-nano-vfprintf.o)
                0x000000000800c8d6                __sfputs_r
 *fill*         0x000000000800c8fa        0x2 
 .text._vfprintf_r
                0x000000000800c8fc      0x260 c:/st/stm32cubeide_1.7.0/stm32cubeide/plugins/com.st.stm32cube.ide.mcu.externaltools.gnu-tools-for-stm32.9-2020-q2-update.win32_2.0.0.202105311346/tools/bin/../lib/gcc/arm-none-eabi/9.3.1/../../../../arm-none-eabi/lib/thumb/v7e-m+fp/hard\libc_nano.a(lib_a-nano-vfprintf.o)
                0x000000000800c8fc                _vfprintf_r
                0x000000000800c8fc                _vfiprintf_r
 .text._printf_common
                0x000000000800cb5c       0xda c:/st/stm32cubeide_1.7.0/stm32cubeide/plugins/com.st.stm32cube.ide.mcu.externaltools.gnu-tools-for-stm32.9-2020-q2-update.win32_2.0.0.202105311346/tools/bin/../lib/gcc/arm-none-eabi/9.3.1/../../../../arm-none-eabi/lib/thumb/v7e-m+fp/hard\libc_nano.a(lib_a-nano-vfprintf_i.o)
                0x000000000800cb5c                _printf_common
 *fill*         0x000000000800cc36        0x2 
 .text._printf_i
                0x000000000800cc38      0x24c c:/st/stm32cubeide_1.7.0/stm32cubeide/plugins/com.st.stm32cube.ide.mcu.externaltools.gnu-tools-for-stm32.9-2020-q2-update.win32_2.0.0.202105311346/tools/bin/../lib/gcc/arm-none-eabi/9.3.1/../../../../arm-none-eabi/lib/thumb/v7e-m+fp/hard\libc_nano.a(lib_a-nano-vfprintf_i.o)
                0x000000000800cc38                _printf_i
 .text._sbrk_r  0x000000000800ce84       0x20 c:/st/stm32cubeide_1.7.0/stm32cubeide/plugins/com.st.stm32cube.ide.mcu.externaltools.gnu-tools-for-stm32.9-2020-q2-update.win32_2.0.0.202105311346/tools/bin/../lib/gcc/arm-none-eabi/9.3.1/../../../../arm-none-eabi/lib/thumb/v7e-m+fp/hard\libc_nano.a(lib_a-sbrkr.o)
                0x000000000800ce84                _sbrk_r
 .text.__swbuf_r
                0x000000000800cea4       0xa4 c:/st/stm32cubeide_1.7.0/stm32cubeide/plugins/com.st.stm32cube.ide.mcu.externaltools.gnu-tools-for-stm32.9-2020-q2-update.win32_2.0.0.202105311346/tools/bin/../lib/gcc/arm-none-eabi/9.3.1/../../../../arm-none-eabi/lib/thumb/v7e-m+fp/hard\libc_nano.a(lib_a-wbuf.o)
                0x000000000800cea4                __swbuf_r
 .text.__swsetup_r
                0x000000000800cf48       0xdc c:/st/stm32cubeide_1.7.0/stm32cubeide/plugins/com.st.stm32cube.ide.mcu.externaltools.gnu-tools-for-stm32.9-2020-q2-update.win32_2.0.0.202105311346/tools/bin/../lib/gcc/arm-none-eabi/9.3.1/../../../../arm-none-eabi/lib/thumb/v7e-m+fp/hard\libc_nano.a(lib_a-wsetup.o)
                0x000000000800cf48                __swsetup_r
 .text.abort    0x000000000800d024        0xe c:/st/stm32cubeide_1.7.0/stm32cubeide/plugins/com.st.stm32cube.ide.mcu.externaltools.gnu-tools-for-stm32.9-2020-q2-update.win32_2.0.0.202105311346/tools/bin/../lib/gcc/arm-none-eabi/9.3.1/../../../../arm-none-eabi/lib/thumb/v7e-m+fp/hard\libc_nano.a(lib_a-abort.o)
                0x000000000800d024                abort
 *fill*         0x000000000800d032        0x2 
 .text.__sflush_r
                0x000000000800d034      0x10c c:/st/stm32cubeide_1.7.0/stm32cubeide/plugins/com.st.stm32cube.ide.mcu.externaltools.gnu-tools-for-stm32.9-2020-q2-update.win32_2.0.0.202105311346/tools/bin/../lib/gcc/arm-none-eabi/9.3.1/../../../../arm-none-eabi/lib/thumb/v7e-m+fp/hard\libc_nano.a(lib_a-fflush.o)
                0x000000000800d034                __sflush_r
 .text._fflush_r
                0x000000000800d140       0x78 c:/st/stm32cubeide_1.7.0/stm32cubeide/plugins/com.st.stm32cube.ide.mcu.externaltools.gnu-tools-for-stm32.9-2020-q2-update.win32_2.0.0.202105311346/tools/bin/../lib/gcc/arm-none-eabi/9.3.1/../../../../arm-none-eabi/lib/thumb/v7e-m+fp/hard\libc_nano.a(lib_a-fflush.o)
                0x000000000800d140                _fflush_r
 .text.std      0x000000000800d1b8       0x48 c:/st/stm32cubeide_1.7.0/stm32cubeide/plugins/com.st.stm32cube.ide.mcu.externaltools.gnu-tools-for-stm32.9-2020-q2-update.win32_2.0.0.202105311346/tools/bin/../lib/gcc/arm-none-eabi/9.3.1/../../../../arm-none-eabi/lib/thumb/v7e-m+fp/hard\libc_nano.a(lib_a-findfp.o)
 .text._cleanup_r
                0x000000000800d200        0xc c:/st/stm32cubeide_1.7.0/stm32cubeide/plugins/com.st.stm32cube.ide.mcu.externaltools.gnu-tools-for-stm32.9-2020-q2-update.win32_2.0.0.202105311346/tools/bin/../lib/gcc/arm-none-eabi/9.3.1/../../../../arm-none-eabi/lib/thumb/v7e-m+fp/hard\libc_nano.a(lib_a-findfp.o)
                0x000000000800d200                _cleanup_r
 .text.__sfmoreglue
                0x000000000800d20c       0x2c c:/st/stm32cubeide_1.7.0/stm32cubeide/plugins/com.st.stm32cube.ide.mcu.externaltools.gnu-tools-for-stm32.9-2020-q2-update.win32_2.0.0.202105311346/tools/bin/../lib/gcc/arm-none-eabi/9.3.1/../../../../arm-none-eabi/lib/thumb/v7e-m+fp/hard\libc_nano.a(lib_a-findfp.o)
                0x000000000800d20c                __sfmoreglue
 .text.__sfp_lock_acquire
                0x000000000800d238        0xc c:/st/stm32cubeide_1.7.0/stm32cubeide/plugins/com.st.stm32cube.ide.mcu.externaltools.gnu-tools-for-stm32.9-2020-q2-update.win32_2.0.0.202105311346/tools/bin/../lib/gcc/arm-none-eabi/9.3.1/../../../../arm-none-eabi/lib/thumb/v7e-m+fp/hard\libc_nano.a(lib_a-findfp.o)
                0x000000000800d238                __sfp_lock_acquire
 .text.__sfp_lock_release
                0x000000000800d244        0xc c:/st/stm32cubeide_1.7.0/stm32cubeide/plugins/com.st.stm32cube.ide.mcu.externaltools.gnu-tools-for-stm32.9-2020-q2-update.win32_2.0.0.202105311346/tools/bin/../lib/gcc/arm-none-eabi/9.3.1/../../../../arm-none-eabi/lib/thumb/v7e-m+fp/hard\libc_nano.a(lib_a-findfp.o)
                0x000000000800d244                __sfp_lock_release
 .text.__sinit_lock_acquire
                0x000000000800d250        0xc c:/st/stm32cubeide_1.7.0/stm32cubeide/plugins/com.st.stm32cube.ide.mcu.externaltools.gnu-tools-for-stm32.9-2020-q2-update.win32_2.0.0.202105311346/tools/bin/../lib/gcc/arm-none-eabi/9.3.1/../../../../arm-none-eabi/lib/thumb/v7e-m+fp/hard\libc_nano.a(lib_a-findfp.o)
                0x000000000800d250                __sinit_lock_acquire
 .text.__sinit_lock_release
                0x000000000800d25c        0xc c:/st/stm32cubeide_1.7.0/stm32cubeide/plugins/com.st.stm32cube.ide.mcu.externaltools.gnu-tools-for-stm32.9-2020-q2-update.win32_2.0.0.202105311346/tools/bin/../lib/gcc/arm-none-eabi/9.3.1/../../../../arm-none-eabi/lib/thumb/v7e-m+fp/hard\libc_nano.a(lib_a-findfp.o)
                0x000000000800d25c                __sinit_lock_release
 .text.__sinit  0x000000000800d268       0x70 c:/st/stm32cubeide_1.7.0/stm32cubeide/plugins/com.st.stm32cube.ide.mcu.externaltools.gnu-tools-for-stm32.9-2020-q2-update.win32_2.0.0.202105311346/tools/bin/../lib/gcc/arm-none-eabi/9.3.1/../../../../arm-none-eabi/lib/thumb/v7e-m+fp/hard\libc_nano.a(lib_a-findfp.o)
                0x000000000800d268                __sinit
 .text.__sfp    0x000000000800d2d8       0x8c c:/st/stm32cubeide_1.7.0/stm32cubeide/plugins/com.st.stm32cube.ide.mcu.externaltools.gnu-tools-for-stm32.9-2020-q2-update.win32_2.0.0.202105311346/tools/bin/../lib/gcc/arm-none-eabi/9.3.1/../../../../arm-none-eabi/lib/thumb/v7e-m+fp/hard\libc_nano.a(lib_a-findfp.o)
                0x000000000800d2d8                __sfp
 .text._fwalk_reent
                0x000000000800d364       0x3e c:/st/stm32cubeide_1.7.0/stm32cubeide/plugins/com.st.stm32cube.ide.mcu.externaltools.gnu-tools-for-stm32.9-2020-q2-update.win32_2.0.0.202105311346/tools/bin/../lib/gcc/arm-none-eabi/9.3.1/../../../../arm-none-eabi/lib/thumb/v7e-m+fp/hard\libc_nano.a(lib_a-fwalk.o)
                0x000000000800d364                _fwalk_reent
 .text.__retarget_lock_init_recursive
                0x000000000800d3a2        0x2 c:/st/stm32cubeide_1.7.0/stm32cubeide/plugins/com.st.stm32cube.ide.mcu.externaltools.gnu-tools-for-stm32.9-2020-q2-update.win32_2.0.0.202105311346/tools/bin/../lib/gcc/arm-none-eabi/9.3.1/../../../../arm-none-eabi/lib/thumb/v7e-m+fp/hard\libc_nano.a(lib_a-lock.o)
                0x000000000800d3a2                __retarget_lock_init_recursive
 .text.__retarget_lock_acquire_recursive
                0x000000000800d3a4        0x2 c:/st/stm32cubeide_1.7.0/stm32cubeide/plugins/com.st.stm32cube.ide.mcu.externaltools.gnu-tools-for-stm32.9-2020-q2-update.win32_2.0.0.202105311346/tools/bin/../lib/gcc/arm-none-eabi/9.3.1/../../../../arm-none-eabi/lib/thumb/v7e-m+fp/hard\libc_nano.a(lib_a-lock.o)
                0x000000000800d3a4                __retarget_lock_acquire_recursive
 .text.__retarget_lock_release_recursive
                0x000000000800d3a6        0x2 c:/st/stm32cubeide_1.7.0/stm32cubeide/plugins/com.st.stm32cube.ide.mcu.externaltools.gnu-tools-for-stm32.9-2020-q2-update.win32_2.0.0.202105311346/tools/bin/../lib/gcc/arm-none-eabi/9.3.1/../../../../arm-none-eabi/lib/thumb/v7e-m+fp/hard\libc_nano.a(lib_a-lock.o)
                0x000000000800d3a6                __retarget_lock_release_recursive
 .text.__swhatbuf_r
                0x000000000800d3a8       0x48 c:/st/stm32cubeide_1.7.0/stm32cubeide/plugins/com.st.stm32cube.ide.mcu.externaltools.gnu-tools-for-stm32.9-2020-q2-update.win32_2.0.0.202105311346/tools/bin/../lib/gcc/arm-none-eabi/9.3.1/../../../../arm-none-eabi/lib/thumb/v7e-m+fp/hard\libc_nano.a(lib_a-makebuf.o)
                0x000000000800d3a8                __swhatbuf_r
 .text.__smakebuf_r
                0x000000000800d3f0       0x80 c:/st/stm32cubeide_1.7.0/stm32cubeide/plugins/com.st.stm32cube.ide.mcu.externaltools.gnu-tools-for-stm32.9-2020-q2-update.win32_2.0.0.202105311346/tools/bin/../lib/gcc/arm-none-eabi/9.3.1/../../../../arm-none-eabi/lib/thumb/v7e-m+fp/hard\libc_nano.a(lib_a-makebuf.o)
                0x000000000800d3f0                __smakebuf_r
 .text.memmove  0x000000000800d470       0x34 c:/st/stm32cubeide_1.7.0/stm32cubeide/plugins/com.st.stm32cube.ide.mcu.externaltools.gnu-tools-for-stm32.9-2020-q2-update.win32_2.0.0.202105311346/tools/bin/../lib/gcc/arm-none-eabi/9.3.1/../../../../arm-none-eabi/lib/thumb/v7e-m+fp/hard\libc_nano.a(lib_a-memmove.o)
                0x000000000800d470                memmove
 .text.__malloc_lock
                0x000000000800d4a4        0xc c:/st/stm32cubeide_1.7.0/stm32cubeide/plugins/com.st.stm32cube.ide.mcu.externaltools.gnu-tools-for-stm32.9-2020-q2-update.win32_2.0.0.202105311346/tools/bin/../lib/gcc/arm-none-eabi/9.3.1/../../../../arm-none-eabi/lib/thumb/v7e-m+fp/hard\libc_nano.a(lib_a-mlock.o)
                0x000000000800d4a4                __malloc_lock
 .text.__malloc_unlock
                0x000000000800d4b0        0xc c:/st/stm32cubeide_1.7.0/stm32cubeide/plugins/com.st.stm32cube.ide.mcu.externaltools.gnu-tools-for-stm32.9-2020-q2-update.win32_2.0.0.202105311346/tools/bin/../lib/gcc/arm-none-eabi/9.3.1/../../../../arm-none-eabi/lib/thumb/v7e-m+fp/hard\libc_nano.a(lib_a-mlock.o)
                0x000000000800d4b0                __malloc_unlock
 .text._realloc_r
                0x000000000800d4bc       0x4c c:/st/stm32cubeide_1.7.0/stm32cubeide/plugins/com.st.stm32cube.ide.mcu.externaltools.gnu-tools-for-stm32.9-2020-q2-update.win32_2.0.0.202105311346/tools/bin/../lib/gcc/arm-none-eabi/9.3.1/../../../../arm-none-eabi/lib/thumb/v7e-m+fp/hard\libc_nano.a(lib_a-nano-reallocr.o)
                0x000000000800d4bc                _realloc_r
 .text._raise_r
                0x000000000800d508       0x50 c:/st/stm32cubeide_1.7.0/stm32cubeide/plugins/com.st.stm32cube.ide.mcu.externaltools.gnu-tools-for-stm32.9-2020-q2-update.win32_2.0.0.202105311346/tools/bin/../lib/gcc/arm-none-eabi/9.3.1/../../../../arm-none-eabi/lib/thumb/v7e-m+fp/hard\libc_nano.a(lib_a-signal.o)
                0x000000000800d508                _raise_r
 .text.raise    0x000000000800d558       0x10 c:/st/stm32cubeide_1.7.0/stm32cubeide/plugins/com.st.stm32cube.ide.mcu.externaltools.gnu-tools-for-stm32.9-2020-q2-update.win32_2.0.0.202105311346/tools/bin/../lib/gcc/arm-none-eabi/9.3.1/../../../../arm-none-eabi/lib/thumb/v7e-m+fp/hard\libc_nano.a(lib_a-signal.o)
                0x000000000800d558                raise
 .text._kill_r  0x000000000800d568       0x24 c:/st/stm32cubeide_1.7.0/stm32cubeide/plugins/com.st.stm32cube.ide.mcu.externaltools.gnu-tools-for-stm32.9-2020-q2-update.win32_2.0.0.202105311346/tools/bin/../lib/gcc/arm-none-eabi/9.3.1/../../../../arm-none-eabi/lib/thumb/v7e-m+fp/hard\libc_nano.a(lib_a-signalr.o)
                0x000000000800d568                _kill_r
 .text._getpid_r
                0x000000000800d58c        0x4 c:/st/stm32cubeide_1.7.0/stm32cubeide/plugins/com.st.stm32cube.ide.mcu.externaltools.gnu-tools-for-stm32.9-2020-q2-update.win32_2.0.0.202105311346/tools/bin/../lib/gcc/arm-none-eabi/9.3.1/../../../../arm-none-eabi/lib/thumb/v7e-m+fp/hard\libc_nano.a(lib_a-signalr.o)
                0x000000000800d58c                _getpid_r
 .text.__sread  0x000000000800d590       0x22 c:/st/stm32cubeide_1.7.0/stm32cubeide/plugins/com.st.stm32cube.ide.mcu.externaltools.gnu-tools-for-stm32.9-2020-q2-update.win32_2.0.0.202105311346/tools/bin/../lib/gcc/arm-none-eabi/9.3.1/../../../../arm-none-eabi/lib/thumb/v7e-m+fp/hard\libc_nano.a(lib_a-stdio.o)
                0x000000000800d590                __sread
 .text.__swrite
                0x000000000800d5b2       0x38 c:/st/stm32cubeide_1.7.0/stm32cubeide/plugins/com.st.stm32cube.ide.mcu.externaltools.gnu-tools-for-stm32.9-2020-q2-update.win32_2.0.0.202105311346/tools/bin/../lib/gcc/arm-none-eabi/9.3.1/../../../../arm-none-eabi/lib/thumb/v7e-m+fp/hard\libc_nano.a(lib_a-stdio.o)
                0x000000000800d5b2                __swrite
 .text.__sseek  0x000000000800d5ea       0x24 c:/st/stm32cubeide_1.7.0/stm32cubeide/plugins/com.st.stm32cube.ide.mcu.externaltools.gnu-tools-for-stm32.9-2020-q2-update.win32_2.0.0.202105311346/tools/bin/../lib/gcc/arm-none-eabi/9.3.1/../../../../arm-none-eabi/lib/thumb/v7e-m+fp/hard\libc_nano.a(lib_a-stdio.o)
                0x000000000800d5ea                __sseek
 .text.__sclose
                0x000000000800d60e        0x8 c:/st/stm32cubeide_1.7.0/stm32cubeide/plugins/com.st.stm32cube.ide.mcu.externaltools.gnu-tools-for-stm32.9-2020-q2-update.win32_2.0.0.202105311346/tools/bin/../lib/gcc/arm-none-eabi/9.3.1/../../../../arm-none-eabi/lib/thumb/v7e-m+fp/hard\libc_nano.a(lib_a-stdio.o)
                0x000000000800d60e                __sclose
 *fill*         0x000000000800d616        0x2 
 .text._write_r
                0x000000000800d618       0x24 c:/st/stm32cubeide_1.7.0/stm32cubeide/plugins/com.st.stm32cube.ide.mcu.externaltools.gnu-tools-for-stm32.9-2020-q2-update.win32_2.0.0.202105311346/tools/bin/../lib/gcc/arm-none-eabi/9.3.1/../../../../arm-none-eabi/lib/thumb/v7e-m+fp/hard\libc_nano.a(lib_a-writer.o)
                0x000000000800d618                _write_r
 .text._close_r
                0x000000000800d63c       0x20 c:/st/stm32cubeide_1.7.0/stm32cubeide/plugins/com.st.stm32cube.ide.mcu.externaltools.gnu-tools-for-stm32.9-2020-q2-update.win32_2.0.0.202105311346/tools/bin/../lib/gcc/arm-none-eabi/9.3.1/../../../../arm-none-eabi/lib/thumb/v7e-m+fp/hard\libc_nano.a(lib_a-closer.o)
                0x000000000800d63c                _close_r
 .text._fstat_r
                0x000000000800d65c       0x24 c:/st/stm32cubeide_1.7.0/stm32cubeide/plugins/com.st.stm32cube.ide.mcu.externaltools.gnu-tools-for-stm32.9-2020-q2-update.win32_2.0.0.202105311346/tools/bin/../lib/gcc/arm-none-eabi/9.3.1/../../../../arm-none-eabi/lib/thumb/v7e-m+fp/hard\libc_nano.a(lib_a-fstatr.o)
                0x000000000800d65c                _fstat_r
 .text._isatty_r
                0x000000000800d680       0x20 c:/st/stm32cubeide_1.7.0/stm32cubeide/plugins/com.st.stm32cube.ide.mcu.externaltools.gnu-tools-for-stm32.9-2020-q2-update.win32_2.0.0.202105311346/tools/bin/../lib/gcc/arm-none-eabi/9.3.1/../../../../arm-none-eabi/lib/thumb/v7e-m+fp/hard\libc_nano.a(lib_a-isattyr.o)
                0x000000000800d680                _isatty_r
 .text._lseek_r
                0x000000000800d6a0       0x24 c:/st/stm32cubeide_1.7.0/stm32cubeide/plugins/com.st.stm32cube.ide.mcu.externaltools.gnu-tools-for-stm32.9-2020-q2-update.win32_2.0.0.202105311346/tools/bin/../lib/gcc/arm-none-eabi/9.3.1/../../../../arm-none-eabi/lib/thumb/v7e-m+fp/hard\libc_nano.a(lib_a-lseekr.o)
                0x000000000800d6a0                _lseek_r
 .text._malloc_usable_size_r
                0x000000000800d6c4       0x10 c:/st/stm32cubeide_1.7.0/stm32cubeide/plugins/com.st.stm32cube.ide.mcu.externaltools.gnu-tools-for-stm32.9-2020-q2-update.win32_2.0.0.202105311346/tools/bin/../lib/gcc/arm-none-eabi/9.3.1/../../../../arm-none-eabi/lib/thumb/v7e-m+fp/hard\libc_nano.a(lib_a-nano-msizer.o)
                0x000000000800d6c4                _malloc_usable_size_r
 .text._read_r  0x000000000800d6d4       0x24 c:/st/stm32cubeide_1.7.0/stm32cubeide/plugins/com.st.stm32cube.ide.mcu.externaltools.gnu-tools-for-stm32.9-2020-q2-update.win32_2.0.0.202105311346/tools/bin/../lib/gcc/arm-none-eabi/9.3.1/../../../../arm-none-eabi/lib/thumb/v7e-m+fp/hard\libc_nano.a(lib_a-readr.o)
                0x000000000800d6d4                _read_r
 *(.glue_7)
 .glue_7        0x000000000800d6f8        0x0 linker stubs
 *(.glue_7t)
 .glue_7t       0x000000000800d6f8        0x0 linker stubs
 *(.eh_frame)
 .eh_frame      0x000000000800d6f8        0x0 c:/st/stm32cubeide_1.7.0/stm32cubeide/plugins/com.st.stm32cube.ide.mcu.externaltools.gnu-tools-for-stm32.9-2020-q2-update.win32_2.0.0.202105311346/tools/bin/../lib/gcc/arm-none-eabi/9.3.1/thumb/v7e-m+fp/hard/crtbegin.o
 *(.init)
 .init          0x000000000800d6f8        0x4 c:/st/stm32cubeide_1.7.0/stm32cubeide/plugins/com.st.stm32cube.ide.mcu.externaltools.gnu-tools-for-stm32.9-2020-q2-update.win32_2.0.0.202105311346/tools/bin/../lib/gcc/arm-none-eabi/9.3.1/thumb/v7e-m+fp/hard/crti.o
                0x000000000800d6f8                _init
 .init          0x000000000800d6fc        0x8 c:/st/stm32cubeide_1.7.0/stm32cubeide/plugins/com.st.stm32cube.ide.mcu.externaltools.gnu-tools-for-stm32.9-2020-q2-update.win32_2.0.0.202105311346/tools/bin/../lib/gcc/arm-none-eabi/9.3.1/thumb/v7e-m+fp/hard/crtn.o
 *(.fini)
 .fini          0x000000000800d704        0x4 c:/st/stm32cubeide_1.7.0/stm32cubeide/plugins/com.st.stm32cube.ide.mcu.externaltools.gnu-tools-for-stm32.9-2020-q2-update.win32_2.0.0.202105311346/tools/bin/../lib/gcc/arm-none-eabi/9.3.1/thumb/v7e-m+fp/hard/crti.o
                0x000000000800d704                _fini
 .fini          0x000000000800d708        0x8 c:/st/stm32cubeide_1.7.0/stm32cubeide/plugins/com.st.stm32cube.ide.mcu.externaltools.gnu-tools-for-stm32.9-2020-q2-update.win32_2.0.0.202105311346/tools/bin/../lib/gcc/arm-none-eabi/9.3.1/thumb/v7e-m+fp/hard/crtn.o
                0x000000000800d710                . = ALIGN (0x4)
                0x000000000800d710                _etext = .

.vfp11_veneer   0x000000000800d710        0x0
 .vfp11_veneer  0x000000000800d710        0x0 linker stubs

.v4_bx          0x000000000800d710        0x0
 .v4_bx         0x000000000800d710        0x0 linker stubs

.iplt           0x000000000800d710        0x0
 .iplt          0x000000000800d710        0x0 c:/st/stm32cubeide_1.7.0/stm32cubeide/plugins/com.st.stm32cube.ide.mcu.externaltools.gnu-tools-for-stm32.9-2020-q2-update.win32_2.0.0.202105311346/tools/bin/../lib/gcc/arm-none-eabi/9.3.1/thumb/v7e-m+fp/hard/crtbegin.o

.rodata         0x000000000800d710      0x548
                0x000000000800d710                . = ALIGN (0x4)
 *(.rodata)
 .rodata        0x000000000800d710        0xe ./app/star_network.o
 *(.rodata*)
 *fill*         0x000000000800d71e        0x2 
 .rodata.conn_rx_callback.str1.4
                0x000000000800d720       0x57 ./app/star_network.o
 *fill*         0x000000000800d777        0x1 
 .rodata.usb_gpio_callback.str1.4
                0x000000000800d778       0x6e ./app/star_network.o
 *fill*         0x000000000800d7e6        0x2 
 .rodata.main.str1.4
                0x000000000800d7e8       0x26 ./app/star_network.o
 *fill*         0x000000000800d80e        0x2 
 .rodata.AHBPrescTable
                0x000000000800d810       0x10 ./bsp/evk/system_stm32g4xx.o
                0x000000000800d810                AHBPrescTable
 .rodata.APBPrescTable
                0x000000000800d820        0x8 ./bsp/evk/system_stm32g4xx.o
                0x000000000800d820                APBPrescTable
 .rodata.USBD_CDC_ManufacturerStrDescriptor.str1.4
                0x000000000800d828       0x18 ./bsp/evk/usb_device/app/usbd_desc.o
 .rodata.USBD_CDC_ProductStrDescriptor.str1.4
                0x000000000800d840        0x7 ./bsp/evk/usb_device/app/usbd_desc.o
 *fill*         0x000000000800d847        0x1 
 .rodata.USBD_CDC_ConfigStrDescriptor.str1.4
                0x000000000800d848        0xb ./bsp/evk/usb_device/app/usbd_desc.o
 *fill*         0x000000000800d853        0x1 
 .rodata.USBD_CDC_InterfaceStrDescriptor.str1.4
                0x000000000800d854        0xe ./bsp/evk/usb_device/app/usbd_desc.o
 *fill*         0x000000000800d862        0x2 
 .rodata.CSWTCH.3
                0x000000000800d864        0x4 ./bsp/evk/usb_device/target/usbd_conf.o
 .rodata.gain_lookup_table
                0x000000000800d868       0x88 ./core/wireless/link/link_gain_loop.o
 .rodata.lna_peak_table_sr1010
                0x000000000800d8f0       0x10 ./core/wireless/phy/sr1000_calib.o
 .rodata.lna_peak_table_sr1020
                0x000000000800d900       0x10 ./core/wireless/phy/sr1000_calib.o
 .rodata.str1.4
                0x000000000800d910       0xbf ./core/wireless/phy/sr1000_nvm.o
 *fill*         0x000000000800d9cf        0x1 
 .rodata.nvm_template
                0x000000000800d9d0       0xc0 ./core/wireless/phy/sr1000_nvm.o
 .rodata.sync_word_table
                0x000000000800da90       0x40 ./core/wireless/protocol_stack/wps.o
 .rodata.CSWTCH.58
                0x000000000800dad0        0x3 ./lib/third-party/stmicroelectronics/stm32g4xx_hal_driver/Src/stm32g4xx_hal_uart.o
 *fill*         0x000000000800dad3        0x1 
 .rodata.CSWTCH.59
                0x000000000800dad4        0xd ./lib/third-party/stmicroelectronics/stm32g4xx_hal_driver/Src/stm32g4xx_hal_uart.o
 *fill*         0x000000000800dae1        0x3 
 .rodata.UARTPrescTable
                0x000000000800dae4       0x18 ./lib/third-party/stmicroelectronics/stm32g4xx_hal_driver/Src/stm32g4xx_hal_uart.o
                0x000000000800dae4                UARTPrescTable
 .rodata.denominator.9549
                0x000000000800dafc        0x8 ./lib/third-party/stmicroelectronics/stm32g4xx_hal_driver/Src/stm32g4xx_hal_uart_ex.o
 .rodata.numerator.9548
                0x000000000800db04        0x8 ./lib/third-party/stmicroelectronics/stm32g4xx_hal_driver/Src/stm32g4xx_hal_uart_ex.o
 .rodata._global_impure_ptr
                0x000000000800db0c        0x4 c:/st/stm32cubeide_1.7.0/stm32cubeide/plugins/com.st.stm32cube.ide.mcu.externaltools.gnu-tools-for-stm32.9-2020-q2-update.win32_2.0.0.202105311346/tools/bin/../lib/gcc/arm-none-eabi/9.3.1/../../../../arm-none-eabi/lib/thumb/v7e-m+fp/hard\libc_nano.a(lib_a-impure.o)
                0x000000000800db0c                _global_impure_ptr
 .rodata.srand.str1.1
                0x000000000800db10       0x76 c:/st/stm32cubeide_1.7.0/stm32cubeide/plugins/com.st.stm32cube.ide.mcu.externaltools.gnu-tools-for-stm32.9-2020-q2-update.win32_2.0.0.202105311346/tools/bin/../lib/gcc/arm-none-eabi/9.3.1/../../../../arm-none-eabi/lib/thumb/v7e-m+fp/hard\libc_nano.a(lib_a-rand.o)
 .rodata.__assert_func.str1.1
                0x000000000800db86       0x3c c:/st/stm32cubeide_1.7.0/stm32cubeide/plugins/com.st.stm32cube.ide.mcu.externaltools.gnu-tools-for-stm32.9-2020-q2-update.win32_2.0.0.202105311346/tools/bin/../lib/gcc/arm-none-eabi/9.3.1/../../../../arm-none-eabi/lib/thumb/v7e-m+fp/hard\libc_nano.a(lib_a-assert.o)
                                         0x3d (size before relaxing)
 .rodata._svfprintf_r.str1.1
                0x000000000800dbc2       0x11 c:/st/stm32cubeide_1.7.0/stm32cubeide/plugins/com.st.stm32cube.ide.mcu.externaltools.gnu-tools-for-stm32.9-2020-q2-update.win32_2.0.0.202105311346/tools/bin/../lib/gcc/arm-none-eabi/9.3.1/../../../../arm-none-eabi/lib/thumb/v7e-m+fp/hard\libc_nano.a(lib_a-nano-svfprintf.o)
 .rodata._vfprintf_r.str1.1
                0x000000000800dbd3       0x11 c:/st/stm32cubeide_1.7.0/stm32cubeide/plugins/com.st.stm32cube.ide.mcu.externaltools.gnu-tools-for-stm32.9-2020-q2-update.win32_2.0.0.202105311346/tools/bin/../lib/gcc/arm-none-eabi/9.3.1/../../../../arm-none-eabi/lib/thumb/v7e-m+fp/hard\libc_nano.a(lib_a-nano-vfprintf.o)
 .rodata._printf_i.str1.1
                0x000000000800dbd3       0x22 c:/st/stm32cubeide_1.7.0/stm32cubeide/plugins/com.st.stm32cube.ide.mcu.externaltools.gnu-tools-for-stm32.9-2020-q2-update.win32_2.0.0.202105311346/tools/bin/../lib/gcc/arm-none-eabi/9.3.1/../../../../arm-none-eabi/lib/thumb/v7e-m+fp/hard\libc_nano.a(lib_a-nano-vfprintf_i.o)
 *fill*         0x000000000800dbf5        0x3 
 .rodata.__sf_fake_stderr
                0x000000000800dbf8       0x20 c:/st/stm32cubeide_1.7.0/stm32cubeide/plugins/com.st.stm32cube.ide.mcu.externaltools.gnu-tools-for-stm32.9-2020-q2-update.win32_2.0.0.202105311346/tools/bin/../lib/gcc/arm-none-eabi/9.3.1/../../../../arm-none-eabi/lib/thumb/v7e-m+fp/hard\libc_nano.a(lib_a-findfp.o)
                0x000000000800dbf8                __sf_fake_stderr
 .rodata.__sf_fake_stdin
                0x000000000800dc18       0x20 c:/st/stm32cubeide_1.7.0/stm32cubeide/plugins/com.st.stm32cube.ide.mcu.externaltools.gnu-tools-for-stm32.9-2020-q2-update.win32_2.0.0.202105311346/tools/bin/../lib/gcc/arm-none-eabi/9.3.1/../../../../arm-none-eabi/lib/thumb/v7e-m+fp/hard\libc_nano.a(lib_a-findfp.o)
                0x000000000800dc18                __sf_fake_stdin
 .rodata.__sf_fake_stdout
                0x000000000800dc38       0x20 c:/st/stm32cubeide_1.7.0/stm32cubeide/plugins/com.st.stm32cube.ide.mcu.externaltools.gnu-tools-for-stm32.9-2020-q2-update.win32_2.0.0.202105311346/tools/bin/../lib/gcc/arm-none-eabi/9.3.1/../../../../arm-none-eabi/lib/thumb/v7e-m+fp/hard\libc_nano.a(lib_a-findfp.o)
                0x000000000800dc38                __sf_fake_stdout
                0x000000000800dc58                . = ALIGN (0x4)

.ARM.extab      0x000000000800dc58        0x0
                0x000000000800dc58                . = ALIGN (0x4)
 *(.ARM.extab* .gnu.linkonce.armextab.*)
                0x000000000800dc58                . = ALIGN (0x4)

.ARM            0x000000000800dc58        0x8
                0x000000000800dc58                . = ALIGN (0x4)
                0x000000000800dc58                __exidx_start = .
 *(.ARM.exidx*)
 .ARM.exidx     0x000000000800dc58        0x8 c:/st/stm32cubeide_1.7.0/stm32cubeide/plugins/com.st.stm32cube.ide.mcu.externaltools.gnu-tools-for-stm32.9-2020-q2-update.win32_2.0.0.202105311346/tools/bin/../lib/gcc/arm-none-eabi/9.3.1/thumb/v7e-m+fp/hard\libgcc.a(_udivmoddi4.o)
                0x000000000800dc60                __exidx_end = .
                0x000000000800dc60                . = ALIGN (0x4)

.rel.dyn        0x000000000800dc60        0x0
 .rel.iplt      0x000000000800dc60        0x0 c:/st/stm32cubeide_1.7.0/stm32cubeide/plugins/com.st.stm32cube.ide.mcu.externaltools.gnu-tools-for-stm32.9-2020-q2-update.win32_2.0.0.202105311346/tools/bin/../lib/gcc/arm-none-eabi/9.3.1/thumb/v7e-m+fp/hard/crtbegin.o

.preinit_array  0x000000000800dc60        0x0
                0x000000000800dc60                . = ALIGN (0x4)
                0x000000000800dc60                PROVIDE (__preinit_array_start = .)
 *(.preinit_array*)
                0x000000000800dc60                PROVIDE (__preinit_array_end = .)
                0x000000000800dc60                . = ALIGN (0x4)

.init_array     0x000000000800dc60        0x4
                0x000000000800dc60                . = ALIGN (0x4)
                0x000000000800dc60                PROVIDE (__init_array_start = .)
 *(SORT_BY_NAME(.init_array.*))
 *(.init_array*)
 .init_array    0x000000000800dc60        0x4 c:/st/stm32cubeide_1.7.0/stm32cubeide/plugins/com.st.stm32cube.ide.mcu.externaltools.gnu-tools-for-stm32.9-2020-q2-update.win32_2.0.0.202105311346/tools/bin/../lib/gcc/arm-none-eabi/9.3.1/thumb/v7e-m+fp/hard/crtbegin.o
                0x000000000800dc64                PROVIDE (__init_array_end = .)
                0x000000000800dc64                . = ALIGN (0x4)

.fini_array     0x000000000800dc64        0x4
                0x000000000800dc64                . = ALIGN (0x4)
                [!provide]                        PROVIDE (__fini_array_start = .)
 *(SORT_BY_NAME(.fini_array.*))
 *(.fini_array*)
 .fini_array    0x000000000800dc64        0x4 c:/st/stm32cubeide_1.7.0/stm32cubeide/plugins/com.st.stm32cube.ide.mcu.externaltools.gnu-tools-for-stm32.9-2020-q2-update.win32_2.0.0.202105311346/tools/bin/../lib/gcc/arm-none-eabi/9.3.1/thumb/v7e-m+fp/hard/crtbegin.o
                [!provide]                        PROVIDE (__fini_array_end = .)
                0x000000000800dc68                . = ALIGN (0x4)
                0x000000000800dc68                _sidata = LOADADDR (.data)

.data           0x0000000020000000      0x3d0 load address 0x000000000800dc68
                0x0000000020000000                . = ALIGN (0x4)
                0x0000000020000000                _sdata = .
 *(.data)
 *(.data*)
 .data.channel_sequence
                0x0000000020000000       0x10 ./app/star_network.o
 .data.coordinator1_timeslot
                0x0000000020000010       0x10 ./app/star_network.o
 .data.coordinator2_timeslot
                0x0000000020000020       0x10 ./app/star_network.o
 .data.node1_timeslot
                0x0000000020000030       0x10 ./app/star_network.o
 .data.node2_timeslot
                0x0000000020000040       0x10 ./app/star_network.o
 .data.timeslot_us
                0x0000000020000050       0x40 ./app/star_network.o
 .data.app_timer_callback
                0x0000000020000090        0x4 ./bsp/evk/bsp_it.o
 .data.exti0_irq_callback
                0x0000000020000094        0x4 ./bsp/evk/bsp_it.o
 .data.exti2_irq_callback
                0x0000000020000098        0x4 ./bsp/evk/bsp_it.o
 .data.pendsv_irq_callback
                0x000000002000009c        0x4 ./bsp/evk/bsp_it.o
 .data.radio1_dma_callback
                0x00000000200000a0        0x4 ./bsp/evk/bsp_it.o
 .data.SystemCoreClock
                0x00000000200000a4        0x4 ./bsp/evk/system_stm32g4xx.o
                0x00000000200000a4                SystemCoreClock
 .data.USBD_Interface_fops_FS
                0x00000000200000a8       0x14 ./bsp/evk/usb_device/app/usbd_cdc_if.o
                0x00000000200000a8                USBD_Interface_fops_FS
 .data.init_usb_user_callback
                0x00000000200000bc        0x4 ./bsp/evk/usb_device/app/usbd_cdc_if.o
 .data.rx_usb_user_callback
                0x00000000200000c0        0x4 ./bsp/evk/usb_device/app/usbd_cdc_if.o
 .data.tx_usb_user_callback
                0x00000000200000c4        0x4 ./bsp/evk/usb_device/app/usbd_cdc_if.o
 .data.CDC_Desc
                0x00000000200000c8       0x1c ./bsp/evk/usb_device/app/usbd_desc.o
                0x00000000200000c8                CDC_Desc
 .data.USBD_CDC_DeviceDesc
                0x00000000200000e4       0x12 ./bsp/evk/usb_device/app/usbd_desc.o
                0x00000000200000e4                USBD_CDC_DeviceDesc
 *fill*         0x00000000200000f6        0x2 
 .data.USBD_LangIDDesc
                0x00000000200000f8        0x4 ./bsp/evk/usb_device/app/usbd_desc.o
                0x00000000200000f8                USBD_LangIDDesc
 .data.USBD_StringSerial
                0x00000000200000fc       0x1a ./bsp/evk/usb_device/app/usbd_desc.o
                0x00000000200000fc                USBD_StringSerial
 *fill*         0x0000000020000116        0x2 
 .data.end_tx_cut_through_states
                0x0000000020000118        0xc ./core/wireless/protocol_stack/wps_l1.o
 .data.flush_fifo_states
                0x0000000020000124        0xc ./core/wireless/protocol_stack/wps_l1.o
 .data.get_event_states
                0x0000000020000130       0x10 ./core/wireless/protocol_stack/wps_l1.o
 .data.get_header_states
                0x0000000020000140        0xc ./core/wireless/protocol_stack/wps_l1.o
 .data.get_payload_cut_through_states
                0x000000002000014c       0x10 ./core/wireless/protocol_stack/wps_l1.o
 .data.get_payload_states
                0x000000002000015c        0x8 ./core/wireless/protocol_stack/wps_l1.o
 .data.new_frame_states
                0x0000000020000164        0x8 ./core/wireless/protocol_stack/wps_l1.o
 .data.prepare_l1_states
                0x000000002000016c        0x8 ./core/wireless/protocol_stack/wps_l1.o
 .data.prepare_radio_cut_through_states
                0x0000000020000174       0x24 ./core/wireless/protocol_stack/wps_l1.o
 .data.set_config_states
                0x0000000020000198        0x8 ./core/wireless/protocol_stack/wps_l1.o
 .data.set_header_states
                0x00000000200001a0        0xc ./core/wireless/protocol_stack/wps_l1.o
 .data.set_payload_cut_through_states
                0x00000000200001ac       0x10 ./core/wireless/protocol_stack/wps_l1.o
 .data.set_payload_states
                0x00000000200001bc        0x8 ./core/wireless/protocol_stack/wps_l1.o
 .data.syncing_states
                0x00000000200001c4       0x18 ./core/wireless/protocol_stack/wps_l1.o
 .data.wait_radio_states
                0x00000000200001dc       0x18 ./core/wireless/protocol_stack/wps_l1.o
 .data.wait_to_send_auto_reply
                0x00000000200001f4        0x8 ./core/wireless/protocol_stack/wps_l1.o
 .data.empty_sm
                0x00000000200001fc        0x4 ./core/wireless/protocol_stack/wps_l2.o
                0x00000000200001fc                empty_sm
 .data.prepare_frame_sm
                0x0000000020000200        0x8 ./core/wireless/protocol_stack/wps_l2.o
                0x0000000020000200                prepare_frame_sm
 .data.prepare_internal_frame_sm
                0x0000000020000208        0x8 ./core/wireless/protocol_stack/wps_l2.o
                0x0000000020000208                prepare_internal_frame_sm
 .data.rx_frame_miss_sm
                0x0000000020000210       0x10 ./core/wireless/protocol_stack/wps_l2.o
                0x0000000020000210                rx_frame_miss_sm
 .data.rx_frame_sm
                0x0000000020000220       0x10 ./core/wireless/protocol_stack/wps_l2.o
                0x0000000020000220                rx_frame_sm
 .data.schedule_sm
                0x0000000020000230        0x8 ./core/wireless/protocol_stack/wps_l2.o
                0x0000000020000230                schedule_sm
 .data.setup_link_sm
                0x0000000020000238       0x10 ./core/wireless/protocol_stack/wps_l2.o
                0x0000000020000238                setup_link_sm
 .data.tx_sm    0x0000000020000248        0xc ./core/wireless/protocol_stack/wps_l2.o
                0x0000000020000248                tx_sm
 .data.USBD_CDC
                0x0000000020000254       0x38 ./lib/third-party/stmicroelectronics/stm32_mw_usb_device/Class/CDC/Src/usbd_cdc.o
                0x0000000020000254                USBD_CDC
 .data.USBD_CDC_CfgFSDesc
                0x000000002000028c       0x43 ./lib/third-party/stmicroelectronics/stm32_mw_usb_device/Class/CDC/Src/usbd_cdc.o
 *fill*         0x00000000200002cf        0x1 
 .data.USBD_CDC_CfgHSDesc
                0x00000000200002d0       0x43 ./lib/third-party/stmicroelectronics/stm32_mw_usb_device/Class/CDC/Src/usbd_cdc.o
 *fill*         0x0000000020000313        0x1 
 .data.USBD_CDC_DeviceQualifierDesc
                0x0000000020000314        0xa ./lib/third-party/stmicroelectronics/stm32_mw_usb_device/Class/CDC/Src/usbd_cdc.o
 *fill*         0x000000002000031e        0x2 
 .data.USBD_CDC_OtherSpeedCfgDesc
                0x0000000020000320       0x43 ./lib/third-party/stmicroelectronics/stm32_mw_usb_device/Class/CDC/Src/usbd_cdc.o
 *fill*         0x0000000020000363        0x1 
 .data.uwTickFreq
                0x0000000020000364        0x4 ./lib/third-party/stmicroelectronics/stm32g4xx_hal_driver/Src/stm32g4xx_hal.o
                0x0000000020000364                uwTickFreq
 .data.uwTickPrio
                0x0000000020000368        0x4 ./lib/third-party/stmicroelectronics/stm32g4xx_hal_driver/Src/stm32g4xx_hal.o
                0x0000000020000368                uwTickPrio
 .data._impure_ptr
                0x000000002000036c        0x4 c:/st/stm32cubeide_1.7.0/stm32cubeide/plugins/com.st.stm32cube.ide.mcu.externaltools.gnu-tools-for-stm32.9-2020-q2-update.win32_2.0.0.202105311346/tools/bin/../lib/gcc/arm-none-eabi/9.3.1/../../../../arm-none-eabi/lib/thumb/v7e-m+fp/hard\libc_nano.a(lib_a-impure.o)
                0x000000002000036c                _impure_ptr
 .data.impure_data
                0x0000000020000370       0x60 c:/st/stm32cubeide_1.7.0/stm32cubeide/plugins/com.st.stm32cube.ide.mcu.externaltools.gnu-tools-for-stm32.9-2020-q2-update.win32_2.0.0.202105311346/tools/bin/../lib/gcc/arm-none-eabi/9.3.1/../../../../arm-none-eabi/lib/thumb/v7e-m+fp/hard\libc_nano.a(lib_a-impure.o)
 *(.RamFunc)
 *(.RamFunc*)
                0x00000000200003d0                . = ALIGN (0x4)
                0x00000000200003d0                _edata = .

.igot.plt       0x00000000200003d0        0x0 load address 0x000000000800e038
 .igot.plt      0x00000000200003d0        0x0 c:/st/stm32cubeide_1.7.0/stm32cubeide/plugins/com.st.stm32cube.ide.mcu.externaltools.gnu-tools-for-stm32.9-2020-q2-update.win32_2.0.0.202105311346/tools/bin/../lib/gcc/arm-none-eabi/9.3.1/thumb/v7e-m+fp/hard/crtbegin.o
                0x00000000200003d0                . = ALIGN (0x4)

.bss            0x00000000200003d0     0x46fc load address 0x000000000800e038
                0x00000000200003d0                _sbss = .
                0x00000000200003d0                __bss_start__ = _sbss
 *(.bss)
 .bss           0x00000000200003d0       0x1c c:/st/stm32cubeide_1.7.0/stm32cubeide/plugins/com.st.stm32cube.ide.mcu.externaltools.gnu-tools-for-stm32.9-2020-q2-update.win32_2.0.0.202105311346/tools/bin/../lib/gcc/arm-none-eabi/9.3.1/thumb/v7e-m+fp/hard/crtbegin.o
 *(.bss*)
 .bss.callback  0x00000000200003ec       0x50 ./app/star_network.o
 *fill*         0x000000002000043c        0x4 
 .bss.coordinator_to_node1_conn
                0x0000000020000440      0x268 ./app/star_network.o
 .bss.coordinator_to_node2_conn
                0x00000000200006a8      0x268 ./app/star_network.o
 .bss.inc_node1.15386
                0x0000000020000910        0x4 ./app/star_network.o
 .bss.inc_node2.15387
                0x0000000020000914        0x4 ./app/star_network.o
 .bss.local1_fifo
                0x0000000020000918      0x460 ./app/star_network.o
 .bss.local1_frame
                0x0000000020000d78      0x500 ./app/star_network.o
 .bss.local2_fifo
                0x0000000020001278      0x460 ./app/star_network.o
 .bss.local2_frame
                0x00000000200016d8      0x500 ./app/star_network.o
 .bss.node1_to_coordinator_conn
                0x0000000020001bd8      0x268 ./app/star_network.o
 .bss.node2_to_coordinator_conn
                0x0000000020001e40      0x268 ./app/star_network.o
 .bss.remote1_fifo
                0x00000000200020a8      0x460 ./app/star_network.o
 .bss.remote1_frame
                0x0000000020002508      0x500 ./app/star_network.o
 .bss.remote2_fifo
                0x0000000020002a08      0x460 ./app/star_network.o
 .bss.remote2_frame
                0x0000000020002e68      0x500 ./app/star_network.o
 .bss.spi_rx_buffer
                0x0000000020003368       0xc8 ./app/star_network.o
 .bss.spi_tx_buffer
                0x0000000020003430       0xc8 ./app/star_network.o
 .bss.timeslot  0x00000000200034f8       0xc0 ./app/star_network.o
 .bss.wps       0x00000000200035b8      0x2b8 ./app/star_network.o
 .bss.nested_critical
                0x0000000020003870        0x4 ./bsp/evk/bsp_it.o
 *fill*         0x0000000020003874        0x4 
 .bss.count.11124
                0x0000000020003878        0x8 ./bsp/evk/bsp_timer.o
 .bss.last_time.11125
                0x0000000020003880        0x4 ./bsp/evk/bsp_timer.o
 .bss.exp_uart_tx_callback
                0x0000000020003884        0x4 ./bsp/evk/bsp_uart.o
                0x0000000020003884                exp_uart_tx_callback
 .bss.stlink_uart_tx_callback
                0x0000000020003888        0x4 ./bsp/evk/bsp_uart.o
                0x0000000020003888                stlink_uart_tx_callback
 .bss.heap_end.7401
                0x000000002000388c        0x4 ./bsp/evk/syscalls.o
 .bss.usb_state
                0x0000000020003890        0x1 ./bsp/evk/usb_device/app/usbd_cdc_if.o
 *fill*         0x0000000020003891        0x3 
 .bss.mem.11588
                0x0000000020003894      0x220 ./bsp/evk/usb_device/target/usbd_conf.o
 *fill*         0x0000000020003ab4        0x4 
 .bss.unused_frame
                0x0000000020003ab8       0x30 ./core/wireless/protocol_stack/wps_l1.o
 .bss.unused_signal
                0x0000000020003ae8        0x1 ./core/wireless/protocol_stack/wps_l1.o
 *fill*         0x0000000020003ae9        0x3 
 .bss.error_handler
                0x0000000020003aec        0x4 ./lib/spark/error/uwb_error.o
                0x0000000020003aec                error_handler
 .bss.enter_critical
                0x0000000020003af0        0x4 ./lib/spark/queue/circular_queue.o
 .bss.exit_critical
