Archive member included to satisfy reference by file (symbol)

c:/st/stm32cubeide_1.7.0/stm32cubeide/plugins/com.st.stm32cube.ide.mcu.externaltools.gnu-tools-for-stm32.9-2020-q2-update.win32_2.0.0.202105311346/tools/bin/../lib/gcc/arm-none-eabi/9.3.1/../../../../arm-none-eabi/lib/thumb/v7e-m+fp/hard\libc_nano.a(lib_a-errno.o)
                              ./bsp/evk/syscalls.o (__errno)
c:/st/stm32cubeide_1.7.0/stm32cubeide/plugins/com.st.stm32cube.ide.mcu.externaltools.gnu-tools-for-stm32.9-2020-q2-update.win32_2.0.0.202105311346/tools/bin/../lib/gcc/arm-none-eabi/9.3.1/../../../../arm-none-eabi/lib/thumb/v7e-m+fp/hard\libc_nano.a(lib_a-exit.o)
                              c:/st/stm32cubeide_1.7.0/stm32cubeide/plugins/com.st.stm32cube.ide.mcu.externaltools.gnu-tools-for-stm32.9-2020-q2-update.win32_2.0.0.202105311346/tools/bin/../lib/gcc/arm-none-eabi/9.3.1/../../../../arm-none-eabi/lib/thumb/v7e-m+fp/hard/crt0.o (exit)
c:/st/stm32cubeide_1.7.0/stm32cubeide/plugins/com.st.stm32cube.ide.mcu.externaltools.gnu-tools-for-stm32.9-2020-q2-update.win32_2.0.0.202105311346/tools/bin/../lib/gcc/arm-none-eabi/9.3.1/../../../../arm-none-eabi/lib/thumb/v7e-m+fp/hard\libc_nano.a(lib_a-impure.o)
                              c:/st/stm32cubeide_1.7.0/stm32cubeide/plugins/com.st.stm32cube.ide.mcu.externaltools.gnu-tools-for-stm32.9-2020-q2-update.win32_2.0.0.202105311346/tools/bin/../lib/gcc/arm-none-eabi/9.3.1/../../../../arm-none-eabi/lib/thumb/v7e-m+fp/hard\libc_nano.a(lib_a-exit.o) (_global_impure_ptr)
c:/st/stm32cubeide_1.7.0/stm32cubeide/plugins/com.st.stm32cube.ide.mcu.externaltools.gnu-tools-for-stm32.9-2020-q2-update.win32_2.0.0.202105311346/tools/bin/../lib/gcc/arm-none-eabi/9.3.1/../../../../arm-none-eabi/lib/thumb/v7e-m+fp/hard\libc_nano.a(lib_a-init.o)
                              c:/st/stm32cubeide_1.7.0/stm32cubeide/plugins/com.st.stm32cube.ide.mcu.externaltools.gnu-tools-for-stm32.9-2020-q2-update.win32_2.0.0.202105311346/tools/bin/../lib/gcc/arm-none-eabi/9.3.1/../../../../arm-none-eabi/lib/thumb/v7e-m+fp/hard/crt0.o (__libc_init_array)
c:/st/stm32cubeide_1.7.0/stm32cubeide/plugins/com.st.stm32cube.ide.mcu.externaltools.gnu-tools-for-stm32.9-2020-q2-update.win32_2.0.0.202105311346/tools/bin/../lib/gcc/arm-none-eabi/9.3.1/../../../../arm-none-eabi/lib/thumb/v7e-m+fp/hard\libc_nano.a(lib_a-memcpy-stub.o)
                              ./bsp/evk/bsp_flash.o (memcpy)
c:/st/stm32cubeide_1.7.0/stm32cubeide/plugins/com.st.stm32cube.ide.mcu.externaltools.gnu-tools-for-stm32.9-2020-q2-update.win32_2.0.0.202105311346/tools/bin/../lib/gcc/arm-none-eabi/9.3.1/../../../../arm-none-eabi/lib/thumb/v7e-m+fp/hard\libc_nano.a(lib_a-memset.o)
                              c:/st/stm32cubeide_1.7.0/stm32cubeide/plugins/com.st.stm32cube.ide.mcu.externaltools.gnu-tools-for-stm32.9-2020-q2-update.win32_2.0.0.202105311346/tools/bin/../lib/gcc/arm-none-eabi/9.3.1/../../../../arm-none-eabi/lib/thumb/v7e-m+fp/hard/crt0.o (memset)
c:/st/stm32cubeide_1.7.0/stm32cubeide/plugins/com.st.stm32cube.ide.mcu.externaltools.gnu-tools-for-stm32.9-2020-q2-update.win32_2.0.0.202105311346/tools/bin/../lib/gcc/arm-none-eabi/9.3.1/../../../../arm-none-eabi/lib/thumb/v7e-m+fp/hard\libc_nano.a(lib_a-rand.o)
                              ./core/wireless/link/link_channel_hopping.o (srand)
c:/st/stm32cubeide_1.7.0/stm32cubeide/plugins/com.st.stm32cube.ide.mcu.externaltools.gnu-tools-for-stm32.9-2020-q2-update.win32_2.0.0.202105311346/tools/bin/../lib/gcc/arm-none-eabi/9.3.1/../../../../arm-none-eabi/lib/thumb/v7e-m+fp/hard\libc_nano.a(lib_a-snprintf.o)
                              ./app/hello_world.o (snprintf)
c:/st/stm32cubeide_1.7.0/stm32cubeide/plugins/com.st.stm32cube.ide.mcu.externaltools.gnu-tools-for-stm32.9-2020-q2-update.win32_2.0.0.202105311346/tools/bin/../lib/gcc/arm-none-eabi/9.3.1/../../../../arm-none-eabi/lib/thumb/v7e-m+fp/hard\libc_nano.a(lib_a-strlen.o)
                              ./app/hello_world.o (strlen)
c:/st/stm32cubeide_1.7.0/stm32cubeide/plugins/com.st.stm32cube.ide.mcu.externaltools.gnu-tools-for-stm32.9-2020-q2-update.win32_2.0.0.202105311346/tools/bin/../lib/gcc/arm-none-eabi/9.3.1/../../../../arm-none-eabi/lib/thumb/v7e-m+fp/hard\libc_nano.a(lib_a-strncat.o)
                              ./core/ranging/ranging_algorithm_private.o (strncat)
c:/st/stm32cubeide_1.7.0/stm32cubeide/plugins/com.st.stm32cube.ide.mcu.externaltools.gnu-tools-for-stm32.9-2020-q2-update.win32_2.0.0.202105311346/tools/bin/../lib/gcc/arm-none-eabi/9.3.1/../../../../arm-none-eabi/lib/thumb/v7e-m+fp/hard\libc_nano.a(lib_a-strncpy.o)
                              ./core/ranging/ranging_algorithm_private.o (strncpy)
c:/st/stm32cubeide_1.7.0/stm32cubeide/plugins/com.st.stm32cube.ide.mcu.externaltools.gnu-tools-for-stm32.9-2020-q2-update.win32_2.0.0.202105311346/tools/bin/../lib/gcc/arm-none-eabi/9.3.1/../../../../arm-none-eabi/lib/thumb/v7e-m+fp/hard\libc_nano.a(lib_a-vsprintf.o)
                              ./app/hello_world.o (vsprintf)
c:/st/stm32cubeide_1.7.0/stm32cubeide/plugins/com.st.stm32cube.ide.mcu.externaltools.gnu-tools-for-stm32.9-2020-q2-update.win32_2.0.0.202105311346/tools/bin/../lib/gcc/arm-none-eabi/9.3.1/../../../../arm-none-eabi/lib/thumb/v7e-m+fp/hard\libc_nano.a(lib_a-assert.o)
                              c:/st/stm32cubeide_1.7.0/stm32cubeide/plugins/com.st.stm32cube.ide.mcu.externaltools.gnu-tools-for-stm32.9-2020-q2-update.win32_2.0.0.202105311346/tools/bin/../lib/gcc/arm-none-eabi/9.3.1/../../../../arm-none-eabi/lib/thumb/v7e-m+fp/hard\libc_nano.a(lib_a-rand.o) (__assert_func)
c:/st/stm32cubeide_1.7.0/stm32cubeide/plugins/com.st.stm32cube.ide.mcu.externaltools.gnu-tools-for-stm32.9-2020-q2-update.win32_2.0.0.202105311346/tools/bin/../lib/gcc/arm-none-eabi/9.3.1/../../../../arm-none-eabi/lib/thumb/v7e-m+fp/hard\libc_nano.a(lib_a-fprintf.o)
                              c:/st/stm32cubeide_1.7.0/stm32cubeide/plugins/com.st.stm32cube.ide.mcu.externaltools.gnu-tools-for-stm32.9-2020-q2-update.win32_2.0.0.202105311346/tools/bin/../lib/gcc/arm-none-eabi/9.3.1/../../../../arm-none-eabi/lib/thumb/v7e-m+fp/hard\libc_nano.a(lib_a-assert.o) (fiprintf)
c:/st/stm32cubeide_1.7.0/stm32cubeide/plugins/com.st.stm32cube.ide.mcu.externaltools.gnu-tools-for-stm32.9-2020-q2-update.win32_2.0.0.202105311346/tools/bin/../lib/gcc/arm-none-eabi/9.3.1/../../../../arm-none-eabi/lib/thumb/v7e-m+fp/hard\libc_nano.a(lib_a-malloc.o)
                              c:/st/stm32cubeide_1.7.0/stm32cubeide/plugins/com.st.stm32cube.ide.mcu.externaltools.gnu-tools-for-stm32.9-2020-q2-update.win32_2.0.0.202105311346/tools/bin/../lib/gcc/arm-none-eabi/9.3.1/../../../../arm-none-eabi/lib/thumb/v7e-m+fp/hard\libc_nano.a(lib_a-rand.o) (malloc)
c:/st/stm32cubeide_1.7.0/stm32cubeide/plugins/com.st.stm32cube.ide.mcu.externaltools.gnu-tools-for-stm32.9-2020-q2-update.win32_2.0.0.202105311346/tools/bin/../lib/gcc/arm-none-eabi/9.3.1/../../../../arm-none-eabi/lib/thumb/v7e-m+fp/hard\libc_nano.a(lib_a-nano-freer.o)
                              c:/st/stm32cubeide_1.7.0/stm32cubeide/plugins/com.st.stm32cube.ide.mcu.externaltools.gnu-tools-for-stm32.9-2020-q2-update.win32_2.0.0.202105311346/tools/bin/../lib/gcc/arm-none-eabi/9.3.1/../../../../arm-none-eabi/lib/thumb/v7e-m+fp/hard\libc_nano.a(lib_a-malloc.o) (_free_r)
c:/st/stm32cubeide_1.7.0/stm32cubeide/plugins/com.st.stm32cube.ide.mcu.externaltools.gnu-tools-for-stm32.9-2020-q2-update.win32_2.0.0.202105311346/tools/bin/../lib/gcc/arm-none-eabi/9.3.1/../../../../arm-none-eabi/lib/thumb/v7e-m+fp/hard\libc_nano.a(lib_a-nano-mallocr.o)
                              c:/st/stm32cubeide_1.7.0/stm32cubeide/plugins/com.st.stm32cube.ide.mcu.externaltools.gnu-tools-for-stm32.9-2020-q2-update.win32_2.0.0.202105311346/tools/bin/../lib/gcc/arm-none-eabi/9.3.1/../../../../arm-none-eabi/lib/thumb/v7e-m+fp/hard\libc_nano.a(lib_a-malloc.o) (_malloc_r)
c:/st/stm32cubeide_1.7.0/stm32cubeide/plugins/com.st.stm32cube.ide.mcu.externaltools.gnu-tools-for-stm32.9-2020-q2-update.win32_2.0.0.202105311346/tools/bin/../lib/gcc/arm-none-eabi/9.3.1/../../../../arm-none-eabi/lib/thumb/v7e-m+fp/hard\libc_nano.a(lib_a-nano-svfprintf.o)
                              c:/st/stm32cubeide_1.7.0/stm32cubeide/plugins/com.st.stm32cube.ide.mcu.externaltools.gnu-tools-for-stm32.9-2020-q2-update.win32_2.0.0.202105311346/tools/bin/../lib/gcc/arm-none-eabi/9.3.1/../../../../arm-none-eabi/lib/thumb/v7e-m+fp/hard\libc_nano.a(lib_a-snprintf.o) (_svfprintf_r)
c:/st/stm32cubeide_1.7.0/stm32cubeide/plugins/com.st.stm32cube.ide.mcu.externaltools.gnu-tools-for-stm32.9-2020-q2-update.win32_2.0.0.202105311346/tools/bin/../lib/gcc/arm-none-eabi/9.3.1/../../../../arm-none-eabi/lib/thumb/v7e-m+fp/hard\libc_nano.a(lib_a-nano-vfprintf.o)
                              c:/st/stm32cubeide_1.7.0/stm32cubeide/plugins/com.st.stm32cube.ide.mcu.externaltools.gnu-tools-for-stm32.9-2020-q2-update.win32_2.0.0.202105311346/tools/bin/../lib/gcc/arm-none-eabi/9.3.1/../../../../arm-none-eabi/lib/thumb/v7e-m+fp/hard\libc_nano.a(lib_a-fprintf.o) (_vfprintf_r)
c:/st/stm32cubeide_1.7.0/stm32cubeide/plugins/com.st.stm32cube.ide.mcu.externaltools.gnu-tools-for-stm32.9-2020-q2-update.win32_2.0.0.202105311346/tools/bin/../lib/gcc/arm-none-eabi/9.3.1/../../../../arm-none-eabi/lib/thumb/v7e-m+fp/hard\libc_nano.a(lib_a-nano-vfprintf_i.o)
                              c:/st/stm32cubeide_1.7.0/stm32cubeide/plugins/com.st.stm32cube.ide.mcu.externaltools.gnu-tools-for-stm32.9-2020-q2-update.win32_2.0.0.202105311346/tools/bin/../lib/gcc/arm-none-eabi/9.3.1/../../../../arm-none-eabi/lib/thumb/v7e-m+fp/hard\libc_nano.a(lib_a-nano-svfprintf.o) (_printf_i)
c:/st/stm32cubeide_1.7.0/stm32cubeide/plugins/com.st.stm32cube.ide.mcu.externaltools.gnu-tools-for-stm32.9-2020-q2-update.win32_2.0.0.202105311346/tools/bin/../lib/gcc/arm-none-eabi/9.3.1/../../../../arm-none-eabi/lib/thumb/v7e-m+fp/hard\libc_nano.a(lib_a-sbrkr.o)
                              c:/st/stm32cubeide_1.7.0/stm32cubeide/plugins/com.st.stm32cube.ide.mcu.externaltools.gnu-tools-for-stm32.9-2020-q2-update.win32_2.0.0.202105311346/tools/bin/../lib/gcc/arm-none-eabi/9.3.1/../../../../arm-none-eabi/lib/thumb/v7e-m+fp/hard\libc_nano.a(lib_a-nano-mallocr.o) (_sbrk_r)
c:/st/stm32cubeide_1.7.0/stm32cubeide/plugins/com.st.stm32cube.ide.mcu.externaltools.gnu-tools-for-stm32.9-2020-q2-update.win32_2.0.0.202105311346/tools/bin/../lib/gcc/arm-none-eabi/9.3.1/../../../../arm-none-eabi/lib/thumb/v7e-m+fp/hard\libc_nano.a(lib_a-wbuf.o)
                              c:/st/stm32cubeide_1.7.0/stm32cubeide/plugins/com.st.stm32cube.ide.mcu.externaltools.gnu-tools-for-stm32.9-2020-q2-update.win32_2.0.0.202105311346/tools/bin/../lib/gcc/arm-none-eabi/9.3.1/../../../../arm-none-eabi/lib/thumb/v7e-m+fp/hard\libc_nano.a(lib_a-nano-vfprintf.o) (__swbuf_r)
c:/st/stm32cubeide_1.7.0/stm32cubeide/plugins/com.st.stm32cube.ide.mcu.externaltools.gnu-tools-for-stm32.9-2020-q2-update.win32_2.0.0.202105311346/tools/bin/../lib/gcc/arm-none-eabi/9.3.1/../../../../arm-none-eabi/lib/thumb/v7e-m+fp/hard\libc_nano.a(lib_a-wsetup.o)
                              c:/st/stm32cubeide_1.7.0/stm32cubeide/plugins/com.st.stm32cube.ide.mcu.externaltools.gnu-tools-for-stm32.9-2020-q2-update.win32_2.0.0.202105311346/tools/bin/../lib/gcc/arm-none-eabi/9.3.1/../../../../arm-none-eabi/lib/thumb/v7e-m+fp/hard\libc_nano.a(lib_a-nano-vfprintf.o) (__swsetup_r)
c:/st/stm32cubeide_1.7.0/stm32cubeide/plugins/com.st.stm32cube.ide.mcu.externaltools.gnu-tools-for-stm32.9-2020-q2-update.win32_2.0.0.202105311346/tools/bin/../lib/gcc/arm-none-eabi/9.3.1/../../../../arm-none-eabi/lib/thumb/v7e-m+fp/hard\libc_nano.a(lib_a-abort.o)
                              c:/st/stm32cubeide_1.7.0/stm32cubeide/plugins/com.st.stm32cube.ide.mcu.externaltools.gnu-tools-for-stm32.9-2020-q2-update.win32_2.0.0.202105311346/tools/bin/../lib/gcc/arm-none-eabi/9.3.1/../../../../arm-none-eabi/lib/thumb/v7e-m+fp/hard\libc_nano.a(lib_a-assert.o) (abort)
c:/st/stm32cubeide_1.7.0/stm32cubeide/plugins/com.st.stm32cube.ide.mcu.externaltools.gnu-tools-for-stm32.9-2020-q2-update.win32_2.0.0.202105311346/tools/bin/../lib/gcc/arm-none-eabi/9.3.1/../../../../arm-none-eabi/lib/thumb/v7e-m+fp/hard\libc_nano.a(lib_a-fflush.o)
                              c:/st/stm32cubeide_1.7.0/stm32cubeide/plugins/com.st.stm32cube.ide.mcu.externaltools.gnu-tools-for-stm32.9-2020-q2-update.win32_2.0.0.202105311346/tools/bin/../lib/gcc/arm-none-eabi/9.3.1/../../../../arm-none-eabi/lib/thumb/v7e-m+fp/hard\libc_nano.a(lib_a-wbuf.o) (_fflush_r)
c:/st/stm32cubeide_1.7.0/stm32cubeide/plugins/com.st.stm32cube.ide.mcu.externaltools.gnu-tools-for-stm32.9-2020-q2-update.win32_2.0.0.202105311346/tools/bin/../lib/gcc/arm-none-eabi/9.3.1/../../../../arm-none-eabi/lib/thumb/v7e-m+fp/hard\libc_nano.a(lib_a-findfp.o)
                              c:/st/stm32cubeide_1.7.0/stm32cubeide/plugins/com.st.stm32cube.ide.mcu.externaltools.gnu-tools-for-stm32.9-2020-q2-update.win32_2.0.0.202105311346/tools/bin/../lib/gcc/arm-none-eabi/9.3.1/../../../../arm-none-eabi/lib/thumb/v7e-m+fp/hard\libc_nano.a(lib_a-nano-vfprintf.o) (__sinit)
c:/st/stm32cubeide_1.7.0/stm32cubeide/plugins/com.st.stm32cube.ide.mcu.externaltools.gnu-tools-for-stm32.9-2020-q2-update.win32_2.0.0.202105311346/tools/bin/../lib/gcc/arm-none-eabi/9.3.1/../../../../arm-none-eabi/lib/thumb/v7e-m+fp/hard\libc_nano.a(lib_a-fvwrite.o)
                              c:/st/stm32cubeide_1.7.0/stm32cubeide/plugins/com.st.stm32cube.ide.mcu.externaltools.gnu-tools-for-stm32.9-2020-q2-update.win32_2.0.0.202105311346/tools/bin/../lib/gcc/arm-none-eabi/9.3.1/../../../../arm-none-eabi/lib/thumb/v7e-m+fp/hard\libc_nano.a(lib_a-nano-vfprintf.o) (__sfvwrite_r)
c:/st/stm32cubeide_1.7.0/stm32cubeide/plugins/com.st.stm32cube.ide.mcu.externaltools.gnu-tools-for-stm32.9-2020-q2-update.win32_2.0.0.202105311346/tools/bin/../lib/gcc/arm-none-eabi/9.3.1/../../../../arm-none-eabi/lib/thumb/v7e-m+fp/hard\libc_nano.a(lib_a-fwalk.o)
                              c:/st/stm32cubeide_1.7.0/stm32cubeide/plugins/com.st.stm32cube.ide.mcu.externaltools.gnu-tools-for-stm32.9-2020-q2-update.win32_2.0.0.202105311346/tools/bin/../lib/gcc/arm-none-eabi/9.3.1/../../../../arm-none-eabi/lib/thumb/v7e-m+fp/hard\libc_nano.a(lib_a-findfp.o) (_fwalk)
c:/st/stm32cubeide_1.7.0/stm32cubeide/plugins/com.st.stm32cube.ide.mcu.externaltools.gnu-tools-for-stm32.9-2020-q2-update.win32_2.0.0.202105311346/tools/bin/../lib/gcc/arm-none-eabi/9.3.1/../../../../arm-none-eabi/lib/thumb/v7e-m+fp/hard\libc_nano.a(lib_a-lock.o)
                              c:/st/stm32cubeide_1.7.0/stm32cubeide/plugins/com.st.stm32cube.ide.mcu.externaltools.gnu-tools-for-stm32.9-2020-q2-update.win32_2.0.0.202105311346/tools/bin/../lib/gcc/arm-none-eabi/9.3.1/../../../../arm-none-eabi/lib/thumb/v7e-m+fp/hard\libc_nano.a(lib_a-findfp.o) (__retarget_lock_init_recursive)
c:/st/stm32cubeide_1.7.0/stm32cubeide/plugins/com.st.stm32cube.ide.mcu.externaltools.gnu-tools-for-stm32.9-2020-q2-update.win32_2.0.0.202105311346/tools/bin/../lib/gcc/arm-none-eabi/9.3.1/../../../../arm-none-eabi/lib/thumb/v7e-m+fp/hard\libc_nano.a(lib_a-makebuf.o)
                              c:/st/stm32cubeide_1.7.0/stm32cubeide/plugins/com.st.stm32cube.ide.mcu.externaltools.gnu-tools-for-stm32.9-2020-q2-update.win32_2.0.0.202105311346/tools/bin/../lib/gcc/arm-none-eabi/9.3.1/../../../../arm-none-eabi/lib/thumb/v7e-m+fp/hard\libc_nano.a(lib_a-wsetup.o) (__smakebuf_r)
c:/st/stm32cubeide_1.7.0/stm32cubeide/plugins/com.st.stm32cube.ide.mcu.externaltools.gnu-tools-for-stm32.9-2020-q2-update.win32_2.0.0.202105311346/tools/bin/../lib/gcc/arm-none-eabi/9.3.1/../../../../arm-none-eabi/lib/thumb/v7e-m+fp/hard\libc_nano.a(lib_a-memchr.o)
                              c:/st/stm32cubeide_1.7.0/stm32cubeide/plugins/com.st.stm32cube.ide.mcu.externaltools.gnu-tools-for-stm32.9-2020-q2-update.win32_2.0.0.202105311346/tools/bin/../lib/gcc/arm-none-eabi/9.3.1/../../../../arm-none-eabi/lib/thumb/v7e-m+fp/hard\libc_nano.a(lib_a-nano-svfprintf.o) (memchr)
c:/st/stm32cubeide_1.7.0/stm32cubeide/plugins/com.st.stm32cube.ide.mcu.externaltools.gnu-tools-for-stm32.9-2020-q2-update.win32_2.0.0.202105311346/tools/bin/../lib/gcc/arm-none-eabi/9.3.1/../../../../arm-none-eabi/lib/thumb/v7e-m+fp/hard\libc_nano.a(lib_a-memmove.o)
                              c:/st/stm32cubeide_1.7.0/stm32cubeide/plugins/com.st.stm32cube.ide.mcu.externaltools.gnu-tools-for-stm32.9-2020-q2-update.win32_2.0.0.202105311346/tools/bin/../lib/gcc/arm-none-eabi/9.3.1/../../../../arm-none-eabi/lib/thumb/v7e-m+fp/hard\libc_nano.a(lib_a-nano-svfprintf.o) (memmove)
c:/st/stm32cubeide_1.7.0/stm32cubeide/plugins/com.st.stm32cube.ide.mcu.externaltools.gnu-tools-for-stm32.9-2020-q2-update.win32_2.0.0.202105311346/tools/bin/../lib/gcc/arm-none-eabi/9.3.1/../../../../arm-none-eabi/lib/thumb/v7e-m+fp/hard\libc_nano.a(lib_a-mlock.o)
                              c:/st/stm32cubeide_1.7.0/stm32cubeide/plugins/com.st.stm32cube.ide.mcu.externaltools.gnu-tools-for-stm32.9-2020-q2-update.win32_2.0.0.202105311346/tools/bin/../lib/gcc/arm-none-eabi/9.3.1/../../../../arm-none-eabi/lib/thumb/v7e-m+fp/hard\libc_nano.a(lib_a-nano-freer.o) (__malloc_lock)
c:/st/stm32cubeide_1.7.0/stm32cubeide/plugins/com.st.stm32cube.ide.mcu.externaltools.gnu-tools-for-stm32.9-2020-q2-update.win32_2.0.0.202105311346/tools/bin/../lib/gcc/arm-none-eabi/9.3.1/../../../../arm-none-eabi/lib/thumb/v7e-m+fp/hard\libc_nano.a(lib_a-nano-reallocr.o)
                              c:/st/stm32cubeide_1.7.0/stm32cubeide/plugins/com.st.stm32cube.ide.mcu.externaltools.gnu-tools-for-stm32.9-2020-q2-update.win32_2.0.0.202105311346/tools/bin/../lib/gcc/arm-none-eabi/9.3.1/../../../../arm-none-eabi/lib/thumb/v7e-m+fp/hard\libc_nano.a(lib_a-nano-svfprintf.o) (_realloc_r)
c:/st/stm32cubeide_1.7.0/stm32cubeide/plugins/com.st.stm32cube.ide.mcu.externaltools.gnu-tools-for-stm32.9-2020-q2-update.win32_2.0.0.202105311346/tools/bin/../lib/gcc/arm-none-eabi/9.3.1/../../../../arm-none-eabi/lib/thumb/v7e-m+fp/hard\libc_nano.a(lib_a-reent.o)
                              c:/st/stm32cubeide_1.7.0/stm32cubeide/plugins/com.st.stm32cube.ide.mcu.externaltools.gnu-tools-for-stm32.9-2020-q2-update.win32_2.0.0.202105311346/tools/bin/../lib/gcc/arm-none-eabi/9.3.1/../../../../arm-none-eabi/lib/thumb/v7e-m+fp/hard\libc_nano.a(lib_a-sbrkr.o) (errno)
c:/st/stm32cubeide_1.7.0/stm32cubeide/plugins/com.st.stm32cube.ide.mcu.externaltools.gnu-tools-for-stm32.9-2020-q2-update.win32_2.0.0.202105311346/tools/bin/../lib/gcc/arm-none-eabi/9.3.1/../../../../arm-none-eabi/lib/thumb/v7e-m+fp/hard\libc_nano.a(lib_a-signal.o)
                              c:/st/stm32cubeide_1.7.0/stm32cubeide/plugins/com.st.stm32cube.ide.mcu.externaltools.gnu-tools-for-stm32.9-2020-q2-update.win32_2.0.0.202105311346/tools/bin/../lib/gcc/arm-none-eabi/9.3.1/../../../../arm-none-eabi/lib/thumb/v7e-m+fp/hard\libc_nano.a(lib_a-abort.o) (raise)
c:/st/stm32cubeide_1.7.0/stm32cubeide/plugins/com.st.stm32cube.ide.mcu.externaltools.gnu-tools-for-stm32.9-2020-q2-update.win32_2.0.0.202105311346/tools/bin/../lib/gcc/arm-none-eabi/9.3.1/../../../../arm-none-eabi/lib/thumb/v7e-m+fp/hard\libc_nano.a(lib_a-signalr.o)
                              c:/st/stm32cubeide_1.7.0/stm32cubeide/plugins/com.st.stm32cube.ide.mcu.externaltools.gnu-tools-for-stm32.9-2020-q2-update.win32_2.0.0.202105311346/tools/bin/../lib/gcc/arm-none-eabi/9.3.1/../../../../arm-none-eabi/lib/thumb/v7e-m+fp/hard\libc_nano.a(lib_a-signal.o) (_kill_r)
c:/st/stm32cubeide_1.7.0/stm32cubeide/plugins/com.st.stm32cube.ide.mcu.externaltools.gnu-tools-for-stm32.9-2020-q2-update.win32_2.0.0.202105311346/tools/bin/../lib/gcc/arm-none-eabi/9.3.1/../../../../arm-none-eabi/lib/thumb/v7e-m+fp/hard\libc_nano.a(lib_a-stdio.o)
                              c:/st/stm32cubeide_1.7.0/stm32cubeide/plugins/com.st.stm32cube.ide.mcu.externaltools.gnu-tools-for-stm32.9-2020-q2-update.win32_2.0.0.202105311346/tools/bin/../lib/gcc/arm-none-eabi/9.3.1/../../../../arm-none-eabi/lib/thumb/v7e-m+fp/hard\libc_nano.a(lib_a-findfp.o) (__sread)
c:/st/stm32cubeide_1.7.0/stm32cubeide/plugins/com.st.stm32cube.ide.mcu.externaltools.gnu-tools-for-stm32.9-2020-q2-update.win32_2.0.0.202105311346/tools/bin/../lib/gcc/arm-none-eabi/9.3.1/../../../../arm-none-eabi/lib/thumb/v7e-m+fp/hard\libc_nano.a(lib_a-writer.o)
                              c:/st/stm32cubeide_1.7.0/stm32cubeide/plugins/com.st.stm32cube.ide.mcu.externaltools.gnu-tools-for-stm32.9-2020-q2-update.win32_2.0.0.202105311346/tools/bin/../lib/gcc/arm-none-eabi/9.3.1/../../../../arm-none-eabi/lib/thumb/v7e-m+fp/hard\libc_nano.a(lib_a-stdio.o) (_write_r)
c:/st/stm32cubeide_1.7.0/stm32cubeide/plugins/com.st.stm32cube.ide.mcu.externaltools.gnu-tools-for-stm32.9-2020-q2-update.win32_2.0.0.202105311346/tools/bin/../lib/gcc/arm-none-eabi/9.3.1/../../../../arm-none-eabi/lib/thumb/v7e-m+fp/hard\libc_nano.a(lib_a-closer.o)
                              c:/st/stm32cubeide_1.7.0/stm32cubeide/plugins/com.st.stm32cube.ide.mcu.externaltools.gnu-tools-for-stm32.9-2020-q2-update.win32_2.0.0.202105311346/tools/bin/../lib/gcc/arm-none-eabi/9.3.1/../../../../arm-none-eabi/lib/thumb/v7e-m+fp/hard\libc_nano.a(lib_a-stdio.o) (_close_r)
c:/st/stm32cubeide_1.7.0/stm32cubeide/plugins/com.st.stm32cube.ide.mcu.externaltools.gnu-tools-for-stm32.9-2020-q2-update.win32_2.0.0.202105311346/tools/bin/../lib/gcc/arm-none-eabi/9.3.1/../../../../arm-none-eabi/lib/thumb/v7e-m+fp/hard\libc_nano.a(lib_a-fstatr.o)
                              c:/st/stm32cubeide_1.7.0/stm32cubeide/plugins/com.st.stm32cube.ide.mcu.externaltools.gnu-tools-for-stm32.9-2020-q2-update.win32_2.0.0.202105311346/tools/bin/../lib/gcc/arm-none-eabi/9.3.1/../../../../arm-none-eabi/lib/thumb/v7e-m+fp/hard\libc_nano.a(lib_a-makebuf.o) (_fstat_r)
c:/st/stm32cubeide_1.7.0/stm32cubeide/plugins/com.st.stm32cube.ide.mcu.externaltools.gnu-tools-for-stm32.9-2020-q2-update.win32_2.0.0.202105311346/tools/bin/../lib/gcc/arm-none-eabi/9.3.1/../../../../arm-none-eabi/lib/thumb/v7e-m+fp/hard\libc_nano.a(lib_a-isattyr.o)
                              c:/st/stm32cubeide_1.7.0/stm32cubeide/plugins/com.st.stm32cube.ide.mcu.externaltools.gnu-tools-for-stm32.9-2020-q2-update.win32_2.0.0.202105311346/tools/bin/../lib/gcc/arm-none-eabi/9.3.1/../../../../arm-none-eabi/lib/thumb/v7e-m+fp/hard\libc_nano.a(lib_a-makebuf.o) (_isatty_r)
c:/st/stm32cubeide_1.7.0/stm32cubeide/plugins/com.st.stm32cube.ide.mcu.externaltools.gnu-tools-for-stm32.9-2020-q2-update.win32_2.0.0.202105311346/tools/bin/../lib/gcc/arm-none-eabi/9.3.1/../../../../arm-none-eabi/lib/thumb/v7e-m+fp/hard\libc_nano.a(lib_a-lseekr.o)
                              c:/st/stm32cubeide_1.7.0/stm32cubeide/plugins/com.st.stm32cube.ide.mcu.externaltools.gnu-tools-for-stm32.9-2020-q2-update.win32_2.0.0.202105311346/tools/bin/../lib/gcc/arm-none-eabi/9.3.1/../../../../arm-none-eabi/lib/thumb/v7e-m+fp/hard\libc_nano.a(lib_a-stdio.o) (_lseek_r)
c:/st/stm32cubeide_1.7.0/stm32cubeide/plugins/com.st.stm32cube.ide.mcu.externaltools.gnu-tools-for-stm32.9-2020-q2-update.win32_2.0.0.202105311346/tools/bin/../lib/gcc/arm-none-eabi/9.3.1/../../../../arm-none-eabi/lib/thumb/v7e-m+fp/hard\libc_nano.a(lib_a-nano-msizer.o)
                              c:/st/stm32cubeide_1.7.0/stm32cubeide/plugins/com.st.stm32cube.ide.mcu.externaltools.gnu-tools-for-stm32.9-2020-q2-update.win32_2.0.0.202105311346/tools/bin/../lib/gcc/arm-none-eabi/9.3.1/../../../../arm-none-eabi/lib/thumb/v7e-m+fp/hard\libc_nano.a(lib_a-nano-reallocr.o) (_malloc_usable_size_r)
c:/st/stm32cubeide_1.7.0/stm32cubeide/plugins/com.st.stm32cube.ide.mcu.externaltools.gnu-tools-for-stm32.9-2020-q2-update.win32_2.0.0.202105311346/tools/bin/../lib/gcc/arm-none-eabi/9.3.1/../../../../arm-none-eabi/lib/thumb/v7e-m+fp/hard\libc_nano.a(lib_a-readr.o)
                              c:/st/stm32cubeide_1.7.0/stm32cubeide/plugins/com.st.stm32cube.ide.mcu.externaltools.gnu-tools-for-stm32.9-2020-q2-update.win32_2.0.0.202105311346/tools/bin/../lib/gcc/arm-none-eabi/9.3.1/../../../../arm-none-eabi/lib/thumb/v7e-m+fp/hard\libc_nano.a(lib_a-stdio.o) (_read_r)
c:/st/stm32cubeide_1.7.0/stm32cubeide/plugins/com.st.stm32cube.ide.mcu.externaltools.gnu-tools-for-stm32.9-2020-q2-update.win32_2.0.0.202105311346/tools/bin/../lib/gcc/arm-none-eabi/9.3.1/../../../../arm-none-eabi/lib/thumb/v7e-m+fp/hard\libm.a(lib_a-s_round.o)
                              ./core/ranging/ranging_algorithm.o (round)
c:/st/stm32cubeide_1.7.0/stm32cubeide/plugins/com.st.stm32cube.ide.mcu.externaltools.gnu-tools-for-stm32.9-2020-q2-update.win32_2.0.0.202105311346/tools/bin/../lib/gcc/arm-none-eabi/9.3.1/thumb/v7e-m+fp/hard\libgcc.a(_arm_muldf3.o)
                              ./core/ranging/ranging_base.o (__aeabi_dmul)
c:/st/stm32cubeide_1.7.0/stm32cubeide/plugins/com.st.stm32cube.ide.mcu.externaltools.gnu-tools-for-stm32.9-2020-q2-update.win32_2.0.0.202105311346/tools/bin/../lib/gcc/arm-none-eabi/9.3.1/thumb/v7e-m+fp/hard\libgcc.a(_arm_addsubdf3.o)
                              ./core/ranging/ranging_algorithm.o (__aeabi_dsub)
c:/st/stm32cubeide_1.7.0/stm32cubeide/plugins/com.st.stm32cube.ide.mcu.externaltools.gnu-tools-for-stm32.9-2020-q2-update.win32_2.0.0.202105311346/tools/bin/../lib/gcc/arm-none-eabi/9.3.1/thumb/v7e-m+fp/hard\libgcc.a(_arm_muldivdf3.o)
                              ./core/ranging/ranging_algorithm.o (__aeabi_ddiv)
c:/st/stm32cubeide_1.7.0/stm32cubeide/plugins/com.st.stm32cube.ide.mcu.externaltools.gnu-tools-for-stm32.9-2020-q2-update.win32_2.0.0.202105311346/tools/bin/../lib/gcc/arm-none-eabi/9.3.1/thumb/v7e-m+fp/hard\libgcc.a(_arm_cmpdf2.o)
                              ./core/ranging/ranging_algorithm.o (__aeabi_dcmplt)
c:/st/stm32cubeide_1.7.0/stm32cubeide/plugins/com.st.stm32cube.ide.mcu.externaltools.gnu-tools-for-stm32.9-2020-q2-update.win32_2.0.0.202105311346/tools/bin/../lib/gcc/arm-none-eabi/9.3.1/thumb/v7e-m+fp/hard\libgcc.a(_arm_fixunsdfsi.o)
                              ./core/ranging/ranging_algorithm.o (__aeabi_d2uiz)
c:/st/stm32cubeide_1.7.0/stm32cubeide/plugins/com.st.stm32cube.ide.mcu.externaltools.gnu-tools-for-stm32.9-2020-q2-update.win32_2.0.0.202105311346/tools/bin/../lib/gcc/arm-none-eabi/9.3.1/thumb/v7e-m+fp/hard\libgcc.a(_arm_truncdfsf2.o)
                              ./core/ranging/ranging_algorithm.o (__aeabi_d2f)
c:/st/stm32cubeide_1.7.0/stm32cubeide/plugins/com.st.stm32cube.ide.mcu.externaltools.gnu-tools-for-stm32.9-2020-q2-update.win32_2.0.0.202105311346/tools/bin/../lib/gcc/arm-none-eabi/9.3.1/thumb/v7e-m+fp/hard\libgcc.a(_aeabi_ldivmod.o)
                              ./core/wireless/transceiver/sr1000_api_adv.o (__aeabi_ldivmod)
c:/st/stm32cubeide_1.7.0/stm32cubeide/plugins/com.st.stm32cube.ide.mcu.externaltools.gnu-tools-for-stm32.9-2020-q2-update.win32_2.0.0.202105311346/tools/bin/../lib/gcc/arm-none-eabi/9.3.1/thumb/v7e-m+fp/hard\libgcc.a(_aeabi_uldivmod.o)
                              ./core/wireless/link/link_lqi.o (__aeabi_uldivmod)
c:/st/stm32cubeide_1.7.0/stm32cubeide/plugins/com.st.stm32cube.ide.mcu.externaltools.gnu-tools-for-stm32.9-2020-q2-update.win32_2.0.0.202105311346/tools/bin/../lib/gcc/arm-none-eabi/9.3.1/thumb/v7e-m+fp/hard\libgcc.a(_udivmoddi4.o)
                              c:/st/stm32cubeide_1.7.0/stm32cubeide/plugins/com.st.stm32cube.ide.mcu.externaltools.gnu-tools-for-stm32.9-2020-q2-update.win32_2.0.0.202105311346/tools/bin/../lib/gcc/arm-none-eabi/9.3.1/thumb/v7e-m+fp/hard\libgcc.a(_aeabi_ldivmod.o) (__udivmoddi4)
c:/st/stm32cubeide_1.7.0/stm32cubeide/plugins/com.st.stm32cube.ide.mcu.externaltools.gnu-tools-for-stm32.9-2020-q2-update.win32_2.0.0.202105311346/tools/bin/../lib/gcc/arm-none-eabi/9.3.1/thumb/v7e-m+fp/hard\libgcc.a(_dvmd_tls.o)
                              c:/st/stm32cubeide_1.7.0/stm32cubeide/plugins/com.st.stm32cube.ide.mcu.externaltools.gnu-tools-for-stm32.9-2020-q2-update.win32_2.0.0.202105311346/tools/bin/../lib/gcc/arm-none-eabi/9.3.1/thumb/v7e-m+fp/hard\libgcc.a(_aeabi_ldivmod.o) (__aeabi_ldiv0)

Allocating common symbols
Common symbol       size              file

hUsbDeviceFS        0x2d0             ./bsp/evk/usb_device/app/usb_device.o
__lock___atexit_recursive_mutex
                    0x1               c:/st/stm32cubeide_1.7.0/stm32cubeide/plugins/com.st.stm32cube.ide.mcu.externaltools.gnu-tools-for-stm32.9-2020-q2-update.win32_2.0.0.202105311346/tools/bin/../lib/gcc/arm-none-eabi/9.3.1/../../../../arm-none-eabi/lib/thumb/v7e-m+fp/hard\libc_nano.a(lib_a-lock.o)
hradio_dma_spi_tx   0x60              ./bsp/evk/bsp_radio.o
__lock___arc4random_mutex
                    0x1               c:/st/stm32cubeide_1.7.0/stm32cubeide/plugins/com.st.stm32cube.ide.mcu.externaltools.gnu-tools-for-stm32.9-2020-q2-update.win32_2.0.0.202105311346/tools/bin/../lib/gcc/arm-none-eabi/9.3.1/../../../../arm-none-eabi/lib/thumb/v7e-m+fp/hard\libc_nano.a(lib_a-lock.o)
errno               0x4               c:/st/stm32cubeide_1.7.0/stm32cubeide/plugins/com.st.stm32cube.ide.mcu.externaltools.gnu-tools-for-stm32.9-2020-q2-update.win32_2.0.0.202105311346/tools/bin/../lib/gcc/arm-none-eabi/9.3.1/../../../../arm-none-eabi/lib/thumb/v7e-m+fp/hard\libc_nano.a(lib_a-reent.o)
hradio_spi          0x64              ./bsp/evk/bsp_radio.o
hi2c1               0x4c              ./bsp/evk/bsp_audio.o
uwTick              0x4               ./lib/third-party/stmicroelectronics/stm32g4xx_hal_driver/Src/stm32g4xx_hal.o
__lock___env_recursive_mutex
                    0x1               c:/st/stm32cubeide_1.7.0/stm32cubeide/plugins/com.st.stm32cube.ide.mcu.externaltools.gnu-tools-for-stm32.9-2020-q2-update.win32_2.0.0.202105311346/tools/bin/../lib/gcc/arm-none-eabi/9.3.1/../../../../arm-none-eabi/lib/thumb/v7e-m+fp/hard\libc_nano.a(lib_a-lock.o)
__lock___sinit_recursive_mutex
                    0x1               c:/st/stm32cubeide_1.7.0/stm32cubeide/plugins/com.st.stm32cube.ide.mcu.externaltools.gnu-tools-for-stm32.9-2020-q2-update.win32_2.0.0.202105311346/tools/bin/../lib/gcc/arm-none-eabi/9.3.1/../../../../arm-none-eabi/lib/thumb/v7e-m+fp/hard\libc_nano.a(lib_a-lock.o)
hsai_block_a1       0xb4              ./bsp/evk/bsp_audio.o
htim5               0x4c              ./bsp/evk/bsp_clock.o
UserRxBufferFS      0x40              ./bsp/evk/usb_device/app/usbd_cdc_if.o
htim3               0x4c              ./bsp/evk/bsp_timer.o
htim20              0x4c              ./bsp/evk/bsp_timer.o
__lock___malloc_recursive_mutex
                    0x1               c:/st/stm32cubeide_1.7.0/stm32cubeide/plugins/com.st.stm32cube.ide.mcu.externaltools.gnu-tools-for-stm32.9-2020-q2-update.win32_2.0.0.202105311346/tools/bin/../lib/gcc/arm-none-eabi/9.3.1/../../../../arm-none-eabi/lib/thumb/v7e-m+fp/hard\libc_nano.a(lib_a-lock.o)
hdma_sai1_a         0x60              ./bsp/evk/bsp_audio.o
empty_rdo           0x8               ./core/wireless/protocol_stack/wps_l2.o
UserTxBufferFS      0x40              ./bsp/evk/usb_device/app/usbd_cdc_if.o
overrun_buffer      0xff              ./core/wireless/protocol_stack/wps_l2.o
htim6               0x4c              ./bsp/evk/bsp_timer.o
hdma_lpuart1_tx     0x60              ./bsp/evk/bsp_uart.o
hdma_lpuart1_rx     0x60              ./bsp/evk/bsp_uart.o
hdma_sai1_b         0x60              ./bsp/evk/bsp_audio.o
hlp_uart            0x90              ./bsp/evk/bsp_uart.o
hradio_dma_spi_rx   0x60              ./bsp/evk/bsp_radio.o
htim2               0x4c              ./bsp/evk/stm32g4xx_hal_timebase_tim.o
__lock___at_quick_exit_mutex
                    0x1               c:/st/stm32cubeide_1.7.0/stm32cubeide/plugins/com.st.stm32cube.ide.mcu.externaltools.gnu-tools-for-stm32.9-2020-q2-update.win32_2.0.0.202105311346/tools/bin/../lib/gcc/arm-none-eabi/9.3.1/../../../../arm-none-eabi/lib/thumb/v7e-m+fp/hard\libc_nano.a(lib_a-lock.o)
clk_freq            0x4               ./bsp/evk/bsp_clock.o
hsai_block_b1       0xb4              ./bsp/evk/bsp_audio.o
hpcd_USB_FS         0x2f4             ./bsp/evk/usb_device/target/usbd_conf.o
USBD_StrDesc        0x200             ./bsp/evk/usb_device/app/usbd_desc.o
__lock___dd_hash_mutex
                    0x1               c:/st/stm32cubeide_1.7.0/stm32cubeide/plugins/com.st.stm32cube.ide.mcu.externaltools.gnu-tools-for-stm32.9-2020-q2-update.win32_2.0.0.202105311346/tools/bin/../lib/gcc/arm-none-eabi/9.3.1/../../../../arm-none-eabi/lib/thumb/v7e-m+fp/hard\libc_nano.a(lib_a-lock.o)
__lock___tz_mutex   0x1               c:/st/stm32cubeide_1.7.0/stm32cubeide/plugins/com.st.stm32cube.ide.mcu.externaltools.gnu-tools-for-stm32.9-2020-q2-update.win32_2.0.0.202105311346/tools/bin/../lib/gcc/arm-none-eabi/9.3.1/../../../../arm-none-eabi/lib/thumb/v7e-m+fp/hard\libc_nano.a(lib_a-lock.o)
__lock___sfp_recursive_mutex
                    0x1               c:/st/stm32cubeide_1.7.0/stm32cubeide/plugins/com.st.stm32cube.ide.mcu.externaltools.gnu-tools-for-stm32.9-2020-q2-update.win32_2.0.0.202105311346/tools/bin/../lib/gcc/arm-none-eabi/9.3.1/../../../../arm-none-eabi/lib/thumb/v7e-m+fp/hard\libc_nano.a(lib_a-lock.o)

Discarded input sections

 .text          0x0000000000000000        0x0 c:/st/stm32cubeide_1.7.0/stm32cubeide/plugins/com.st.stm32cube.ide.mcu.externaltools.gnu-tools-for-stm32.9-2020-q2-update.win32_2.0.0.202105311346/tools/bin/../lib/gcc/arm-none-eabi/9.3.1/thumb/v7e-m+fp/hard/crti.o
 .data          0x0000000000000000        0x0 c:/st/stm32cubeide_1.7.0/stm32cubeide/plugins/com.st.stm32cube.ide.mcu.externaltools.gnu-tools-for-stm32.9-2020-q2-update.win32_2.0.0.202105311346/tools/bin/../lib/gcc/arm-none-eabi/9.3.1/thumb/v7e-m+fp/hard/crti.o
 .bss           0x0000000000000000        0x0 c:/st/stm32cubeide_1.7.0/stm32cubeide/plugins/com.st.stm32cube.ide.mcu.externaltools.gnu-tools-for-stm32.9-2020-q2-update.win32_2.0.0.202105311346/tools/bin/../lib/gcc/arm-none-eabi/9.3.1/thumb/v7e-m+fp/hard/crti.o
 .data          0x0000000000000000        0x4 c:/st/stm32cubeide_1.7.0/stm32cubeide/plugins/com.st.stm32cube.ide.mcu.externaltools.gnu-tools-for-stm32.9-2020-q2-update.win32_2.0.0.202105311346/tools/bin/../lib/gcc/arm-none-eabi/9.3.1/thumb/v7e-m+fp/hard/crtbegin.o
 .text          0x0000000000000000       0x7c c:/st/stm32cubeide_1.7.0/stm32cubeide/plugins/com.st.stm32cube.ide.mcu.externaltools.gnu-tools-for-stm32.9-2020-q2-update.win32_2.0.0.202105311346/tools/bin/../lib/gcc/arm-none-eabi/9.3.1/../../../../arm-none-eabi/lib/thumb/v7e-m+fp/hard/crt0.o
 .data          0x0000000000000000        0x0 c:/st/stm32cubeide_1.7.0/stm32cubeide/plugins/com.st.stm32cube.ide.mcu.externaltools.gnu-tools-for-stm32.9-2020-q2-update.win32_2.0.0.202105311346/tools/bin/../lib/gcc/arm-none-eabi/9.3.1/../../../../arm-none-eabi/lib/thumb/v7e-m+fp/hard/crt0.o
 .bss           0x0000000000000000        0x0 c:/st/stm32cubeide_1.7.0/stm32cubeide/plugins/com.st.stm32cube.ide.mcu.externaltools.gnu-tools-for-stm32.9-2020-q2-update.win32_2.0.0.202105311346/tools/bin/../lib/gcc/arm-none-eabi/9.3.1/../../../../arm-none-eabi/lib/thumb/v7e-m+fp/hard/crt0.o
 .ARM.extab     0x0000000000000000        0x0 c:/st/stm32cubeide_1.7.0/stm32cubeide/plugins/com.st.stm32cube.ide.mcu.externaltools.gnu-tools-for-stm32.9-2020-q2-update.win32_2.0.0.202105311346/tools/bin/../lib/gcc/arm-none-eabi/9.3.1/../../../../arm-none-eabi/lib/thumb/v7e-m+fp/hard/crt0.o
 .ARM.exidx     0x0000000000000000       0x10 c:/st/stm32cubeide_1.7.0/stm32cubeide/plugins/com.st.stm32cube.ide.mcu.externaltools.gnu-tools-for-stm32.9-2020-q2-update.win32_2.0.0.202105311346/tools/bin/../lib/gcc/arm-none-eabi/9.3.1/../../../../arm-none-eabi/lib/thumb/v7e-m+fp/hard/crt0.o
 .ARM.attributes
                0x0000000000000000       0x1c c:/st/stm32cubeide_1.7.0/stm32cubeide/plugins/com.st.stm32cube.ide.mcu.externaltools.gnu-tools-for-stm32.9-2020-q2-update.win32_2.0.0.202105311346/tools/bin/../lib/gcc/arm-none-eabi/9.3.1/../../../../arm-none-eabi/lib/thumb/v7e-m+fp/hard/crt0.o
 .group         0x0000000000000000        0xc ./app/hello_world.o
 .group         0x0000000000000000        0xc ./app/hello_world.o
 .group         0x0000000000000000        0xc ./app/hello_world.o
 .group         0x0000000000000000        0xc ./app/hello_world.o
 .group         0x0000000000000000        0xc ./app/hello_world.o
 .group         0x0000000000000000        0xc ./app/hello_world.o
 .group         0x0000000000000000        0xc ./app/hello_world.o
Memory Configuration

Name             Origin             Length             Attributes
RAM              0x0000000020000000 0x0000000000020000 xrw
FLASH            0x0000000008000000 0x0000000000080000 xr
*default*        0x0000000000000000 0xffffffffffffffff

Linker script and memory map

LOAD c:/st/stm32cubeide_1.7.0/stm32cubeide/plugins/com.st.stm32cube.ide.mcu.externaltools.gnu-tools-for-stm32.9-2020-q2-update.win32_2.0.0.202105311346/tools/bin/../lib/gcc/arm-none-eabi/9.3.1/thumb/v7e-m+fp/hard/crti.o
LOAD c:/st/stm32cubeide_1.7.0/stm32cubeide/plugins/com.st.stm32cube.ide.mcu.externaltools.gnu-tools-for-stm32.9-2020-q2-update.win32_2.0.0.202105311346/tools/bin/../lib/gcc/arm-none-eabi/9.3.1/thumb/v7e-m+fp/hard/crtbegin.o
LOAD c:/st/stm32cubeide_1.7.0/stm32cubeide/plugins/com.st.stm32cube.ide.mcu.externaltools.gnu-tools-for-stm32.9-2020-q2-update.win32_2.0.0.202105311346/tools/bin/../lib/gcc/arm-none-eabi/9.3.1/../../../../arm-none-eabi/lib/thumb/v7e-m+fp/hard/crt0.o
LOAD ./app/hello_world.o
LOAD ./bsp/evk/GCC/startup_stm32g473retx.o
LOAD ./bsp/evk/bsp.o
LOAD ./bsp/evk/bsp_audio.o
LOAD ./bsp/evk/bsp_button.o
LOAD ./bsp/evk/bsp_clock.o
LOAD ./bsp/evk/bsp_flash.o
LOAD ./bsp/evk/bsp_it.o
LOAD ./bsp/evk/bsp_led.o
LOAD ./bsp/evk/bsp_power.o
LOAD ./bsp/evk/bsp_radio.o
LOAD ./bsp/evk/bsp_timer.o
LOAD ./bsp/evk/bsp_uart.o
LOAD ./bsp/evk/bsp_usb.o
LOAD ./bsp/evk/stm32g4xx_hal_timebase_tim.o
LOAD ./bsp/evk/syscalls.o
LOAD ./bsp/evk/system_stm32g4xx.o
LOAD ./bsp/evk/usb_device/app/usb_device.o
LOAD ./bsp/evk/usb_device/app/usbd_cdc_if.o
LOAD ./bsp/evk/usb_device/app/usbd_desc.o
LOAD ./bsp/evk/usb_device/target/usbd_conf.o
LOAD ./core/ranging/ranging_algorithm.o
LOAD ./core/ranging/ranging_algorithm_private.o
LOAD ./core/ranging/ranging_base.o
LOAD ./core/ranging/ranging_base_fixed_point.o
LOAD ./core/wireless/link/link_cca.o
LOAD ./core/wireless/link/link_channel_hopping.o
LOAD ./core/wireless/link/link_gain_loop.o
LOAD ./core/wireless/link/link_lqi.o
LOAD ./core/wireless/link/link_multi_radio.o
LOAD ./core/wireless/link/link_protocol.o
LOAD ./core/wireless/link/link_random_datarate_offset.o
LOAD ./core/wireless/link/link_saw_arq.o
LOAD ./core/wireless/link/link_scheduler.o
LOAD ./core/wireless/link/link_tdma_sync.o
LOAD ./core/wireless/phy/sr1000_access.o
LOAD ./core/wireless/phy/sr1000_access_adv.o
LOAD ./core/wireless/phy/sr1000_calib.o
LOAD ./core/wireless/phy/sr1000_nvm.o
LOAD ./core/wireless/phy/sr1000_nvm_private.o
LOAD ./core/wireless/phy/sr1000_spectral.o
LOAD ./core/wireless/protocol_stack/wps.o
LOAD ./core/wireless/protocol_stack/wps_callback.o
LOAD ./core/wireless/protocol_stack/wps_l1.o
LOAD ./core/wireless/protocol_stack/wps_l2.o
LOAD ./core/wireless/protocol_stack/wps_process.o
LOAD ./core/wireless/protocol_stack/wps_stats.o
LOAD ./core/wireless/transceiver/sr1000_api.o
LOAD ./core/wireless/transceiver/sr1000_api_adv.o
LOAD ./lib/spark/buffer/uwb_circular_buffer.o
LOAD ./lib/spark/error/uwb_error.o
LOAD ./lib/spark/fixed_point/fixed_point.o
LOAD ./lib/spark/memory/mem_pool.o
LOAD ./lib/spark/queue/circular_queue.o
LOAD ./lib/spark/queue/queue.o
LOAD ./lib/third-party/stmicroelectronics/stm32_mw_usb_device/Class/CDC/Src/usbd_cdc.o
LOAD ./lib/third-party/stmicroelectronics/stm32_mw_usb_device/Class/CDC/Src/usbd_cdc_if_template.o
LOAD ./lib/third-party/stmicroelectronics/stm32_mw_usb_device/Core/Src/usbd_core.o
LOAD ./lib/third-party/stmicroelectronics/stm32_mw_usb_device/Core/Src/usbd_ctlreq.o
LOAD ./lib/third-party/stmicroelectronics/stm32_mw_usb_device/Core/Src/usbd_ioreq.o
LOAD ./lib/third-party/stmicroelectronics/stm32g4xx_hal_driver/Src/stm32g4xx_hal.o
LOAD ./lib/third-party/stmicroelectronics/stm32g4xx_hal_driver/Src/stm32g4xx_hal_cortex.o
LOAD ./lib/third-party/stmicroelectronics/stm32g4xx_hal_driver/Src/stm32g4xx_hal_dma.o
LOAD ./lib/third-party/stmicroelectronics/stm32g4xx_hal_driver/Src/stm32g4xx_hal_dma_ex.o
LOAD ./lib/third-party/stmicroelectronics/stm32g4xx_hal_driver/Src/stm32g4xx_hal_exti.o
LOAD ./lib/third-party/stmicroelectronics/stm32g4xx_hal_driver/Src/stm32g4xx_hal_flash.o
LOAD ./lib/third-party/stmicroelectronics/stm32g4xx_hal_driver/Src/stm32g4xx_hal_flash_ex.o
LOAD ./lib/third-party/stmicroelectronics/stm32g4xx_hal_driver/Src/stm32g4xx_hal_flash_ramfunc.o
LOAD ./lib/third-party/stmicroelectronics/stm32g4xx_hal_driver/Src/stm32g4xx_hal_gpio.o
LOAD ./lib/third-party/stmicroelectronics/stm32g4xx_hal_driver/Src/stm32g4xx_hal_hrtim.o
LOAD ./lib/third-party/stmicroelectronics/stm32g4xx_hal_driver/Src/stm32g4xx_hal_i2c.o
LOAD ./lib/third-party/stmicroelectronics/stm32g4xx_hal_driver/Src/stm32g4xx_hal_i2c_ex.o
LOAD ./lib/third-party/stmicroelectronics/stm32g4xx_hal_driver/Src/stm32g4xx_hal_pcd.o
LOAD ./lib/third-party/stmicroelectronics/stm32g4xx_hal_driver/Src/stm32g4xx_hal_pcd_ex.o
LOAD ./lib/third-party/stmicroelectronics/stm32g4xx_hal_driver/Src/stm32g4xx_hal_pwr.o
LOAD ./lib/third-party/stmicroelectronics/stm32g4xx_hal_driver/Src/stm32g4xx_hal_pwr_ex.o
LOAD ./lib/third-party/stmicroelectronics/stm32g4xx_hal_driver/Src/stm32g4xx_hal_rcc.o
LOAD ./lib/third-party/stmicroelectronics/stm32g4xx_hal_driver/Src/stm32g4xx_hal_rcc_ex.o
LOAD ./lib/third-party/stmicroelectronics/stm32g4xx_hal_driver/Src/stm32g4xx_hal_sai.o
LOAD ./lib/third-party/stmicroelectronics/stm32g4xx_hal_driver/Src/stm32g4xx_hal_sai_ex.o
LOAD ./lib/third-party/stmicroelectronics/stm32g4xx_hal_driver/Src/stm32g4xx_hal_spi.o
LOAD ./lib/third-party/stmicroelectronics/stm32g4xx_hal_driver/Src/stm32g4xx_hal_spi_ex.o
LOAD ./lib/third-party/stmicroelectronics/stm32g4xx_hal_driver/Src/stm32g4xx_hal_tim.o
LOAD ./lib/third-party/stmicroelectronics/stm32g4xx_hal_driver/Src/stm32g4xx_hal_tim_ex.o
LOAD ./lib/third-party/stmicroelectronics/stm32g4xx_hal_driver/Src/stm32g4xx_hal_uart.o
LOAD ./lib/third-party/stmicroelectronics/stm32g4xx_hal_driver/Src/stm32g4xx_hal_uart_ex.o
LOAD ./lib/third-party/stmicroelectronics/stm32g4xx_hal_driver/Src/stm32g4xx_ll_usb.o
START GROUP
LOAD c:/st/stm32cubeide_1.7.0/stm32cubeide/plugins/com.st.stm32cube.ide.mcu.externaltools.gnu-tools-for-stm32.9-2020-q2-update.win32_2.0.0.202105311346/tools/bin/../lib/gcc/arm-none-eabi/9.3.1/../../../../arm-none-eabi/lib/thumb/v7e-m+fp/hard\libc_nano.a
LOAD c:/st/stm32cubeide_1.7.0/stm32cubeide/plugins/com.st.stm32cube.ide.mcu.externaltools.gnu-tools-for-stm32.9-2020-q2-update.win32_2.0.0.202105311346/tools/bin/../lib/gcc/arm-none-eabi/9.3.1/../../../../arm-none-eabi/lib/thumb/v7e-m+fp/hard\libm.a
END GROUP
START GROUP
LOAD c:/st/stm32cubeide_1.7.0/stm32cubeide/plugins/com.st.stm32cube.ide.mcu.externaltools.gnu-tools-for-stm32.9-2020-q2-update.win32_2.0.0.202105311346/tools/bin/../lib/gcc/arm-none-eabi/9.3.1/thumb/v7e-m+fp/hard\libgcc.a
LOAD c:/st/stm32cubeide_1.7.0/stm32cubeide/plugins/com.st.stm32cube.ide.mcu.externaltools.gnu-tools-for-stm32.9-2020-q2-update.win32_2.0.0.202105311346/tools/bin/../lib/gcc/arm-none-eabi/9.3.1/../../../../arm-none-eabi/lib/thumb/v7e-m+fp/hard\libc_nano.a
END GROUP
START GROUP
LOAD c:/st/stm32cubeide_1.7.0/stm32cubeide/plugins/com.st.stm32cube.ide.mcu.externaltools.gnu-tools-for-stm32.9-2020-q2-update.win32_2.0.0.202105311346/tools/bin/../lib/gcc/arm-none-eabi/9.3.1/thumb/v7e-m+fp/hard\libgcc.a
LOAD c:/st/stm32cubeide_1.7.0/stm32cubeide/plugins/com.st.stm32cube.ide.mcu.externaltools.gnu-tools-for-stm32.9-2020-q2-update.win32_2.0.0.202105311346/tools/bin/../lib/gcc/arm-none-eabi/9.3.1/../../../../arm-none-eabi/lib/thumb/v7e-m+fp/hard\libc_nano.a
LOAD c:/st/stm32cubeide_1.7.0/stm32cubeide/plugins/com.st.stm32cube.ide.mcu.externaltools.gnu-tools-for-stm32.9-2020-q2-update.win32_2.0.0.202105311346/tools/bin/../lib/gcc/arm-none-eabi/9.3.1/../../../../arm-none-eabi/lib/thumb/v7e-m+fp/hard\libnosys.a
END GROUP
START GROUP
LOAD c:/st/stm32cubeide_1.7.0/stm32cubeide/plugins/com.st.stm32cube.ide.mcu.externaltools.gnu-tools-for-stm32.9-2020-q2-update.win32_2.0.0.202105311346/tools/bin/../lib/gcc/arm-none-eabi/9.3.1/thumb/v7e-m+fp/hard\libgcc.a
LOAD c:/st/stm32cubeide_1.7.0/stm32cubeide/plugins/com.st.stm32cube.ide.mcu.externaltools.gnu-tools-for-stm32.9-2020-q2-update.win32_2.0.0.202105311346/tools/bin/../lib/gcc/arm-none-eabi/9.3.1/../../../../arm-none-eabi/lib/thumb/v7e-m+fp/hard\libc_nano.a
LOAD c:/st/stm32cubeide_1.7.0/stm32cubeide/plugins/com.st.stm32cube.ide.mcu.externaltools.gnu-tools-for-stm32.9-2020-q2-update.win32_2.0.0.202105311346/tools/bin/../lib/gcc/arm-none-eabi/9.3.1/../../../../arm-none-eabi/lib/thumb/v7e-m+fp/hard\libnosys.a
END GROUP
LOAD c:/st/stm32cubeide_1.7.0/stm32cubeide/plugins/com.st.stm32cube.ide.mcu.externaltools.gnu-tools-for-stm32.9-2020-q2-update.win32_2.0.0.202105311346/tools/bin/../lib/gcc/arm-none-eabi/9.3.1/thumb/v7e-m+fp/hard/crtend.o
LOAD c:/st/stm32cubeide_1.7.0/stm32cubeide/plugins/com.st.stm32cube.ide.mcu.externaltools.gnu-tools-for-stm32.9-2020-q2-update.win32_2.0.0.202105311346/tools/bin/../lib/gcc/arm-none-eabi/9.3.1/thumb/v7e-m+fp/hard/crtn.o
                0x0000000020020000                _estack = (ORIGIN (RAM) + LENGTH (RAM))
                0x0000000000000200                _Min_Heap_Size = 0x200
                0x0000000000000400                _Min_Stack_Size = 0x400

.isr_vector     0x0000000008000000      0x1d8
                0x0000000008000000                . = ALIGN (0x4)
 *(.isr_vector)
 .isr_vector    0x0000000008000000      0x1d8 ./bsp/evk/GCC/startup_stm32g473retx.o
                0x0000000008000000                g_pfnVectors
                0x00000000080001d8                . = ALIGN (0x4)

.text           0x00000000080001e0     0xd24c
                0x00000000080001e0                . = ALIGN (0x4)
 *(.text)
 .text          0x00000000080001e0       0x40 c:/st/stm32cubeide_1.7.0/stm32cubeide/plugins/com.st.stm32cube.ide.mcu.externaltools.gnu-tools-for-stm32.9-2020-q2-update.win32_2.0.0.202105311346/tools/bin/../lib/gcc/arm-none-eabi/9.3.1/thumb/v7e-m+fp/hard/crtbegin.o
 .text          0x0000000008000220       0x10 c:/st/stm32cubeide_1.7.0/stm32cubeide/plugins/com.st.stm32cube.ide.mcu.externaltools.gnu-tools-for-stm32.9-2020-q2-update.win32_2.0.0.202105311346/tools/bin/../lib/gcc/arm-none-eabi/9.3.1/../../../../arm-none-eabi/lib/thumb/v7e-m+fp/hard\libc_nano.a(lib_a-strlen.o)
                0x0000000008000220                strlen
 .text          0x0000000008000230       0xa0 c:/st/stm32cubeide_1.7.0/stm32cubeide/plugins/com.st.stm32cube.ide.mcu.externaltools.gnu-tools-for-stm32.9-2020-q2-update.win32_2.0.0.202105311346/tools/bin/../lib/gcc/arm-none-eabi/9.3.1/../../../../arm-none-eabi/lib/thumb/v7e-m+fp/hard\libc_nano.a(lib_a-memchr.o)
                0x0000000008000230                memchr
 .text          0x00000000080002d0       0x30 c:/st/stm32cubeide_1.7.0/stm32cubeide/plugins/com.st.stm32cube.ide.mcu.externaltools.gnu-tools-for-stm32.9-2020-q2-update.win32_2.0.0.202105311346/tools/bin/../lib/gcc/arm-none-eabi/9.3.1/thumb/v7e-m+fp/hard\libgcc.a(_aeabi_uldivmod.o)
                0x00000000080002d0                __aeabi_uldivmod
 .text          0x0000000008000300      0x2c4 c:/st/stm32cubeide_1.7.0/stm32cubeide/plugins/com.st.stm32cube.ide.mcu.externaltools.gnu-tools-for-stm32.9-2020-q2-update.win32_2.0.0.202105311346/tools/bin/../lib/gcc/arm-none-eabi/9.3.1/thumb/v7e-m+fp/hard\libgcc.a(_udivmoddi4.o)
                0x0000000008000300                __udivmoddi4
 .text          0x00000000080005c4        0x4 c:/st/stm32cubeide_1.7.0/stm32cubeide/plugins/com.st.stm32cube.ide.mcu.externaltools.gnu-tools-for-stm32.9-2020-q2-update.win32_2.0.0.202105311346/tools/bin/../lib/gcc/arm-none-eabi/9.3.1/thumb/v7e-m+fp/hard\libgcc.a(_dvmd_tls.o)
                0x00000000080005c4                __aeabi_idiv0
                0x00000000080005c4                __aeabi_ldiv0
 *(.text*)
 .text.conn_tx_nack_callback
                0x00000000080005c8        0x4 ./app/hello_world.o
 .text.app_error_handler
                0x00000000080005cc        0x4 ./app/hello_world.o
 .text.conn_tx_ack_callback
                0x00000000080005d0        0x8 ./app/hello_world.o
 .text.radio_callback_cb
                0x00000000080005d8        0xc ./app/hello_world.o
 .text.radio_dma_spi_cb
                0x00000000080005e4       0x18 ./app/hello_world.o
 .text.radio_irq_cb
                0x00000000080005fc       0x18 ./app/hello_world.o
 .text.usb_gpio_callback
                0x0000000008000614       0x30 ./app/hello_world.o
 .text.usb_printf.constprop.0
                0x0000000008000644       0x30 ./app/hello_world.o
 .text.conn_rx_callback
                0x0000000008000674       0x2c ./app/hello_world.o
 .text.startup.main
                0x00000000080006a0      0x3bc ./app/hello_world.o
                0x00000000080006a0                main
 .text.Reset_Handler
                0x0000000008000a5c       0x50 ./bsp/evk/GCC/startup_stm32g473retx.o
                0x0000000008000a5c                Reset_Handler
 .text.Default_Handler
                0x0000000008000aac        0x2 ./bsp/evk/GCC/startup_stm32g473retx.o
                0x0000000008000aac                RTC_Alarm_IRQHandler
                0x0000000008000aac                TIM8_TRG_COM_IRQHandler
                0x0000000008000aac                TIM8_CC_IRQHandler
                0x0000000008000aac                SPI4_IRQHandler
                0x0000000008000aac                FDCAN3_IT0_IRQHandler
                0x0000000008000aac                TIM1_CC_IRQHandler
                0x0000000008000aac                USB_HP_IRQHandler
                0x0000000008000aac                CORDIC_IRQHandler
                0x0000000008000aac                DMA2_Channel8_IRQHandler
                0x0000000008000aac                NMI_Handler
                0x0000000008000aac                EXTI3_IRQHandler
                0x0000000008000aac                I2C3_ER_IRQHandler
                0x0000000008000aac                I2C2_EV_IRQHandler
                0x0000000008000aac                FPU_IRQHandler
                0x0000000008000aac                FDCAN1_IT1_IRQHandler
                0x0000000008000aac                TIM1_UP_TIM16_IRQHandler
                0x0000000008000aac                ADC1_2_IRQHandler
                0x0000000008000aac                SPI1_IRQHandler
                0x0000000008000aac                TIM6_DAC_IRQHandler
                0x0000000008000aac                TIM8_UP_IRQHandler
                0x0000000008000aac                DMA2_Channel2_IRQHandler
                0x0000000008000aac                TIM20_TRG_COM_IRQHandler
                0x0000000008000aac                USART3_IRQHandler
                0x0000000008000aac                DMA1_Channel7_IRQHandler
                0x0000000008000aac                UART5_IRQHandler
                0x0000000008000aac                ADC3_IRQHandler
                0x0000000008000aac                TIM4_IRQHandler
                0x0000000008000aac                DMA2_Channel1_IRQHandler
                0x0000000008000aac                QUADSPI_IRQHandler
                0x0000000008000aac                I2C1_EV_IRQHandler
                0x0000000008000aac                UART4_IRQHandler
                0x0000000008000aac                DMA2_Channel4_IRQHandler
                0x0000000008000aac                TIM3_IRQHandler
                0x0000000008000aac                RCC_IRQHandler
                0x0000000008000aac                DMA1_Channel1_IRQHandler
                0x0000000008000aac                Default_Handler
                0x0000000008000aac                DMA2_Channel7_IRQHandler
                0x0000000008000aac                RTC_TAMP_LSECSS_IRQHandler
                0x0000000008000aac                FMAC_IRQHandler
                0x0000000008000aac                EXTI15_10_IRQHandler
                0x0000000008000aac                DMA1_Channel8_IRQHandler
                0x0000000008000aac                TIM7_DAC_IRQHandler
                0x0000000008000aac                FDCAN3_IT1_IRQHandler
                0x0000000008000aac                TIM5_IRQHandler
                0x0000000008000aac                UCPD1_IRQHandler
                0x0000000008000aac                I2C3_EV_IRQHandler
                0x0000000008000aac                EXTI9_5_IRQHandler
                0x0000000008000aac                RTC_WKUP_IRQHandler
                0x0000000008000aac                PVD_PVM_IRQHandler
                0x0000000008000aac                SPI2_IRQHandler
                0x0000000008000aac                ADC5_IRQHandler
                0x0000000008000aac                DMA2_Channel5_IRQHandler
                0x0000000008000aac                CRS_IRQHandler
                0x0000000008000aac                EXTI4_IRQHandler
                0x0000000008000aac                RNG_IRQHandler
                0x0000000008000aac                TIM1_TRG_COM_TIM17_IRQHandler
                0x0000000008000aac                FDCAN2_IT1_IRQHandler
                0x0000000008000aac                ADC4_IRQHandler
                0x0000000008000aac                WWDG_IRQHandler
                0x0000000008000aac                I2C4_EV_IRQHandler
                0x0000000008000aac                FDCAN2_IT0_IRQHandler
                0x0000000008000aac                DMA2_Channel6_IRQHandler
                0x0000000008000aac                FDCAN1_IT0_IRQHandler
                0x0000000008000aac                COMP7_IRQHandler
                0x0000000008000aac                COMP1_2_3_IRQHandler
                0x0000000008000aac                EXTI1_IRQHandler
                0x0000000008000aac                USART2_IRQHandler
                0x0000000008000aac                COMP4_5_6_IRQHandler
                0x0000000008000aac                TIM20_BRK_IRQHandler
                0x0000000008000aac                I2C2_ER_IRQHandler
                0x0000000008000aac                TIM8_BRK_IRQHandler
                0x0000000008000aac                FLASH_IRQHandler
                0x0000000008000aac                TIM20_CC_IRQHandler
                0x0000000008000aac                USART1_IRQHandler
                0x0000000008000aac                SPI3_IRQHandler
                0x0000000008000aac                I2C1_ER_IRQHandler
                0x0000000008000aac                FMC_IRQHandler
                0x0000000008000aac                LPTIM1_IRQHandler
                0x0000000008000aac                DMAMUX_OVR_IRQHandler
                0x0000000008000aac                I2C4_ER_IRQHandler
                0x0000000008000aac                USBWakeUp_IRQHandler
                0x0000000008000aac                SAI1_IRQHandler
                0x0000000008000aac                DMA2_Channel3_IRQHandler
                0x0000000008000aac                TIM1_BRK_TIM15_IRQHandler
 *fill*         0x0000000008000aae        0x2 
 .text.init_led_gpio_push_pull.constprop.0
                0x0000000008000ab0       0x30 ./bsp/evk/bsp.o
 .text.bsp_init
                0x0000000008000ae0      0x59c ./bsp/evk/bsp.o
                0x0000000008000ae0                bsp_init
 .text.bsp_set_system_clock
                0x000000000800107c      0x210 ./bsp/evk/bsp_clock.o
                0x000000000800107c                bsp_set_system_clock
 .text.bsp_usb_clock_deinit
                0x000000000800128c       0x2c ./bsp/evk/bsp_clock.o
                0x000000000800128c                bsp_usb_clock_deinit
 .text.bsp_init_usb_clock
                0x00000000080012b8       0x50 ./bsp/evk/bsp_clock.o
                0x00000000080012b8                bsp_init_usb_clock
 .text.SystemClock_Config
                0x0000000008001308       0x18 ./bsp/evk/bsp_clock.o
                0x0000000008001308                SystemClock_Config
 .text.HAL_MspInit
                0x0000000008001320       0x40 ./bsp/evk/bsp_clock.o
                0x0000000008001320                HAL_MspInit
 .text.default_irq_callback
                0x0000000008001360        0x4 ./bsp/evk/bsp_it.o
 .text.bsp_set_usb_detect_callback
                0x0000000008001364        0xc ./bsp/evk/bsp_it.o
                0x0000000008001364                bsp_set_usb_detect_callback
 .text.bsp_set_radio_irq_callback
                0x0000000008001370        0xc ./bsp/evk/bsp_it.o
                0x0000000008001370                bsp_set_radio_irq_callback
 .text.bsp_set_radio_dma_rx_callback
                0x000000000800137c        0xc ./bsp/evk/bsp_it.o
                0x000000000800137c                bsp_set_radio_dma_rx_callback
 .text.bsp_set_pendsv_callback
                0x0000000008001388        0xc ./bsp/evk/bsp_it.o
                0x0000000008001388                bsp_set_pendsv_callback
 .text.bsp_enter_critical
                0x0000000008001394       0x14 ./bsp/evk/bsp_it.o
                0x0000000008001394                bsp_enter_critical
 .text.bsp_exit_critical
                0x00000000080013a8       0x14 ./bsp/evk/bsp_it.o
                0x00000000080013a8                bsp_exit_critical
 .text.Error_Handler
                0x00000000080013bc        0x4 ./bsp/evk/bsp_it.o
                0x00000000080013bc                Error_Handler
 .text.HardFault_Handler
                0x00000000080013c0        0x4 ./bsp/evk/bsp_it.o
                0x00000000080013c0                HardFault_Handler
 .text.MemManage_Handler
                0x00000000080013c4        0x4 ./bsp/evk/bsp_it.o
                0x00000000080013c4                MemManage_Handler
 .text.BusFault_Handler
                0x00000000080013c8        0x4 ./bsp/evk/bsp_it.o
                0x00000000080013c8                BusFault_Handler
 .text.UsageFault_Handler
                0x00000000080013cc        0x4 ./bsp/evk/bsp_it.o
                0x00000000080013cc                UsageFault_Handler
 .text.SVC_Handler
                0x00000000080013d0        0x4 ./bsp/evk/bsp_it.o
                0x00000000080013d0                SVC_Handler
 .text.DebugMon_Handler
                0x00000000080013d4        0x4 ./bsp/evk/bsp_it.o
                0x00000000080013d4                DebugMon_Handler
 .text.PendSV_Handler
                0x00000000080013d8       0x18 ./bsp/evk/bsp_it.o
                0x00000000080013d8                PendSV_Handler
 .text.SysTick_Handler
                0x00000000080013f0        0x4 ./bsp/evk/bsp_it.o
                0x00000000080013f0                SysTick_Handler
 .text.EXTI0_IRQHandler
                0x00000000080013f4       0x18 ./bsp/evk/bsp_it.o
                0x00000000080013f4                EXTI0_IRQHandler
 .text.EXTI2_IRQHandler
                0x000000000800140c       0x14 ./bsp/evk/bsp_it.o
                0x000000000800140c                EXTI2_IRQHandler
 .text.DMA1_Channel2_IRQHandler
                0x0000000008001420       0x3c ./bsp/evk/bsp_it.o
                0x0000000008001420                DMA1_Channel2_IRQHandler
 .text.DMA1_Channel3_IRQHandler
                0x000000000800145c        0xc ./bsp/evk/bsp_it.o
                0x000000000800145c                DMA1_Channel3_IRQHandler
 .text.DMA1_Channel4_IRQHandler
                0x0000000008001468        0xc ./bsp/evk/bsp_it.o
                0x0000000008001468                DMA1_Channel4_IRQHandler
 .text.DMA1_Channel5_IRQHandler
                0x0000000008001474        0xc ./bsp/evk/bsp_it.o
                0x0000000008001474                DMA1_Channel5_IRQHandler
 .text.DMA1_Channel6_IRQHandler
                0x0000000008001480        0xc ./bsp/evk/bsp_it.o
                0x0000000008001480                DMA1_Channel6_IRQHandler
 .text.USB_LP_IRQHandler
                0x000000000800148c        0xc ./bsp/evk/bsp_it.o
                0x000000000800148c                USB_LP_IRQHandler
 .text.TIM2_IRQHandler
                0x0000000008001498       0x14 ./bsp/evk/bsp_it.o
                0x0000000008001498                TIM2_IRQHandler
 .text.TIM20_UP_IRQHandler
                0x00000000080014ac       0x18 ./bsp/evk/bsp_it.o
                0x00000000080014ac                TIM20_UP_IRQHandler
 .text.LPUART1_IRQHandler
                0x00000000080014c4        0xc ./bsp/evk/bsp_it.o
                0x00000000080014c4                LPUART1_IRQHandler
 .text.bsp_led_toggle
                0x00000000080014d0       0x30 ./bsp/evk/bsp_led.o
                0x00000000080014d0                bsp_led_toggle
 .text.bsp_set_board_voltage
                0x0000000008001500       0x18 ./bsp/evk/bsp_power.o
                0x0000000008001500                bsp_set_board_voltage
 .text.bsp_radio_read_irq_pin
                0x0000000008001518       0x18 ./bsp/evk/bsp_radio.o
                0x0000000008001518                bsp_radio_read_irq_pin
 .text.bsp_radio_enable_irq_it
                0x0000000008001530       0x10 ./bsp/evk/bsp_radio.o
                0x0000000008001530                bsp_radio_enable_irq_it
 .text.bsp_radio_disable_irq_it
                0x0000000008001540       0x18 ./bsp/evk/bsp_radio.o
                0x0000000008001540                bsp_radio_disable_irq_it
 .text.bsp_radio_set_shutdown_pin
                0x0000000008001558       0x10 ./bsp/evk/bsp_radio.o
                0x0000000008001558                bsp_radio_set_shutdown_pin
 .text.bsp_radio_reset_shutdown_pin
                0x0000000008001568       0x10 ./bsp/evk/bsp_radio.o
                0x0000000008001568                bsp_radio_reset_shutdown_pin
 .text.bsp_radio_set_reset_pin
                0x0000000008001578       0x10 ./bsp/evk/bsp_radio.o
                0x0000000008001578                bsp_radio_set_reset_pin
 .text.bsp_radio_reset_reset_pin
                0x0000000008001588       0x10 ./bsp/evk/bsp_radio.o
                0x0000000008001588                bsp_radio_reset_reset_pin
 .text.bsp_radio_spi_set_cs
                0x0000000008001598       0x10 ./bsp/evk/bsp_radio.o
                0x0000000008001598                bsp_radio_spi_set_cs
 .text.bsp_radio_spi_reset_cs
                0x00000000080015a8       0x10 ./bsp/evk/bsp_radio.o
                0x00000000080015a8                bsp_radio_spi_reset_cs
 .text.bsp_radio_spi_write_blocking
                0x00000000080015b8       0x10 ./bsp/evk/bsp_radio.o
                0x00000000080015b8                bsp_radio_spi_write_blocking
 .text.bsp_radio_spi_read_blocking
                0x00000000080015c8       0x10 ./bsp/evk/bsp_radio.o
                0x00000000080015c8                bsp_radio_spi_read_blocking
 .text.bsp_radio_spi_transfer_full_duplex_blocking
                0x00000000080015d8       0x90 ./bsp/evk/bsp_radio.o
                0x00000000080015d8                bsp_radio_spi_transfer_full_duplex_blocking
 .text.bsp_radio_spi_transfer_full_duplex_non_blocking
                0x0000000008001668       0x80 ./bsp/evk/bsp_radio.o
                0x0000000008001668                bsp_radio_spi_transfer_full_duplex_non_blocking
 .text.bsp_radio_is_spi_busy
                0x00000000080016e8       0x10 ./bsp/evk/bsp_radio.o
                0x00000000080016e8                bsp_radio_is_spi_busy
 .text.bsp_radio_context_switch
                0x00000000080016f8       0x10 ./bsp/evk/bsp_radio.o
                0x00000000080016f8                bsp_radio_context_switch
 .text.bsp_radio_callback_context_switch
                0x0000000008001708       0x10 ./bsp/evk/bsp_radio.o
                0x0000000008001708                bsp_radio_callback_context_switch
 .text.HAL_SPI_MspInit
                0x0000000008001718       0xc8 ./bsp/evk/bsp_radio.o
                0x0000000008001718                HAL_SPI_MspInit
 .text.bsp_delay_ms
                0x00000000080017e0        0x4 ./bsp/evk/bsp_timer.o
                0x00000000080017e0                bsp_delay_ms
 .text.bsp_get_free_running_timer_tick_ms
                0x00000000080017e4       0x58 ./bsp/evk/bsp_timer.o
                0x00000000080017e4                bsp_get_free_running_timer_tick_ms
 .text.HAL_UART_TxCpltCallback
                0x000000000800183c       0x24 ./bsp/evk/bsp_uart.o
                0x000000000800183c                HAL_UART_TxCpltCallback
 .text.HAL_UART_MspInit
                0x0000000008001860      0x134 ./bsp/evk/bsp_uart.o
                0x0000000008001860                HAL_UART_MspInit
 .text.bsp_usb_cdc_init
                0x0000000008001994       0x50 ./bsp/evk/bsp_usb.o
                0x0000000008001994                bsp_usb_cdc_init
 .text.bsp_cdc_usb_deinit
                0x00000000080019e4       0x1c ./bsp/evk/bsp_usb.o
                0x00000000080019e4                bsp_cdc_usb_deinit
 .text.bsp_cdc_usb_connect
                0x0000000008001a00       0x28 ./bsp/evk/bsp_usb.o
                0x0000000008001a00                bsp_cdc_usb_connect
 .text.bsp_cdc_usb_disconnect
                0x0000000008001a28       0x24 ./bsp/evk/bsp_usb.o
                0x0000000008001a28                bsp_cdc_usb_disconnect
 .text.bsp_is_usb_detected
                0x0000000008001a4c       0x14 ./bsp/evk/bsp_usb.o
                0x0000000008001a4c                bsp_is_usb_detected
 .text.bsp_usb_cdc_send_buf
                0x0000000008001a60        0x8 ./bsp/evk/bsp_usb.o
                0x0000000008001a60                bsp_usb_cdc_send_buf
 .text.HAL_InitTick
                0x0000000008001a68       0x84 ./bsp/evk/stm32g4xx_hal_timebase_tim.o
                0x0000000008001a68                HAL_InitTick
 .text._getpid  0x0000000008001aec        0x4 ./bsp/evk/syscalls.o
                0x0000000008001aec                _getpid
 .text._kill    0x0000000008001af0       0x10 ./bsp/evk/syscalls.o
                0x0000000008001af0                _kill
 .text._exit    0x0000000008001b00        0xc ./bsp/evk/syscalls.o
                0x0000000008001b00                _exit
 .text._read    0x0000000008001b0c       0x1c ./bsp/evk/syscalls.o
                0x0000000008001b0c                _read
 .text._write   0x0000000008001b28       0x1c ./bsp/evk/syscalls.o
                0x0000000008001b28                _write
 .text._sbrk    0x0000000008001b44       0x3c ./bsp/evk/syscalls.o
                0x0000000008001b44                _sbrk
 .text._close   0x0000000008001b80        0x8 ./bsp/evk/syscalls.o
                0x0000000008001b80                _close
 .text._fstat   0x0000000008001b88        0xc ./bsp/evk/syscalls.o
                0x0000000008001b88                _fstat
 .text._isatty  0x0000000008001b94        0x4 ./bsp/evk/syscalls.o
                0x0000000008001b94                _isatty
 .text._lseek   0x0000000008001b98        0x4 ./bsp/evk/syscalls.o
                0x0000000008001b98                _lseek
 .text.SystemInit
                0x0000000008001b9c       0x1c ./bsp/evk/system_stm32g4xx.o
                0x0000000008001b9c                SystemInit
 .text.SystemCoreClockUpdate
                0x0000000008001bb8       0x84 ./bsp/evk/system_stm32g4xx.o
                0x0000000008001bb8                SystemCoreClockUpdate
 .text.CDC_DeInit_FS
                0x0000000008001c3c        0xc ./bsp/evk/usb_device/app/usbd_cdc_if.o
 .text.CDC_Control_FS
                0x0000000008001c48        0x4 ./bsp/evk/usb_device/app/usbd_cdc_if.o
 .text.CDC_TransmitCplt_FS
                0x0000000008001c4c       0x10 ./bsp/evk/usb_device/app/usbd_cdc_if.o
 .text.default_init_callback
                0x0000000008001c5c        0x4 ./bsp/evk/usb_device/app/usbd_cdc_if.o
                0x0000000008001c5c                default_init_callback
 .text.default_txrx_callback
                0x0000000008001c60        0x4 ./bsp/evk/usb_device/app/usbd_cdc_if.o
                0x0000000008001c60                default_txrx_callback
 .text.CDC_Receive_FS
                0x0000000008001c64       0x3c ./bsp/evk/usb_device/app/usbd_cdc_if.o
 .text.CDC_Init_FS
                0x0000000008001ca0       0x3c ./bsp/evk/usb_device/app/usbd_cdc_if.o
 .text.CDC_Transmit_FS
                0x0000000008001cdc       0x3c ./bsp/evk/usb_device/app/usbd_cdc_if.o
                0x0000000008001cdc                CDC_Transmit_FS
 .text.USBD_CDC_DeviceDescriptor
                0x0000000008001d18        0xc ./bsp/evk/usb_device/app/usbd_desc.o
                0x0000000008001d18                USBD_CDC_DeviceDescriptor
 .text.USBD_CDC_LangIDStrDescriptor
                0x0000000008001d24        0xc ./bsp/evk/usb_device/app/usbd_desc.o
                0x0000000008001d24                USBD_CDC_LangIDStrDescriptor
 .text.IntToUnicode
                0x0000000008001d30       0x30 ./bsp/evk/usb_device/app/usbd_desc.o
 .text.USBD_CDC_SerialStrDescriptor
                0x0000000008001d60       0x48 ./bsp/evk/usb_device/app/usbd_desc.o
                0x0000000008001d60                USBD_CDC_SerialStrDescriptor
 .text.USBD_CDC_ManufacturerStrDescriptor
                0x0000000008001da8       0x1c ./bsp/evk/usb_device/app/usbd_desc.o
                0x0000000008001da8                USBD_CDC_ManufacturerStrDescriptor
 .text.USBD_CDC_ProductStrDescriptor
                0x0000000008001dc4       0x1c ./bsp/evk/usb_device/app/usbd_desc.o
                0x0000000008001dc4                USBD_CDC_ProductStrDescriptor
 .text.USBD_CDC_ConfigStrDescriptor
                0x0000000008001de0       0x1c ./bsp/evk/usb_device/app/usbd_desc.o
                0x0000000008001de0                USBD_CDC_ConfigStrDescriptor
 .text.USBD_CDC_InterfaceStrDescriptor
                0x0000000008001dfc       0x1c ./bsp/evk/usb_device/app/usbd_desc.o
                0x0000000008001dfc                USBD_CDC_InterfaceStrDescriptor
 .text.HAL_PCD_MspInit
                0x0000000008001e18       0x40 ./bsp/evk/usb_device/target/usbd_conf.o
                0x0000000008001e18                HAL_PCD_MspInit
 .text.HAL_PCD_MspDeInit
                0x0000000008001e58       0x24 ./bsp/evk/usb_device/target/usbd_conf.o
                0x0000000008001e58                HAL_PCD_MspDeInit
 .text.HAL_PCD_SetupStageCallback
                0x0000000008001e7c        0xc ./bsp/evk/usb_device/target/usbd_conf.o
                0x0000000008001e7c                HAL_PCD_SetupStageCallback
 .text.HAL_PCD_DataOutStageCallback
                0x0000000008001e88       0x14 ./bsp/evk/usb_device/target/usbd_conf.o
                0x0000000008001e88                HAL_PCD_DataOutStageCallback
 .text.HAL_PCD_DataInStageCallback
                0x0000000008001e9c       0x14 ./bsp/evk/usb_device/target/usbd_conf.o
                0x0000000008001e9c                HAL_PCD_DataInStageCallback
 .text.HAL_PCD_SOFCallback
                0x0000000008001eb0        0x8 ./bsp/evk/usb_device/target/usbd_conf.o
                0x0000000008001eb0                HAL_PCD_SOFCallback
 .text.HAL_PCD_ResetCallback
                0x0000000008001eb8       0x1c ./bsp/evk/usb_device/target/usbd_conf.o
                0x0000000008001eb8                HAL_PCD_ResetCallback
 .text.HAL_PCD_SuspendCallback
                0x0000000008001ed4       0x20 ./bsp/evk/usb_device/target/usbd_conf.o
                0x0000000008001ed4                HAL_PCD_SuspendCallback
 .text.HAL_PCD_ResumeCallback
                0x0000000008001ef4       0x34 ./bsp/evk/usb_device/target/usbd_conf.o
                0x0000000008001ef4                HAL_PCD_ResumeCallback
 .text.USBD_LL_Init
                0x0000000008001f28       0x80 ./bsp/evk/usb_device/target/usbd_conf.o
                0x0000000008001f28                USBD_LL_Init
 .text.USBD_LL_DeInit
                0x0000000008001fa8       0x1c ./bsp/evk/usb_device/target/usbd_conf.o
                0x0000000008001fa8                USBD_LL_DeInit
 .text.USBD_LL_Start
                0x0000000008001fc4       0x1c ./bsp/evk/usb_device/target/usbd_conf.o
                0x0000000008001fc4                USBD_LL_Start
 .text.USBD_LL_Stop
                0x0000000008001fe0       0x1c ./bsp/evk/usb_device/target/usbd_conf.o
                0x0000000008001fe0                USBD_LL_Stop
 .text.USBD_LL_OpenEP
                0x0000000008001ffc       0x20 ./bsp/evk/usb_device/target/usbd_conf.o
                0x0000000008001ffc                USBD_LL_OpenEP
 .text.USBD_LL_CloseEP
                0x000000000800201c       0x1c ./bsp/evk/usb_device/target/usbd_conf.o
                0x000000000800201c                USBD_LL_CloseEP
 .text.USBD_LL_StallEP
                0x0000000008002038       0x1c ./bsp/evk/usb_device/target/usbd_conf.o
                0x0000000008002038                USBD_LL_StallEP
 .text.USBD_LL_ClearStallEP
                0x0000000008002054       0x1c ./bsp/evk/usb_device/target/usbd_conf.o
                0x0000000008002054                USBD_LL_ClearStallEP
 .text.USBD_LL_IsStallEP
                0x0000000008002070       0x28 ./bsp/evk/usb_device/target/usbd_conf.o
                0x0000000008002070                USBD_LL_IsStallEP
 .text.USBD_LL_SetUSBAddress
                0x0000000008002098       0x1c ./bsp/evk/usb_device/target/usbd_conf.o
                0x0000000008002098                USBD_LL_SetUSBAddress
 .text.USBD_LL_Transmit
                0x00000000080020b4       0x1c ./bsp/evk/usb_device/target/usbd_conf.o
                0x00000000080020b4                USBD_LL_Transmit
 .text.USBD_LL_PrepareReceive
                0x00000000080020d0       0x1c ./bsp/evk/usb_device/target/usbd_conf.o
                0x00000000080020d0                USBD_LL_PrepareReceive
 .text.USBD_LL_GetRxDataSize
                0x00000000080020ec        0x8 ./bsp/evk/usb_device/target/usbd_conf.o
                0x00000000080020ec                USBD_LL_GetRxDataSize
 .text.HAL_PCDEx_LPM_Callback
                0x00000000080020f4       0x50 ./bsp/evk/usb_device/target/usbd_conf.o
                0x00000000080020f4                HAL_PCDEx_LPM_Callback
 .text.USBD_static_malloc
                0x0000000008002144        0x8 ./bsp/evk/usb_device/target/usbd_conf.o
                0x0000000008002144                USBD_static_malloc
 .text.USBD_static_free
                0x000000000800214c        0x4 ./bsp/evk/usb_device/target/usbd_conf.o
                0x000000000800214c                USBD_static_free
 .text.link_cca_init
                0x0000000008002150       0x18 ./core/wireless/link/link_cca.o
                0x0000000008002150                link_cca_init
 .text.generate_freq_table
                0x0000000008002168       0x40 ./core/wireless/link/link_channel_hopping.o
 .text.link_channel_hopping_init
                0x00000000080021a8      0x108 ./core/wireless/link/link_channel_hopping.o
                0x00000000080021a8                link_channel_hopping_init
 .text.link_channel_hopping_increment_sequence
                0x00000000080022b0       0x28 ./core/wireless/link/link_channel_hopping.o
                0x00000000080022b0                link_channel_hopping_increment_sequence
 .text.link_channel_hopping_set_seq_index
                0x00000000080022d8        0x4 ./core/wireless/link/link_channel_hopping.o
                0x00000000080022d8                link_channel_hopping_set_seq_index
 .text.link_channel_hopping_get_seq_index
                0x00000000080022dc        0x4 ./core/wireless/link/link_channel_hopping.o
                0x00000000080022dc                link_channel_hopping_get_seq_index
 .text.link_channel_hopping_get_channel
                0x00000000080022e0       0x10 ./core/wireless/link/link_channel_hopping.o
                0x00000000080022e0                link_channel_hopping_get_channel
 .text.link_gain_loop_update
                0x00000000080022f0       0x5c ./core/wireless/link/link_gain_loop.o
                0x00000000080022f0                link_gain_loop_update
 .text.link_gain_loop_get_gain_value
                0x000000000800234c       0x10 ./core/wireless/link/link_gain_loop.o
                0x000000000800234c                link_gain_loop_get_gain_value
 .text.link_gain_loop_get_min_tenth_db
                0x000000000800235c       0x10 ./core/wireless/link/link_gain_loop.o
                0x000000000800235c                link_gain_loop_get_min_tenth_db
 .text.link_gain_loop_get_rnsi_tenth_db
                0x000000000800236c       0x10 ./core/wireless/link/link_gain_loop.o
                0x000000000800236c                link_gain_loop_get_rnsi_tenth_db
 .text.link_gain_loop_reset_gain_index
                0x000000000800237c        0x8 ./core/wireless/link/link_gain_loop.o
                0x000000000800237c                link_gain_loop_reset_gain_index
 .text.link_lqi_update
                0x0000000008002384      0x1ac ./core/wireless/link/link_lqi.o
                0x0000000008002384                link_lqi_update
 .text.link_protocol_send_buffer
                0x0000000008002530       0x50 ./core/wireless/link/link_protocol.o
                0x0000000008002530                link_protocol_send_buffer
 .text.link_protocol_receive_buffer
                0x0000000008002580       0x38 ./core/wireless/link/link_protocol.o
                0x0000000008002580                link_protocol_receive_buffer
 .text.link_rdo_init
                0x00000000080025b8       0x10 ./core/wireless/link/link_random_datarate_offset.o
                0x00000000080025b8                link_rdo_init
 .text.link_rdo_get_offset
                0x00000000080025c8        0xc ./core/wireless/link/link_random_datarate_offset.o
                0x00000000080025c8                link_rdo_get_offset
 .text.link_saw_arq_init
                0x00000000080025d4       0x1c ./core/wireless/link/link_saw_arq.o
                0x00000000080025d4                link_saw_arq_init
 .text.link_saw_arq_is_frame_timeout
                0x00000000080025f0       0x7c ./core/wireless/link/link_saw_arq.o
                0x00000000080025f0                link_saw_arq_is_frame_timeout
 .text.link_saw_arq_get_seq_num
                0x000000000800266c        0x4 ./core/wireless/link/link_saw_arq.o
                0x000000000800266c                link_saw_arq_get_seq_num
 .text.link_saw_arq_inc_seq_num
                0x0000000008002670        0xc ./core/wireless/link/link_saw_arq.o
                0x0000000008002670                link_saw_arq_inc_seq_num
 .text.link_saw_arq_update_rx_seq_num
                0x000000000800267c       0x10 ./core/wireless/link/link_saw_arq.o
                0x000000000800267c                link_saw_arq_update_rx_seq_num
 .text.link_saw_arq_is_rx_frame_duplicate
                0x000000000800268c       0x14 ./core/wireless/link/link_saw_arq.o
                0x000000000800268c                link_saw_arq_is_rx_frame_duplicate
 .text.link_scheduler_init
                0x00000000080026a0       0x14 ./core/wireless/link/link_scheduler.o
                0x00000000080026a0                link_scheduler_init
 .text.link_scheduler_increment_time_slot
                0x00000000080026b4       0x98 ./core/wireless/link/link_scheduler.o
                0x00000000080026b4                link_scheduler_increment_time_slot
 .text.link_scheduler_set_time_slot_i
                0x000000000800274c        0x4 ./core/wireless/link/link_scheduler.o
                0x000000000800274c                link_scheduler_set_time_slot_i
 .text.link_scheduler_enable_tx
                0x0000000008002750        0x8 ./core/wireless/link/link_scheduler.o
                0x0000000008002750                link_scheduler_enable_tx
 .text.link_scheduler_get_current_timeslot
                0x0000000008002758       0x10 ./core/wireless/link/link_scheduler.o
                0x0000000008002758                link_scheduler_get_current_timeslot
 .text.link_scheduler_get_next_timeslot_index
                0x0000000008002768        0x4 ./core/wireless/link/link_scheduler.o
                0x0000000008002768                link_scheduler_get_next_timeslot_index
 .text.link_scheduler_get_sleep_time
                0x000000000800276c        0x4 ./core/wireless/link/link_scheduler.o
                0x000000000800276c                link_scheduler_get_sleep_time
 .text.link_scheduler_get_timeslot_for_syncing
                0x0000000008002770        0x8 ./core/wireless/link/link_scheduler.o
                0x0000000008002770                link_scheduler_get_timeslot_for_syncing
 .text.link_tdma_sync_init
                0x0000000008002778       0x6c ./core/wireless/link/link_tdma_sync.o
                0x0000000008002778                link_tdma_sync_init
 .text.link_tdma_sync_update_tx
                0x00000000080027e4       0x8c ./core/wireless/link/link_tdma_sync.o
                0x00000000080027e4                link_tdma_sync_update_tx
 .text.link_tdma_sync_update_rx
                0x0000000008002870       0x90 ./core/wireless/link/link_tdma_sync.o
                0x0000000008002870                link_tdma_sync_update_rx
 .text.link_tdma_sync_slave_adjust
                0x0000000008002900       0x9c ./core/wireless/link/link_tdma_sync.o
                0x0000000008002900                link_tdma_sync_slave_adjust
 .text.link_tdma_sync_slave_find
                0x000000000800299c       0x90 ./core/wireless/link/link_tdma_sync.o
                0x000000000800299c                link_tdma_sync_slave_find
 .text.link_tdma_sync_get_sleep_cycles
                0x0000000008002a2c        0x4 ./core/wireless/link/link_tdma_sync.o
                0x0000000008002a2c                link_tdma_sync_get_sleep_cycles
 .text.link_tdma_sync_get_timeout
                0x0000000008002a30        0x4 ./core/wireless/link/link_tdma_sync.o
                0x0000000008002a30                link_tdma_sync_get_timeout
 .text.link_tdma_sync_get_pwr_up
                0x0000000008002a34        0x4 ./core/wireless/link/link_tdma_sync.o
                0x0000000008002a34                link_tdma_sync_get_pwr_up
 .text.link_tdma_sync_is_slave_synced
                0x0000000008002a38        0x4 ./core/wireless/link/link_tdma_sync.o
                0x0000000008002a38                link_tdma_sync_is_slave_synced
 .text.sr1000_access_open
                0x0000000008002a3c        0x4 ./core/wireless/phy/sr1000_access.o
                0x0000000008002a3c                sr1000_access_open
 .text.sr1000_access_close
                0x0000000008002a40        0x4 ./core/wireless/phy/sr1000_access.o
                0x0000000008002a40                sr1000_access_close
 .text.sr1000_access_burst_read
                0x0000000008002a44       0x28 ./core/wireless/phy/sr1000_access.o
                0x0000000008002a44                sr1000_access_burst_read
 .text.sr1000_access_burst_write
                0x0000000008002a6c       0x28 ./core/wireless/phy/sr1000_access.o
                0x0000000008002a6c                sr1000_access_burst_write
 .text.sr1000_access_write_reg
                0x0000000008002a94       0x2c ./core/wireless/phy/sr1000_access.o
                0x0000000008002a94                sr1000_access_write_reg
 .text.sr1000_access_read_reg
                0x0000000008002ac0       0x28 ./core/wireless/phy/sr1000_access.o
                0x0000000008002ac0                sr1000_access_read_reg
 .text.sr1000_access_wait_for_bit_set
                0x0000000008002ae8       0x30 ./core/wireless/phy/sr1000_access.o
                0x0000000008002ae8                sr1000_access_wait_for_bit_set
 .text.sr1000_access_adv_init
                0x0000000008002b18       0x1c ./core/wireless/phy/sr1000_access_adv.o
                0x0000000008002b18                sr1000_access_adv_init
 .text.sr1000_access_adv_append_read
                0x0000000008002b34       0x1c ./core/wireless/phy/sr1000_access_adv.o
                0x0000000008002b34                sr1000_access_adv_append_read
 .text.sr1000_access_adv_transfer_blocking
                0x0000000008002b50       0x18 ./core/wireless/phy/sr1000_access_adv.o
                0x0000000008002b50                sr1000_access_adv_transfer_blocking
 .text.sr1000_access_adv_transfer_non_blocking
                0x0000000008002b68       0x18 ./core/wireless/phy/sr1000_access_adv.o
                0x0000000008002b68                sr1000_access_adv_transfer_non_blocking
 .text.sr1000_access_adv_append_write
                0x0000000008002b80       0x1c ./core/wireless/phy/sr1000_access_adv.o
                0x0000000008002b80                sr1000_access_adv_append_write
 .text.sr1000_access_adv_append_write_burst
                0x0000000008002b9c       0x28 ./core/wireless/phy/sr1000_access_adv.o
                0x0000000008002b9c                sr1000_access_adv_append_write_burst
 .text.sr1000_access_adv_append_read_burst
                0x0000000008002bc4       0x20 ./core/wireless/phy/sr1000_access_adv.o
                0x0000000008002bc4                sr1000_access_adv_append_read_burst
 .text.sr1000_access_adv_enable_radio_irq
                0x0000000008002be4        0x4 ./core/wireless/phy/sr1000_access_adv.o
                0x0000000008002be4                sr1000_access_adv_enable_radio_irq
 .text.sr1000_access_adv_disable_radio_irq
                0x0000000008002be8        0x4 ./core/wireless/phy/sr1000_access_adv.o
                0x0000000008002be8                sr1000_access_adv_disable_radio_irq
 .text.sr1000_access_adv_spi_transfer_non_blocking
                0x0000000008002bec       0x14 ./core/wireless/phy/sr1000_access_adv.o
                0x0000000008002bec                sr1000_access_adv_spi_transfer_non_blocking
 .text.sr1000_calib_v1_find_new_dcro_code
                0x0000000008002c00       0xa8 ./core/wireless/phy/sr1000_calib.o
 .text.sr1000_calib_v2_clean_up_freq_table
                0x0000000008002ca8       0xac ./core/wireless/phy/sr1000_calib.o
 .text.use_calib_v1
                0x0000000008002d54       0x74 ./core/wireless/phy/sr1000_calib.o
 .text.sr1000_calib_fill_freq_table
                0x0000000008002dc8       0x78 ./core/wireless/phy/sr1000_calib.o
 .text.sr1000_calib_v1_apply_dcro_codes_offsets
                0x0000000008002e40       0x3c ./core/wireless/phy/sr1000_calib.o
 .text.sr1000_calib_v1_fill_new_dcro_codes_table.isra.0
                0x0000000008002e7c       0x68 ./core/wireless/phy/sr1000_calib.o
 .text.sr1000_calib_v2_apply_vcro_offsets.isra.0
                0x0000000008002ee4       0x4c ./core/wireless/phy/sr1000_calib.o
 .text.sr1000_calib_init
                0x0000000008002f30       0x1c ./core/wireless/phy/sr1000_calib.o
                0x0000000008002f30                sr1000_calib_init
 .text.sr1000_calib_vref_tune_offset
                0x0000000008002f4c       0x20 ./core/wireless/phy/sr1000_calib.o
                0x0000000008002f4c                sr1000_calib_vref_tune_offset
 .text.sr1000_calib_tune_delay_line
                0x0000000008002f6c       0x78 ./core/wireless/phy/sr1000_calib.o
                0x0000000008002f6c                sr1000_calib_tune_delay_line
 .text.sr1000_calib_frequency_to_code
                0x0000000008002fe4       0xe0 ./core/wireless/phy/sr1000_calib.o
                0x0000000008002fe4                sr1000_calib_frequency_to_code
 .text.sr1000_calib_run_frequency_calibration
                0x00000000080030c4      0x134 ./core/wireless/phy/sr1000_calib.o
                0x00000000080030c4                sr1000_calib_run_frequency_calibration
 .text.sr1000_calib_get_lna_peak
                0x00000000080031f8       0x44 ./core/wireless/phy/sr1000_calib.o
                0x00000000080031f8                sr1000_calib_get_lna_peak
 .text.sr1000_calib_get_next_dcro_code
                0x000000000800323c       0x8c ./core/wireless/phy/sr1000_calib.o
                0x000000000800323c                sr1000_calib_get_next_dcro_code
 .text.sr1000_nvm_get_product_id_model
                0x00000000080032c8       0x10 ./core/wireless/phy/sr1000_nvm.o
                0x00000000080032c8                sr1000_nvm_get_product_id_model
 .text.sr1000_nvm_get_product_id_version
                0x00000000080032d8        0xc ./core/wireless/phy/sr1000_nvm.o
                0x00000000080032d8                sr1000_nvm_get_product_id_version
 .text.sr1000_nvm_get_product_id_package
                0x00000000080032e4       0x10 ./core/wireless/phy/sr1000_nvm.o
                0x00000000080032e4                sr1000_nvm_get_product_id_package
 .text.sr1000_nvm_get_calibration
                0x00000000080032f4        0x8 ./core/wireless/phy/sr1000_nvm.o
                0x00000000080032f4                sr1000_nvm_get_calibration
 .text.sr1000_nvm_get_vcro_shift
                0x00000000080032fc       0x10 ./core/wireless/phy/sr1000_nvm.o
                0x00000000080032fc                sr1000_nvm_get_vcro_shift
 .text.sr1000_nvm_get_vref_adjust_pulse_width_offset
                0x000000000800330c       0x14 ./core/wireless/phy/sr1000_nvm.o
                0x000000000800330c                sr1000_nvm_get_vref_adjust_pulse_width_offset
 .text.sr1000_nvm_get_vref_adjust_vref_tune_offset
                0x0000000008003320       0x18 ./core/wireless/phy/sr1000_nvm.o
                0x0000000008003320                sr1000_nvm_get_vref_adjust_vref_tune_offset
 .text.sr1000_nvm_get_serial_number
                0x0000000008003338       0x14 ./core/wireless/phy/sr1000_nvm.o
                0x0000000008003338                sr1000_nvm_get_serial_number
 .text.sr1000_nvm_get_serial_number_binning_setup_code
                0x000000000800334c        0xc ./core/wireless/phy/sr1000_nvm.o
                0x000000000800334c                sr1000_nvm_get_serial_number_binning_setup_code
 .text.sr1000_nvm_get_serial_number_chip_id
                0x0000000008003358        0xc ./core/wireless/phy/sr1000_nvm.o
                0x0000000008003358                sr1000_nvm_get_serial_number_chip_id
 .text.sr1000_nvm_power_up
                0x0000000008003364       0x20 ./core/wireless/phy/sr1000_nvm.o
                0x0000000008003364                sr1000_nvm_power_up
 .text.sr1000_nvm_read
                0x0000000008003384       0x6c ./core/wireless/phy/sr1000_nvm.o
                0x0000000008003384                sr1000_nvm_read
 .text.sr1000_nvm_init
                0x00000000080033f0       0x90 ./core/wireless/phy/sr1000_nvm.o
                0x00000000080033f0                sr1000_nvm_init
 .text.set_pulses
                0x0000000008003480       0xfc ./core/wireless/phy/sr1000_spectral.o
 .text.config_spectrum_advance
                0x000000000800357c       0x74 ./core/wireless/phy/sr1000_spectral.o
                0x000000000800357c                config_spectrum_advance
 .text.wps_init_critical_section
                0x00000000080035f0        0x4 ./core/wireless/protocol_stack/wps.o
                0x00000000080035f0                wps_init_critical_section
 .text.wps_radio_init
                0x00000000080035f4       0x44 ./core/wireless/protocol_stack/wps.o
                0x00000000080035f4                wps_radio_init
 .text.wps_radio_calibrate
                0x0000000008003638       0x10 ./core/wireless/protocol_stack/wps.o
                0x0000000008003638                wps_radio_calibrate
 .text.wps_init_callback_queue
                0x0000000008003648        0xc ./core/wireless/protocol_stack/wps.o
                0x0000000008003648                wps_init_callback_queue
 .text.wps_init
                0x0000000008003654       0xa4 ./core/wireless/protocol_stack/wps.o
                0x0000000008003654                wps_init
 .text.wps_set_coordinator_address
                0x00000000080036f8        0x8 ./core/wireless/protocol_stack/wps.o
                0x00000000080036f8                wps_set_coordinator_address
 .text.wps_phy_init
                0x0000000008003700       0x2c ./core/wireless/protocol_stack/wps.o
                0x0000000008003700                wps_phy_init
 .text.wps_config_node
                0x000000000800372c       0xdc ./core/wireless/protocol_stack/wps.o
                0x000000000800372c                wps_config_node
 .text.wps_config_network_schedule
                0x0000000008003808       0x38 ./core/wireless/protocol_stack/wps.o
                0x0000000008003808                wps_config_network_schedule
 .text.wps_config_network_channel_sequence
                0x0000000008003840        0x8 ./core/wireless/protocol_stack/wps.o
                0x0000000008003840                wps_config_network_channel_sequence
 .text.wps_disable_concurrency
                0x0000000008003848        0x8 ./core/wireless/protocol_stack/wps.o
                0x0000000008003848                wps_disable_concurrency
 .text.wps_disable_fast_sync
                0x0000000008003850        0x8 ./core/wireless/protocol_stack/wps.o
                0x0000000008003850                wps_disable_fast_sync
 .text.wps_create_connection
                0x0000000008003858      0x10c ./core/wireless/protocol_stack/wps.o
                0x0000000008003858                wps_create_connection
 .text.wps_connection_set_timeslot
                0x0000000008003964       0x38 ./core/wireless/protocol_stack/wps.o
                0x0000000008003964                wps_connection_set_timeslot
 .text.wps_connection_config_channel
                0x000000000800399c       0x20 ./core/wireless/protocol_stack/wps.o
                0x000000000800399c                wps_connection_config_channel
 .text.wps_connection_config_frame
                0x00000000080039bc        0xc ./core/wireless/protocol_stack/wps.o
                0x00000000080039bc                wps_connection_config_frame
 .text.wps_connection_enable_ack
                0x00000000080039c8        0x8 ./core/wireless/protocol_stack/wps.o
                0x00000000080039c8                wps_connection_enable_ack
 .text.wps_connection_enable_stop_and_wait_arq
                0x00000000080039d0       0x24 ./core/wireless/protocol_stack/wps.o
                0x00000000080039d0                wps_connection_enable_stop_and_wait_arq
 .text.wps_connection_enable_auto_sync
                0x00000000080039f4        0x8 ./core/wireless/protocol_stack/wps.o
                0x00000000080039f4                wps_connection_enable_auto_sync
 .text.wps_connection_disable_cca
                0x00000000080039fc       0x1c ./core/wireless/protocol_stack/wps.o
                0x00000000080039fc                wps_connection_disable_cca
 .text.wps_connect
                0x0000000008003a18       0xc4 ./core/wireless/protocol_stack/wps.o
                0x0000000008003a18                wps_connect
 .text.wps_get_free_slot
                0x0000000008003adc       0x18 ./core/wireless/protocol_stack/wps.o
                0x0000000008003adc                wps_get_free_slot
 .text.wps_send
                0x0000000008003af4       0x58 ./core/wireless/protocol_stack/wps.o
                0x0000000008003af4                wps_send
 .text.wps_read
                0x0000000008003b4c       0x30 ./core/wireless/protocol_stack/wps.o
                0x0000000008003b4c                wps_read
 .text.wps_read_done
                0x0000000008003b7c        0x8 ./core/wireless/protocol_stack/wps.o
                0x0000000008003b7c                wps_read_done
 .text.wps_get_fifo_free_space
                0x0000000008003b84        0x8 ./core/wireless/protocol_stack/wps.o
                0x0000000008003b84                wps_get_fifo_free_space
 .text.wps_callback_enqueue
                0x0000000008003b8c       0x20 ./core/wireless/protocol_stack/wps_callback.o
                0x0000000008003b8c                wps_callback_enqueue
 .text.check_radio_irq
                0x0000000008003bac       0x18 ./core/wireless/protocol_stack/wps_l1.o
 .text.signal_yield
                0x0000000008003bc4        0x8 ./core/wireless/protocol_stack/wps_l1.o
 .text.end      0x0000000008003bcc       0x24 ./core/wireless/protocol_stack/wps_l1.o
 .text.set_config
                0x0000000008003bf0        0xc ./core/wireless/protocol_stack/wps_l1.o
 .text.set_payload_cut_through
                0x0000000008003bfc       0x98 ./core/wireless/protocol_stack/wps_l1.o
 .text.set_header
                0x0000000008003c94       0x28 ./core/wireless/protocol_stack/wps_l1.o
 .text.handle_missed_frame
                0x0000000008003cbc       0x6c ./core/wireless/protocol_stack/wps_l1.o
 .text.enqueue_tx_prepare_frame_states
                0x0000000008003d28       0x54 ./core/wireless/protocol_stack/wps_l1.o
 .text.close_spi
                0x0000000008003d7c       0x20 ./core/wireless/protocol_stack/wps_l1.o
 .text.prepare_radio
                0x0000000008003d9c      0x4f4 ./core/wireless/protocol_stack/wps_l1.o
 .text.clear_err.isra.0
                0x0000000008004290       0x88 ./core/wireless/protocol_stack/wps_l1.o
 .text.prepare_l1
                0x0000000008004318      0x254 ./core/wireless/protocol_stack/wps_l1.o
 .text.process_event
                0x000000000800456c      0x268 ./core/wireless/protocol_stack/wps_l1.o
 .text.get_payload_cut_through
                0x00000000080047d4      0x108 ./core/wireless/protocol_stack/wps_l1.o
 .text.read_events
                0x00000000080048dc       0x44 ./core/wireless/protocol_stack/wps_l1.o
 .text.setup_cut_through
                0x0000000008004920       0x84 ./core/wireless/protocol_stack/wps_l1.o
 .text.end_tx_cut_through
                0x00000000080049a4       0x38 ./core/wireless/protocol_stack/wps_l1.o
 .text.get_header
                0x00000000080049dc       0xdc ./core/wireless/protocol_stack/wps_l1.o
 .text.get_payload
                0x0000000008004ab8       0xb4 ./core/wireless/protocol_stack/wps_l1.o
 .text.end_flush
                0x0000000008004b6c       0x28 ./core/wireless/protocol_stack/wps_l1.o
 .text.read_events_syncing
                0x0000000008004b94       0x5c ./core/wireless/protocol_stack/wps_l1.o
 .text.enable_radio_irq
                0x0000000008004bf0       0x3c ./core/wireless/protocol_stack/wps_l1.o
 .text.set_payload
                0x0000000008004c2c       0x30 ./core/wireless/protocol_stack/wps_l1.o
 .text.wps_l1_init
                0x0000000008004c5c       0x24 ./core/wireless/protocol_stack/wps_l1.o
                0x0000000008004c5c                wps_l1_init
 .text.wps_l1_reset
                0x0000000008004c80       0x1c ./core/wireless/protocol_stack/wps_l1.o
                0x0000000008004c80                wps_l1_reset
 .text.wps_l1_process
                0x0000000008004c9c       0x44 ./core/wireless/protocol_stack/wps_l1.o
                0x0000000008004c9c                wps_l1_process
 .text.state_stop_wait_arq
                0x0000000008004ce0        0x4 ./core/wireless/protocol_stack/wps_l2.o
 .text.update_wps_stats
                0x0000000008004ce4      0x104 ./core/wireless/protocol_stack/wps_l2.o
 .text.state_post_rx
                0x0000000008004de8      0x1ec ./core/wireless/protocol_stack/wps_l2.o
 .text.state_link_quality
                0x0000000008004fd4       0x80 ./core/wireless/protocol_stack/wps_l2.o
 .text.state_post_tx
                0x0000000008005054      0x1e0 ./core/wireless/protocol_stack/wps_l2.o
 .text.state_prepare_internal_frame
                0x0000000008005234       0x84 ./core/wireless/protocol_stack/wps_l2.o
 .text.state_scheduler
                0x00000000080052b8       0xb0 ./core/wireless/protocol_stack/wps_l2.o
 .text.state_sync
                0x0000000008005368       0x80 ./core/wireless/protocol_stack/wps_l2.o
 .text.get_xlayer_for_rx
                0x00000000080053e8       0x54 ./core/wireless/protocol_stack/wps_l2.o
 .text.state_l2_prepare_frame
                0x000000000800543c       0x68 ./core/wireless/protocol_stack/wps_l2.o
 .text.get_xlayer_for_tx
                0x00000000080054a4      0x114 ./core/wireless/protocol_stack/wps_l2.o
 .text.state_setup_prime_link
                0x00000000080055b8       0xa4 ./core/wireless/protocol_stack/wps_l2.o
 .text.state_setup_primary_link
                0x000000000800565c      0x1b0 ./core/wireless/protocol_stack/wps_l2.o
 .text.end      0x000000000800580c        0x4 ./core/wireless/protocol_stack/wps_l2.o
 .text.state_setup_ack_link
                0x0000000008005810        0x4 ./core/wireless/protocol_stack/wps_l2.o
 .text.wps_l2_init
                0x0000000008005814       0xf4 ./core/wireless/protocol_stack/wps_l2.o
                0x0000000008005814                wps_l2_init
 .text.wps_l2_reset
                0x0000000008005908       0x18 ./core/wireless/protocol_stack/wps_l2.o
                0x0000000008005908                wps_l2_reset
 .text.wps_l2_process
                0x0000000008005920       0xe8 ./core/wireless/protocol_stack/wps_l2.o
                0x0000000008005920                wps_l2_process
 .text.wps_process
                0x0000000008005a08      0x260 ./core/wireless/protocol_stack/wps_process.o
                0x0000000008005a08                wps_process
 .text.wps_radio_irq
                0x0000000008005c68       0x10 ./core/wireless/protocol_stack/wps_process.o
                0x0000000008005c68                wps_radio_irq
 .text.wps_transfer_complete
                0x0000000008005c78       0x10 ./core/wireless/protocol_stack/wps_process.o
                0x0000000008005c78                wps_transfer_complete
 .text.wps_process_callback
                0x0000000008005c88       0x2c ./core/wireless/protocol_stack/wps_process.o
                0x0000000008005c88                wps_process_callback
 .text.uwb_reset
                0x0000000008005cb4       0x2c ./core/wireless/transceiver/sr1000_api.o
                0x0000000008005cb4                uwb_reset
 .text.uwb_init
                0x0000000008005ce0       0x74 ./core/wireless/transceiver/sr1000_api.o
                0x0000000008005ce0                uwb_init
 .text.uwb_calibrate
                0x0000000008005d54       0xc0 ./core/wireless/transceiver/sr1000_api.o
                0x0000000008005d54                uwb_calibrate
 .text.uwb_enable_irq
                0x0000000008005e14       0x3c ./core/wireless/transceiver/sr1000_api.o
                0x0000000008005e14                uwb_enable_irq
 .text.uwb_get_events
                0x0000000008005e50       0x30 ./core/wireless/transceiver/sr1000_api.o
                0x0000000008005e50                uwb_get_events
 .text.uwb_flush_tx_buffer
                0x0000000008005e80       0x20 ./core/wireless/transceiver/sr1000_api.o
                0x0000000008005e80                uwb_flush_tx_buffer
 .text.uwb_flush_rx_buffer
                0x0000000008005ea0       0x20 ./core/wireless/transceiver/sr1000_api.o
                0x0000000008005ea0                uwb_flush_rx_buffer
 .text.uwb_write_register
                0x0000000008005ec0       0x28 ./core/wireless/transceiver/sr1000_api.o
                0x0000000008005ec0                uwb_write_register
 .text.uwb_read_register
                0x0000000008005ee8       0x24 ./core/wireless/transceiver/sr1000_api.o
                0x0000000008005ee8                uwb_read_register
 .text.uwb_adv_set_shadow_reg
                0x0000000008005f0c       0x78 ./core/wireless/transceiver/sr1000_api_adv.o
                0x0000000008005f0c                uwb_adv_set_shadow_reg
 .text.uwb_adv_init
                0x0000000008005f84       0x48 ./core/wireless/transceiver/sr1000_api_adv.o
                0x0000000008005f84                uwb_adv_init
 .text.uwb_adv_set_destination_address
                0x0000000008005fcc       0x3c ./core/wireless/transceiver/sr1000_api_adv.o
                0x0000000008005fcc                uwb_adv_set_destination_address
 .text.uwb_adv_set_local_address
                0x0000000008006008       0x3c ./core/wireless/transceiver/sr1000_api_adv.o
                0x0000000008006008                uwb_adv_set_local_address
 .text.uwb_adv_set_rx_pause_time
                0x0000000008006044       0x34 ./core/wireless/transceiver/sr1000_api_adv.o
                0x0000000008006044                uwb_adv_set_rx_pause_time
 .text.uwb_adv_set_timer_config
                0x0000000008006078       0x38 ./core/wireless/transceiver/sr1000_api_adv.o
                0x0000000008006078                uwb_adv_set_timer_config
 .text.uwb_adv_set_irq1_flag
                0x00000000080060b0       0x34 ./core/wireless/transceiver/sr1000_api_adv.o
                0x00000000080060b0                uwb_adv_set_irq1_flag
 .text.uwb_adv_set_irq2_flag
                0x00000000080060e4       0x40 ./core/wireless/transceiver/sr1000_api_adv.o
                0x00000000080060e4                uwb_adv_set_irq2_flag
 .text.uwb_adv_disable_irq1
                0x0000000008006124       0x1c ./core/wireless/transceiver/sr1000_api_adv.o
                0x0000000008006124                uwb_adv_disable_irq1
 .text.uwb_adv_disable_irq2
                0x0000000008006140       0x1c ./core/wireless/transceiver/sr1000_api_adv.o
                0x0000000008006140                uwb_adv_disable_irq2
 .text.uwb_adv_set_sleep_config
                0x000000000800615c       0x24 ./core/wireless/transceiver/sr1000_api_adv.o
                0x000000000800615c                uwb_adv_set_sleep_config
 .text.uwb_adv_set_radio_actions
                0x0000000008006180       0x38 ./core/wireless/transceiver/sr1000_api_adv.o
                0x0000000008006180                uwb_adv_set_radio_actions
 .text.uwb_adv_get_irq1_flag
                0x00000000080061b8       0x20 ./core/wireless/transceiver/sr1000_api_adv.o
                0x00000000080061b8                uwb_adv_get_irq1_flag
 .text.uwb_adv_get_irq2_flag
                0x00000000080061d8       0x20 ./core/wireless/transceiver/sr1000_api_adv.o
                0x00000000080061d8                uwb_adv_get_irq2_flag
 .text.uwb_adv_set_crc
                0x00000000080061f8       0x2c ./core/wireless/transceiver/sr1000_api_adv.o
                0x00000000080061f8                uwb_adv_set_crc
 .text.uwb_adv_set_main_modem_features
                0x0000000008006224       0x2c ./core/wireless/transceiver/sr1000_api_adv.o
                0x0000000008006224                uwb_adv_set_main_modem_features
 .text.uwb_adv_set_const_gains
                0x0000000008006250       0x1c ./core/wireless/transceiver/sr1000_api_adv.o
                0x0000000008006250                uwb_adv_set_const_gains
 .text.uwb_adv_set_preamble_length
                0x000000000800626c       0x24 ./core/wireless/transceiver/sr1000_api_adv.o
                0x000000000800626c                uwb_adv_set_preamble_length
 .text.uwb_adv_set_syncword_config
                0x0000000008006290       0x64 ./core/wireless/transceiver/sr1000_api_adv.o
                0x0000000008006290                uwb_adv_set_syncword_config
 .text.uwb_adv_set_tx_packet_size
                0x00000000080062f4       0x1c ./core/wireless/transceiver/sr1000_api_adv.o
                0x00000000080062f4                uwb_adv_set_tx_packet_size
 .text.uwb_adv_set_rx_waited_src
                0x0000000008006310       0x1c ./core/wireless/transceiver/sr1000_api_adv.o
                0x0000000008006310                uwb_adv_set_rx_waited_src
 .text.uwb_adv_set_rx_packet_size
                0x000000000800632c       0x1c ./core/wireless/transceiver/sr1000_api_adv.o
                0x000000000800632c                uwb_adv_set_rx_packet_size
 .text.uwb_adv_enable_integlen
                0x0000000008006348       0x28 ./core/wireless/transceiver/sr1000_api_adv.o
                0x0000000008006348                uwb_adv_enable_integlen
 .text.uwb_adv_set_integgain
                0x0000000008006370       0x2c ./core/wireless/transceiver/sr1000_api_adv.o
                0x0000000008006370                uwb_adv_set_integgain
 .text.uwb_adv_read
                0x000000000800639c       0x24 ./core/wireless/transceiver/sr1000_api_adv.o
                0x000000000800639c                uwb_adv_read
 .text.uwb_adv_set_tx_buffer_load_irq_threshold
                0x00000000080063c0       0x20 ./core/wireless/transceiver/sr1000_api_adv.o
                0x00000000080063c0                uwb_adv_set_tx_buffer_load_irq_threshold
 .text.uwb_adv_disable_tx_buffer_load_irq
                0x00000000080063e0       0x1c ./core/wireless/transceiver/sr1000_api_adv.o
                0x00000000080063e0                uwb_adv_disable_tx_buffer_load_irq
 .text.uwb_adv_set_rx_buffer_load_irq_threshold
                0x00000000080063fc       0x20 ./core/wireless/transceiver/sr1000_api_adv.o
                0x00000000080063fc                uwb_adv_set_rx_buffer_load_irq_threshold
 .text.uwb_adv_disable_rx_buffer_load_irq
                0x000000000800641c       0x1c ./core/wireless/transceiver/sr1000_api_adv.o
                0x000000000800641c                uwb_adv_disable_rx_buffer_load_irq
 .text.uwb_adv_set_cac
                0x0000000008006438       0x20 ./core/wireless/transceiver/sr1000_api_adv.o
                0x0000000008006438                uwb_adv_set_cac
 .text.uwb_adv_set_packet_config
                0x0000000008006458       0x34 ./core/wireless/transceiver/sr1000_api_adv.o
                0x0000000008006458                uwb_adv_set_packet_config
 .text.uwb_adv_select_channel
                0x000000000800648c       0x20 ./core/wireless/transceiver/sr1000_api_adv.o
                0x000000000800648c                uwb_adv_select_channel
 .text.uwb_adv_get_rx_wait_time
                0x00000000080064ac       0x38 ./core/wireless/transceiver/sr1000_api_adv.o
                0x00000000080064ac                uwb_adv_get_rx_wait_time
 .text.uwb_adv_get_rssi
                0x00000000080064e4       0x20 ./core/wireless/transceiver/sr1000_api_adv.o
                0x00000000080064e4                uwb_adv_get_rssi
 .text.uwb_adv_get_rnsi
                0x0000000008006504       0x20 ./core/wireless/transceiver/sr1000_api_adv.o
                0x0000000008006504                uwb_adv_get_rnsi
 .text.uwb_adv_fill_header_non_blocking
                0x0000000008006524       0x2c ./core/wireless/transceiver/sr1000_api_adv.o
                0x0000000008006524                uwb_adv_fill_header_non_blocking
 .text.uwb_adv_fill_data_non_blocking
                0x0000000008006550        0xc ./core/wireless/transceiver/sr1000_api_adv.o
                0x0000000008006550                uwb_adv_fill_data_non_blocking
 .text.uwb_adv_fill_cut_through_data
                0x000000000800655c       0x20 ./core/wireless/transceiver/sr1000_api_adv.o
                0x000000000800655c                uwb_adv_fill_cut_through_data
 .text.uwb_adv_transfer_non_blocking
                0x000000000800657c       0x1c ./core/wireless/transceiver/sr1000_api_adv.o
                0x000000000800657c                uwb_adv_transfer_non_blocking
 .text.uwb_adv_transfer_blocking
                0x0000000008006598       0x1c ./core/wireless/transceiver/sr1000_api_adv.o
                0x0000000008006598                uwb_adv_transfer_blocking
 .text.uwb_adv_set_wake_sleep_raw
                0x00000000080065b4       0x38 ./core/wireless/transceiver/sr1000_api_adv.o
                0x00000000080065b4                uwb_adv_set_wake_sleep_raw
 .text.uwb_adv_set_pwr_up_delay_raw
                0x00000000080065ec       0x24 ./core/wireless/transceiver/sr1000_api_adv.o
                0x00000000080065ec                uwb_adv_set_pwr_up_delay_raw
 .text.uwb_adv_set_rx_timeout_raw
                0x0000000008006610       0x38 ./core/wireless/transceiver/sr1000_api_adv.o
                0x0000000008006610                uwb_adv_set_rx_timeout_raw
 .text.uwb_adv_write_register
                0x0000000008006648       0x18 ./core/wireless/transceiver/sr1000_api_adv.o
                0x0000000008006648                uwb_adv_write_register
 .text.uwb_adv_read_register
                0x0000000008006660       0x1c ./core/wireless/transceiver/sr1000_api_adv.o
                0x0000000008006660                uwb_adv_read_register
 .text.uwb_error_init
                0x000000000800667c        0xc ./lib/spark/error/uwb_error.o
                0x000000000800667c                uwb_error_init
 .text.uwb_error_check
                0x0000000008006688       0x10 ./lib/spark/error/uwb_error.o
                0x0000000008006688                uwb_error_check
 .text.circular_queue_critical_section_init
                0x0000000008006698       0x1c ./lib/spark/queue/circular_queue.o
                0x0000000008006698                circular_queue_critical_section_init
 .text.circular_queue_init
                0x00000000080066b4       0x1c ./lib/spark/queue/circular_queue.o
                0x00000000080066b4                circular_queue_init
 .text.circular_queue_front_raw
                0x00000000080066d0        0x4 ./lib/spark/queue/circular_queue.o
                0x00000000080066d0                circular_queue_front_raw
 .text.circular_queue_front
                0x00000000080066d4       0x30 ./lib/spark/queue/circular_queue.o
                0x00000000080066d4                circular_queue_front
 .text.circular_queue_get_free_slot_raw
                0x0000000008006704        0x4 ./lib/spark/queue/circular_queue.o
                0x0000000008006704                circular_queue_get_free_slot_raw
 .text.circular_queue_get_free_slot
                0x0000000008006708       0x28 ./lib/spark/queue/circular_queue.o
                0x0000000008006708                circular_queue_get_free_slot
 .text.circular_queue_enqueue_raw
                0x0000000008006730       0x24 ./lib/spark/queue/circular_queue.o
                0x0000000008006730                circular_queue_enqueue_raw
 .text.circular_queue_enqueue
                0x0000000008006754       0x44 ./lib/spark/queue/circular_queue.o
                0x0000000008006754                circular_queue_enqueue
 .text.circular_queue_dequeue_raw
                0x0000000008006798       0x24 ./lib/spark/queue/circular_queue.o
                0x0000000008006798                circular_queue_dequeue_raw
 .text.circular_queue_dequeue
                0x00000000080067bc       0x4c ./lib/spark/queue/circular_queue.o
                0x00000000080067bc                circular_queue_dequeue
 .text.circular_queue_free_space
                0x0000000008006808        0x4 ./lib/spark/queue/circular_queue.o
                0x0000000008006808                circular_queue_free_space
 .text.circular_queue_is_empty
                0x000000000800680c       0x10 ./lib/spark/queue/circular_queue.o
                0x000000000800680c                circular_queue_is_empty
 .text.USBD_CDC_EP0_RxReady
                0x000000000800681c       0x30 ./lib/third-party/stmicroelectronics/stm32_mw_usb_device/Class/CDC/Src/usbd_cdc.o
 .text.USBD_CDC_GetFSCfgDesc
                0x000000000800684c        0xc ./lib/third-party/stmicroelectronics/stm32_mw_usb_device/Class/CDC/Src/usbd_cdc.o
 .text.USBD_CDC_GetHSCfgDesc
                0x0000000008006858        0xc ./lib/third-party/stmicroelectronics/stm32_mw_usb_device/Class/CDC/Src/usbd_cdc.o
 .text.USBD_CDC_GetOtherSpeedCfgDesc
                0x0000000008006864        0xc ./lib/third-party/stmicroelectronics/stm32_mw_usb_device/Class/CDC/Src/usbd_cdc.o
 .text.USBD_CDC_GetDeviceQualifierDescriptor
                0x0000000008006870        0xc ./lib/third-party/stmicroelectronics/stm32_mw_usb_device/Class/CDC/Src/usbd_cdc.o
                0x0000000008006870                USBD_CDC_GetDeviceQualifierDescriptor
 .text.USBD_CDC_DataOut
                0x000000000800687c       0x2c ./lib/third-party/stmicroelectronics/stm32_mw_usb_device/Class/CDC/Src/usbd_cdc.o
 .text.USBD_CDC_DataIn
                0x00000000080068a8       0x64 ./lib/third-party/stmicroelectronics/stm32_mw_usb_device/Class/CDC/Src/usbd_cdc.o
 .text.USBD_CDC_Setup
                0x000000000800690c      0x114 ./lib/third-party/stmicroelectronics/stm32_mw_usb_device/Class/CDC/Src/usbd_cdc.o
 .text.USBD_CDC_DeInit
                0x0000000008006a20       0x44 ./lib/third-party/stmicroelectronics/stm32_mw_usb_device/Class/CDC/Src/usbd_cdc.o
 .text.USBD_CDC_Init
                0x0000000008006a64       0xb8 ./lib/third-party/stmicroelectronics/stm32_mw_usb_device/Class/CDC/Src/usbd_cdc.o
 .text.USBD_CDC_RegisterInterface
                0x0000000008006b1c       0x10 ./lib/third-party/stmicroelectronics/stm32_mw_usb_device/Class/CDC/Src/usbd_cdc.o
                0x0000000008006b1c                USBD_CDC_RegisterInterface
 .text.USBD_CDC_SetTxBuffer
                0x0000000008006b2c       0x18 ./lib/third-party/stmicroelectronics/stm32_mw_usb_device/Class/CDC/Src/usbd_cdc.o
                0x0000000008006b2c                USBD_CDC_SetTxBuffer
 .text.USBD_CDC_SetRxBuffer
                0x0000000008006b44       0x14 ./lib/third-party/stmicroelectronics/stm32_mw_usb_device/Class/CDC/Src/usbd_cdc.o
                0x0000000008006b44                USBD_CDC_SetRxBuffer
 .text.USBD_CDC_TransmitPacket
                0x0000000008006b58       0x30 ./lib/third-party/stmicroelectronics/stm32_mw_usb_device/Class/CDC/Src/usbd_cdc.o
                0x0000000008006b58                USBD_CDC_TransmitPacket
 .text.USBD_CDC_ReceivePacket
                0x0000000008006b88       0x34 ./lib/third-party/stmicroelectronics/stm32_mw_usb_device/Class/CDC/Src/usbd_cdc.o
                0x0000000008006b88                USBD_CDC_ReceivePacket
 .text.USBD_Init
                0x0000000008006bbc       0x28 ./lib/third-party/stmicroelectronics/stm32_mw_usb_device/Core/Src/usbd_core.o
                0x0000000008006bbc                USBD_Init
 .text.USBD_DeInit
                0x0000000008006be4       0x3c ./lib/third-party/stmicroelectronics/stm32_mw_usb_device/Core/Src/usbd_core.o
                0x0000000008006be4                USBD_DeInit
 .text.USBD_RegisterClass
                0x0000000008006c20       0x34 ./lib/third-party/stmicroelectronics/stm32_mw_usb_device/Core/Src/usbd_core.o
                0x0000000008006c20                USBD_RegisterClass
 .text.USBD_Start
                0x0000000008006c54        0x4 ./lib/third-party/stmicroelectronics/stm32_mw_usb_device/Core/Src/usbd_core.o
                0x0000000008006c54                USBD_Start
 .text.USBD_SetClassConfig
                0x0000000008006c58       0x10 ./lib/third-party/stmicroelectronics/stm32_mw_usb_device/Core/Src/usbd_core.o
                0x0000000008006c58                USBD_SetClassConfig
 .text.USBD_ClrClassConfig
                0x0000000008006c68       0x10 ./lib/third-party/stmicroelectronics/stm32_mw_usb_device/Core/Src/usbd_core.o
                0x0000000008006c68                USBD_ClrClassConfig
 .text.USBD_LL_SetupStage
                0x0000000008006c78       0x60 ./lib/third-party/stmicroelectronics/stm32_mw_usb_device/Core/Src/usbd_core.o
                0x0000000008006c78                USBD_LL_SetupStage
 .text.USBD_LL_DataOutStage
                0x0000000008006cd8       0x68 ./lib/third-party/stmicroelectronics/stm32_mw_usb_device/Core/Src/usbd_core.o
                0x0000000008006cd8                USBD_LL_DataOutStage
 .text.USBD_LL_DataInStage
                0x0000000008006d40       0xac ./lib/third-party/stmicroelectronics/stm32_mw_usb_device/Core/Src/usbd_core.o
                0x0000000008006d40                USBD_LL_DataInStage
 .text.USBD_LL_Reset
                0x0000000008006dec       0x58 ./lib/third-party/stmicroelectronics/stm32_mw_usb_device/Core/Src/usbd_core.o
                0x0000000008006dec                USBD_LL_Reset
 .text.USBD_LL_SetSpeed
                0x0000000008006e44        0x8 ./lib/third-party/stmicroelectronics/stm32_mw_usb_device/Core/Src/usbd_core.o
                0x0000000008006e44                USBD_LL_SetSpeed
 .text.USBD_LL_Suspend
                0x0000000008006e4c       0x18 ./lib/third-party/stmicroelectronics/stm32_mw_usb_device/Core/Src/usbd_core.o
                0x0000000008006e4c                USBD_LL_Suspend
 .text.USBD_LL_Resume
                0x0000000008006e64       0x18 ./lib/third-party/stmicroelectronics/stm32_mw_usb_device/Core/Src/usbd_core.o
                0x0000000008006e64                USBD_LL_Resume
 .text.USBD_LL_SOF
                0x0000000008006e7c       0x28 ./lib/third-party/stmicroelectronics/stm32_mw_usb_device/Core/Src/usbd_core.o
                0x0000000008006e7c                USBD_LL_SOF
 .text.USBD_StdDevReq
                0x0000000008006ea4      0x340 ./lib/third-party/stmicroelectronics/stm32_mw_usb_device/Core/Src/usbd_ctlreq.o
                0x0000000008006ea4                USBD_StdDevReq
 .text.USBD_StdItfReq
                0x00000000080071e4       0x60 ./lib/third-party/stmicroelectronics/stm32_mw_usb_device/Core/Src/usbd_ctlreq.o
                0x00000000080071e4                USBD_StdItfReq
 .text.USBD_StdEPReq
                0x0000000008007244      0x134 ./lib/third-party/stmicroelectronics/stm32_mw_usb_device/Core/Src/usbd_ctlreq.o
                0x0000000008007244                USBD_StdEPReq
 .text.USBD_ParseSetupRequest
                0x0000000008007378       0x28 ./lib/third-party/stmicroelectronics/stm32_mw_usb_device/Core/Src/usbd_ctlreq.o
                0x0000000008007378                USBD_ParseSetupRequest
 .text.USBD_CtlError
                0x00000000080073a0       0x18 ./lib/third-party/stmicroelectronics/stm32_mw_usb_device/Core/Src/usbd_ctlreq.o
                0x00000000080073a0                USBD_CtlError
 .text.USBD_GetString
                0x00000000080073b8       0x4c ./lib/third-party/stmicroelectronics/stm32_mw_usb_device/Core/Src/usbd_ctlreq.o
                0x00000000080073b8                USBD_GetString
 .text.USBD_CtlSendData
                0x0000000008007404       0x1c ./lib/third-party/stmicroelectronics/stm32_mw_usb_device/Core/Src/usbd_ioreq.o
                0x0000000008007404                USBD_CtlSendData
 .text.USBD_CtlContinueSendData
                0x0000000008007420       0x10 ./lib/third-party/stmicroelectronics/stm32_mw_usb_device/Core/Src/usbd_ioreq.o
                0x0000000008007420                USBD_CtlContinueSendData
 .text.USBD_CtlPrepareRx
                0x0000000008007430       0x1c ./lib/third-party/stmicroelectronics/stm32_mw_usb_device/Core/Src/usbd_ioreq.o
                0x0000000008007430                USBD_CtlPrepareRx
 .text.USBD_CtlContinueRx
                0x000000000800744c       0x10 ./lib/third-party/stmicroelectronics/stm32_mw_usb_device/Core/Src/usbd_ioreq.o
                0x000000000800744c                USBD_CtlContinueRx
 .text.USBD_CtlSendStatus
                0x000000000800745c       0x18 ./lib/third-party/stmicroelectronics/stm32_mw_usb_device/Core/Src/usbd_ioreq.o
                0x000000000800745c                USBD_CtlSendStatus
 .text.USBD_CtlReceiveStatus
                0x0000000008007474       0x18 ./lib/third-party/stmicroelectronics/stm32_mw_usb_device/Core/Src/usbd_ioreq.o
                0x0000000008007474                USBD_CtlReceiveStatus
 .text.HAL_Init
                0x000000000800748c       0x20 ./lib/third-party/stmicroelectronics/stm32g4xx_hal_driver/Src/stm32g4xx_hal.o
                0x000000000800748c                HAL_Init
 .text.HAL_IncTick
                0x00000000080074ac       0x18 ./lib/third-party/stmicroelectronics/stm32g4xx_hal_driver/Src/stm32g4xx_hal.o
                0x00000000080074ac                HAL_IncTick
 .text.HAL_GetTick
                0x00000000080074c4        0xc ./lib/third-party/stmicroelectronics/stm32g4xx_hal_driver/Src/stm32g4xx_hal.o
                0x00000000080074c4                HAL_GetTick
 .text.HAL_Delay
                0x00000000080074d0       0x24 ./lib/third-party/stmicroelectronics/stm32g4xx_hal_driver/Src/stm32g4xx_hal.o
                0x00000000080074d0                HAL_Delay
 .text.HAL_NVIC_SetPriorityGrouping
                0x00000000080074f4       0x28 ./lib/third-party/stmicroelectronics/stm32g4xx_hal_driver/Src/stm32g4xx_hal_cortex.o
                0x00000000080074f4                HAL_NVIC_SetPriorityGrouping
 .text.HAL_NVIC_SetPriority
                0x000000000800751c       0x70 ./lib/third-party/stmicroelectronics/stm32g4xx_hal_driver/Src/stm32g4xx_hal_cortex.o
                0x000000000800751c                HAL_NVIC_SetPriority
 .text.HAL_NVIC_EnableIRQ
                0x000000000800758c       0x1c ./lib/third-party/stmicroelectronics/stm32g4xx_hal_driver/Src/stm32g4xx_hal_cortex.o
                0x000000000800758c                HAL_NVIC_EnableIRQ
 .text.HAL_NVIC_DisableIRQ
                0x00000000080075a8       0x28 ./lib/third-party/stmicroelectronics/stm32g4xx_hal_driver/Src/stm32g4xx_hal_cortex.o
                0x00000000080075a8                HAL_NVIC_DisableIRQ
 .text.HAL_SYSTICK_Config
                0x00000000080075d0       0x34 ./lib/third-party/stmicroelectronics/stm32g4xx_hal_driver/Src/stm32g4xx_hal_cortex.o
                0x00000000080075d0                HAL_SYSTICK_Config
 .text.HAL_NVIC_ClearPendingIRQ
                0x0000000008007604       0x20 ./lib/third-party/stmicroelectronics/stm32g4xx_hal_driver/Src/stm32g4xx_hal_cortex.o
                0x0000000008007604                HAL_NVIC_ClearPendingIRQ
 .text.HAL_SYSTICK_CLKSourceConfig
                0x0000000008007624       0x18 ./lib/third-party/stmicroelectronics/stm32g4xx_hal_driver/Src/stm32g4xx_hal_cortex.o
                0x0000000008007624                HAL_SYSTICK_CLKSourceConfig
 .text.HAL_DMA_Init
                0x000000000800763c      0x11c ./lib/third-party/stmicroelectronics/stm32g4xx_hal_driver/Src/stm32g4xx_hal_dma.o
                0x000000000800763c                HAL_DMA_Init
 .text.HAL_DMA_Abort
                0x0000000008007758       0x74 ./lib/third-party/stmicroelectronics/stm32g4xx_hal_driver/Src/stm32g4xx_hal_dma.o
                0x0000000008007758                HAL_DMA_Abort
 .text.HAL_DMA_Abort_IT
                0x00000000080077cc       0x80 ./lib/third-party/stmicroelectronics/stm32g4xx_hal_driver/Src/stm32g4xx_hal_dma.o
                0x00000000080077cc                HAL_DMA_Abort_IT
 .text.HAL_DMA_IRQHandler
                0x000000000800784c       0x9c ./lib/third-party/stmicroelectronics/stm32g4xx_hal_driver/Src/stm32g4xx_hal_dma.o
                0x000000000800784c                HAL_DMA_IRQHandler
 .text.HAL_GPIO_Init
                0x00000000080078e8      0x1e8 ./lib/third-party/stmicroelectronics/stm32g4xx_hal_driver/Src/stm32g4xx_hal_gpio.o
                0x00000000080078e8                HAL_GPIO_Init
 .text.HAL_GPIO_ReadPin
                0x0000000008007ad0        0xc ./lib/third-party/stmicroelectronics/stm32g4xx_hal_driver/Src/stm32g4xx_hal_gpio.o
                0x0000000008007ad0                HAL_GPIO_ReadPin
 .text.HAL_GPIO_WritePin
                0x0000000008007adc        0xc ./lib/third-party/stmicroelectronics/stm32g4xx_hal_driver/Src/stm32g4xx_hal_gpio.o
                0x0000000008007adc                HAL_GPIO_WritePin
 .text.HAL_GPIO_TogglePin
                0x0000000008007ae8       0x14 ./lib/third-party/stmicroelectronics/stm32g4xx_hal_driver/Src/stm32g4xx_hal_gpio.o
                0x0000000008007ae8                HAL_GPIO_TogglePin
 .text.HAL_GPIO_EXTI_Callback
                0x0000000008007afc        0x4 ./lib/third-party/stmicroelectronics/stm32g4xx_hal_driver/Src/stm32g4xx_hal_gpio.o
                0x0000000008007afc                HAL_GPIO_EXTI_Callback
 .text.HAL_GPIO_EXTI_IRQHandler
                0x0000000008007b00       0x18 ./lib/third-party/stmicroelectronics/stm32g4xx_hal_driver/Src/stm32g4xx_hal_gpio.o
                0x0000000008007b00                HAL_GPIO_EXTI_IRQHandler
 .text.HAL_PCD_Init
                0x0000000008007b18       0xc4 ./lib/third-party/stmicroelectronics/stm32g4xx_hal_driver/Src/stm32g4xx_hal_pcd.o
                0x0000000008007b18                HAL_PCD_Init
 .text.HAL_PCD_DeInit
                0x0000000008007bdc       0x2c ./lib/third-party/stmicroelectronics/stm32g4xx_hal_driver/Src/stm32g4xx_hal_pcd.o
                0x0000000008007bdc                HAL_PCD_DeInit
 .text.HAL_PCD_Start
                0x0000000008007c08       0x2c ./lib/third-party/stmicroelectronics/stm32g4xx_hal_driver/Src/stm32g4xx_hal_pcd.o
                0x0000000008007c08                HAL_PCD_Start
 .text.HAL_PCD_Stop
                0x0000000008007c34       0x2c ./lib/third-party/stmicroelectronics/stm32g4xx_hal_driver/Src/stm32g4xx_hal_pcd.o
                0x0000000008007c34                HAL_PCD_Stop
 .text.HAL_PCD_IRQHandler
                0x0000000008007c60      0xb4c ./lib/third-party/stmicroelectronics/stm32g4xx_hal_driver/Src/stm32g4xx_hal_pcd.o
                0x0000000008007c60                HAL_PCD_IRQHandler
 .text.HAL_PCD_SetAddress
                0x00000000080087ac       0x28 ./lib/third-party/stmicroelectronics/stm32g4xx_hal_driver/Src/stm32g4xx_hal_pcd.o
                0x00000000080087ac                HAL_PCD_SetAddress
 .text.HAL_PCD_EP_Open
                0x00000000080087d4       0x68 ./lib/third-party/stmicroelectronics/stm32g4xx_hal_driver/Src/stm32g4xx_hal_pcd.o
                0x00000000080087d4                HAL_PCD_EP_Open
 .text.HAL_PCD_EP_Close
                0x000000000800883c       0x60 ./lib/third-party/stmicroelectronics/stm32g4xx_hal_driver/Src/stm32g4xx_hal_pcd.o
                0x000000000800883c                HAL_PCD_EP_Close
 .text.HAL_PCD_EP_Receive
                0x000000000800889c       0x38 ./lib/third-party/stmicroelectronics/stm32g4xx_hal_driver/Src/stm32g4xx_hal_pcd.o
                0x000000000800889c                HAL_PCD_EP_Receive
 .text.HAL_PCD_EP_GetRxCount
                0x00000000080088d4       0x14 ./lib/third-party/stmicroelectronics/stm32g4xx_hal_driver/Src/stm32g4xx_hal_pcd.o
                0x00000000080088d4                HAL_PCD_EP_GetRxCount
 .text.HAL_PCD_EP_Transmit
                0x00000000080088e8       0x3c ./lib/third-party/stmicroelectronics/stm32g4xx_hal_driver/Src/stm32g4xx_hal_pcd.o
                0x00000000080088e8                HAL_PCD_EP_Transmit
 .text.HAL_PCD_EP_SetStall
                0x0000000008008924       0x70 ./lib/third-party/stmicroelectronics/stm32g4xx_hal_driver/Src/stm32g4xx_hal_pcd.o
                0x0000000008008924                HAL_PCD_EP_SetStall
 .text.HAL_PCD_EP_ClrStall
                0x0000000008008994       0x74 ./lib/third-party/stmicroelectronics/stm32g4xx_hal_driver/Src/stm32g4xx_hal_pcd.o
                0x0000000008008994                HAL_PCD_EP_ClrStall
 .text.HAL_PCDEx_PMAConfig
                0x0000000008008a08       0x3c ./lib/third-party/stmicroelectronics/stm32g4xx_hal_driver/Src/stm32g4xx_hal_pcd_ex.o
                0x0000000008008a08                HAL_PCDEx_PMAConfig
 .text.HAL_PCDEx_ActivateLPM
                0x0000000008008a44       0x34 ./lib/third-party/stmicroelectronics/stm32g4xx_hal_driver/Src/stm32g4xx_hal_pcd_ex.o
                0x0000000008008a44                HAL_PCDEx_ActivateLPM
 .text.HAL_PWREx_ControlVoltageScaling
                0x0000000008008a78       0xfc ./lib/third-party/stmicroelectronics/stm32g4xx_hal_driver/Src/stm32g4xx_hal_pwr_ex.o
                0x0000000008008a78                HAL_PWREx_ControlVoltageScaling
 .text.HAL_RCC_DeInit
                0x0000000008008b74       0xc0 ./lib/third-party/stmicroelectronics/stm32g4xx_hal_driver/Src/stm32g4xx_hal_rcc.o
                0x0000000008008b74                HAL_RCC_DeInit
 .text.HAL_RCC_OscConfig
                0x0000000008008c34      0x498 ./lib/third-party/stmicroelectronics/stm32g4xx_hal_driver/Src/stm32g4xx_hal_rcc.o
                0x0000000008008c34                HAL_RCC_OscConfig
 .text.HAL_RCC_MCOConfig
                0x00000000080090cc       0x50 ./lib/third-party/stmicroelectronics/stm32g4xx_hal_driver/Src/stm32g4xx_hal_rcc.o
                0x00000000080090cc                HAL_RCC_MCOConfig
 .text.HAL_RCC_GetSysClockFreq
                0x000000000800911c       0x70 ./lib/third-party/stmicroelectronics/stm32g4xx_hal_driver/Src/stm32g4xx_hal_rcc.o
                0x000000000800911c                HAL_RCC_GetSysClockFreq
 .text.HAL_RCC_ClockConfig
                0x000000000800918c      0x224 ./lib/third-party/stmicroelectronics/stm32g4xx_hal_driver/Src/stm32g4xx_hal_rcc.o
                0x000000000800918c                HAL_RCC_ClockConfig
 .text.HAL_RCC_GetPCLK1Freq
                0x00000000080093b0       0x24 ./lib/third-party/stmicroelectronics/stm32g4xx_hal_driver/Src/stm32g4xx_hal_rcc.o
                0x00000000080093b0                HAL_RCC_GetPCLK1Freq
 .text.HAL_RCC_GetPCLK2Freq
                0x00000000080093d4       0x24 ./lib/third-party/stmicroelectronics/stm32g4xx_hal_driver/Src/stm32g4xx_hal_rcc.o
                0x00000000080093d4                HAL_RCC_GetPCLK2Freq
 .text.HAL_RCC_GetClockConfig
                0x00000000080093f8       0x44 ./lib/third-party/stmicroelectronics/stm32g4xx_hal_driver/Src/stm32g4xx_hal_rcc.o
                0x00000000080093f8                HAL_RCC_GetClockConfig
 .text.HAL_RCCEx_PeriphCLKConfig
                0x000000000800943c      0x310 ./lib/third-party/stmicroelectronics/stm32g4xx_hal_driver/Src/stm32g4xx_hal_rcc_ex.o
                0x000000000800943c                HAL_RCCEx_PeriphCLKConfig
 .text.SPI_WaitFlagStateUntilTimeout.constprop.0
                0x000000000800974c       0xb0 ./lib/third-party/stmicroelectronics/stm32g4xx_hal_driver/Src/stm32g4xx_hal_spi.o
 .text.SPI_WaitFifoStateUntilTimeout.constprop.0
                0x00000000080097fc       0xd0 ./lib/third-party/stmicroelectronics/stm32g4xx_hal_driver/Src/stm32g4xx_hal_spi.o
 .text.SPI_EndRxTransaction
                0x00000000080098cc       0x84 ./lib/third-party/stmicroelectronics/stm32g4xx_hal_driver/Src/stm32g4xx_hal_spi.o
 .text.SPI_EndRxTxTransaction
                0x0000000008009950       0x40 ./lib/third-party/stmicroelectronics/stm32g4xx_hal_driver/Src/stm32g4xx_hal_spi.o
 .text.HAL_SPI_Init
                0x0000000008009990      0x10c ./lib/third-party/stmicroelectronics/stm32g4xx_hal_driver/Src/stm32g4xx_hal_spi.o
                0x0000000008009990                HAL_SPI_Init
 .text.HAL_SPI_Transmit
                0x0000000008009a9c      0x1c0 ./lib/third-party/stmicroelectronics/stm32g4xx_hal_driver/Src/stm32g4xx_hal_spi.o
                0x0000000008009a9c                HAL_SPI_Transmit
 .text.HAL_SPI_TransmitReceive
                0x0000000008009c5c      0x2a8 ./lib/third-party/stmicroelectronics/stm32g4xx_hal_driver/Src/stm32g4xx_hal_spi.o
                0x0000000008009c5c                HAL_SPI_TransmitReceive
 .text.HAL_SPI_Receive
                0x0000000008009f04      0x170 ./lib/third-party/stmicroelectronics/stm32g4xx_hal_driver/Src/stm32g4xx_hal_spi.o
                0x0000000008009f04                HAL_SPI_Receive
 .text.HAL_TIM_Base_MspInit
                0x000000000800a074        0x4 ./lib/third-party/stmicroelectronics/stm32g4xx_hal_driver/Src/stm32g4xx_hal_tim.o
                0x000000000800a074                HAL_TIM_Base_MspInit
 .text.HAL_TIM_Base_Start
                0x000000000800a078       0x78 ./lib/third-party/stmicroelectronics/stm32g4xx_hal_driver/Src/stm32g4xx_hal_tim.o
                0x000000000800a078                HAL_TIM_Base_Start
 .text.HAL_TIM_Base_Start_IT
                0x000000000800a0f0       0x84 ./lib/third-party/stmicroelectronics/stm32g4xx_hal_driver/Src/stm32g4xx_hal_tim.o
                0x000000000800a0f0                HAL_TIM_Base_Start_IT
 .text.HAL_TIM_PeriodElapsedCallback
                0x000000000800a174        0x4 ./lib/third-party/stmicroelectronics/stm32g4xx_hal_driver/Src/stm32g4xx_hal_tim.o
                0x000000000800a174                HAL_TIM_PeriodElapsedCallback
 .text.HAL_TIM_OC_DelayElapsedCallback
                0x000000000800a178        0x4 ./lib/third-party/stmicroelectronics/stm32g4xx_hal_driver/Src/stm32g4xx_hal_tim.o
                0x000000000800a178                HAL_TIM_OC_DelayElapsedCallback
 .text.HAL_TIM_IC_CaptureCallback
                0x000000000800a17c        0x4 ./lib/third-party/stmicroelectronics/stm32g4xx_hal_driver/Src/stm32g4xx_hal_tim.o
                0x000000000800a17c                HAL_TIM_IC_CaptureCallback
 .text.HAL_TIM_PWM_PulseFinishedCallback
                0x000000000800a180        0x4 ./lib/third-party/stmicroelectronics/stm32g4xx_hal_driver/Src/stm32g4xx_hal_tim.o
                0x000000000800a180                HAL_TIM_PWM_PulseFinishedCallback
 .text.HAL_TIM_TriggerCallback
                0x000000000800a184        0x4 ./lib/third-party/stmicroelectronics/stm32g4xx_hal_driver/Src/stm32g4xx_hal_tim.o
                0x000000000800a184                HAL_TIM_TriggerCallback
 .text.HAL_TIM_IRQHandler
                0x000000000800a188      0x1f4 ./lib/third-party/stmicroelectronics/stm32g4xx_hal_driver/Src/stm32g4xx_hal_tim.o
                0x000000000800a188                HAL_TIM_IRQHandler
 .text.TIM_Base_SetConfig
                0x000000000800a37c       0xd0 ./lib/third-party/stmicroelectronics/stm32g4xx_hal_driver/Src/stm32g4xx_hal_tim.o
                0x000000000800a37c                TIM_Base_SetConfig
 .text.HAL_TIM_Base_Init
                0x000000000800a44c       0x64 ./lib/third-party/stmicroelectronics/stm32g4xx_hal_driver/Src/stm32g4xx_hal_tim.o
                0x000000000800a44c                HAL_TIM_Base_Init
 .text.HAL_TIMEx_CommutCallback
                0x000000000800a4b0        0x4 ./lib/third-party/stmicroelectronics/stm32g4xx_hal_driver/Src/stm32g4xx_hal_tim_ex.o
                0x000000000800a4b0                HAL_TIMEx_CommutCallback
 .text.HAL_TIMEx_BreakCallback
                0x000000000800a4b4        0x4 ./lib/third-party/stmicroelectronics/stm32g4xx_hal_driver/Src/stm32g4xx_hal_tim_ex.o
                0x000000000800a4b4                HAL_TIMEx_BreakCallback
 .text.HAL_TIMEx_Break2Callback
                0x000000000800a4b8        0x4 ./lib/third-party/stmicroelectronics/stm32g4xx_hal_driver/Src/stm32g4xx_hal_tim_ex.o
                0x000000000800a4b8                HAL_TIMEx_Break2Callback
 .text.HAL_TIMEx_EncoderIndexCallback
                0x000000000800a4bc        0x4 ./lib/third-party/stmicroelectronics/stm32g4xx_hal_driver/Src/stm32g4xx_hal_tim_ex.o
                0x000000000800a4bc                HAL_TIMEx_EncoderIndexCallback
 .text.HAL_TIMEx_DirectionChangeCallback
                0x000000000800a4c0        0x4 ./lib/third-party/stmicroelectronics/stm32g4xx_hal_driver/Src/stm32g4xx_hal_tim_ex.o
                0x000000000800a4c0                HAL_TIMEx_DirectionChangeCallback
 .text.HAL_TIMEx_IndexErrorCallback
                0x000000000800a4c4        0x4 ./lib/third-party/stmicroelectronics/stm32g4xx_hal_driver/Src/stm32g4xx_hal_tim_ex.o
                0x000000000800a4c4                HAL_TIMEx_IndexErrorCallback
 .text.HAL_TIMEx_TransitionErrorCallback
                0x000000000800a4c8        0x4 ./lib/third-party/stmicroelectronics/stm32g4xx_hal_driver/Src/stm32g4xx_hal_tim_ex.o
                0x000000000800a4c8                HAL_TIMEx_TransitionErrorCallback
 .text.HAL_UART_ErrorCallback
                0x000000000800a4cc        0x4 ./lib/third-party/stmicroelectronics/stm32g4xx_hal_driver/Src/stm32g4xx_hal_uart.o
                0x000000000800a4cc                HAL_UART_ErrorCallback
 .text.UART_DMAAbortOnError
                0x000000000800a4d0       0x14 ./lib/third-party/stmicroelectronics/stm32g4xx_hal_driver/Src/stm32g4xx_hal_uart.o
 .text.HAL_UARTEx_RxEventCallback
                0x000000000800a4e4        0x4 ./lib/third-party/stmicroelectronics/stm32g4xx_hal_driver/Src/stm32g4xx_hal_uart.o
                0x000000000800a4e4                HAL_UARTEx_RxEventCallback
 .text.HAL_UART_IRQHandler
                0x000000000800a4e8      0x2cc ./lib/third-party/stmicroelectronics/stm32g4xx_hal_driver/Src/stm32g4xx_hal_uart.o
                0x000000000800a4e8                HAL_UART_IRQHandler
 .text.UART_SetConfig
                0x000000000800a7b4      0x320 ./lib/third-party/stmicroelectronics/stm32g4xx_hal_driver/Src/stm32g4xx_hal_uart.o
                0x000000000800a7b4                UART_SetConfig
 .text.UART_AdvFeatureConfig
                0x000000000800aad4       0xb0 ./lib/third-party/stmicroelectronics/stm32g4xx_hal_driver/Src/stm32g4xx_hal_uart.o
                0x000000000800aad4                UART_AdvFeatureConfig
 .text.UART_WaitOnFlagUntilTimeout
                0x000000000800ab84       0xa8 ./lib/third-party/stmicroelectronics/stm32g4xx_hal_driver/Src/stm32g4xx_hal_uart.o
                0x000000000800ab84                UART_WaitOnFlagUntilTimeout
 .text.UART_CheckIdleState
                0x000000000800ac2c       0x74 ./lib/third-party/stmicroelectronics/stm32g4xx_hal_driver/Src/stm32g4xx_hal_uart.o
                0x000000000800ac2c                UART_CheckIdleState
 .text.HAL_UART_Init
                0x000000000800aca0       0x68 ./lib/third-party/stmicroelectronics/stm32g4xx_hal_driver/Src/stm32g4xx_hal_uart.o
                0x000000000800aca0                HAL_UART_Init
 .text.UARTEx_SetNbDataToProcess.part.0
                0x000000000800ad08       0x3c ./lib/third-party/stmicroelectronics/stm32g4xx_hal_driver/Src/stm32g4xx_hal_uart_ex.o
 .text.HAL_UARTEx_WakeupCallback
                0x000000000800ad44        0x4 ./lib/third-party/stmicroelectronics/stm32g4xx_hal_driver/Src/stm32g4xx_hal_uart_ex.o
                0x000000000800ad44                HAL_UARTEx_WakeupCallback
 .text.HAL_UARTEx_RxFifoFullCallback
                0x000000000800ad48        0x4 ./lib/third-party/stmicroelectronics/stm32g4xx_hal_driver/Src/stm32g4xx_hal_uart_ex.o
                0x000000000800ad48                HAL_UARTEx_RxFifoFullCallback
 .text.HAL_UARTEx_TxFifoEmptyCallback
                0x000000000800ad4c        0x4 ./lib/third-party/stmicroelectronics/stm32g4xx_hal_driver/Src/stm32g4xx_hal_uart_ex.o
                0x000000000800ad4c                HAL_UARTEx_TxFifoEmptyCallback
 .text.HAL_UARTEx_DisableFifoMode
                0x000000000800ad50       0x3c ./lib/third-party/stmicroelectronics/stm32g4xx_hal_driver/Src/stm32g4xx_hal_uart_ex.o
                0x000000000800ad50                HAL_UARTEx_DisableFifoMode
 .text.HAL_UARTEx_SetTxFifoThreshold
                0x000000000800ad8c       0x54 ./lib/third-party/stmicroelectronics/stm32g4xx_hal_driver/Src/stm32g4xx_hal_uart_ex.o
                0x000000000800ad8c                HAL_UARTEx_SetTxFifoThreshold
 .text.HAL_UARTEx_SetRxFifoThreshold
                0x000000000800ade0       0x54 ./lib/third-party/stmicroelectronics/stm32g4xx_hal_driver/Src/stm32g4xx_hal_uart_ex.o
                0x000000000800ade0                HAL_UARTEx_SetRxFifoThreshold
 .text.USB_EnableGlobalInt
                0x000000000800ae34       0x14 ./lib/third-party/stmicroelectronics/stm32g4xx_hal_driver/Src/stm32g4xx_ll_usb.o
                0x000000000800ae34                USB_EnableGlobalInt
 .text.USB_DisableGlobalInt
                0x000000000800ae48       0x14 ./lib/third-party/stmicroelectronics/stm32g4xx_hal_driver/Src/stm32g4xx_ll_usb.o
                0x000000000800ae48                USB_DisableGlobalInt
 .text.USB_DevInit
                0x000000000800ae5c       0x28 ./lib/third-party/stmicroelectronics/stm32g4xx_hal_driver/Src/stm32g4xx_ll_usb.o
                0x000000000800ae5c                USB_DevInit
 .text.USB_ActivateEndpoint
                0x000000000800ae84      0x310 ./lib/third-party/stmicroelectronics/stm32g4xx_hal_driver/Src/stm32g4xx_ll_usb.o
                0x000000000800ae84                USB_ActivateEndpoint
 .text.USB_DeactivateEndpoint
                0x000000000800b194      0x1f0 ./lib/third-party/stmicroelectronics/stm32g4xx_hal_driver/Src/stm32g4xx_ll_usb.o
                0x000000000800b194                USB_DeactivateEndpoint
 .text.USB_EPStartXfer
                0x000000000800b384      0x9f8 ./lib/third-party/stmicroelectronics/stm32g4xx_hal_driver/Src/stm32g4xx_ll_usb.o
                0x000000000800b384                USB_EPStartXfer
 .text.USB_EPSetStall
                0x000000000800bd7c       0x50 ./lib/third-party/stmicroelectronics/stm32g4xx_hal_driver/Src/stm32g4xx_ll_usb.o
                0x000000000800bd7c                USB_EPSetStall
 .text.USB_EPClearStall
                0x000000000800bdcc       0xb0 ./lib/third-party/stmicroelectronics/stm32g4xx_hal_driver/Src/stm32g4xx_ll_usb.o
                0x000000000800bdcc                USB_EPClearStall
 .text.USB_StopDevice
                0x000000000800be7c       0x18 ./lib/third-party/stmicroelectronics/stm32g4xx_hal_driver/Src/stm32g4xx_ll_usb.o
                0x000000000800be7c                USB_StopDevice
 .text.USB_SetDevAddress
                0x000000000800be94        0xc ./lib/third-party/stmicroelectronics/stm32g4xx_hal_driver/Src/stm32g4xx_ll_usb.o
                0x000000000800be94                USB_SetDevAddress
 .text.USB_DevConnect
                0x000000000800bea0       0x18 ./lib/third-party/stmicroelectronics/stm32g4xx_hal_driver/Src/stm32g4xx_ll_usb.o
                0x000000000800bea0                USB_DevConnect
 .text.USB_DevDisconnect
                0x000000000800beb8       0x14 ./lib/third-party/stmicroelectronics/stm32g4xx_hal_driver/Src/stm32g4xx_ll_usb.o
                0x000000000800beb8                USB_DevDisconnect
 .text.USB_ReadInterrupts
                0x000000000800becc        0x8 ./lib/third-party/stmicroelectronics/stm32g4xx_hal_driver/Src/stm32g4xx_ll_usb.o
                0x000000000800becc                USB_ReadInterrupts
 .text.USB_WritePMA
                0x000000000800bed4       0x20 ./lib/third-party/stmicroelectronics/stm32g4xx_hal_driver/Src/stm32g4xx_ll_usb.o
                0x000000000800bed4                USB_WritePMA
 .text.USB_ReadPMA
                0x000000000800bef4       0x50 ./lib/third-party/stmicroelectronics/stm32g4xx_hal_driver/Src/stm32g4xx_ll_usb.o
                0x000000000800bef4                USB_ReadPMA
 .text.__errno  0x000000000800bf44        0xc c:/st/stm32cubeide_1.7.0/stm32cubeide/plugins/com.st.stm32cube.ide.mcu.externaltools.gnu-tools-for-stm32.9-2020-q2-update.win32_2.0.0.202105311346/tools/bin/../lib/gcc/arm-none-eabi/9.3.1/../../../../arm-none-eabi/lib/thumb/v7e-m+fp/hard\libc_nano.a(lib_a-errno.o)
                0x000000000800bf44                __errno
 .text.__libc_init_array
                0x000000000800bf50       0x48 c:/st/stm32cubeide_1.7.0/stm32cubeide/plugins/com.st.stm32cube.ide.mcu.externaltools.gnu-tools-for-stm32.9-2020-q2-update.win32_2.0.0.202105311346/tools/bin/../lib/gcc/arm-none-eabi/9.3.1/../../../../arm-none-eabi/lib/thumb/v7e-m+fp/hard\libc_nano.a(lib_a-init.o)
                0x000000000800bf50                __libc_init_array
 .text.memcpy   0x000000000800bf98       0x1c c:/st/stm32cubeide_1.7.0/stm32cubeide/plugins/com.st.stm32cube.ide.mcu.externaltools.gnu-tools-for-stm32.9-2020-q2-update.win32_2.0.0.202105311346/tools/bin/../lib/gcc/arm-none-eabi/9.3.1/../../../../arm-none-eabi/lib/thumb/v7e-m+fp/hard\libc_nano.a(lib_a-memcpy-stub.o)
                0x000000000800bf98                memcpy
 .text.memset   0x000000000800bfb4       0x10 c:/st/stm32cubeide_1.7.0/stm32cubeide/plugins/com.st.stm32cube.ide.mcu.externaltools.gnu-tools-for-stm32.9-2020-q2-update.win32_2.0.0.202105311346/tools/bin/../lib/gcc/arm-none-eabi/9.3.1/../../../../arm-none-eabi/lib/thumb/v7e-m+fp/hard\libc_nano.a(lib_a-memset.o)
                0x000000000800bfb4                memset
 .text.srand    0x000000000800bfc4       0x5c c:/st/stm32cubeide_1.7.0/stm32cubeide/plugins/com.st.stm32cube.ide.mcu.externaltools.gnu-tools-for-stm32.9-2020-q2-update.win32_2.0.0.202105311346/tools/bin/../lib/gcc/arm-none-eabi/9.3.1/../../../../arm-none-eabi/lib/thumb/v7e-m+fp/hard\libc_nano.a(lib_a-rand.o)
                0x000000000800bfc4                srand
 .text.rand     0x000000000800c020       0x80 c:/st/stm32cubeide_1.7.0/stm32cubeide/plugins/com.st.stm32cube.ide.mcu.externaltools.gnu-tools-for-stm32.9-2020-q2-update.win32_2.0.0.202105311346/tools/bin/../lib/gcc/arm-none-eabi/9.3.1/../../../../arm-none-eabi/lib/thumb/v7e-m+fp/hard\libc_nano.a(lib_a-rand.o)
                0x000000000800c020                rand
 .text.snprintf
                0x000000000800c0a0       0x68 c:/st/stm32cubeide_1.7.0/stm32cubeide/plugins/com.st.stm32cube.ide.mcu.externaltools.gnu-tools-for-stm32.9-2020-q2-update.win32_2.0.0.202105311346/tools/bin/../lib/gcc/arm-none-eabi/9.3.1/../../../../arm-none-eabi/lib/thumb/v7e-m+fp/hard\libc_nano.a(lib_a-snprintf.o)
                0x000000000800c0a0                sniprintf
                0x000000000800c0a0                snprintf
 .text._vsprintf_r
                0x000000000800c108       0x2c c:/st/stm32cubeide_1.7.0/stm32cubeide/plugins/com.st.stm32cube.ide.mcu.externaltools.gnu-tools-for-stm32.9-2020-q2-update.win32_2.0.0.202105311346/tools/bin/../lib/gcc/arm-none-eabi/9.3.1/../../../../arm-none-eabi/lib/thumb/v7e-m+fp/hard\libc_nano.a(lib_a-vsprintf.o)
                0x000000000800c108                _vsprintf_r
                0x000000000800c108                _vsiprintf_r
 .text.vsprintf
                0x000000000800c134       0x14 c:/st/stm32cubeide_1.7.0/stm32cubeide/plugins/com.st.stm32cube.ide.mcu.externaltools.gnu-tools-for-stm32.9-2020-q2-update.win32_2.0.0.202105311346/tools/bin/../lib/gcc/arm-none-eabi/9.3.1/../../../../arm-none-eabi/lib/thumb/v7e-m+fp/hard\libc_nano.a(lib_a-vsprintf.o)
                0x000000000800c134                vsiprintf
                0x000000000800c134                vsprintf
 .text.__assert_func
                0x000000000800c148       0x3c c:/st/stm32cubeide_1.7.0/stm32cubeide/plugins/com.st.stm32cube.ide.mcu.externaltools.gnu-tools-for-stm32.9-2020-q2-update.win32_2.0.0.202105311346/tools/bin/../lib/gcc/arm-none-eabi/9.3.1/../../../../arm-none-eabi/lib/thumb/v7e-m+fp/hard\libc_nano.a(lib_a-assert.o)
                0x000000000800c148                __assert_func
 .text.fprintf  0x000000000800c184       0x24 c:/st/stm32cubeide_1.7.0/stm32cubeide/plugins/com.st.stm32cube.ide.mcu.externaltools.gnu-tools-for-stm32.9-2020-q2-update.win32_2.0.0.202105311346/tools/bin/../lib/gcc/arm-none-eabi/9.3.1/../../../../arm-none-eabi/lib/thumb/v7e-m+fp/hard\libc_nano.a(lib_a-fprintf.o)
                0x000000000800c184                fiprintf
                0x000000000800c184                fprintf
 .text.malloc   0x000000000800c1a8       0x10 c:/st/stm32cubeide_1.7.0/stm32cubeide/plugins/com.st.stm32cube.ide.mcu.externaltools.gnu-tools-for-stm32.9-2020-q2-update.win32_2.0.0.202105311346/tools/bin/../lib/gcc/arm-none-eabi/9.3.1/../../../../arm-none-eabi/lib/thumb/v7e-m+fp/hard\libc_nano.a(lib_a-malloc.o)
                0x000000000800c1a8                malloc
 .text._free_r  0x000000000800c1b8       0xa0 c:/st/stm32cubeide_1.7.0/stm32cubeide/plugins/com.st.stm32cube.ide.mcu.externaltools.gnu-tools-for-stm32.9-2020-q2-update.win32_2.0.0.202105311346/tools/bin/../lib/gcc/arm-none-eabi/9.3.1/../../../../arm-none-eabi/lib/thumb/v7e-m+fp/hard\libc_nano.a(lib_a-nano-freer.o)
                0x000000000800c1b8                _free_r
 .text._malloc_r
                0x000000000800c258       0xb4 c:/st/stm32cubeide_1.7.0/stm32cubeide/plugins/com.st.stm32cube.ide.mcu.externaltools.gnu-tools-for-stm32.9-2020-q2-update.win32_2.0.0.202105311346/tools/bin/../lib/gcc/arm-none-eabi/9.3.1/../../../../arm-none-eabi/lib/thumb/v7e-m+fp/hard\libc_nano.a(lib_a-nano-mallocr.o)
                0x000000000800c258                _malloc_r
 .text.__ssputs_r
                0x000000000800c30c       0xb6 c:/st/stm32cubeide_1.7.0/stm32cubeide/plugins/com.st.stm32cube.ide.mcu.externaltools.gnu-tools-for-stm32.9-2020-q2-update.win32_2.0.0.202105311346/tools/bin/../lib/gcc/arm-none-eabi/9.3.1/../../../../arm-none-eabi/lib/thumb/v7e-m+fp/hard\libc_nano.a(lib_a-nano-svfprintf.o)
                0x000000000800c30c                __ssputs_r
 *fill*         0x000000000800c3c2        0x2 
 .text._svfprintf_r
                0x000000000800c3c4      0x200 c:/st/stm32cubeide_1.7.0/stm32cubeide/plugins/com.st.stm32cube.ide.mcu.externaltools.gnu-tools-for-stm32.9-2020-q2-update.win32_2.0.0.202105311346/tools/bin/../lib/gcc/arm-none-eabi/9.3.1/../../../../arm-none-eabi/lib/thumb/v7e-m+fp/hard\libc_nano.a(lib_a-nano-svfprintf.o)
                0x000000000800c3c4                _svfiprintf_r
                0x000000000800c3c4                _svfprintf_r
 .text.__sfputc_r
                0x000000000800c5c4       0x2e c:/st/stm32cubeide_1.7.0/stm32cubeide/plugins/com.st.stm32cube.ide.mcu.externaltools.gnu-tools-for-stm32.9-2020-q2-update.win32_2.0.0.202105311346/tools/bin/../lib/gcc/arm-none-eabi/9.3.1/../../../../arm-none-eabi/lib/thumb/v7e-m+fp/hard\libc_nano.a(lib_a-nano-vfprintf.o)
 .text.__sfputs_r
                0x000000000800c5f2       0x24 c:/st/stm32cubeide_1.7.0/stm32cubeide/plugins/com.st.stm32cube.ide.mcu.externaltools.gnu-tools-for-stm32.9-2020-q2-update.win32_2.0.0.202105311346/tools/bin/../lib/gcc/arm-none-eabi/9.3.1/../../../../arm-none-eabi/lib/thumb/v7e-m+fp/hard\libc_nano.a(lib_a-nano-vfprintf.o)
                0x000000000800c5f2                __sfputs_r
 *fill*         0x000000000800c616        0x2 
 .text._vfprintf_r
                0x000000000800c618      0x260 c:/st/stm32cubeide_1.7.0/stm32cubeide/plugins/com.st.stm32cube.ide.mcu.externaltools.gnu-tools-for-stm32.9-2020-q2-update.win32_2.0.0.202105311346/tools/bin/../lib/gcc/arm-none-eabi/9.3.1/../../../../arm-none-eabi/lib/thumb/v7e-m+fp/hard\libc_nano.a(lib_a-nano-vfprintf.o)
                0x000000000800c618                _vfprintf_r
                0x000000000800c618                _vfiprintf_r
 .text._printf_common
                0x000000000800c878       0xda c:/st/stm32cubeide_1.7.0/stm32cubeide/plugins/com.st.stm32cube.ide.mcu.externaltools.gnu-tools-for-stm32.9-2020-q2-update.win32_2.0.0.202105311346/tools/bin/../lib/gcc/arm-none-eabi/9.3.1/../../../../arm-none-eabi/lib/thumb/v7e-m+fp/hard\libc_nano.a(lib_a-nano-vfprintf_i.o)
                0x000000000800c878                _printf_common
 *fill*         0x000000000800c952        0x2 
 .text._printf_i
                0x000000000800c954      0x24c c:/st/stm32cubeide_1.7.0/stm32cubeide/plugins/com.st.stm32cube.ide.mcu.externaltools.gnu-tools-for-stm32.9-2020-q2-update.win32_2.0.0.202105311346/tools/bin/../lib/gcc/arm-none-eabi/9.3.1/../../../../arm-none-eabi/lib/thumb/v7e-m+fp/hard\libc_nano.a(lib_a-nano-vfprintf_i.o)
                0x000000000800c954                _printf_i
 .text._sbrk_r  0x000000000800cba0       0x20 c:/st/stm32cubeide_1.7.0/stm32cubeide/plugins/com.st.stm32cube.ide.mcu.externaltools.gnu-tools-for-stm32.9-2020-q2-update.win32_2.0.0.202105311346/tools/bin/../lib/gcc/arm-none-eabi/9.3.1/../../../../arm-none-eabi/lib/thumb/v7e-m+fp/hard\libc_nano.a(lib_a-sbrkr.o)
                0x000000000800cba0                _sbrk_r
 .text.__swbuf_r
                0x000000000800cbc0       0xa4 c:/st/stm32cubeide_1.7.0/stm32cubeide/plugins/com.st.stm32cube.ide.mcu.externaltools.gnu-tools-for-stm32.9-2020-q2-update.win32_2.0.0.202105311346/tools/bin/../lib/gcc/arm-none-eabi/9.3.1/../../../../arm-none-eabi/lib/thumb/v7e-m+fp/hard\libc_nano.a(lib_a-wbuf.o)
                0x000000000800cbc0                __swbuf_r
 .text.__swsetup_r
                0x000000000800cc64       0xdc c:/st/stm32cubeide_1.7.0/stm32cubeide/plugins/com.st.stm32cube.ide.mcu.externaltools.gnu-tools-for-stm32.9-2020-q2-update.win32_2.0.0.202105311346/tools/bin/../lib/gcc/arm-none-eabi/9.3.1/../../../../arm-none-eabi/lib/thumb/v7e-m+fp/hard\libc_nano.a(lib_a-wsetup.o)
                0x000000000800cc64                __swsetup_r
 .text.abort    0x000000000800cd40        0xe c:/st/stm32cubeide_1.7.0/stm32cubeide/plugins/com.st.stm32cube.ide.mcu.externaltools.gnu-tools-for-stm32.9-2020-q2-update.win32_2.0.0.202105311346/tools/bin/../lib/gcc/arm-none-eabi/9.3.1/../../../../arm-none-eabi/lib/thumb/v7e-m+fp/hard\libc_nano.a(lib_a-abort.o)
                0x000000000800cd40                abort
 *fill*         0x000000000800cd4e        0x2 
 .text.__sflush_r
                0x000000000800cd50      0x10c c:/st/stm32cubeide_1.7.0/stm32cubeide/plugins/com.st.stm32cube.ide.mcu.externaltools.gnu-tools-for-stm32.9-2020-q2-update.win32_2.0.0.202105311346/tools/bin/../lib/gcc/arm-none-eabi/9.3.1/../../../../arm-none-eabi/lib/thumb/v7e-m+fp/hard\libc_nano.a(lib_a-fflush.o)
                0x000000000800cd50                __sflush_r
 .text._fflush_r
                0x000000000800ce5c       0x78 c:/st/stm32cubeide_1.7.0/stm32cubeide/plugins/com.st.stm32cube.ide.mcu.externaltools.gnu-tools-for-stm32.9-2020-q2-update.win32_2.0.0.202105311346/tools/bin/../lib/gcc/arm-none-eabi/9.3.1/../../../../arm-none-eabi/lib/thumb/v7e-m+fp/hard\libc_nano.a(lib_a-fflush.o)
                0x000000000800ce5c                _fflush_r
 .text.std      0x000000000800ced4       0x48 c:/st/stm32cubeide_1.7.0/stm32cubeide/plugins/com.st.stm32cube.ide.mcu.externaltools.gnu-tools-for-stm32.9-2020-q2-update.win32_2.0.0.202105311346/tools/bin/../lib/gcc/arm-none-eabi/9.3.1/../../../../arm-none-eabi/lib/thumb/v7e-m+fp/hard\libc_nano.a(lib_a-findfp.o)
 .text._cleanup_r
                0x000000000800cf1c        0xc c:/st/stm32cubeide_1.7.0/stm32cubeide/plugins/com.st.stm32cube.ide.mcu.externaltools.gnu-tools-for-stm32.9-2020-q2-update.win32_2.0.0.202105311346/tools/bin/../lib/gcc/arm-none-eabi/9.3.1/../../../../arm-none-eabi/lib/thumb/v7e-m+fp/hard\libc_nano.a(lib_a-findfp.o)
                0x000000000800cf1c                _cleanup_r
 .text.__sfmoreglue
                0x000000000800cf28       0x2c c:/st/stm32cubeide_1.7.0/stm32cubeide/plugins/com.st.stm32cube.ide.mcu.externaltools.gnu-tools-for-stm32.9-2020-q2-update.win32_2.0.0.202105311346/tools/bin/../lib/gcc/arm-none-eabi/9.3.1/../../../../arm-none-eabi/lib/thumb/v7e-m+fp/hard\libc_nano.a(lib_a-findfp.o)
                0x000000000800cf28                __sfmoreglue
 .text.__sfp_lock_acquire
                0x000000000800cf54        0xc c:/st/stm32cubeide_1.7.0/stm32cubeide/plugins/com.st.stm32cube.ide.mcu.externaltools.gnu-tools-for-stm32.9-2020-q2-update.win32_2.0.0.202105311346/tools/bin/../lib/gcc/arm-none-eabi/9.3.1/../../../../arm-none-eabi/lib/thumb/v7e-m+fp/hard\libc_nano.a(lib_a-findfp.o)
                0x000000000800cf54                __sfp_lock_acquire
 .text.__sfp_lock_release
                0x000000000800cf60        0xc c:/st/stm32cubeide_1.7.0/stm32cubeide/plugins/com.st.stm32cube.ide.mcu.externaltools.gnu-tools-for-stm32.9-2020-q2-update.win32_2.0.0.202105311346/tools/bin/../lib/gcc/arm-none-eabi/9.3.1/../../../../arm-none-eabi/lib/thumb/v7e-m+fp/hard\libc_nano.a(lib_a-findfp.o)
                0x000000000800cf60                __sfp_lock_release
 .text.__sinit_lock_acquire
                0x000000000800cf6c        0xc c:/st/stm32cubeide_1.7.0/stm32cubeide/plugins/com.st.stm32cube.ide.mcu.externaltools.gnu-tools-for-stm32.9-2020-q2-update.win32_2.0.0.202105311346/tools/bin/../lib/gcc/arm-none-eabi/9.3.1/../../../../arm-none-eabi/lib/thumb/v7e-m+fp/hard\libc_nano.a(lib_a-findfp.o)
                0x000000000800cf6c                __sinit_lock_acquire
 .text.__sinit_lock_release
                0x000000000800cf78        0xc c:/st/stm32cubeide_1.7.0/stm32cubeide/plugins/com.st.stm32cube.ide.mcu.externaltools.gnu-tools-for-stm32.9-2020-q2-update.win32_2.0.0.202105311346/tools/bin/../lib/gcc/arm-none-eabi/9.3.1/../../../../arm-none-eabi/lib/thumb/v7e-m+fp/hard\libc_nano.a(lib_a-findfp.o)
                0x000000000800cf78                __sinit_lock_release
 .text.__sinit  0x000000000800cf84       0x70 c:/st/stm32cubeide_1.7.0/stm32cubeide/plugins/com.st.stm32cube.ide.mcu.externaltools.gnu-tools-for-stm32.9-2020-q2-update.win32_2.0.0.202105311346/tools/bin/../lib/gcc/arm-none-eabi/9.3.1/../../../../arm-none-eabi/lib/thumb/v7e-m+fp/hard\libc_nano.a(lib_a-findfp.o)
                0x000000000800cf84                __sinit
 .text.__sfp    0x000000000800cff4       0x8c c:/st/stm32cubeide_1.7.0/stm32cubeide/plugins/com.st.stm32cube.ide.mcu.externaltools.gnu-tools-for-stm32.9-2020-q2-update.win32_2.0.0.202105311346/tools/bin/../lib/gcc/arm-none-eabi/9.3.1/../../../../arm-none-eabi/lib/thumb/v7e-m+fp/hard\libc_nano.a(lib_a-findfp.o)
                0x000000000800cff4                __sfp
 .text._fwalk_reent
                0x000000000800d080       0x3e c:/st/stm32cubeide_1.7.0/stm32cubeide/plugins/com.st.stm32cube.ide.mcu.externaltools.gnu-tools-for-stm32.9-2020-q2-update.win32_2.0.0.202105311346/tools/bin/../lib/gcc/arm-none-eabi/9.3.1/../../../../arm-none-eabi/lib/thumb/v7e-m+fp/hard\libc_nano.a(lib_a-fwalk.o)
                0x000000000800d080                _fwalk_reent
 .text.__retarget_lock_init_recursive
                0x000000000800d0be        0x2 c:/st/stm32cubeide_1.7.0/stm32cubeide/plugins/com.st.stm32cube.ide.mcu.externaltools.gnu-tools-for-stm32.9-2020-q2-update.win32_2.0.0.202105311346/tools/bin/../lib/gcc/arm-none-eabi/9.3.1/../../../../arm-none-eabi/lib/thumb/v7e-m+fp/hard\libc_nano.a(lib_a-lock.o)
                0x000000000800d0be                __retarget_lock_init_recursive
 .text.__retarget_lock_acquire_recursive
                0x000000000800d0c0        0x2 c:/st/stm32cubeide_1.7.0/stm32cubeide/plugins/com.st.stm32cube.ide.mcu.externaltools.gnu-tools-for-stm32.9-2020-q2-update.win32_2.0.0.202105311346/tools/bin/../lib/gcc/arm-none-eabi/9.3.1/../../../../arm-none-eabi/lib/thumb/v7e-m+fp/hard\libc_nano.a(lib_a-lock.o)
                0x000000000800d0c0                __retarget_lock_acquire_recursive
 .text.__retarget_lock_release_recursive
                0x000000000800d0c2        0x2 c:/st/stm32cubeide_1.7.0/stm32cubeide/plugins/com.st.stm32cube.ide.mcu.externaltools.gnu-tools-for-stm32.9-2020-q2-update.win32_2.0.0.202105311346/tools/bin/../lib/gcc/arm-none-eabi/9.3.1/../../../../arm-none-eabi/lib/thumb/v7e-m+fp/hard\libc_nano.a(lib_a-lock.o)
                0x000000000800d0c2                __retarget_lock_release_recursive
 .text.__swhatbuf_r
                0x000000000800d0c4       0x48 c:/st/stm32cubeide_1.7.0/stm32cubeide/plugins/com.st.stm32cube.ide.mcu.externaltools.gnu-tools-for-stm32.9-2020-q2-update.win32_2.0.0.202105311346/tools/bin/../lib/gcc/arm-none-eabi/9.3.1/../../../../arm-none-eabi/lib/thumb/v7e-m+fp/hard\libc_nano.a(lib_a-makebuf.o)
                0x000000000800d0c4                __swhatbuf_r
 .text.__smakebuf_r
                0x000000000800d10c       0x80 c:/st/stm32cubeide_1.7.0/stm32cubeide/plugins/com.st.stm32cube.ide.mcu.externaltools.gnu-tools-for-stm32.9-2020-q2-update.win32_2.0.0.202105311346/tools/bin/../lib/gcc/arm-none-eabi/9.3.1/../../../../arm-none-eabi/lib/thumb/v7e-m+fp/hard\libc_nano.a(lib_a-makebuf.o)
                0x000000000800d10c                __smakebuf_r
 .text.memmove  0x000000000800d18c       0x34 c:/st/stm32cubeide_1.7.0/stm32cubeide/plugins/com.st.stm32cube.ide.mcu.externaltools.gnu-tools-for-stm32.9-2020-q2-update.win32_2.0.0.202105311346/tools/bin/../lib/gcc/arm-none-eabi/9.3.1/../../../../arm-none-eabi/lib/thumb/v7e-m+fp/hard\libc_nano.a(lib_a-memmove.o)
                0x000000000800d18c                memmove
 .text.__malloc_lock
                0x000000000800d1c0        0xc c:/st/stm32cubeide_1.7.0/stm32cubeide/plugins/com.st.stm32cube.ide.mcu.externaltools.gnu-tools-for-stm32.9-2020-q2-update.win32_2.0.0.202105311346/tools/bin/../lib/gcc/arm-none-eabi/9.3.1/../../../../arm-none-eabi/lib/thumb/v7e-m+fp/hard\libc_nano.a(lib_a-mlock.o)
                0x000000000800d1c0                __malloc_lock
 .text.__malloc_unlock
                0x000000000800d1cc        0xc c:/st/stm32cubeide_1.7.0/stm32cubeide/plugins/com.st.stm32cube.ide.mcu.externaltools.gnu-tools-for-stm32.9-2020-q2-update.win32_2.0.0.202105311346/tools/bin/../lib/gcc/arm-none-eabi/9.3.1/../../../../arm-none-eabi/lib/thumb/v7e-m+fp/hard\libc_nano.a(lib_a-mlock.o)
                0x000000000800d1cc                __malloc_unlock
 .text._realloc_r
                0x000000000800d1d8       0x4c c:/st/stm32cubeide_1.7.0/stm32cubeide/plugins/com.st.stm32cube.ide.mcu.externaltools.gnu-tools-for-stm32.9-2020-q2-update.win32_2.0.0.202105311346/tools/bin/../lib/gcc/arm-none-eabi/9.3.1/../../../../arm-none-eabi/lib/thumb/v7e-m+fp/hard\libc_nano.a(lib_a-nano-reallocr.o)
                0x000000000800d1d8                _realloc_r
 .text._raise_r
                0x000000000800d224       0x50 c:/st/stm32cubeide_1.7.0/stm32cubeide/plugins/com.st.stm32cube.ide.mcu.externaltools.gnu-tools-for-stm32.9-2020-q2-update.win32_2.0.0.202105311346/tools/bin/../lib/gcc/arm-none-eabi/9.3.1/../../../../arm-none-eabi/lib/thumb/v7e-m+fp/hard\libc_nano.a(lib_a-signal.o)
                0x000000000800d224                _raise_r
 .text.raise    0x000000000800d274       0x10 c:/st/stm32cubeide_1.7.0/stm32cubeide/plugins/com.st.stm32cube.ide.mcu.externaltools.gnu-tools-for-stm32.9-2020-q2-update.win32_2.0.0.202105311346/tools/bin/../lib/gcc/arm-none-eabi/9.3.1/../../../../arm-none-eabi/lib/thumb/v7e-m+fp/hard\libc_nano.a(lib_a-signal.o)
                0x000000000800d274                raise
 .text._kill_r  0x000000000800d284       0x24 c:/st/stm32cubeide_1.7.0/stm32cubeide/plugins/com.st.stm32cube.ide.mcu.externaltools.gnu-tools-for-stm32.9-2020-q2-update.win32_2.0.0.202105311346/tools/bin/../lib/gcc/arm-none-eabi/9.3.1/../../../../arm-none-eabi/lib/thumb/v7e-m+fp/hard\libc_nano.a(lib_a-signalr.o)
                0x000000000800d284                _kill_r
 .text._getpid_r
                0x000000000800d2a8        0x4 c:/st/stm32cubeide_1.7.0/stm32cubeide/plugins/com.st.stm32cube.ide.mcu.externaltools.gnu-tools-for-stm32.9-2020-q2-update.win32_2.0.0.202105311346/tools/bin/../lib/gcc/arm-none-eabi/9.3.1/../../../../arm-none-eabi/lib/thumb/v7e-m+fp/hard\libc_nano.a(lib_a-signalr.o)
                0x000000000800d2a8                _getpid_r
 .text.__sread  0x000000000800d2ac       0x22 c:/st/stm32cubeide_1.7.0/stm32cubeide/plugins/com.st.stm32cube.ide.mcu.externaltools.gnu-tools-for-stm32.9-2020-q2-update.win32_2.0.0.202105311346/tools/bin/../lib/gcc/arm-none-eabi/9.3.1/../../../../arm-none-eabi/lib/thumb/v7e-m+fp/hard\libc_nano.a(lib_a-stdio.o)
                0x000000000800d2ac                __sread
 .text.__swrite
                0x000000000800d2ce       0x38 c:/st/stm32cubeide_1.7.0/stm32cubeide/plugins/com.st.stm32cube.ide.mcu.externaltools.gnu-tools-for-stm32.9-2020-q2-update.win32_2.0.0.202105311346/tools/bin/../lib/gcc/arm-none-eabi/9.3.1/../../../../arm-none-eabi/lib/thumb/v7e-m+fp/hard\libc_nano.a(lib_a-stdio.o)
                0x000000000800d2ce                __swrite
 .text.__sseek  0x000000000800d306       0x24 c:/st/stm32cubeide_1.7.0/stm32cubeide/plugins/com.st.stm32cube.ide.mcu.externaltools.gnu-tools-for-stm32.9-2020-q2-update.win32_2.0.0.202105311346/tools/bin/../lib/gcc/arm-none-eabi/9.3.1/../../../../arm-none-eabi/lib/thumb/v7e-m+fp/hard\libc_nano.a(lib_a-stdio.o)
                0x000000000800d306                __sseek
 .text.__sclose
                0x000000000800d32a        0x8 c:/st/stm32cubeide_1.7.0/stm32cubeide/plugins/com.st.stm32cube.ide.mcu.externaltools.gnu-tools-for-stm32.9-2020-q2-update.win32_2.0.0.202105311346/tools/bin/../lib/gcc/arm-none-eabi/9.3.1/../../../../arm-none-eabi/lib/thumb/v7e-m+fp/hard\libc_nano.a(lib_a-stdio.o)
                0x000000000800d32a                __sclose
 *fill*         0x000000000800d332        0x2 
 .text._write_r
                0x000000000800d334       0x24 c:/st/stm32cubeide_1.7.0/stm32cubeide/plugins/com.st.stm32cube.ide.mcu.externaltools.gnu-tools-for-stm32.9-2020-q2-update.win32_2.0.0.202105311346/tools/bin/../lib/gcc/arm-none-eabi/9.3.1/../../../../arm-none-eabi/lib/thumb/v7e-m+fp/hard\libc_nano.a(lib_a-writer.o)
                0x000000000800d334                _write_r
 .text._close_r
                0x000000000800d358       0x20 c:/st/stm32cubeide_1.7.0/stm32cubeide/plugins/com.st.stm32cube.ide.mcu.externaltools.gnu-tools-for-stm32.9-2020-q2-update.win32_2.0.0.202105311346/tools/bin/../lib/gcc/arm-none-eabi/9.3.1/../../../../arm-none-eabi/lib/thumb/v7e-m+fp/hard\libc_nano.a(lib_a-closer.o)
                0x000000000800d358                _close_r
 .text._fstat_r
                0x000000000800d378       0x24 c:/st/stm32cubeide_1.7.0/stm32cubeide/plugins/com.st.stm32cube.ide.mcu.externaltools.gnu-tools-for-stm32.9-2020-q2-update.win32_2.0.0.202105311346/tools/bin/../lib/gcc/arm-none-eabi/9.3.1/../../../../arm-none-eabi/lib/thumb/v7e-m+fp/hard\libc_nano.a(lib_a-fstatr.o)
                0x000000000800d378                _fstat_r
 .text._isatty_r
                0x000000000800d39c       0x20 c:/st/stm32cubeide_1.7.0/stm32cubeide/plugins/com.st.stm32cube.ide.mcu.externaltools.gnu-tools-for-stm32.9-2020-q2-update.win32_2.0.0.202105311346/tools/bin/../lib/gcc/arm-none-eabi/9.3.1/../../../../arm-none-eabi/lib/thumb/v7e-m+fp/hard\libc_nano.a(lib_a-isattyr.o)
                0x000000000800d39c                _isatty_r
 .text._lseek_r
                0x000000000800d3bc       0x24 c:/st/stm32cubeide_1.7.0/stm32cubeide/plugins/com.st.stm32cube.ide.mcu.externaltools.gnu-tools-for-stm32.9-2020-q2-update.win32_2.0.0.202105311346/tools/bin/../lib/gcc/arm-none-eabi/9.3.1/../../../../arm-none-eabi/lib/thumb/v7e-m+fp/hard\libc_nano.a(lib_a-lseekr.o)
                0x000000000800d3bc                _lseek_r
 .text._malloc_usable_size_r
                0x000000000800d3e0       0x10 c:/st/stm32cubeide_1.7.0/stm32cubeide/plugins/com.st.stm32cube.ide.mcu.externaltools.gnu-tools-for-stm32.9-2020-q2-update.win32_2.0.0.202105311346/tools/bin/../lib/gcc/arm-none-eabi/9.3.1/../../../../arm-none-eabi/lib/thumb/v7e-m+fp/hard\libc_nano.a(lib_a-nano-msizer.o)
                0x000000000800d3e0                _malloc_usable_size_r
 .text._read_r  0x000000000800d3f0       0x24 c:/st/stm32cubeide_1.7.0/stm32cubeide/plugins/com.st.stm32cube.ide.mcu.externaltools.gnu-tools-for-stm32.9-2020-q2-update.win32_2.0.0.202105311346/tools/bin/../lib/gcc/arm-none-eabi/9.3.1/../../../../arm-none-eabi/lib/thumb/v7e-m+fp/hard\libc_nano.a(lib_a-readr.o)
                0x000000000800d3f0                _read_r
 *(.glue_7)
 .glue_7        0x000000000800d414        0x0 linker stubs
 *(.glue_7t)
 .glue_7t       0x000000000800d414        0x0 linker stubs
 *(.eh_frame)
 .eh_frame      0x000000000800d414        0x0 c:/st/stm32cubeide_1.7.0/stm32cubeide/plugins/com.st.stm32cube.ide.mcu.externaltools.gnu-tools-for-stm32.9-2020-q2-update.win32_2.0.0.202105311346/tools/bin/../lib/gcc/arm-none-eabi/9.3.1/thumb/v7e-m+fp/hard/crtbegin.o
 *(.init)
 .init          0x000000000800d414        0x4 c:/st/stm32cubeide_1.7.0/stm32cubeide/plugins/com.st.stm32cube.ide.mcu.externaltools.gnu-tools-for-stm32.9-2020-q2-update.win32_2.0.0.202105311346/tools/bin/../lib/gcc/arm-none-eabi/9.3.1/thumb/v7e-m+fp/hard/crti.o
                0x000000000800d414                _init
 .init          0x000000000800d418        0x8 c:/st/stm32cubeide_1.7.0/stm32cubeide/plugins/com.st.stm32cube.ide.mcu.externaltools.gnu-tools-for-stm32.9-2020-q2-update.win32_2.0.0.202105311346/tools/bin/../lib/gcc/arm-none-eabi/9.3.1/thumb/v7e-m+fp/hard/crtn.o
 *(.fini)
 .fini          0x000000000800d420        0x4 c:/st/stm32cubeide_1.7.0/stm32cubeide/plugins/com.st.stm32cube.ide.mcu.externaltools.gnu-tools-for-stm32.9-2020-q2-update.win32_2.0.0.202105311346/tools/bin/../lib/gcc/arm-none-eabi/9.3.1/thumb/v7e-m+fp/hard/crti.o
                0x000000000800d420                _fini
 .fini          0x000000000800d424        0x8 c:/st/stm32cubeide_1.7.0/stm32cubeide/plugins/com.st.stm32cube.ide.mcu.externaltools.gnu-tools-for-stm32.9-2020-q2-update.win32_2.0.0.202105311346/tools/bin/../lib/gcc/arm-none-eabi/9.3.1/thumb/v7e-m+fp/hard/crtn.o
                0x000000000800d42c                . = ALIGN (0x4)
                0x000000000800d42c                _etext = .

.vfp11_veneer   0x000000000800d42c        0x0
 .vfp11_veneer  0x000000000800d42c        0x0 linker stubs

.v4_bx          0x000000000800d42c        0x0
 .v4_bx         0x000000000800d42c        0x0 linker stubs

.iplt           0x000000000800d42c        0x0
 .iplt          0x000000000800d42c        0x0 c:/st/stm32cubeide_1.7.0/stm32cubeide/plugins/com.st.stm32cube.ide.mcu.externaltools.gnu-tools-for-stm32.9-2020-q2-update.win32_2.0.0.202105311346/tools/bin/../lib/gcc/arm-none-eabi/9.3.1/thumb/v7e-m+fp/hard/crtbegin.o

.rodata         0x000000000800d42c      0x4dc
                0x000000000800d42c                . = ALIGN (0x4)
 *(.rodata)
 .rodata        0x000000000800d42c        0xe ./app/hello_world.o
 *(.rodata*)
 *fill*         0x000000000800d43a        0x2 
 .rodata.usb_gpio_callback.str1.4
                0x000000000800d43c       0x6c ./app/hello_world.o
 .rodata.usb_printf.constprop.0.str1.4
                0x000000000800d4a8        0x3 ./app/hello_world.o
 *fill*         0x000000000800d4ab        0x1 
 .rodata.main.str1.4
                0x000000000800d4ac       0x12 ./app/hello_world.o
 *fill*         0x000000000800d4be        0x2 
 .rodata.AHBPrescTable
                0x000000000800d4c0       0x10 ./bsp/evk/system_stm32g4xx.o
                0x000000000800d4c0                AHBPrescTable
 .rodata.APBPrescTable
                0x000000000800d4d0        0x8 ./bsp/evk/system_stm32g4xx.o
                0x000000000800d4d0                APBPrescTable
 .rodata.USBD_CDC_ManufacturerStrDescriptor.str1.4
                0x000000000800d4d8       0x18 ./bsp/evk/usb_device/app/usbd_desc.o
 .rodata.USBD_CDC_ProductStrDescriptor.str1.4
                0x000000000800d4f0        0x7 ./bsp/evk/usb_device/app/usbd_desc.o
 *fill*         0x000000000800d4f7        0x1 
 .rodata.USBD_CDC_ConfigStrDescriptor.str1.4
                0x000000000800d4f8        0xb ./bsp/evk/usb_device/app/usbd_desc.o
 *fill*         0x000000000800d503        0x1 
 .rodata.USBD_CDC_InterfaceStrDescriptor.str1.4
                0x000000000800d504        0xe ./bsp/evk/usb_device/app/usbd_desc.o
 *fill*         0x000000000800d512        0x2 
 .rodata.CSWTCH.3
                0x000000000800d514        0x4 ./bsp/evk/usb_device/target/usbd_conf.o
 .rodata.gain_lookup_table
                0x000000000800d518       0x88 ./core/wireless/link/link_gain_loop.o
 .rodata.lna_peak_table_sr1010
                0x000000000800d5a0       0x10 ./core/wireless/phy/sr1000_calib.o
 .rodata.lna_peak_table_sr1020
                0x000000000800d5b0       0x10 ./core/wireless/phy/sr1000_calib.o
 .rodata.str1.4
                0x000000000800d5c0       0xbf ./core/wireless/phy/sr1000_nvm.o
 *fill*         0x000000000800d67f        0x1 
 .rodata.nvm_template
                0x000000000800d680       0xc0 ./core/wireless/phy/sr1000_nvm.o
 .rodata.sync_word_table
                0x000000000800d740       0x40 ./core/wireless/protocol_stack/wps.o
 .rodata.CSWTCH.58
                0x000000000800d780        0x3 ./lib/third-party/stmicroelectronics/stm32g4xx_hal_driver/Src/stm32g4xx_hal_uart.o
 *fill*         0x000000000800d783        0x1 
 .rodata.CSWTCH.59
                0x000000000800d784        0xd ./lib/third-party/stmicroelectronics/stm32g4xx_hal_driver/Src/stm32g4xx_hal_uart.o
 *fill*         0x000000000800d791        0x3 
 .rodata.UARTPrescTable
                0x000000000800d794       0x18 ./lib/third-party/stmicroelectronics/stm32g4xx_hal_driver/Src/stm32g4xx_hal_uart.o
                0x000000000800d794                UARTPrescTable
 .rodata.denominator.9549
                0x000000000800d7ac        0x8 ./lib/third-party/stmicroelectronics/stm32g4xx_hal_driver/Src/stm32g4xx_hal_uart_ex.o
 .rodata.numerator.9548
                0x000000000800d7b4        0x8 ./lib/third-party/stmicroelectronics/stm32g4xx_hal_driver/Src/stm32g4xx_hal_uart_ex.o
 .rodata._global_impure_ptr
                0x000000000800d7bc        0x4 c:/st/stm32cubeide_1.7.0/stm32cubeide/plugins/com.st.stm32cube.ide.mcu.externaltools.gnu-tools-for-stm32.9-2020-q2-update.win32_2.0.0.202105311346/tools/bin/../lib/gcc/arm-none-eabi/9.3.1/../../../../arm-none-eabi/lib/thumb/v7e-m+fp/hard\libc_nano.a(lib_a-impure.o)
                0x000000000800d7bc                _global_impure_ptr
 .rodata.srand.str1.1
                0x000000000800d7c0       0x76 c:/st/stm32cubeide_1.7.0/stm32cubeide/plugins/com.st.stm32cube.ide.mcu.externaltools.gnu-tools-for-stm32.9-2020-q2-update.win32_2.0.0.202105311346/tools/bin/../lib/gcc/arm-none-eabi/9.3.1/../../../../arm-none-eabi/lib/thumb/v7e-m+fp/hard\libc_nano.a(lib_a-rand.o)
 .rodata.__assert_func.str1.1
                0x000000000800d836       0x3c c:/st/stm32cubeide_1.7.0/stm32cubeide/plugins/com.st.stm32cube.ide.mcu.externaltools.gnu-tools-for-stm32.9-2020-q2-update.win32_2.0.0.202105311346/tools/bin/../lib/gcc/arm-none-eabi/9.3.1/../../../../arm-none-eabi/lib/thumb/v7e-m+fp/hard\libc_nano.a(lib_a-assert.o)
                                         0x3d (size before relaxing)
 .rodata._svfprintf_r.str1.1
                0x000000000800d872       0x11 c:/st/stm32cubeide_1.7.0/stm32cubeide/plugins/com.st.stm32cube.ide.mcu.externaltools.gnu-tools-for-stm32.9-2020-q2-update.win32_2.0.0.202105311346/tools/bin/../lib/gcc/arm-none-eabi/9.3.1/../../../../arm-none-eabi/lib/thumb/v7e-m+fp/hard\libc_nano.a(lib_a-nano-svfprintf.o)
 .rodata._vfprintf_r.str1.1
                0x000000000800d883       0x11 c:/st/stm32cubeide_1.7.0/stm32cubeide/plugins/com.st.stm32cube.ide.mcu.externaltools.gnu-tools-for-stm32.9-2020-q2-update.win32_2.0.0.202105311346/tools/bin/../lib/gcc/arm-none-eabi/9.3.1/../../../../arm-none-eabi/lib/thumb/v7e-m+fp/hard\libc_nano.a(lib_a-nano-vfprintf.o)
 .rodata._printf_i.str1.1
                0x000000000800d883       0x22 c:/st/stm32cubeide_1.7.0/stm32cubeide/plugins/com.st.stm32cube.ide.mcu.externaltools.gnu-tools-for-stm32.9-2020-q2-update.win32_2.0.0.202105311346/tools/bin/../lib/gcc/arm-none-eabi/9.3.1/../../../../arm-none-eabi/lib/thumb/v7e-m+fp/hard\libc_nano.a(lib_a-nano-vfprintf_i.o)
 *fill*         0x000000000800d8a5        0x3 
 .rodata.__sf_fake_stderr
                0x000000000800d8a8       0x20 c:/st/stm32cubeide_1.7.0/stm32cubeide/plugins/com.st.stm32cube.ide.mcu.externaltools.gnu-tools-for-stm32.9-2020-q2-update.win32_2.0.0.202105311346/tools/bin/../lib/gcc/arm-none-eabi/9.3.1/../../../../arm-none-eabi/lib/thumb/v7e-m+fp/hard\libc_nano.a(lib_a-findfp.o)
                0x000000000800d8a8                __sf_fake_stderr
 .rodata.__sf_fake_stdin
                0x000000000800d8c8       0x20 c:/st/stm32cubeide_1.7.0/stm32cubeide/plugins/com.st.stm32cube.ide.mcu.externaltools.gnu-tools-for-stm32.9-2020-q2-update.win32_2.0.0.202105311346/tools/bin/../lib/gcc/arm-none-eabi/9.3.1/../../../../arm-none-eabi/lib/thumb/v7e-m+fp/hard\libc_nano.a(lib_a-findfp.o)
                0x000000000800d8c8                __sf_fake_stdin
 .rodata.__sf_fake_stdout
                0x000000000800d8e8       0x20 c:/st/stm32cubeide_1.7.0/stm32cubeide/plugins/com.st.stm32cube.ide.mcu.externaltools.gnu-tools-for-stm32.9-2020-q2-update.win32_2.0.0.202105311346/tools/bin/../lib/gcc/arm-none-eabi/9.3.1/../../../../arm-none-eabi/lib/thumb/v7e-m+fp/hard\libc_nano.a(lib_a-findfp.o)
                0x000000000800d8e8                __sf_fake_stdout
                0x000000000800d908                . = ALIGN (0x4)

.ARM.extab      0x000000000800d908        0x0
                0x000000000800d908                . = ALIGN (0x4)
 *(.ARM.extab* .gnu.linkonce.armextab.*)
                0x000000000800d908                . = ALIGN (0x4)

.ARM            0x000000000800d908        0x8
                0x000000000800d908                . = ALIGN (0x4)
                0x000000000800d908                __exidx_start = .
 *(.ARM.exidx*)
 .ARM.exidx     0x000000000800d908        0x8 c:/st/stm32cubeide_1.7.0/stm32cubeide/plugins/com.st.stm32cube.ide.mcu.externaltools.gnu-tools-for-stm32.9-2020-q2-update.win32_2.0.0.202105311346/tools/bin/../lib/gcc/arm-none-eabi/9.3.1/thumb/v7e-m+fp/hard\libgcc.a(_udivmoddi4.o)
                0x000000000800d910                __exidx_end = .
                0x000000000800d910                . = ALIGN (0x4)

.rel.dyn        0x000000000800d910        0x0
 .rel.iplt      0x000000000800d910        0x0 c:/st/stm32cubeide_1.7.0/stm32cubeide/plugins/com.st.stm32cube.ide.mcu.externaltools.gnu-tools-for-stm32.9-2020-q2-update.win32_2.0.0.202105311346/tools/bin/../lib/gcc/arm-none-eabi/9.3.1/thumb/v7e-m+fp/hard/crtbegin.o

.preinit_array  0x000000000800d910        0x0
                0x000000000800d910                . = ALIGN (0x4)
                0x000000000800d910                PROVIDE (__preinit_array_start = .)
 *(.preinit_array*)
                0x000000000800d910                PROVIDE (__preinit_array_end = .)
                0x000000000800d910                . = ALIGN (0x4)

.init_array     0x000000000800d910        0x4
                0x000000000800d910                . = ALIGN (0x4)
                0x000000000800d910                PROVIDE (__init_array_start = .)
 *(SORT_BY_NAME(.init_array.*))
 *(.init_array*)
 .init_array    0x000000000800d910        0x4 c:/st/stm32cubeide_1.7.0/stm32cubeide/plugins/com.st.stm32cube.ide.mcu.externaltools.gnu-tools-for-stm32.9-2020-q2-update.win32_2.0.0.202105311346/tools/bin/../lib/gcc/arm-none-eabi/9.3.1/thumb/v7e-m+fp/hard/crtbegin.o
                0x000000000800d914                PROVIDE (__init_array_end = .)
                0x000000000800d914                . = ALIGN (0x4)

.fini_array     0x000000000800d914        0x4
                0x000000000800d914                . = ALIGN (0x4)
                [!provide]                        PROVIDE (__fini_array_start = .)
 *(SORT_BY_NAME(.fini_array.*))
 *(.fini_array*)
 .fini_array    0x000000000800d914        0x4 c:/st/stm32cubeide_1.7.0/stm32cubeide/plugins/com.st.stm32cube.ide.mcu.externaltools.gnu-tools-for-stm32.9-2020-q2-update.win32_2.0.0.202105311346/tools/bin/../lib/gcc/arm-none-eabi/9.3.1/thumb/v7e-m+fp/hard/crtbegin.o
                [!provide]                        PROVIDE (__fini_array_end = .)
                0x000000000800d918                . = ALIGN (0x4)
                0x000000000800d918                _sidata = LOADADDR (.data)

.data           0x0000000020000000      0x3d0 load address 0x000000000800d918
                0x0000000020000000                . = ALIGN (0x4)
                0x0000000020000000                _sdata = .
 *(.data)
 *(.data*)
 .data.channel_sequence
                0x0000000020000000       0x10 ./app/hello_world.o
 .data.coordinator_timeslot
                0x0000000020000010       0x20 ./app/hello_world.o
 .data.node_timeslot
                0x0000000020000030       0x20 ./app/hello_world.o
 .data.timeslot_us
                0x0000000020000050       0x40 ./app/hello_world.o
 .data.app_timer_callback
                0x0000000020000090        0x4 ./bsp/evk/bsp_it.o
 .data.exti0_irq_callback
                0x0000000020000094        0x4 ./bsp/evk/bsp_it.o
 .data.exti2_irq_callback
                0x0000000020000098        0x4 ./bsp/evk/bsp_it.o
 .data.pendsv_irq_callback
                0x000000002000009c        0x4 ./bsp/evk/bsp_it.o
 .data.radio1_dma_callback
                0x00000000200000a0        0x4 ./bsp/evk/bsp_it.o
 .data.SystemCoreClock
                0x00000000200000a4        0x4 ./bsp/evk/system_stm32g4xx.o
                0x00000000200000a4                SystemCoreClock
 .data.USBD_Interface_fops_FS
                0x00000000200000a8       0x14 ./bsp/evk/usb_device/app/usbd_cdc_if.o
                0x00000000200000a8                USBD_Interface_fops_FS
 .data.init_usb_user_callback
                0x00000000200000bc        0x4 ./bsp/evk/usb_device/app/usbd_cdc_if.o
 .data.rx_usb_user_callback
                0x00000000200000c0        0x4 ./bsp/evk/usb_device/app/usbd_cdc_if.o
 .data.tx_usb_user_callback
                0x00000000200000c4        0x4 ./bsp/evk/usb_device/app/usbd_cdc_if.o
 .data.CDC_Desc
                0x00000000200000c8       0x1c ./bsp/evk/usb_device/app/usbd_desc.o
                0x00000000200000c8                CDC_Desc
 .data.USBD_CDC_DeviceDesc
                0x00000000200000e4       0x12 ./bsp/evk/usb_device/app/usbd_desc.o
                0x00000000200000e4                USBD_CDC_DeviceDesc
 *fill*         0x00000000200000f6        0x2 
 .data.USBD_LangIDDesc
                0x00000000200000f8        0x4 ./bsp/evk/usb_device/app/usbd_desc.o
                0x00000000200000f8                USBD_LangIDDesc
 .data.USBD_StringSerial
                0x00000000200000fc       0x1a ./bsp/evk/usb_device/app/usbd_desc.o
                0x00000000200000fc                USBD_StringSerial
 *fill*         0x0000000020000116        0x2 
 .data.end_tx_cut_through_states
                0x0000000020000118        0xc ./core/wireless/protocol_stack/wps_l1.o
 .data.flush_fifo_states
                0x0000000020000124        0xc ./core/wireless/protocol_stack/wps_l1.o
 .data.get_event_states
                0x0000000020000130       0x10 ./core/wireless/protocol_stack/wps_l1.o
 .data.get_header_states
                0x0000000020000140        0xc ./core/wireless/protocol_stack/wps_l1.o
 .data.get_payload_cut_through_states
                0x000000002000014c       0x10 ./core/wireless/protocol_stack/wps_l1.o
 .data.get_payload_states
                0x000000002000015c        0x8 ./core/wireless/protocol_stack/wps_l1.o
 .data.new_frame_states
                0x0000000020000164        0x8 ./core/wireless/protocol_stack/wps_l1.o
 .data.prepare_l1_states
                0x000000002000016c        0x8 ./core/wireless/protocol_stack/wps_l1.o
 .data.prepare_radio_cut_through_states
                0x0000000020000174       0x24 ./core/wireless/protocol_stack/wps_l1.o
 .data.set_config_states
                0x0000000020000198        0x8 ./core/wireless/protocol_stack/wps_l1.o
 .data.set_header_states
                0x00000000200001a0        0xc ./core/wireless/protocol_stack/wps_l1.o
 .data.set_payload_cut_through_states
                0x00000000200001ac       0x10 ./core/wireless/protocol_stack/wps_l1.o
 .data.set_payload_states
                0x00000000200001bc        0x8 ./core/wireless/protocol_stack/wps_l1.o
 .data.syncing_states
                0x00000000200001c4       0x18 ./core/wireless/protocol_stack/wps_l1.o
 .data.wait_radio_states
                0x00000000200001dc       0x18 ./core/wireless/protocol_stack/wps_l1.o
 .data.wait_to_send_auto_reply
                0x00000000200001f4        0x8 ./core/wireless/protocol_stack/wps_l1.o
 .data.empty_sm
                0x00000000200001fc        0x4 ./core/wireless/protocol_stack/wps_l2.o
                0x00000000200001fc                empty_sm
 .data.prepare_frame_sm
                0x0000000020000200        0x8 ./core/wireless/protocol_stack/wps_l2.o
                0x0000000020000200                prepare_frame_sm
 .data.prepare_internal_frame_sm
                0x0000000020000208        0x8 ./core/wireless/protocol_stack/wps_l2.o
                0x0000000020000208                prepare_internal_frame_sm
 .data.rx_frame_miss_sm
                0x0000000020000210       0x10 ./core/wireless/protocol_stack/wps_l2.o
                0x0000000020000210                rx_frame_miss_sm
 .data.rx_frame_sm
                0x0000000020000220       0x10 ./core/wireless/protocol_stack/wps_l2.o
                0x0000000020000220                rx_frame_sm
 .data.schedule_sm
                0x0000000020000230        0x8 ./core/wireless/protocol_stack/wps_l2.o
                0x0000000020000230                schedule_sm
 .data.setup_link_sm
                0x0000000020000238       0x10 ./core/wireless/protocol_stack/wps_l2.o
                0x0000000020000238                setup_link_sm
 .data.tx_sm    0x0000000020000248        0xc ./core/wireless/protocol_stack/wps_l2.o
                0x0000000020000248                tx_sm
 .data.USBD_CDC
                0x0000000020000254       0x38 ./lib/third-party/stmicroelectronics/stm32_mw_usb_device/Class/CDC/Src/usbd_cdc.o
                0x0000000020000254                USBD_CDC
 .data.USBD_CDC_CfgFSDesc
                0x000000002000028c       0x43 ./lib/third-party/stmicroelectronics/stm32_mw_usb_device/Class/CDC/Src/usbd_cdc.o
 *fill*         0x00000000200002cf        0x1 
 .data.USBD_CDC_CfgHSDesc
                0x00000000200002d0       0x43 ./lib/third-party/stmicroelectronics/stm32_mw_usb_device/Class/CDC/Src/usbd_cdc.o
 *fill*         0x0000000020000313        0x1 
 .data.USBD_CDC_DeviceQualifierDesc
                0x0000000020000314        0xa ./lib/third-party/stmicroelectronics/stm32_mw_usb_device/Class/CDC/Src/usbd_cdc.o
 *fill*         0x000000002000031e        0x2 
 .data.USBD_CDC_OtherSpeedCfgDesc
                0x0000000020000320       0x43 ./lib/third-party/stmicroelectronics/stm32_mw_usb_device/Class/CDC/Src/usbd_cdc.o
 *fill*         0x0000000020000363        0x1 
 .data.uwTickFreq
                0x0000000020000364        0x4 ./lib/third-party/stmicroelectronics/stm32g4xx_hal_driver/Src/stm32g4xx_hal.o
                0x0000000020000364                uwTickFreq
 .data.uwTickPrio
                0x0000000020000368        0x4 ./lib/third-party/stmicroelectronics/stm32g4xx_hal_driver/Src/stm32g4xx_hal.o
                0x0000000020000368                uwTickPrio
 .data._impure_ptr
                0x000000002000036c        0x4 c:/st/stm32cubeide_1.7.0/stm32cubeide/plugins/com.st.stm32cube.ide.mcu.externaltools.gnu-tools-for-stm32.9-2020-q2-update.win32_2.0.0.202105311346/tools/bin/../lib/gcc/arm-none-eabi/9.3.1/../../../../arm-none-eabi/lib/thumb/v7e-m+fp/hard\libc_nano.a(lib_a-impure.o)
                0x000000002000036c                _impure_ptr
 .data.impure_data
                0x0000000020000370       0x60 c:/st/stm32cubeide_1.7.0/stm32cubeide/plugins/com.st.stm32cube.ide.mcu.externaltools.gnu-tools-for-stm32.9-2020-q2-update.win32_2.0.0.202105311346/tools/bin/../lib/gcc/arm-none-eabi/9.3.1/../../../../arm-none-eabi/lib/thumb/v7e-m+fp/hard\libc_nano.a(lib_a-impure.o)
 *(.RamFunc)
 *(.RamFunc*)
                0x00000000200003d0                . = ALIGN (0x4)
                0x00000000200003d0                _edata = .

.igot.plt       0x00000000200003d0        0x0 load address 0x000000000800dce8
 .igot.plt      0x00000000200003d0        0x0 c:/st/stm32cubeide_1.7.0/stm32cubeide/plugins/com.st.stm32cube.ide.mcu.externaltools.gnu-tools-for-stm32.9-2020-q2-update.win32_2.0.0.202105311346/tools/bin/../lib/gcc/arm-none-eabi/9.3.1/thumb/v7e-m+fp/hard/crtbegin.o
                0x00000000200003d0                . = ALIGN (0x4)

.bss            0x00000000200003d0     0x2f64 load address 0x000000000800dce8
                0x00000000200003d0                _sbss = .
                0x00000000200003d0                __bss_start__ = _sbss
 *(.bss)
 .bss           0x00000000200003d0       0x1c c:/st/stm32cubeide_1.7.0/stm32cubeide/plugins/com.st.stm32cube.ide.mcu.externaltools.gnu-tools-for-stm32.9-2020-q2-update.win32_2.0.0.202105311346/tools/bin/../lib/gcc/arm-none-eabi/9.3.1/thumb/v7e-m+fp/hard/crtbegin.o
 *(.bss*)
 .bss.callback  0x00000000200003ec       0x50 ./app/hello_world.o
 *fill*         0x000000002000043c        0x4 
 .bss.coordinator_conn
                0x0000000020000440      0x268 ./app/hello_world.o
 .bss.local_fifo
                0x00000000200006a8      0x460 ./app/hello_world.o
 .bss.local_frame
                0x0000000020000b08      0x500 ./app/hello_world.o
 .bss.node_conn
                0x0000000020001008      0x268 ./app/hello_world.o
 .bss.remote_fifo
                0x0000000020001270      0x460 ./app/hello_world.o
 .bss.remote_frame
                0x00000000200016d0      0x500 ./app/hello_world.o
 .bss.spi_rx_buffer
                0x0000000020001bd0       0xc8 ./app/hello_world.o
 .bss.spi_tx_buffer
                0x0000000020001c98       0xc8 ./app/hello_world.o
 .bss.timeslot  0x0000000020001d60       0xc0 ./app/hello_world.o
 .bss.wps       0x0000000020001e20      0x2b8 ./app/hello_world.o
 .bss.nested_critical
                0x00000000200020d8        0x4 ./bsp/evk/bsp_it.o
 *fill*         0x00000000200020dc        0x4 
 .bss.count.11124
                0x00000000200020e0        0x8 ./bsp/evk/bsp_timer.o
 .bss.last_time.11125
                0x00000000200020e8        0x4 ./bsp/evk/bsp_timer.o
 .bss.exp_uart_tx_callback
                0x00000000200020ec        0x4 ./bsp/evk/bsp_uart.o
                0x00000000200020ec                exp_uart_tx_callback
 .bss.stlink_uart_tx_callback
                0x00000000200020f0        0x4 ./bsp/evk/bsp_uart.o
                0x00000000200020f0                stlink_uart_tx_callback
 .bss.heap_end.7401
                0x00000000200020f4        0x4 ./bsp/evk/syscalls.o
 .bss.usb_state
                0x00000000200020f8        0x1 ./bsp/evk/usb_device/app/usbd_cdc_if.o
 *fill*         0x00000000200020f9        0x3 
 .bss.mem.11588
                0x00000000200020fc      0x220 ./bsp/evk/usb_device/target/usbd_conf.o
 *fill*         0x000000002000231c        0x4 
 .bss.unused_frame
                0x0000000020002320       0x30 ./core/wireless/protocol_stack/wps_l1.o
 .bss.unused_signal
                0x0000000020002350        0x1 ./core/wireless/protocol_stack/wps_l1.o
 *fill*         0x0000000020002351        0x3 
 .bss.error_handler
                0x0000000020002354        0x4 ./lib/spark/error/uwb_error.o
                0x0000000020002354                error_handler
 .bss.enter_critical
                0x0000000020002358        0x4 ./lib/spark/queue/circular_queue.o
 .bss.exit_critical
                0x000000002000235c        0x4 ./lib/spark/queue/circular_queue.o
 .bss.cfgidx.11511
                0x0000000020002360        0x1 ./lib/third-party/stmicroelectronics/stm32_mw_usb_device/Core/Src/usbd_ctlreq.o
 *fill*         0x0000000020002361        0x3 
 .bss.__malloc_free_list
                0x0000000020002364        0x4 c:/st/stm32cubeide_1.7.0/stm32cubeide/plugins/com.st.stm32cube.ide.mcu.externaltools.gnu-tools-for-stm32.9-2020-q2-update.win32_2.0.0.202105311346/tools/bin/../lib/gcc/arm-none-eabi/9.3.1/../../../../arm-none-eabi/lib/thumb/v7e-m+fp/hard\libc_nano.a(lib_a-nano-mallocr.o)
                0x0000000020002364                __malloc_free_list
 .bss.__malloc_sbrk_start
                0x0000000020002368        0x4 c:/st/stm32cubeide_1.7.0/stm32cubeide/plugins/com.st.stm32cube.ide.mcu.externaltools.gnu-tools-for-stm32.9-2020-q2-update.win32_2.0.0.202105311346/tools/bin/../lib/gcc/arm-none-eabi/9.3.1/../../../../arm-none-eabi/lib/thumb/v7e-m+fp/hard\libc_nano.a(lib_a-nano-mallocr.o)
                0x0000000020002368                __malloc_sbrk_start
 *(COMMON)
 COMMON         0x000000002000236c      0x274 ./bsp/evk/bsp_audio.o
                0x000000002000236c                hi2c1
                0x00000000200023b8                hsai_block_a1
                0x000000002000246c                hdma_sai1_a
                0x00000000200024cc                hdma_sai1_b
                0x000000002000252c                hsai_block_b1
 COMMON         0x00000000200025e0       0x50 ./bsp/evk/bsp_clock.o
                0x00000000200025e0                htim5
                0x000000002000262c                clk_freq
 COMMON         0x0000000020002630      0x124 ./bsp/evk/bsp_radio.o
                0x0000000020002630                hradio_dma_spi_tx
                0x0000000020002690                hradio_spi
                0x00000000200026f4                hradio_dma_spi_rx
 COMMON         0x0000000020002754       0xe4 ./bsp/evk/bsp_timer.o
                0x0000000020002754                htim3
                0x00000000200027a0                htim20
                0x00000000200027ec                htim6
 COMMON         0x0000000020002838      0x150 ./bsp/evk/bsp_uart.o
                0x0000000020002838                hdma_lpuart1_tx
                0x0000000020002898                hdma_lpuart1_rx
                0x00000000200028f8                hlp_uart
 COMMON         0x0000000020002988       0x4c ./bsp/evk/stm32g4xx_hal_timebase_tim.o
                0x0000000020002988                htim2
 COMMON         0x00000000200029d4      0x2d0 ./bsp/evk/usb_device/app/usb_device.o
                0x00000000200029d4                hUsbDeviceFS
 COMMON         0x0000000020002ca4       0x80 ./bsp/evk/usb_device/app/usbd_cdc_if.o
                0x0000000020002ca4                UserRxBufferFS
                0x0000000020002ce4                UserTxBufferFS
 COMMON         0x0000000020002d24      0x200 ./bsp/evk/usb_device/app/usbd_desc.o
                0x0000000020002d24                USBD_StrDesc
 COMMON         0x0000000020002f24      0x2f4 ./bsp/evk/usb_device/target/usbd_conf.o
                0x0000000020002f24                hpcd_USB_FS
 COMMON         0x0000000020003218      0x107 ./core/wireless/protocol_stack/wps_l2.o
                0x0000000020003218                empty_rdo
                0x0000000020003220                overrun_buffer
 *fill*         0x000000002000331f        0x1 
 COMMON         0x0000000020003320        0x4 ./lib/third-party/stmicroelectronics/stm32g4xx_hal_driver/Src/stm32g4xx_hal.o
                0x0000000020003320                uwTick
 COMMON         0x0000000020003324        0x9 c:/st/stm32cubeide_1.7.0/stm32cubeide/plugins/com.st.stm32cube.ide.mcu.externaltools.gnu-tools-for-stm32.9-2020-q2-update.win32_2.0.0.202105311346/tools/bin/../lib/gcc/arm-none-eabi/9.3.1/../../../../arm-none-eabi/lib/thumb/v7e-m+fp/hard\libc_nano.a(lib_a-lock.o)
                0x0000000020003324                __lock___atexit_recursive_mutex
                0x0000000020003325                __lock___arc4random_mutex
                0x0000000020003326                __lock___env_recursive_mutex
                0x0000000020003327                __lock___sinit_recursive_mutex
                0x0000000020003328                __lock___malloc_recursive_mutex
                0x0000000020003329                __lock___at_quick_exit_mutex
                0x000000002000332a                __lock___dd_hash_mutex
                0x000000002000332b                __lock___tz_mutex
                0x000000002000332c                __lock___sfp_recursive_mutex
 *fill*         0x000000002000332d        0x3 
 COMMON         0x0000000020003330        0x4 c:/st/stm32cubeide_1.7.0/stm32cubeide/plugins/com.st.stm32cube.ide.mcu.externaltools.gnu-tools-for-stm32.9-2020-q2-update.win32_2.0.0.202105311346/tools/bin/../lib/gcc/arm-none-eabi/9.3.1/../../../../arm-none-eabi/lib/thumb/v7e-m+fp/hard\libc_nano.a(lib_a-reent.o)
                0x0000000020003330                errno
                0x0000000020003334                . = ALIGN (0x4)
                0x0000000020003334                _ebss = .
                0x0000000020003334                __bss_end__ = _ebss

._user_heap_stack
                0x0000000020003334      0x604 load address 0x000000000800dce8
                0x0000000020003338                . = ALIGN (0x8)
 *fill*         0x0000000020003334        0x4 
                0x0000000020003338                PROVIDE (end = .)
                [!provide]                        PROVIDE (_end = .)
                0x0000000020003538                . = (. + _Min_Heap_Size)
 *fill*         0x0000000020003338      0x200 
                0x0000000020003938                . = (. + _Min_Stack_Size)
 *fill*         0x0000000020003538      0x400 
                0x0000000020003938                . = ALIGN (0x8)

/DISCARD/
 libc.a(*)
 libm.a(*)
 libgcc.a(*)

.ARM.attributes
                0x0000000000000000       0x30
 *(.ARM.attributes)
 .ARM.attributes
